{
  "abi": [
    {
      "inputs": [
        {
          "internalType": "address",
          "name": "implementation",
          "type": "address"
        },
        {
          "internalType": "address",
          "name": "hookProtocol",
          "type": "address"
        },
        {
          "internalType": "bytes32",
          "name": "upgraderRole",
          "type": "bytes32"
        }
      ],
      "stateMutability": "nonpayable",
      "type": "constructor"
    },
    {
      "anonymous": false,
      "inputs": [
        {
          "indexed": true,
          "internalType": "address",
          "name": "implementation",
          "type": "address"
        }
      ],
      "name": "Upgraded",
      "type": "event"
    },
    {
      "inputs": [],
      "name": "ADMIN_ROLE",
      "outputs": [
        {
          "internalType": "bytes32",
          "name": "",
          "type": "bytes32"
        }
      ],
      "stateMutability": "view",
      "type": "function"
    },
    {
      "inputs": [],
      "name": "ALLOWLISTER_ROLE",
      "outputs": [
        {
          "internalType": "bytes32",
          "name": "",
          "type": "bytes32"
        }
      ],
      "stateMutability": "view",
      "type": "function"
    },
    {
      "inputs": [],
      "name": "PAUSER_ROLE",
      "outputs": [
        {
          "internalType": "bytes32",
          "name": "",
          "type": "bytes32"
        }
      ],
      "stateMutability": "view",
      "type": "function"
    },
    {
      "inputs": [],
      "name": "VAULT_UPGRADER",
      "outputs": [
        {
          "internalType": "bytes32",
          "name": "",
          "type": "bytes32"
        }
      ],
      "stateMutability": "view",
      "type": "function"
    },
    {
      "inputs": [],
      "name": "implementation",
      "outputs": [
        {
          "internalType": "address",
          "name": "",
          "type": "address"
        }
      ],
      "stateMutability": "view",
      "type": "function"
    },
    {
      "inputs": [
        {
          "internalType": "address",
          "name": "newImplementation",
          "type": "address"
        }
      ],
      "name": "upgradeTo",
      "outputs": [],
      "stateMutability": "nonpayable",
      "type": "function"
    }
  ],
  "bytecode": {
    "object": "0x608060405234801561001057600080fd5b5060405161053f38038061053f83398101604081905261002f9161013f565b82828261003b83610069565b600180546001600160a01b0319166001600160a01b0393909316929092179091556002555061017b92505050565b61007c8161011460201b6102891760201c565b6100f25760405162461bcd60e51b815260206004820152603360248201527f5570677261646561626c65426561636f6e3a20696d706c656d656e746174696f60448201527f6e206973206e6f74206120636f6e747261637400000000000000000000000000606482015260840160405180910390fd5b600080546001600160a01b0319166001600160a01b0392909216919091179055565b6001600160a01b03163b151590565b80516001600160a01b038116811461013a57600080fd5b919050565b60008060006060848603121561015457600080fd5b61015d84610123565b925061016b60208501610123565b9150604084015190509250925092565b6103b58061018a6000396000f3fe608060405234801561001057600080fd5b50600436106100625760003560e01c80630d5e67ec146100675780633659cfe6146100a15780635c60da1b146100b657806375b238fc146100d1578063acca6838146100f8578063e63ab1e91461011f575b600080fd5b61008e7f945438d5e976f17e0d00cb2997cf8951c55e12977d86234d6738d1865abe006e81565b6040519081526020015b60405180910390f35b6100b46100af36600461032d565b610146565b005b6000546040516001600160a01b039091168152602001610098565b61008e7fa49807205ce4d355092ef5a8a18f56e8913cf4a201fbe287825b095693c2177581565b61008e7ffba4f6dd992a27a814ee807eb2f9332d6d01312041726966a540cf4a4a89155381565b61008e7f65d7a28e3265b37a6474929f336521b332c1681b933f6cb9f3376673440d862a81565b600154600254604051632474521560e21b815260048101919091523360248201526001600160a01b03909116906391d1485490604401602060405180830381865afa158015610199573d6000803e3d6000fd5b505050506040513d601f19601f820116820180604052508101906101bd919061035d565b6102495760405162461bcd60e51b815260206004820152604c60248201527f486f6f6b5570677261646561626c65426561636f6e3a2063616c6c657220646f60448201527f6573206e6f74206861766520746865207265717569726564207570677261646560648201526b207065726d697373696f6e7360a01b608482015260a4015b60405180910390fd5b61025281610298565b6040516001600160a01b038216907fbc7cd75a20ee27fd9adebab32041f755214dbc6bffa90cc0225b39da2e5c2d3b90600090a250565b6001600160a01b03163b151590565b6001600160a01b0381163b61030b5760405162461bcd60e51b815260206004820152603360248201527f5570677261646561626c65426561636f6e3a20696d706c656d656e746174696f6044820152721b881a5cc81b9bdd08184818dbdb9d1c9858dd606a1b6064820152608401610240565b600080546001600160a01b0319166001600160a01b0392909216919091179055565b60006020828403121561033f57600080fd5b81356001600160a01b038116811461035657600080fd5b9392505050565b60006020828403121561036f57600080fd5b8151801515811461035657600080fdfea2646970667358221220507849fe8edfdeb09024c96d33edd2343779480590cd19eff1e1e3f0812cd39364736f6c634300080a0033",
    "linkReferences": {}
  }
}