{
  "address": "0xCC2bcBad04bbAfbe18353fc9BEE05830fA00e55c",
  "abi": [
    {
      "inputs": [],
      "stateMutability": "nonpayable",
      "type": "constructor"
    },
    {
      "anonymous": false,
      "inputs": [
        {
          "indexed": true,
          "internalType": "address",
          "name": "owner",
          "type": "address"
        },
        {
          "indexed": true,
          "internalType": "address",
          "name": "approved",
          "type": "address"
        },
        {
          "indexed": true,
          "internalType": "uint256",
          "name": "tokenId",
          "type": "uint256"
        }
      ],
      "name": "Approval",
      "type": "event"
    },
    {
      "anonymous": false,
      "inputs": [
        {
          "indexed": true,
          "internalType": "address",
          "name": "owner",
          "type": "address"
        },
        {
          "indexed": true,
          "internalType": "address",
          "name": "operator",
          "type": "address"
        },
        {
          "indexed": false,
          "internalType": "bool",
          "name": "approved",
          "type": "bool"
        }
      ],
      "name": "ApprovalForAll",
      "type": "event"
    },
    {
      "anonymous": false,
      "inputs": [
        {
          "indexed": false,
          "internalType": "uint256",
          "name": "optionId",
          "type": "uint256"
        },
        {
          "indexed": false,
          "internalType": "uint256",
          "name": "bidAmount",
          "type": "uint256"
        },
        {
          "indexed": false,
          "internalType": "address",
          "name": "bidder",
          "type": "address"
        }
      ],
      "name": "Bid",
      "type": "event"
    },
    {
      "anonymous": false,
      "inputs": [
        {
          "indexed": false,
          "internalType": "address",
          "name": "writer",
          "type": "address"
        },
        {
          "indexed": false,
          "internalType": "address",
          "name": "vaultAddress",
          "type": "address"
        },
        {
          "indexed": false,
          "internalType": "uint256",
          "name": "assetId",
          "type": "uint256"
        },
        {
          "indexed": false,
          "internalType": "uint256",
          "name": "optionId",
          "type": "uint256"
        },
        {
          "indexed": false,
          "internalType": "uint256",
          "name": "strikePrice",
          "type": "uint256"
        },
        {
          "indexed": false,
          "internalType": "uint256",
          "name": "expiration",
          "type": "uint256"
        }
      ],
      "name": "CallCreated",
      "type": "event"
    },
    {
      "anonymous": false,
      "inputs": [
        {
          "indexed": false,
          "internalType": "uint256",
          "name": "optionId",
          "type": "uint256"
        }
      ],
      "name": "CallReclaimed",
      "type": "event"
    },
    {
      "anonymous": false,
      "inputs": [
        {
          "indexed": false,
          "internalType": "uint256",
          "name": "optionId",
          "type": "uint256"
        }
      ],
      "name": "CallSettled",
      "type": "event"
    },
    {
      "anonymous": false,
      "inputs": [
        {
          "indexed": false,
          "internalType": "uint256",
          "name": "optionId",
          "type": "uint256"
        }
      ],
      "name": "ExpiredCallBurned",
      "type": "event"
    },
    {
      "anonymous": false,
      "inputs": [
        {
          "indexed": false,
          "internalType": "uint8",
          "name": "version",
          "type": "uint8"
        }
      ],
      "name": "Initialized",
      "type": "event"
    },
    {
      "anonymous": false,
      "inputs": [
        {
          "indexed": false,
          "internalType": "bool",
          "name": "paused",
          "type": "bool"
        }
      ],
      "name": "MarketPauseUpdated",
      "type": "event"
    },
    {
      "anonymous": false,
      "inputs": [
        {
          "indexed": false,
          "internalType": "uint256",
          "name": "bidIncrementBips",
          "type": "uint256"
        }
      ],
      "name": "MinBidIncrementUpdated",
      "type": "event"
    },
    {
      "anonymous": false,
      "inputs": [
        {
          "indexed": false,
          "internalType": "uint256",
          "name": "optionDuration",
          "type": "uint256"
        }
      ],
      "name": "MinOptionDurationUpdated",
      "type": "event"
    },
    {
      "anonymous": false,
      "inputs": [
        {
          "indexed": false,
          "internalType": "uint256",
          "name": "startOffset",
          "type": "uint256"
        }
      ],
      "name": "SettlementAuctionStartOffsetUpdated",
      "type": "event"
    },
    {
      "anonymous": false,
      "inputs": [
        {
          "indexed": true,
          "internalType": "address",
          "name": "from",
          "type": "address"
        },
        {
          "indexed": true,
          "internalType": "address",
          "name": "to",
          "type": "address"
        },
        {
          "indexed": true,
          "internalType": "uint256",
          "name": "tokenId",
          "type": "uint256"
        }
      ],
      "name": "Transfer",
      "type": "event"
    },
    {
      "inputs": [],
      "name": "ADMIN_ROLE",
      "outputs": [
        {
          "internalType": "bytes32",
          "name": "",
          "type": "bytes32"
        }
      ],
      "stateMutability": "view",
      "type": "function"
    },
    {
      "inputs": [],
      "name": "ALLOWLISTER_ROLE",
      "outputs": [
        {
          "internalType": "bytes32",
          "name": "",
          "type": "bytes32"
        }
      ],
      "stateMutability": "view",
      "type": "function"
    },
    {
      "inputs": [],
      "name": "CALL_UPGRADER",
      "outputs": [
        {
          "internalType": "bytes32",
          "name": "",
          "type": "bytes32"
        }
      ],
      "stateMutability": "view",
      "type": "function"
    },
    {
      "inputs": [],
      "name": "COLLECTION_CONF",
      "outputs": [
        {
          "internalType": "bytes32",
          "name": "",
          "type": "bytes32"
        }
      ],
      "stateMutability": "view",
      "type": "function"
    },
    {
      "inputs": [],
      "name": "MARKET_CONF",
      "outputs": [
        {
          "internalType": "bytes32",
          "name": "",
          "type": "bytes32"
        }
      ],
      "stateMutability": "view",
      "type": "function"
    },
    {
      "inputs": [],
      "name": "PAUSER_ROLE",
      "outputs": [
        {
          "internalType": "bytes32",
          "name": "",
          "type": "bytes32"
        }
      ],
      "stateMutability": "view",
      "type": "function"
    },
    {
      "inputs": [],
      "name": "VAULT_UPGRADER",
      "outputs": [
        {
          "internalType": "bytes32",
          "name": "",
          "type": "bytes32"
        }
      ],
      "stateMutability": "view",
      "type": "function"
    },
    {
      "inputs": [],
      "name": "_preApprovedMarketplace",
      "outputs": [
        {
          "internalType": "address",
          "name": "",
          "type": "address"
        }
      ],
      "stateMutability": "view",
      "type": "function"
    },
    {
      "inputs": [],
      "name": "allowedUnderlyingAddress",
      "outputs": [
        {
          "internalType": "address",
          "name": "",
          "type": "address"
        }
      ],
      "stateMutability": "view",
      "type": "function"
    },
    {
      "inputs": [
        {
          "internalType": "address",
          "name": "to",
          "type": "address"
        },
        {
          "internalType": "uint256",
          "name": "tokenId",
          "type": "uint256"
        }
      ],
      "name": "approve",
      "outputs": [],
      "stateMutability": "nonpayable",
      "type": "function"
    },
    {
      "inputs": [
        {
          "internalType": "address",
          "name": "owner",
          "type": "address"
        }
      ],
      "name": "balanceOf",
      "outputs": [
        {
          "internalType": "uint256",
          "name": "",
          "type": "uint256"
        }
      ],
      "stateMutability": "view",
      "type": "function"
    },
    {
      "inputs": [
        {
          "internalType": "uint256",
          "name": "optionId",
          "type": "uint256"
        }
      ],
      "name": "bid",
      "outputs": [],
      "stateMutability": "payable",
      "type": "function"
    },
    {
      "inputs": [
        {
          "internalType": "uint256",
          "name": "tokenId",
          "type": "uint256"
        }
      ],
      "name": "burn",
      "outputs": [],
      "stateMutability": "nonpayable",
      "type": "function"
    },
    {
      "inputs": [
        {
          "internalType": "uint256",
          "name": "optionId",
          "type": "uint256"
        }
      ],
      "name": "burnExpiredOption",
      "outputs": [],
      "stateMutability": "nonpayable",
      "type": "function"
    },
    {
      "inputs": [
        {
          "internalType": "uint256",
          "name": "optionId",
          "type": "uint256"
        }
      ],
      "name": "contractUri",
      "outputs": [
        {
          "internalType": "string",
          "name": "",
          "type": "string"
        }
      ],
      "stateMutability": "view",
      "type": "function"
    },
    {
      "inputs": [
        {
          "internalType": "uint256",
          "name": "optionId",
          "type": "uint256"
        }
      ],
      "name": "currentBid",
      "outputs": [
        {
          "internalType": "uint128",
          "name": "",
          "type": "uint128"
        }
      ],
      "stateMutability": "view",
      "type": "function"
    },
    {
      "inputs": [
        {
          "internalType": "uint256",
          "name": "optionId",
          "type": "uint256"
        }
      ],
      "name": "currentBidder",
      "outputs": [
        {
          "internalType": "address",
          "name": "",
          "type": "address"
        }
      ],
      "stateMutability": "view",
      "type": "function"
    },
    {
      "inputs": [
        {
          "internalType": "uint256",
          "name": "tokenId",
          "type": "uint256"
        }
      ],
      "name": "getApproved",
      "outputs": [
        {
          "internalType": "address",
          "name": "",
          "type": "address"
        }
      ],
      "stateMutability": "view",
      "type": "function"
    },
    {
      "inputs": [
        {
          "internalType": "uint256",
          "name": "optionId",
          "type": "uint256"
        }
      ],
      "name": "getAssetId",
      "outputs": [
        {
          "internalType": "uint32",
          "name": "",
          "type": "uint32"
        }
      ],
      "stateMutability": "view",
      "type": "function"
    },
    {
      "inputs": [
        {
          "internalType": "uint256",
          "name": "optionId",
          "type": "uint256"
        }
      ],
      "name": "getExpiration",
      "outputs": [
        {
          "internalType": "uint256",
          "name": "",
          "type": "uint256"
        }
      ],
      "stateMutability": "view",
      "type": "function"
    },
    {
      "inputs": [
        {
          "internalType": "uint256",
          "name": "optionId",
          "type": "uint256"
        }
      ],
      "name": "getStrikePrice",
      "outputs": [
        {
          "internalType": "uint256",
          "name": "",
          "type": "uint256"
        }
      ],
      "stateMutability": "view",
      "type": "function"
    },
    {
      "inputs": [
        {
          "internalType": "uint256",
          "name": "optionId",
          "type": "uint256"
        }
      ],
      "name": "getTransferCount",
      "outputs": [
        {
          "internalType": "uint256",
          "name": "",
          "type": "uint256"
        }
      ],
      "stateMutability": "view",
      "type": "function"
    },
    {
      "inputs": [
        {
          "internalType": "uint256",
          "name": "optionId",
          "type": "uint256"
        }
      ],
      "name": "getVaultAddress",
      "outputs": [
        {
          "internalType": "address",
          "name": "",
          "type": "address"
        }
      ],
      "stateMutability": "view",
      "type": "function"
    },
    {
      "inputs": [
        {
          "internalType": "address",
          "name": "protocol",
          "type": "address"
        },
        {
          "internalType": "address",
          "name": "nftContract",
          "type": "address"
        },
        {
          "internalType": "address",
          "name": "hookVaultFactory",
          "type": "address"
        },
        {
          "internalType": "address",
          "name": "preApprovedMarketplace",
          "type": "address"
        }
      ],
      "name": "initialize",
      "outputs": [],
      "stateMutability": "nonpayable",
      "type": "function"
    },
    {
      "inputs": [
        {
          "internalType": "address",
          "name": "owner",
          "type": "address"
        },
        {
          "internalType": "address",
          "name": "operator",
          "type": "address"
        }
      ],
      "name": "isApprovedForAll",
      "outputs": [
        {
          "internalType": "bool",
          "name": "",
          "type": "bool"
        }
      ],
      "stateMutability": "view",
      "type": "function"
    },
    {
      "inputs": [],
      "name": "marketPaused",
      "outputs": [
        {
          "internalType": "bool",
          "name": "",
          "type": "bool"
        }
      ],
      "stateMutability": "view",
      "type": "function"
    },
    {
      "inputs": [],
      "name": "minBidIncrementBips",
      "outputs": [
        {
          "internalType": "uint256",
          "name": "",
          "type": "uint256"
        }
      ],
      "stateMutability": "view",
      "type": "function"
    },
    {
      "inputs": [],
      "name": "minimumOptionDuration",
      "outputs": [
        {
          "internalType": "uint256",
          "name": "",
          "type": "uint256"
        }
      ],
      "stateMutability": "view",
      "type": "function"
    },
    {
      "inputs": [
        {
          "internalType": "address",
          "name": "vaultAddress",
          "type": "address"
        },
        {
          "internalType": "uint32",
          "name": "assetId",
          "type": "uint32"
        },
        {
          "internalType": "uint128",
          "name": "strikePrice",
          "type": "uint128"
        },
        {
          "internalType": "uint32",
          "name": "expirationTime",
          "type": "uint32"
        }
      ],
      "name": "mintWithEntitledVault",
      "outputs": [
        {
          "internalType": "uint256",
          "name": "",
          "type": "uint256"
        }
      ],
      "stateMutability": "nonpayable",
      "type": "function"
    },
    {
      "inputs": [
        {
          "internalType": "address",
          "name": "tokenAddress",
          "type": "address"
        },
        {
          "internalType": "uint256",
          "name": "tokenId",
          "type": "uint256"
        },
        {
          "internalType": "uint128",
          "name": "strikePrice",
          "type": "uint128"
        },
        {
          "internalType": "uint32",
          "name": "expirationTime",
          "type": "uint32"
        }
      ],
      "name": "mintWithErc721",
      "outputs": [
        {
          "internalType": "uint256",
          "name": "",
          "type": "uint256"
        }
      ],
      "stateMutability": "nonpayable",
      "type": "function"
    },
    {
      "inputs": [
        {
          "internalType": "address",
          "name": "vaultAddress",
          "type": "address"
        },
        {
          "internalType": "uint32",
          "name": "assetId",
          "type": "uint32"
        },
        {
          "internalType": "uint128",
          "name": "strikePrice",
          "type": "uint128"
        },
        {
          "internalType": "uint32",
          "name": "expirationTime",
          "type": "uint32"
        },
        {
          "components": [
            {
              "internalType": "enum Signatures.SignatureType",
              "name": "signatureType",
              "type": "uint8"
            },
            {
              "internalType": "uint8",
              "name": "v",
              "type": "uint8"
            },
            {
              "internalType": "bytes32",
              "name": "r",
              "type": "bytes32"
            },
            {
              "internalType": "bytes32",
              "name": "s",
              "type": "bytes32"
            }
          ],
          "internalType": "struct Signatures.Signature",
          "name": "signature",
          "type": "tuple"
        }
      ],
      "name": "mintWithVault",
      "outputs": [
        {
          "internalType": "uint256",
          "name": "",
          "type": "uint256"
        }
      ],
      "stateMutability": "nonpayable",
      "type": "function"
    },
    {
      "inputs": [],
      "name": "name",
      "outputs": [
        {
          "internalType": "string",
          "name": "",
          "type": "string"
        }
      ],
      "stateMutability": "view",
      "type": "function"
    },
    {
      "inputs": [
        {
          "internalType": "uint256",
          "name": "",
          "type": "uint256"
        }
      ],
      "name": "optionParams",
      "outputs": [
        {
          "internalType": "address",
          "name": "writer",
          "type": "address"
        },
        {
          "internalType": "uint32",
          "name": "expiration",
          "type": "uint32"
        },
        {
          "internalType": "uint32",
          "name": "assetId",
          "type": "uint32"
        },
        {
          "internalType": "address",
          "name": "vaultAddress",
          "type": "address"
        },
        {
          "internalType": "uint128",
          "name": "strike",
          "type": "uint128"
        },
        {
          "internalType": "uint128",
          "name": "bid",
          "type": "uint128"
        },
        {
          "internalType": "address",
          "name": "highBidder",
          "type": "address"
        },
        {
          "internalType": "bool",
          "name": "settled",
          "type": "bool"
        }
      ],
      "stateMutability": "view",
      "type": "function"
    },
    {
      "inputs": [
        {
          "internalType": "uint256",
          "name": "tokenId",
          "type": "uint256"
        }
      ],
      "name": "ownerOf",
      "outputs": [
        {
          "internalType": "address",
          "name": "",
          "type": "address"
        }
      ],
      "stateMutability": "view",
      "type": "function"
    },
    {
      "inputs": [
        {
          "internalType": "uint256",
          "name": "optionId",
          "type": "uint256"
        },
        {
          "internalType": "bool",
          "name": "returnNft",
          "type": "bool"
        }
      ],
      "name": "reclaimAsset",
      "outputs": [],
      "stateMutability": "nonpayable",
      "type": "function"
    },
    {
      "inputs": [
        {
          "internalType": "address",
          "name": "from",
          "type": "address"
        },
        {
          "internalType": "address",
          "name": "to",
          "type": "address"
        },
        {
          "internalType": "uint256",
          "name": "tokenId",
          "type": "uint256"
        }
      ],
      "name": "safeTransferFrom",
      "outputs": [],
      "stateMutability": "nonpayable",
      "type": "function"
    },
    {
      "inputs": [
        {
          "internalType": "address",
          "name": "from",
          "type": "address"
        },
        {
          "internalType": "address",
          "name": "to",
          "type": "address"
        },
        {
          "internalType": "uint256",
          "name": "tokenId",
          "type": "uint256"
        },
        {
          "internalType": "bytes",
          "name": "_data",
          "type": "bytes"
        }
      ],
      "name": "safeTransferFrom",
      "outputs": [],
      "stateMutability": "nonpayable",
      "type": "function"
    },
    {
      "inputs": [
        {
          "internalType": "address",
          "name": "operator",
          "type": "address"
        },
        {
          "internalType": "bool",
          "name": "approved",
          "type": "bool"
        }
      ],
      "name": "setApprovalForAll",
      "outputs": [],
      "stateMutability": "nonpayable",
      "type": "function"
    },
    {
      "inputs": [
        {
          "internalType": "uint256",
          "name": "newBidIncrement",
          "type": "uint256"
        }
      ],
      "name": "setBidIncrement",
      "outputs": [],
      "stateMutability": "nonpayable",
      "type": "function"
    },
    {
      "inputs": [
        {
          "internalType": "bool",
          "name": "paused",
          "type": "bool"
        }
      ],
      "name": "setMarketPaused",
      "outputs": [],
      "stateMutability": "nonpayable",
      "type": "function"
    },
    {
      "inputs": [
        {
          "internalType": "uint256",
          "name": "newMinDuration",
          "type": "uint256"
        }
      ],
      "name": "setMinOptionDuration",
      "outputs": [],
      "stateMutability": "nonpayable",
      "type": "function"
    },
    {
      "inputs": [
        {
          "internalType": "uint256",
          "name": "newSettlementStartOffset",
          "type": "uint256"
        }
      ],
      "name": "setSettlementAuctionStartOffset",
      "outputs": [],
      "stateMutability": "nonpayable",
      "type": "function"
    },
    {
      "inputs": [
        {
          "internalType": "uint256",
          "name": "optionId",
          "type": "uint256"
        },
        {
          "internalType": "bool",
          "name": "returnNft",
          "type": "bool"
        }
      ],
      "name": "settleOption",
      "outputs": [],
      "stateMutability": "nonpayable",
      "type": "function"
    },
    {
      "inputs": [],
      "name": "settlementAuctionStartOffset",
      "outputs": [
        {
          "internalType": "uint256",
          "name": "",
          "type": "uint256"
        }
      ],
      "stateMutability": "view",
      "type": "function"
    },
    {
      "inputs": [
        {
          "internalType": "bytes4",
          "name": "interfaceId",
          "type": "bytes4"
        }
      ],
      "name": "supportsInterface",
      "outputs": [
        {
          "internalType": "bool",
          "name": "",
          "type": "bool"
        }
      ],
      "stateMutability": "view",
      "type": "function"
    },
    {
      "inputs": [],
      "name": "symbol",
      "outputs": [
        {
          "internalType": "string",
          "name": "",
          "type": "string"
        }
      ],
      "stateMutability": "view",
      "type": "function"
    },
    {
      "inputs": [
        {
          "internalType": "uint256",
          "name": "tokenId",
          "type": "uint256"
        }
      ],
      "name": "tokenURI",
      "outputs": [
        {
          "internalType": "string",
          "name": "",
          "type": "string"
        }
      ],
      "stateMutability": "view",
      "type": "function"
    },
    {
      "inputs": [
        {
          "internalType": "address",
          "name": "from",
          "type": "address"
        },
        {
          "internalType": "address",
          "name": "to",
          "type": "address"
        },
        {
          "internalType": "uint256",
          "name": "tokenId",
          "type": "uint256"
        }
      ],
      "name": "transferFrom",
      "outputs": [],
      "stateMutability": "nonpayable",
      "type": "function"
    },
    {
      "inputs": [],
      "name": "weth",
      "outputs": [
        {
          "internalType": "address",
          "name": "",
          "type": "address"
        }
      ],
      "stateMutability": "view",
      "type": "function"
    }
  ],
  "transactionHash": "0x36dd96b16637b90ea8f8c5743c8865e751f2584ab78c4e3abe7e461be533196d",
  "args": [],
  "numDeployments": 1,
  "solcInputHash": "f9079719c55ec367359fccdad37d4c49",
  "bytecode": "0x6080604052600780546001600160a01b03191690553480156200002157600080fd5b5060408051808201909152600481526310d85b1b60e21b60208201526200004881620000a3565b60405180604001604052806004815260200163125394d560e21b81525081600090805190602001906200007d929190620000ce565b50805162000093906001906020840190620000ce565b5050600160085550620002189050565b606081604051602001620000b8919062000174565b6040516020818303038152906040529050919050565b828054620000dc90620001db565b90600052602060002090601f0160209004810192826200010057600085556200014b565b82601f106200011b57805160ff19168380011785556200014b565b828001600101855582156200014b579182015b828111156200014b5782518255916020019190600101906200012e565b50620001599291506200015d565b5090565b5b808211156200015957600081556001016200015e565b6402437b7b5960dd1b81526000825160005b81811015620001a5576020818601810151600586840101520162000186565b81811115620001b8576000600583860101525b506a081a5b9cdd1c9d5b595b9d60aa1b6005939091019283015250601001919050565b600181811c90821680620001f057607f821691505b602082108114156200021257634e487b7160e01b600052602260045260246000fd5b50919050565b615a6e80620002286000396000f3fe6080604052600436106102ad5760003560e01c8063829b584711610175578063cc067525116100dc578063e985e9c511610095578063ef17ac7f1161006f578063ef17ac7f14610a67578063f23c19e814610a87578063f8c8765e14610aa9578063ff58aaaa14610ac957600080fd5b8063e985e9c514610a07578063e9d69ff214610a27578063ed059f2714610a4757600080fd5b8063cc06752514610860578063cd52d15114610880578063d365016c14610964578063dee92f5d14610984578063e63ab1e91461099a578063e6bd26a2146109ce57600080fd5b8063a34fd3fb1161012e578063a34fd3fb14610764578063acca683814610798578063b4985c94146107cc578063b88d4fde146107ec578063bb31173a1461080c578063c87b56dd1461084057600080fd5b8063829b58471461067c5780638a633a0c1461069c57806390f0252a146106bc57806395d89b41146106f5578063a05b775f1461070a578063a22cb4651461074457600080fd5b806342842e0e1161021957806367207872116101d257806367207872146105b257806370a08231146105c857806375b238fc146105e85780637b850da91461061c5780637f1a48851461063c5780637fb6afd41461065c57600080fd5b806342842e0e146104d057806342966c68146104f0578063439bb40f14610510578063454a2ab31461053057806361f547fd146105435780636352211e1461059257600080fd5b806323b872dd1161026b57806323b872dd146103c557806323db6d02146103e557806332ab2f841461041e5780633a283bd21461043e5780633c7cfe34146104585780633fc8cef3146104b057600080fd5b80623a4a0f146102b257806301ffc9a7146102e557806306fdde0314610315578063081812fc14610337578063095ea7b31461036f5780630d5e67ec14610391575b600080fd5b3480156102be57600080fd5b506102d26102cd366004614657565b610adf565b6040519081526020015b60405180910390f35b3480156102f157600080fd5b50610305610300366004614686565b610af5565b60405190151581526020016102dc565b34801561032157600080fd5b5061032a610b45565b6040516102dc91906146fb565b34801561034357600080fd5b50610357610352366004614657565b610bd7565b6040516001600160a01b0390911681526020016102dc565b34801561037b57600080fd5b5061038f61038a366004614723565b610c71565b005b34801561039d57600080fd5b506102d27f945438d5e976f17e0d00cb2997cf8951c55e12977d86234d6738d1865abe006e81565b3480156103d157600080fd5b5061038f6103e036600461474f565b610d87565b3480156103f157600080fd5b506102d2610400366004614657565b6000908152600d60205260409020600201546001600160801b031690565b34801561042a57600080fd5b5061038f610439366004614657565b610db9565b34801561044a57600080fd5b506013546103059060ff1681565b34801561046457600080fd5b50610498610473366004614657565b6000908152600d6020526040902060020154600160801b90046001600160801b031690565b6040516001600160801b0390911681526020016102dc565b3480156104bc57600080fd5b50600f54610357906001600160a01b031681565b3480156104dc57600080fd5b5061038f6104eb36600461474f565b610e91565b3480156104fc57600080fd5b5061038f61050b366004614657565b610eac565b34801561051c57600080fd5b506102d261052b3660046147b9565b610f26565b61038f61053e366004614657565b611249565b34801561054f57600080fd5b5061057d61055e366004614657565b6000908152600d6020526040902054600160c01b900463ffffffff1690565b60405163ffffffff90911681526020016102dc565b34801561059e57600080fd5b506103576105ad366004614657565b6116eb565b3480156105be57600080fd5b506102d260105481565b3480156105d457600080fd5b506102d26105e3366004614831565b611762565b3480156105f457600080fd5b506102d27fa49807205ce4d355092ef5a8a18f56e8913cf4a201fbe287825b095693c2177581565b34801561062857600080fd5b5061038f610637366004614657565b6117e9565b34801561064857600080fd5b50600754610357906001600160a01b031681565b34801561066857600080fd5b5061038f61067736600461485c565b6118ba565b34801561068857600080fd5b5061032a610697366004614657565b611d68565b3480156106a857600080fd5b5061038f6106b736600461485c565b611da3565b3480156106c857600080fd5b506103576106d7366004614657565b6000908152600d60205260409020600301546001600160a01b031690565b34801561070157600080fd5b5061032a612062565b34801561071657600080fd5b506102d2610725366004614657565b6000908152600d6020526040902054600160a01b900463ffffffff1690565b34801561075057600080fd5b5061038f61075f36600461488c565b612071565b34801561077057600080fd5b506102d27f657f307dfada290937bc821a25e2da10feb07809ba9560b816723e8b47fe379a81565b3480156107a457600080fd5b506102d27ffba4f6dd992a27a814ee807eb2f9332d6d01312041726966a540cf4a4a89155381565b3480156107d857600080fd5b50600e54610357906001600160a01b031681565b3480156107f857600080fd5b5061038f610807366004614929565b612080565b34801561081857600080fd5b506102d27ff7e0191f3657a6da7569740b1cdeac8c3425bcbfd257d4fdc6d2241598f4de8b81565b34801561084c57600080fd5b5061032a61085b366004614657565b6120b8565b34801561086c57600080fd5b506102d261087b3660046149d8565b6123b8565b34801561088c57600080fd5b5061090561089b366004614657565b600d6020526000908152604090208054600182015460028301546003909301546001600160a01b0380841694600160a01b80860463ffffffff90811696600160c01b900416948316936001600160801b0380841694600160801b9094041692811691900460ff1688565b604080516001600160a01b03998a16815263ffffffff9889166020820152969097169686019690965292861660608501526001600160801b0391821660808501521660a083015290921660c0830152151560e0820152610100016102dc565b34801561097057600080fd5b506102d261097f366004614a32565b612826565b34801561099057600080fd5b506102d260115481565b3480156109a657600080fd5b506102d27f65d7a28e3265b37a6474929f336521b332c1681b933f6cb9f3376673440d862a81565b3480156109da57600080fd5b506103576109e9366004614657565b6000908152600d60205260409020600101546001600160a01b031690565b348015610a1357600080fd5b50610305610a22366004614a68565b612e3c565b348015610a3357600080fd5b5061038f610a42366004614657565b612e87565b348015610a5357600080fd5b5061038f610a62366004614657565b6130eb565b348015610a7357600080fd5b5061038f610a82366004614a96565b61323e565b348015610a9357600080fd5b506102d2600080516020615a1983398151915281565b348015610ab557600080fd5b5061038f610ac4366004614ab3565b61331b565b348015610ad557600080fd5b506102d260125481565b6000818152600660205260408120545b92915050565b60006001600160e01b031982166380ac58cd60e01b1480610b2657506001600160e01b03198216635b5e139f60e01b145b80610aef57506301ffc9a760e01b6001600160e01b0319831614610aef565b606060008054610b5490614b04565b80601f0160208091040260200160405190810160405280929190818152602001828054610b8090614b04565b8015610bcd5780601f10610ba257610100808354040283529160200191610bcd565b820191906000526020600020905b815481529060010190602001808311610bb057829003601f168201915b5050505050905090565b6000818152600260205260408120546001600160a01b0316610c555760405162461bcd60e51b815260206004820152602c60248201527f4552433732313a20617070726f76656420717565727920666f72206e6f6e657860448201526b34b9ba32b73a103a37b5b2b760a11b60648201526084015b60405180910390fd5b506000908152600460205260409020546001600160a01b031690565b6000610c7c826116eb565b9050806001600160a01b0316836001600160a01b03161415610cea5760405162461bcd60e51b815260206004820152602160248201527f4552433732313a20617070726f76616c20746f2063757272656e74206f776e656044820152603960f91b6064820152608401610c4c565b336001600160a01b0382161480610d065750610d068133612e3c565b610d785760405162461bcd60e51b815260206004820152603860248201527f4552433732313a20617070726f76652063616c6c6572206973206e6f74206f7760448201527f6e6572206e6f7220617070726f76656420666f7220616c6c00000000000000006064820152608401610c4c565b610d82838361346f565b505050565b610d92335b826134dd565b610dae5760405162461bcd60e51b8152600401610c4c90614b3f565b610d828383836135b3565b600c54604051632474521560e21b8152600080516020615a1983398151915260048201523360248201526001600160a01b03909116906391d1485490604401602060405180830381865afa158015610e15573d6000803e3d6000fd5b505050506040513d601f19601f82011682018060405250810190610e399190614b90565b610e555760405162461bcd60e51b8152600401610c4c90614bad565b60108190556040518181527f40f2d0804ee87f2940dd9632dfaf1a60b67da0186089af5431b86c17cd234c9e906020015b60405180910390a150565b610d8283838360405180602001604052806000815250612080565b610eb533610d8c565b610f1a5760405162461bcd60e51b815260206004820152603060248201527f4552433732314275726e61626c653a2063616c6c6572206973206e6f74206f7760448201526f1b995c881b9bdc88185c1c1c9bdd995960821b6064820152608401610c4c565b610f2381613763565b50565b60135460009060ff1615610f4c5760405162461bcd60e51b8152600401610c4c90614c1d565b600c60009054906101000a90046001600160a01b03166001600160a01b0316635b67d9ab6040518163ffffffff1660e01b8152600401600060405180830381600087803b158015610f9c57600080fd5b505af1158015610fb0573d6000803e3d6000fd5b5050604051631f48f6ab60e01b815263ffffffff881660048201528892506001600160a01b0383169150631f48f6ab90602401602060405180830381865afa158015611000573d6000803e3d6000fd5b505050506040513d601f19601f820116820180604052508101906110249190614c5e565b600e546001600160a01b039081169116146110515760405162461bcd60e51b8152600401610c4c90614c7b565b60405163ba02481b60e01b815263ffffffff871660048201526001600160a01b0382169063ba02481b90602401602060405180830381865afa15801561109b573d6000803e3d6000fd5b505050506040513d601f19601f820116820180604052508101906110bf9190614b90565b6110db5760405162461bcd60e51b8152600401610c4c90614cd8565b600e546110f39088906001600160a01b031688613812565b61110f5760405162461bcd60e51b8152600401610c4c90614d1e565b60405163ecb2c20b60e01b815263ffffffff871660048201526000906001600160a01b0383169063ecb2c20b90602401602060405180830381865afa15801561115c573d6000803e3d6000fd5b505050506040513d601f19601f820116820180604052508101906111809190614c5e565b90506001600160a01b0382166303e7158b30878a6111a460408a0160208b01614d71565b604080516001600160e01b031960e088901b1681526001600160a01b03909516600486015263ffffffff938416602486015291909216604484015260ff90911660648301528701356084820152606087013560a482015260c401600060405180830381600087803b15801561121857600080fd5b505af115801561122c573d6000803e3d6000fd5b5050505061123d8183898989613978565b98975050505050505050565b6002600854141561126c5760405162461bcd60e51b8152600401610c4c90614d94565b600260088190556000828152600d602090815260409182902082516101008101845281546001600160a01b03808216835263ffffffff600160a01b8084048216968501879052600160c01b9093041695830195909552600183015485166060830152948201546001600160801b038082166080840152600160801b9091041660a082015260039091015492831660c082015260ff9390920492909216151560e0820152829142106113705760405162461bcd60e51b815260206004820152602860248201527f62696464696e67456e61626c6564202d2d206f7074696f6e20616c726561647960448201526708195e1c1a5c995960c21b6064820152608401610c4c565b42601254826020015163ffffffff166113899190614de1565b11156113ec5760405162461bcd60e51b815260206004820152602c60248201527f62696464696e67456e61626c6564202d2d2062696464696e672073746172747360448201526b206f6e206c6173742064617960a01b6064820152608401610c4c565b8060e00151156114645760405162461bcd60e51b815260206004820152603f60248201527f62696464696e67456e61626c6564202d2d20746865206f776e6572206861732060448201527f616c726561647920736574746c6564207468652063616c6c206f7074696f6e006064820152608401610c4c565b6000838152600d6020526040902080543491906001600160a01b03163314156114a257600281015461149f906001600160801b031683614df8565b91505b6011546002820154612710916114c791600160801b90046001600160801b0316614e23565b6114d19190614e58565b60028201546114f09190600160801b90046001600160801b0316614e6c565b826001600160801b0316101561156e5760405162461bcd60e51b815260206004820152603d60248201527f626964202d20626964206973206c6f776572207468616e20746865206375727260448201527f656e7420626964202b206d696e426964496e6372656d656e74426970730000006064820152608401610c4c565b60028101546001600160801b03908116908316116115df5760405162461bcd60e51b815260206004820152602860248201527f626964202d20626964206973206c6f776572207468616e2074686520737472696044820152676b6520707269636560c01b6064820152608401610c4c565b6115e881613be4565b6002810180546001600160801b03848116600160801b0291161790556003810180546001600160a01b0319163390811790915560018201548254604051632ec14d3f60e01b815263ffffffff600160c01b90920491909116600482015260248101929092526001600160a01b031690632ec14d3f90604401600060405180830381600087803b15801561167a57600080fd5b505af115801561168e573d6000803e3d6000fd5b5050604080518881526001600160801b038616602082015233918101919091527ffd7cfbd219ff1e7365436fb2930a026fa6704a1e0bb39ad104f0485c8c01124d925060600190505b60405180910390a150506001600855505050565b6000818152600260205260408120546001600160a01b031680610aef5760405162461bcd60e51b815260206004820152602960248201527f4552433732313a206f776e657220717565727920666f72206e6f6e657869737460448201526832b73a103a37b5b2b760b91b6064820152608401610c4c565b60006001600160a01b0382166117cd5760405162461bcd60e51b815260206004820152602a60248201527f4552433732313a2062616c616e636520717565727920666f7220746865207a65604482015269726f206164647265737360b01b6064820152608401610c4c565b506001600160a01b031660009081526003602052604090205490565b600c54604051632474521560e21b8152600080516020615a1983398151915260048201523360248201526001600160a01b03909116906391d1485490604401602060405180830381865afa158015611845573d6000803e3d6000fd5b505050506040513d601f19601f820116820180604052508101906118699190614b90565b6118855760405162461bcd60e51b8152600401610c4c90614bad565b60118190556040518181527fbc72fdb44c412ebc646560c1f4d50c150c5c962985c4c9e4e79a66556960e0c890602001610e86565b600260085414156118dd5760405162461bcd60e51b8152600401610c4c90614d94565b600260085560135460ff16156119055760405162461bcd60e51b8152600401610c4c90614c1d565b600c60009054906101000a90046001600160a01b03166001600160a01b0316635b67d9ab6040518163ffffffff1660e01b8152600401600060405180830381600087803b15801561195557600080fd5b505af1158015611969573d6000803e3d6000fd5b5050506000838152600d6020526040902080549091506001600160a01b031633146119fc5760405162461bcd60e51b815260206004820152603960248201527f7265636c61696d4173736574202d2d2061737365742063616e206f6e6c79206260448201527f65207265636c61696d65642062792074686520777269746572000000000000006064820152608401610c4c565b6003810154600160a01b900460ff1615611a745760405162461bcd60e51b815260206004820152603360248201527f7265636c61696d4173736574202d2d20746865206f7074696f6e2068617320616044820152721b1c9958591e481899595b881cd95d1d1b1959606a1b6064820152608401610c4c565b611a7d836116eb565b81546001600160a01b03908116911614611af85760405162461bcd60e51b815260206004820152603660248201527f7265636c61696d4173736574202d2d20746865206f7074696f6e206d7573742060448201527531329037bbb732b210313c903a3432903bb934ba32b960511b6064820152608401610c4c565b805442600160a01b90910463ffffffff1611611b6d5760405162461bcd60e51b815260206004820152602e60248201527f7265636c61696d4173736574202d2d20746865206f7074696f6e206d7573742060448201526d1b9bdd08189948195e1c1a5c995960921b6064820152608401610c4c565b611b7683613763565b60038101805460ff60a01b198116600160a01b179091556001600160a01b031615611c3d5760038101546002820154611bc8916001600160a01b031690600160801b90046001600160801b0316613c44565b60018101548154604051632ec14d3f60e01b8152600160c01b820463ffffffff1660048201526001600160a01b039182166024820152911690632ec14d3f90604401600060405180830381600087803b158015611c2457600080fd5b505af1158015611c38573d6000803e3d6000fd5b505050505b8115611cbc57600181015481546040516312d11cc160e11b8152600160c01b820463ffffffff1660048201526001600160a01b0391821660248201529116906325a2398290604401600060405180830381600087803b158015611c9f57600080fd5b505af1158015611cb3573d6000803e3d6000fd5b50505050611d2b565b6001810154815460405163eaf8b32360e01b8152600160c01b90910463ffffffff1660048201526001600160a01b039091169063eaf8b32390602401600060405180830381600087803b158015611d1257600080fd5b505af1158015611d26573d6000803e3d6000fd5b505050505b6040518381527f3d5004f110af0aa62d4bf0e9ad74ac1096552670cb71f616b46821f524ff1ad89060200160405180910390a15050600160085550565b6060611d7330613d33565b611d7c83613e7a565b604051602001611d8d929190614e84565b6040516020818303038152906040529050919050565b60026008541415611dc65760405162461bcd60e51b8152600401610c4c90614d94565b60026008556000828152600d6020526040902060038101546001600160a01b0316611e3f5760405162461bcd60e51b8152602060048201526024808201527f736574746c65202d2d20626964206d75737420626520776f6e20627920736f6d604482015263656f6e6560e01b6064820152608401610c4c565b805442600160a01b90910463ffffffff1610611e9d5760405162461bcd60e51b815260206004820181905260248201527f736574746c65202d2d206f7074696f6e206d75737420626520657870697265646044820152606401610c4c565b6003810154600160a01b900460ff1615611f0e5760405162461bcd60e51b815260206004820152602c60248201527f736574746c65202d2d207468652063616c6c2063616e6e6f7420616c7265616460448201526b1e481899481cd95d1d1b195960a21b6064820152608401610c4c565b6002810154600090611f33906001600160801b0380821691600160801b900416614eea565b6001600160801b031690506000611f49856116eb565b9050611f5485613763565b6000858152600d602052604090206003908101805460ff60a01b1916600160a01b1790558354908401546001600160a01b03908116911614611fb35782546002840154611fb3916001600160a01b0316906001600160801b0316613c44565b611fbd8183613c44565b83156120325760018301548354604051632777551960e11b8152600160c01b90910463ffffffff1660048201526001600160a01b0390911690634eeeaa3290602401600060405180830381600087803b15801561201957600080fd5b505af115801561202d573d6000803e3d6000fd5b505050505b6040518581527f900e4f5399d198ce8973a6192dd0b62d7fdc957141faa4d42bbddf3613819ab5906020016116d7565b606060018054610b5490614b04565b61207c338383613f78565b5050565b61208a33836134dd565b6120a65760405162461bcd60e51b8152600401610c4c90614b3f565b6120b284848484614047565b50505050565b606060006120c58361407a565b90506001600160e01b03198116632df0f16160e21b141561237d576000838152600d60209081526040808320600181015490548251631f48f6ab60e01b8152600160c01b90910463ffffffff166004820181905292516001600160a01b039092169492938592631f48f6ab9260248082019392918290030181865afa158015612152573d6000803e3d6000fd5b505050506040513d601f19601f820116820180604052508101906121769190614c5e565b60405163e7dc956b60e01b815263ffffffff841660048201529091506000906001600160a01b0385169063e7dc956b90602401602060405180830381865afa1580156121c6573d6000803e3d6000fd5b505050506040513d601f19601f820116820180604052508101906121ea9190614f12565b6040516311edb68160e11b81526004810189905290915060009030906323db6d0290602401602060405180830381865afa15801561222c573d6000803e3d6000fd5b505050506040513d601f19601f820116820180604052508101906122509190614f12565b60405163a05b775f60e01b8152600481018a9052909150600090309063a05b775f90602401602060405180830381865afa158015612292573d6000803e3d6000fd5b505050506040513d601f19601f820116820180604052508101906122b69190614f12565b60008a81526006602052604081205491925090604051632dc818a960e11b8152600481018c90526001600160a01b038716602482015260448101869052606481018490526084810185905260a4810182905290915073cf8075fa1012697343d0263f6579bf53f7bbdc8c90635b9031529060c401600060405180830381865af4158015612347573d6000803e3d6000fd5b505050506040513d6000823e601f3d908101601f1916820160405261236f9190810190614f2b565b9a9950505050505050505050565b505060408051808201909152601881527f496e76616c696420756e6465726c79696e6720617373657400000000000000006020820152919050565b60135460009060ff16156123de5760405162461bcd60e51b8152600401610c4c90614c1d565b600c60009054906101000a90046001600160a01b03166001600160a01b0316635b67d9ab6040518163ffffffff1660e01b8152600401600060405180830381600087803b15801561242e57600080fd5b505af1158015612442573d6000803e3d6000fd5b5050604051631f48f6ab60e01b815263ffffffff871660048201528792506001600160a01b0383169150631f48f6ab90602401602060405180830381865afa158015612492573d6000803e3d6000fd5b505050506040513d601f19601f820116820180604052508101906124b69190614c5e565b600e546001600160a01b039081169116146124e35760405162461bcd60e51b8152600401610c4c90614c7b565b60405163ba02481b60e01b815263ffffffff861660048201526001600160a01b0382169063ba02481b90602401602060405180830381865afa15801561252d573d6000803e3d6000fd5b505050506040513d601f19601f820116820180604052508101906125519190614b90565b61256d5760405162461bcd60e51b8152600401610c4c90614cd8565b60405163c72bed1560e01b815263ffffffff8616600482015260009081906001600160a01b0384169063c72bed15906024016040805180830381865afa1580156125bb573d6000803e3d6000fd5b505050506040513d601f19601f820116820180604052508101906125df9190614fa2565b915091508180156125f857506001600160a01b03811630145b61266a5760405162461bcd60e51b815260206004820152603b60248201527f6d696e74576974685661756c74202d2d2063616c6c20636f6e74616374206d7560448201527f73742062652074686520656e7469746c6564206f70657261746f7200000000006064820152608401610c4c565b60405163774a762760e01b815263ffffffff881660048201526001600160a01b0384169063774a762790602401602060405180830381865afa1580156126b4573d6000803e3d6000fd5b505050506040513d601f19601f820116820180604052508101906126d89190614fd1565b63ffffffff168563ffffffff16146127635760405162461bcd60e51b815260206004820152604260248201527f6d696e74576974685661756c74202d2d20656e7469746c656d656e742065787060448201527f69726174696f6e206d757374206d617463682063616c6c20657870697261746960648201526137b760f11b608482015260a401610c4c565b600e5461277b9089906001600160a01b031689613812565b6127975760405162461bcd60e51b8152600401610c4c90614d1e565b60405163ecb2c20b60e01b815263ffffffff881660048201526000906001600160a01b0385169063ecb2c20b90602401602060405180830381865afa1580156127e4573d6000803e3d6000fd5b505050506040513d601f19601f820116820180604052508101906128089190614c5e565b905061281781858a8a8a613978565b9450505050505b949350505050565b60135460009060ff161561284c5760405162461bcd60e51b8152600401610c4c90614c1d565b600c60009054906101000a90046001600160a01b03166001600160a01b0316635b67d9ab6040518163ffffffff1660e01b8152600401600060405180830381600087803b15801561289c57600080fd5b505af11580156128b0573d6000803e3d6000fd5b50506040516331a9108f60e11b815260048101879052600092506001600160a01b0388169150636352211e90602401602060405180830381865afa1580156128fc573d6000803e3d6000fd5b505050506040513d601f19601f820116820180604052508101906129209190614c5e565b600e549091506001600160a01b038781169116146129a65760405162461bcd60e51b815260206004820152603860248201527f6d696e7457697468457263373231202d2d20746f6b656e206d7573742062652060448201527f6f6e207468652070726f6a65637420616c6c6f776c69737400000000000000006064820152608401610c4c565b336001600160a01b0382161480612a28575060405163e985e9c560e01b81526001600160a01b03828116600483015233602483015287169063e985e9c590604401602060405180830381865afa158015612a04573d6000803e3d6000fd5b505050506040513d601f19601f82011682018060405250810190612a289190614b90565b612a9a5760405162461bcd60e51b815260206004820152603860248201527f6d696e7457697468457263373231202d2d2063616c6c6572206d75737420626560448201527f20746f6b656e206f776e6572206f72206f70657261746f7200000000000000006064820152608401610c4c565b60405163e985e9c560e01b81526001600160a01b03828116600483015230602483015287169063e985e9c590604401602060405180830381865afa158015612ae6573d6000803e3d6000fd5b505050506040513d601f19601f82011682018060405250810190612b0a9190614b90565b612b715760405162461bcd60e51b815260206004820152603260248201527f6d696e7457697468457263373231202d2d20486f6f6b436f766572656443616c604482015271361036bab9ba1031329037b832b930ba37b960711b6064820152608401610c4c565b600b5460405163b6f3fa3f60e01b81526001600160a01b03888116600483015260248201889052600092169063b6f3fa3f906044016020604051808303816000875af1158015612bc5573d6000803e3d6000fd5b505050506040513d601f19601f82011682018060405250810190612be99190614c5e565b90506000612ca5612c2889604080516001600160a01b038316602082015260009101604051602081830303815290604052805190602001209050919050565b604051612c376020820161464a565b601f1982820381018352601f9091011660408181528251602093840120600b546001600160f81b03198585015260601b6bffffffffffffffffffffffff1916602184015260358301949094526055808301949094528051808303909401845260759091019052815191012090565b6001600160a01b0316826001600160a01b03161415612cc15750855b6000612cd08484848a8a613978565b604080516001600160a01b038781166020830152308284015263ffffffff8a16606080840191909152835180840390910181526080830193849052635c46a7ef60e11b909352929350918b169163b88d4fde91612d3691889188918e9190608401614fee565b600060405180830381600087803b158015612d5057600080fd5b505af1158015612d64573d6000803e3d6000fd5b50506040516331a9108f60e11b8152600481018b90526001600160a01b0386811693508c169150636352211e90602401602060405180830381865afa158015612db1573d6000803e3d6000fd5b505050506040513d601f19601f82011682018060405250810190612dd59190614c5e565b6001600160a01b03161461123d5760405162461bcd60e51b815260206004820152602860248201527f6d696e7457697468457263373132202d2d206173736574206d757374206265206044820152671a5b881d985d5b1d60c21b6064820152608401610c4c565b6007546000906001600160a01b0383811691161480612e8057506001600160a01b0380841660009081526005602090815260408083209386168352929052205460ff165b9392505050565b60135460ff1615612eaa5760405162461bcd60e51b8152600401610c4c90614c1d565b600c60009054906101000a90046001600160a01b03166001600160a01b0316635b67d9ab6040518163ffffffff1660e01b8152600401600060405180830381600087803b158015612efa57600080fd5b505af1158015612f0e573d6000803e3d6000fd5b5050506000828152600d602052604090208054909150600160a01b900463ffffffff164211612f975760405162461bcd60e51b815260206004820152602f60248201527f6275726e457870697265644f7074696f6e202d2d20746865206f7074696f6e2060448201526e1b5d5cdd08189948195e1c1a5c9959608a1b6064820152608401610c4c565b6003810154600160a01b900460ff16156130195760405162461bcd60e51b815260206004820152603860248201527f6275726e457870697265644f7074696f6e202d2d20746865206f7074696f6e2060448201527f68617320616c7265616479206265656e20736574746c656400000000000000006064820152608401610c4c565b60038101546001600160a01b03161561308f5760405162461bcd60e51b815260206004820152603260248201527f6275726e457870697265644f7074696f6e202d2d20746865206f7074696f6e206044820152716d757374206e6f742068617665206269647360701b6064820152608401610c4c565b61309882613763565b60038101805460ff60a01b1916600160a01b1790556040517f4b523da7fb0ebb1e0d08d5d3a34f8eb493d2ccacfc3a6a2d2fbf011c38606b8c906130df9084815260200190565b60405180910390a15050565b600c54604051632474521560e21b8152600080516020615a1983398151915260048201523360248201526001600160a01b03909116906391d1485490604401602060405180830381865afa158015613147573d6000803e3d6000fd5b505050506040513d601f19601f8201168201806040525081019061316b9190614b90565b6131875760405162461bcd60e51b8152600401610c4c90614bad565b60105481106132095760405162461bcd60e51b815260206004820152604260248201527f74686520736574746c656d656e742061756374696f6e732063616e6e6f74207360448201527f7461727420736f6f6e6572207468616e20616e206f7074696f6e206578706972606482015261195960f21b608482015260a401610c4c565b60128190556040518181527f4c0aa8cbd2a45ad4d1999638fe86b622a70f20cf36cae2b0ac42bffea168066390602001610e86565b600c54604051632474521560e21b8152600080516020615a1983398151915260048201523360248201526001600160a01b03909116906391d1485490604401602060405180830381865afa15801561329a573d6000803e3d6000fd5b505050506040513d601f19601f820116820180604052508101906132be9190614b90565b6132da5760405162461bcd60e51b8152600401610c4c90614bad565b6013805460ff19168215159081179091556040519081527f49da065b3a22e1d922a1aaa365357758c9f7c40aff11b507d1a43f9e9f10002b90602001610e86565b60006133276001614136565b9050801561333f576009805461ff0019166101001790555b600c80546001600160a01b038088166001600160a01b03199283168117909355600b8054918716919092161790556040805163affa881760e01b8152905163affa8817916004808201926020929091908290030181865afa1580156133a8573d6000803e3d6000fd5b505050506040513d601f19601f820116820180604052508101906133cc9190614c5e565b600f80546001600160a01b03199081166001600160a01b0393841617909155600780548216858416179055600e805490911691861691909117905562015180601081905560006011556012556013805460ff191690558015613468576009805461ff0019169055604051600181527f7f26b83ff96e1f2b6a682f133852f6798a09c465da95921460cefb38474024989060200160405180910390a15b5050505050565b600081815260046020526040902080546001600160a01b0319166001600160a01b03841690811790915581906134a4826116eb565b6001600160a01b03167f8c5be1e5ebec7d5bd14f71427d1e84f3dd0314c0f7b2291e5b200ac8c7c3b92560405160405180910390a45050565b6000818152600260205260408120546001600160a01b03166135565760405162461bcd60e51b815260206004820152602c60248201527f4552433732313a206f70657261746f7220717565727920666f72206e6f6e657860448201526b34b9ba32b73a103a37b5b2b760a11b6064820152608401610c4c565b6000613561836116eb565b9050806001600160a01b0316846001600160a01b0316148061358857506135888185612e3c565b8061281e5750836001600160a01b03166135a184610bd7565b6001600160a01b031614949350505050565b826001600160a01b03166135c6826116eb565b6001600160a01b03161461362a5760405162461bcd60e51b815260206004820152602560248201527f4552433732313a207472616e736665722066726f6d20696e636f72726563742060448201526437bbb732b960d91b6064820152608401610c4c565b6001600160a01b03821661368c5760405162461bcd60e51b8152602060048201526024808201527f4552433732313a207472616e7366657220746f20746865207a65726f206164646044820152637265737360e01b6064820152608401610c4c565b61369760008261346f565b6001600160a01b03831660009081526003602052604081208054600192906136c0908490614de1565b90915550506001600160a01b03821660009081526003602052604081208054600192906136ee908490614e6c565b909155505060008181526002602052604080822080546001600160a01b0319166001600160a01b0386811691821790925591518493918716917fddf252ad1be2c89b69c2b068fc378daa952ba7f163c4a11628f55a4df523b3ef91a46000908152600660205260409020805460010190555050565b600061376e826116eb565b905061377b60008361346f565b6001600160a01b03811660009081526003602052604081208054600192906137a4908490614de1565b909155505060008281526002602052604080822080546001600160a01b0319169055518391906001600160a01b038416907fddf252ad1be2c89b69c2b068fc378daa952ba7f163c4a11628f55a4df523b3ef908390a450600090815260066020526040902080546001019055565b604080516001600160a01b038416602080830191909152825180830382018152918301909252805191012060009061384990612c28565b6001600160a01b0316846001600160a01b0316141561386a57506001612e80565b60405163e7dc956b60e01b815263ffffffff831660048201526001600160a01b0385169063e7dc956b90602401602060405180830381865afa9250505080156138d0575060408051601f3d908101601f191682019092526138cd91810190614f12565b60015b61390e573d8080156138fe576040519150601f19603f3d011682016040523d82523d6000602084013e613903565b606091505b506000915050612e80565b604080516001600160a01b0386166020808301919091528183018490528251808303840181526060909201909252805191012061394a90612c28565b6001600160a01b0316856001600160a01b0316141561396d576001915050612e80565b505060009392505050565b6000601054426139889190614e6c565b8263ffffffff1611613a1e5760405162461bcd60e51b815260206004820152605360248201527f5f6d696e744f7074696f6e576974685661756c74202d2d20657870697261746960448201527f6f6e54696d65206d757374206265206d6f7265207468616e206f6e652064617960648201527220696e20746865206675747572652074696d6560681b608482015260a401610c4c565b613a2c600a80546001019055565b6000613a37600a5490565b60408051610100810182526001600160a01b038a8116825263ffffffff87811660208085019182528b83168587019081528d8516606087019081526001600160801b038d811660808901908152600060a08a0181815260c08b0182815260e08c018381528e8452600d9098529b90912099518a5497519551908a166001600160c01b031990981697909717600160a01b95891686021763ffffffff60c01b1916600160c01b979098169690960296909617885590516001880180546001600160a01b03191691881691909117905593519251928416600160801b93909416929092029290921760028501559351600390930180549151939092166001600160a81b0319909116179115159092021790559050613b5387826141c0565b336001600160a01b03881614613b6d57613b6d338261346f565b604080516001600160a01b0389811682528816602082015263ffffffff87811682840152606082018490526001600160801b0387166080830152851660a082015290517f1942da09a08718d22494497e4f9610b26572dd3de279f0793d826d170c5305989181900360c00190a19695505050505050565b600281015481546003830154600160801b9092046001600160801b0316916001600160a01b0391821691161415613c30576002820154613c2d906001600160801b031682614de1565b90505b600382015461207c906001600160a01b0316825b613c4e82826141da565b61207c57600f60009054906101000a90046001600160a01b03166001600160a01b031663d0e30db0826040518263ffffffff1660e01b81526004016000604051808303818588803b158015613ca257600080fd5b505af1158015613cb6573d6000803e3d6000fd5b5050600f5460405163a9059cbb60e01b81526001600160a01b03878116600483015260248201879052909116935063a9059cbb925060440190506020604051808303816000875af1158015613d0f573d6000803e3d6000fd5b505050506040513d601f19601f82011682018060405250810190610d829190614b90565b60408051602880825260608281019093526000919060208201818036833701905050905060005b6014811015613e73576000613d70826013614de1565b613d7b906008614e23565b613d86906002615105565b613d99906001600160a01b038716614e58565b60f81b9050600060108260f81c613db09190615111565b60f81b905060008160f81c6010613dc79190615133565b8360f81c613dd59190615154565b60f81b9050613de382614258565b85613def866002614e23565b81518110613dff57613dff615177565b60200101906001600160f81b031916908160001a905350613e1f81614258565b85613e2b866002614e23565b613e36906001614e6c565b81518110613e4657613e46615177565b60200101906001600160f81b031916908160001a9053505050508080613e6b9061518d565b915050613d5a565b5092915050565b606081613e9e5750506040805180820190915260018152600360fc1b602082015290565b8160005b8115613ec85780613eb28161518d565b9150613ec19050600a83614e58565b9150613ea2565b60008167ffffffffffffffff811115613ee357613ee36148ba565b6040519080825280601f01601f191660200182016040528015613f0d576020820181803683370190505b5090505b841561281e57613f22600183614de1565b9150613f2f600a866151a8565b613f3a906030614e6c565b60f81b818381518110613f4f57613f4f615177565b60200101906001600160f81b031916908160001a905350613f71600a86614e58565b9450613f11565b816001600160a01b0316836001600160a01b03161415613fda5760405162461bcd60e51b815260206004820152601960248201527f4552433732313a20617070726f766520746f2063616c6c6572000000000000006044820152606401610c4c565b6001600160a01b03838116600081815260056020908152604080832094871680845294825291829020805460ff191686151590811790915591519182527f17307eab39ab6107e8899845ad3d59bd9653f200f220920489ca2b5937696c31910160405180910390a3505050565b6140528484846135b3565b61405e8484848461428e565b6120b25760405162461bcd60e51b8152600401610c4c906151bc565b6000818152600d60205260408120600101546140a6906001600160a01b031663162ff4f760e21b614389565b156140d257507fb7c3c584f43982b4afe8313bf8cf1fc0c216c38362e51f0d11d14645199c2693919050565b60405162461bcd60e51b815260206004820152602e60248201527f5f756e6465726c79696e672d636c6173733a20556e737570706f72746564207560448201526d6e6465726c79696e67207479706560901b6064820152608401610c4c565b919050565b600954600090610100900460ff161561417f578160ff16600114801561415b5750303b155b6141775760405162461bcd60e51b8152600401610c4c9061520e565b506000919050565b60095460ff8084169116106141a65760405162461bcd60e51b8152600401610c4c9061520e565b506009805460ff191660ff92909216919091179055600190565b61207c8282604051806020016040528060008152506143a5565b6040805160008082526020820190925281906001600160a01b0385169061753090859060405161420a919061525c565b600060405180830381858888f193505050503d8060008114614248576040519150601f19603f3d011682016040523d82523d6000602084013e61424d565b606091505b509095945050505050565b6000600a60f883901c101561427f5761427660f883901c6030615278565b60f81b92915050565b61427660f883901c6057615278565b60006001600160a01b0384163b1561438157604051630a85bd0160e11b81526001600160a01b0385169063150b7a02906142d2903390899088908890600401614fee565b6020604051808303816000875af192505050801561430d575060408051601f3d908101601f1916820190925261430a9181019061529d565b60015b614367573d80801561433b576040519150601f19603f3d011682016040523d82523d6000602084013e614340565b606091505b50805161435f5760405162461bcd60e51b8152600401610c4c906151bc565b805181602001fd5b6001600160e01b031916630a85bd0160e11b14905061281e565b50600161281e565b6000614394836143d8565b8015612e805750612e80838361440b565b6143af83836144f4565b6143bc600084848461428e565b610d825760405162461bcd60e51b8152600401610c4c906151bc565b60006143eb826301ffc9a760e01b61440b565b8015610aef5750614404826001600160e01b031961440b565b1592915050565b604080516001600160e01b0319831660248083019190915282518083039091018152604490910182526020810180516001600160e01b03166301ffc9a760e01b179052905160009190829081906001600160a01b038716906175309061447290869061525c565b6000604051808303818686fa925050503d80600081146144ae576040519150601f19603f3d011682016040523d82523d6000602084013e6144b3565b606091505b50915091506020815110156144ce5760009350505050610aef565b8180156144ea5750808060200190518101906144ea9190614b90565b9695505050505050565b6001600160a01b03821661454a5760405162461bcd60e51b815260206004820181905260248201527f4552433732313a206d696e7420746f20746865207a65726f20616464726573736044820152606401610c4c565b6000818152600260205260409020546001600160a01b0316156145af5760405162461bcd60e51b815260206004820152601c60248201527f4552433732313a20746f6b656e20616c7265616479206d696e746564000000006044820152606401610c4c565b6001600160a01b03821660009081526003602052604081208054600192906145d8908490614e6c565b909155505060008181526002602052604080822080546001600160a01b0319166001600160a01b03861690811790915590518392907fddf252ad1be2c89b69c2b068fc378daa952ba7f163c4a11628f55a4df523b3ef908290a460009081526006602052604090208054600101905550565b61075e806152bb83390190565b60006020828403121561466957600080fd5b5035919050565b6001600160e01b031981168114610f2357600080fd5b60006020828403121561469857600080fd5b8135612e8081614670565b60005b838110156146be5781810151838201526020016146a6565b838111156120b25750506000910152565b600081518084526146e78160208601602086016146a3565b601f01601f19169290920160200192915050565b602081526000612e8060208301846146cf565b6001600160a01b0381168114610f2357600080fd5b6000806040838503121561473657600080fd5b82356147418161470e565b946020939093013593505050565b60008060006060848603121561476457600080fd5b833561476f8161470e565b9250602084013561477f8161470e565b929592945050506040919091013590565b63ffffffff81168114610f2357600080fd5b80356001600160801b038116811461413157600080fd5b60008060008060008587036101008112156147d357600080fd5b86356147de8161470e565b955060208701356147ee81614790565b94506147fc604088016147a2565b9350606087013561480c81614790565b92506080607f198201121561482057600080fd5b506080860190509295509295909350565b60006020828403121561484357600080fd5b8135612e808161470e565b8015158114610f2357600080fd5b6000806040838503121561486f57600080fd5b8235915060208301356148818161484e565b809150509250929050565b6000806040838503121561489f57600080fd5b82356148aa8161470e565b915060208301356148818161484e565b634e487b7160e01b600052604160045260246000fd5b604051601f8201601f1916810167ffffffffffffffff811182821017156148f9576148f96148ba565b604052919050565b600067ffffffffffffffff82111561491b5761491b6148ba565b50601f01601f191660200190565b6000806000806080858703121561493f57600080fd5b843561494a8161470e565b9350602085013561495a8161470e565b925060408501359150606085013567ffffffffffffffff81111561497d57600080fd5b8501601f8101871361498e57600080fd5b80356149a161499c82614901565b6148d0565b8181528860208385010111156149b657600080fd5b8160208401602083013760006020838301015280935050505092959194509250565b600080600080608085870312156149ee57600080fd5b84356149f98161470e565b93506020850135614a0981614790565b9250614a17604086016147a2565b91506060850135614a2781614790565b939692955090935050565b60008060008060808587031215614a4857600080fd5b8435614a538161470e565b935060208501359250614a17604086016147a2565b60008060408385031215614a7b57600080fd5b8235614a868161470e565b915060208301356148818161470e565b600060208284031215614aa857600080fd5b8135612e808161484e565b60008060008060808587031215614ac957600080fd5b8435614ad48161470e565b93506020850135614ae48161470e565b92506040850135614af48161470e565b91506060850135614a278161470e565b600181811c90821680614b1857607f821691505b60208210811415614b3957634e487b7160e01b600052602260045260246000fd5b50919050565b60208082526031908201527f4552433732313a207472616e736665722063616c6c6572206973206e6f74206f6040820152701ddb995c881b9bdc88185c1c1c9bdd9959607a1b606082015260800190565b600060208284031215614ba257600080fd5b8151612e808161484e565b6020808252604a908201527f6f6e6c794d61726b6574436f6e74726f6c6c6572202d2d2063616c6c6572206460408201527f6f6573206e6f74206861766520746865204d41524b45545f434f4e462070726f606082015269746f636f6c20726f6c6560b01b608082015260a00190565b60208082526021908201527f7768656e4e6f74506175736564202d2d206d61726b65742069732070617573656040820152601960fa1b606082015260800190565b600060208284031215614c7057600080fd5b8151612e808161470e565b60208082526037908201527f6d696e74576974685661756c74202d2d20746f6b656e206d757374206265206f60408201527f6e207468652070726f6a65637420616c6c6f776c697374000000000000000000606082015260800190565b60208082526026908201527f6d696e74576974685661756c742d2d206173736574206d75737420626520696e604082015265081d985d5b1d60d21b606082015260800190565b60208082526033908201527f6d696e74576974685661756c74202d2d2063616e206f6e6c79206d696e7420776040820152726974682070726f746f636f6c207661756c747360681b606082015260800190565b600060208284031215614d8357600080fd5b813560ff81168114612e8057600080fd5b6020808252601f908201527f5265656e7472616e637947756172643a207265656e7472616e742063616c6c00604082015260600190565b634e487b7160e01b600052601160045260246000fd5b600082821015614df357614df3614dcb565b500390565b60006001600160801b03808316818516808303821115614e1a57614e1a614dcb565b01949350505050565b6000816000190483118215151615614e3d57614e3d614dcb565b500290565b634e487b7160e01b600052601260045260246000fd5b600082614e6757614e67614e42565b500490565b60008219821115614e7f57614e7f614dcb565b500190565b7f746f6b656e2e686f6f6b2e78797a2f6f7074696f6e2d636f6e74726163742f00815260008351614ebc81601f8501602088016146a3565b8083019050602f60f81b601f8201528351614ede8160208401602088016146a3565b01602001949350505050565b60006001600160801b0383811690831681811015614f0a57614f0a614dcb565b039392505050565b600060208284031215614f2457600080fd5b5051919050565b600060208284031215614f3d57600080fd5b815167ffffffffffffffff811115614f5457600080fd5b8201601f81018413614f6557600080fd5b8051614f7361499c82614901565b818152856020838501011115614f8857600080fd5b614f998260208301602086016146a3565b95945050505050565b60008060408385031215614fb557600080fd5b8251614fc08161484e565b60208401519092506148818161470e565b600060208284031215614fe357600080fd5b8151612e8081614790565b6001600160a01b03858116825284166020820152604081018390526080606082018190526000906144ea908301846146cf565b600181815b8085111561505c57816000190482111561504257615042614dcb565b8085161561504f57918102915b93841c9390800290615026565b509250929050565b60008261507357506001610aef565b8161508057506000610aef565b816001811461509657600281146150a0576150bc565b6001915050610aef565b60ff8411156150b1576150b1614dcb565b50506001821b610aef565b5060208310610133831016604e8410600b84101617156150df575081810a610aef565b6150e98383615021565b80600019048211156150fd576150fd614dcb565b029392505050565b6000612e808383615064565b600060ff83168061512457615124614e42565b8060ff84160491505092915050565b600060ff821660ff84168160ff04811182151516156150fd576150fd614dcb565b600060ff821660ff84168082101561516e5761516e614dcb565b90039392505050565b634e487b7160e01b600052603260045260246000fd5b60006000198214156151a1576151a1614dcb565b5060010190565b6000826151b7576151b7614e42565b500690565b60208082526032908201527f4552433732313a207472616e7366657220746f206e6f6e20455243373231526560408201527131b2b4bb32b91034b6b83632b6b2b73a32b960711b606082015260800190565b6020808252602e908201527f496e697469616c697a61626c653a20636f6e747261637420697320616c72656160408201526d191e481a5b9a5d1a585b1a5e995960921b606082015260800190565b6000825161526e8184602087016146a3565b9190910192915050565b600060ff821660ff84168060ff0382111561529557615295614dcb565b019392505050565b6000602082840312156152af57600080fd5b8151612e808161467056fe608060405234801561001057600080fd5b5061073e806100206000396000f3fe6080604052600436106100225760003560e01c80637fe8e72c1461003957610031565b366100315761002f610059565b005b61002f610059565b34801561004557600080fd5b5061002f61005436600461054a565b61006b565b6100696100646100d4565b61016d565b565b61009660017fa3f0ad74e5423aebfd80d3ef4346578335a9a72aeaee59ff6cb3582b35133d5161060e565b7fa3f0ad74e5423aebfd80d3ef4346578335a9a72aeaee59ff6cb3582b35133d50146100c4576100c4610633565b6100d082826000610196565b5050565b60006101077fa3f0ad74e5423aebfd80d3ef4346578335a9a72aeaee59ff6cb3582b35133d50546001600160a01b031690565b6001600160a01b0316635c60da1b6040518163ffffffff1660e01b8152600401602060405180830381865afa158015610144573d6000803e3d6000fd5b505050506040513d601f19601f820116820180604052508101906101689190610649565b905090565b3660008037600080366000845af43d6000803e80801561018c573d6000f35b3d6000fd5b505050565b61019f83610256565b6040516001600160a01b038416907f1cf3b03a6cf19fa2baba4df148e9dcabedea7f8a5c07840e207e5c089be95d3e90600090a26000825111806101e05750805b1561019157610250836001600160a01b0316635c60da1b6040518163ffffffff1660e01b8152600401602060405180830381865afa158015610226573d6000803e3d6000fd5b505050506040513d601f19601f8201168201806040525081019061024a9190610649565b836103da565b50505050565b6001600160a01b0381163b6102c05760405162461bcd60e51b815260206004820152602560248201527f455243313936373a206e657720626561636f6e206973206e6f74206120636f6e6044820152641d1c9858dd60da1b60648201526084015b60405180910390fd5b610334816001600160a01b0316635c60da1b6040518163ffffffff1660e01b8152600401602060405180830381865afa158015610301573d6000803e3d6000fd5b505050506040513d601f19601f820116820180604052508101906103259190610649565b6001600160a01b03163b151590565b6103995760405162461bcd60e51b815260206004820152603060248201527f455243313936373a20626561636f6e20696d706c656d656e746174696f6e206960448201526f1cc81b9bdd08184818dbdb9d1c9858dd60821b60648201526084016102b7565b7fa3f0ad74e5423aebfd80d3ef4346578335a9a72aeaee59ff6cb3582b35133d5080546001600160a01b0319166001600160a01b0392909216919091179055565b60606103ff83836040518060600160405280602781526020016106e260279139610406565b9392505050565b60606001600160a01b0384163b61046e5760405162461bcd60e51b815260206004820152602660248201527f416464726573733a2064656c65676174652063616c6c20746f206e6f6e2d636f6044820152651b9d1c9858dd60d21b60648201526084016102b7565b600080856001600160a01b0316856040516104899190610692565b600060405180830381855af49150503d80600081146104c4576040519150601f19603f3d011682016040523d82523d6000602084013e6104c9565b606091505b50915091506104d98282866104e3565b9695505050505050565b606083156104f25750816103ff565b8251156105025782518084602001fd5b8160405162461bcd60e51b81526004016102b791906106ae565b6001600160a01b038116811461053157600080fd5b50565b634e487b7160e01b600052604160045260246000fd5b6000806040838503121561055d57600080fd5b82356105688161051c565b9150602083013567ffffffffffffffff8082111561058557600080fd5b818501915085601f83011261059957600080fd5b8135818111156105ab576105ab610534565b604051601f8201601f19908116603f011681019083821181831017156105d3576105d3610534565b816040528281528860208487010111156105ec57600080fd5b8260208601602083013760006020848301015280955050505050509250929050565b60008282101561062e57634e487b7160e01b600052601160045260246000fd5b500390565b634e487b7160e01b600052600160045260246000fd5b60006020828403121561065b57600080fd5b81516103ff8161051c565b60005b83811015610681578181015183820152602001610669565b838111156102505750506000910152565b600082516106a4818460208701610666565b9190910192915050565b60208152600082518060208401526106cd816040850160208701610666565b601f01601f1916919091016040019291505056fe416464726573733a206c6f772d6c6576656c2064656c65676174652063616c6c206661696c6564a26469706673582212205e0b70f8fb442042d60d04b6fc28a561ca3692d97dfd09ab5c7c59ad70129e0e64736f6c634300080a00338de11a8d956993287a5b6a74c069984045abc1b621d651081c4c77c05c3cb7afa26469706673582212207cbaca949e87c91a07cd4fbfe627c227cffa6fe2794329140c492176f370f3a964736f6c634300080a0033",
  "deployedBytecode": "0x6080604052600436106102ad5760003560e01c8063829b584711610175578063cc067525116100dc578063e985e9c511610095578063ef17ac7f1161006f578063ef17ac7f14610a67578063f23c19e814610a87578063f8c8765e14610aa9578063ff58aaaa14610ac957600080fd5b8063e985e9c514610a07578063e9d69ff214610a27578063ed059f2714610a4757600080fd5b8063cc06752514610860578063cd52d15114610880578063d365016c14610964578063dee92f5d14610984578063e63ab1e91461099a578063e6bd26a2146109ce57600080fd5b8063a34fd3fb1161012e578063a34fd3fb14610764578063acca683814610798578063b4985c94146107cc578063b88d4fde146107ec578063bb31173a1461080c578063c87b56dd1461084057600080fd5b8063829b58471461067c5780638a633a0c1461069c57806390f0252a146106bc57806395d89b41146106f5578063a05b775f1461070a578063a22cb4651461074457600080fd5b806342842e0e1161021957806367207872116101d257806367207872146105b257806370a08231146105c857806375b238fc146105e85780637b850da91461061c5780637f1a48851461063c5780637fb6afd41461065c57600080fd5b806342842e0e146104d057806342966c68146104f0578063439bb40f14610510578063454a2ab31461053057806361f547fd146105435780636352211e1461059257600080fd5b806323b872dd1161026b57806323b872dd146103c557806323db6d02146103e557806332ab2f841461041e5780633a283bd21461043e5780633c7cfe34146104585780633fc8cef3146104b057600080fd5b80623a4a0f146102b257806301ffc9a7146102e557806306fdde0314610315578063081812fc14610337578063095ea7b31461036f5780630d5e67ec14610391575b600080fd5b3480156102be57600080fd5b506102d26102cd366004614657565b610adf565b6040519081526020015b60405180910390f35b3480156102f157600080fd5b50610305610300366004614686565b610af5565b60405190151581526020016102dc565b34801561032157600080fd5b5061032a610b45565b6040516102dc91906146fb565b34801561034357600080fd5b50610357610352366004614657565b610bd7565b6040516001600160a01b0390911681526020016102dc565b34801561037b57600080fd5b5061038f61038a366004614723565b610c71565b005b34801561039d57600080fd5b506102d27f945438d5e976f17e0d00cb2997cf8951c55e12977d86234d6738d1865abe006e81565b3480156103d157600080fd5b5061038f6103e036600461474f565b610d87565b3480156103f157600080fd5b506102d2610400366004614657565b6000908152600d60205260409020600201546001600160801b031690565b34801561042a57600080fd5b5061038f610439366004614657565b610db9565b34801561044a57600080fd5b506013546103059060ff1681565b34801561046457600080fd5b50610498610473366004614657565b6000908152600d6020526040902060020154600160801b90046001600160801b031690565b6040516001600160801b0390911681526020016102dc565b3480156104bc57600080fd5b50600f54610357906001600160a01b031681565b3480156104dc57600080fd5b5061038f6104eb36600461474f565b610e91565b3480156104fc57600080fd5b5061038f61050b366004614657565b610eac565b34801561051c57600080fd5b506102d261052b3660046147b9565b610f26565b61038f61053e366004614657565b611249565b34801561054f57600080fd5b5061057d61055e366004614657565b6000908152600d6020526040902054600160c01b900463ffffffff1690565b60405163ffffffff90911681526020016102dc565b34801561059e57600080fd5b506103576105ad366004614657565b6116eb565b3480156105be57600080fd5b506102d260105481565b3480156105d457600080fd5b506102d26105e3366004614831565b611762565b3480156105f457600080fd5b506102d27fa49807205ce4d355092ef5a8a18f56e8913cf4a201fbe287825b095693c2177581565b34801561062857600080fd5b5061038f610637366004614657565b6117e9565b34801561064857600080fd5b50600754610357906001600160a01b031681565b34801561066857600080fd5b5061038f61067736600461485c565b6118ba565b34801561068857600080fd5b5061032a610697366004614657565b611d68565b3480156106a857600080fd5b5061038f6106b736600461485c565b611da3565b3480156106c857600080fd5b506103576106d7366004614657565b6000908152600d60205260409020600301546001600160a01b031690565b34801561070157600080fd5b5061032a612062565b34801561071657600080fd5b506102d2610725366004614657565b6000908152600d6020526040902054600160a01b900463ffffffff1690565b34801561075057600080fd5b5061038f61075f36600461488c565b612071565b34801561077057600080fd5b506102d27f657f307dfada290937bc821a25e2da10feb07809ba9560b816723e8b47fe379a81565b3480156107a457600080fd5b506102d27ffba4f6dd992a27a814ee807eb2f9332d6d01312041726966a540cf4a4a89155381565b3480156107d857600080fd5b50600e54610357906001600160a01b031681565b3480156107f857600080fd5b5061038f610807366004614929565b612080565b34801561081857600080fd5b506102d27ff7e0191f3657a6da7569740b1cdeac8c3425bcbfd257d4fdc6d2241598f4de8b81565b34801561084c57600080fd5b5061032a61085b366004614657565b6120b8565b34801561086c57600080fd5b506102d261087b3660046149d8565b6123b8565b34801561088c57600080fd5b5061090561089b366004614657565b600d6020526000908152604090208054600182015460028301546003909301546001600160a01b0380841694600160a01b80860463ffffffff90811696600160c01b900416948316936001600160801b0380841694600160801b9094041692811691900460ff1688565b604080516001600160a01b03998a16815263ffffffff9889166020820152969097169686019690965292861660608501526001600160801b0391821660808501521660a083015290921660c0830152151560e0820152610100016102dc565b34801561097057600080fd5b506102d261097f366004614a32565b612826565b34801561099057600080fd5b506102d260115481565b3480156109a657600080fd5b506102d27f65d7a28e3265b37a6474929f336521b332c1681b933f6cb9f3376673440d862a81565b3480156109da57600080fd5b506103576109e9366004614657565b6000908152600d60205260409020600101546001600160a01b031690565b348015610a1357600080fd5b50610305610a22366004614a68565b612e3c565b348015610a3357600080fd5b5061038f610a42366004614657565b612e87565b348015610a5357600080fd5b5061038f610a62366004614657565b6130eb565b348015610a7357600080fd5b5061038f610a82366004614a96565b61323e565b348015610a9357600080fd5b506102d2600080516020615a1983398151915281565b348015610ab557600080fd5b5061038f610ac4366004614ab3565b61331b565b348015610ad557600080fd5b506102d260125481565b6000818152600660205260408120545b92915050565b60006001600160e01b031982166380ac58cd60e01b1480610b2657506001600160e01b03198216635b5e139f60e01b145b80610aef57506301ffc9a760e01b6001600160e01b0319831614610aef565b606060008054610b5490614b04565b80601f0160208091040260200160405190810160405280929190818152602001828054610b8090614b04565b8015610bcd5780601f10610ba257610100808354040283529160200191610bcd565b820191906000526020600020905b815481529060010190602001808311610bb057829003601f168201915b5050505050905090565b6000818152600260205260408120546001600160a01b0316610c555760405162461bcd60e51b815260206004820152602c60248201527f4552433732313a20617070726f76656420717565727920666f72206e6f6e657860448201526b34b9ba32b73a103a37b5b2b760a11b60648201526084015b60405180910390fd5b506000908152600460205260409020546001600160a01b031690565b6000610c7c826116eb565b9050806001600160a01b0316836001600160a01b03161415610cea5760405162461bcd60e51b815260206004820152602160248201527f4552433732313a20617070726f76616c20746f2063757272656e74206f776e656044820152603960f91b6064820152608401610c4c565b336001600160a01b0382161480610d065750610d068133612e3c565b610d785760405162461bcd60e51b815260206004820152603860248201527f4552433732313a20617070726f76652063616c6c6572206973206e6f74206f7760448201527f6e6572206e6f7220617070726f76656420666f7220616c6c00000000000000006064820152608401610c4c565b610d82838361346f565b505050565b610d92335b826134dd565b610dae5760405162461bcd60e51b8152600401610c4c90614b3f565b610d828383836135b3565b600c54604051632474521560e21b8152600080516020615a1983398151915260048201523360248201526001600160a01b03909116906391d1485490604401602060405180830381865afa158015610e15573d6000803e3d6000fd5b505050506040513d601f19601f82011682018060405250810190610e399190614b90565b610e555760405162461bcd60e51b8152600401610c4c90614bad565b60108190556040518181527f40f2d0804ee87f2940dd9632dfaf1a60b67da0186089af5431b86c17cd234c9e906020015b60405180910390a150565b610d8283838360405180602001604052806000815250612080565b610eb533610d8c565b610f1a5760405162461bcd60e51b815260206004820152603060248201527f4552433732314275726e61626c653a2063616c6c6572206973206e6f74206f7760448201526f1b995c881b9bdc88185c1c1c9bdd995960821b6064820152608401610c4c565b610f2381613763565b50565b60135460009060ff1615610f4c5760405162461bcd60e51b8152600401610c4c90614c1d565b600c60009054906101000a90046001600160a01b03166001600160a01b0316635b67d9ab6040518163ffffffff1660e01b8152600401600060405180830381600087803b158015610f9c57600080fd5b505af1158015610fb0573d6000803e3d6000fd5b5050604051631f48f6ab60e01b815263ffffffff881660048201528892506001600160a01b0383169150631f48f6ab90602401602060405180830381865afa158015611000573d6000803e3d6000fd5b505050506040513d601f19601f820116820180604052508101906110249190614c5e565b600e546001600160a01b039081169116146110515760405162461bcd60e51b8152600401610c4c90614c7b565b60405163ba02481b60e01b815263ffffffff871660048201526001600160a01b0382169063ba02481b90602401602060405180830381865afa15801561109b573d6000803e3d6000fd5b505050506040513d601f19601f820116820180604052508101906110bf9190614b90565b6110db5760405162461bcd60e51b8152600401610c4c90614cd8565b600e546110f39088906001600160a01b031688613812565b61110f5760405162461bcd60e51b8152600401610c4c90614d1e565b60405163ecb2c20b60e01b815263ffffffff871660048201526000906001600160a01b0383169063ecb2c20b90602401602060405180830381865afa15801561115c573d6000803e3d6000fd5b505050506040513d601f19601f820116820180604052508101906111809190614c5e565b90506001600160a01b0382166303e7158b30878a6111a460408a0160208b01614d71565b604080516001600160e01b031960e088901b1681526001600160a01b03909516600486015263ffffffff938416602486015291909216604484015260ff90911660648301528701356084820152606087013560a482015260c401600060405180830381600087803b15801561121857600080fd5b505af115801561122c573d6000803e3d6000fd5b5050505061123d8183898989613978565b98975050505050505050565b6002600854141561126c5760405162461bcd60e51b8152600401610c4c90614d94565b600260088190556000828152600d602090815260409182902082516101008101845281546001600160a01b03808216835263ffffffff600160a01b8084048216968501879052600160c01b9093041695830195909552600183015485166060830152948201546001600160801b038082166080840152600160801b9091041660a082015260039091015492831660c082015260ff9390920492909216151560e0820152829142106113705760405162461bcd60e51b815260206004820152602860248201527f62696464696e67456e61626c6564202d2d206f7074696f6e20616c726561647960448201526708195e1c1a5c995960c21b6064820152608401610c4c565b42601254826020015163ffffffff166113899190614de1565b11156113ec5760405162461bcd60e51b815260206004820152602c60248201527f62696464696e67456e61626c6564202d2d2062696464696e672073746172747360448201526b206f6e206c6173742064617960a01b6064820152608401610c4c565b8060e00151156114645760405162461bcd60e51b815260206004820152603f60248201527f62696464696e67456e61626c6564202d2d20746865206f776e6572206861732060448201527f616c726561647920736574746c6564207468652063616c6c206f7074696f6e006064820152608401610c4c565b6000838152600d6020526040902080543491906001600160a01b03163314156114a257600281015461149f906001600160801b031683614df8565b91505b6011546002820154612710916114c791600160801b90046001600160801b0316614e23565b6114d19190614e58565b60028201546114f09190600160801b90046001600160801b0316614e6c565b826001600160801b0316101561156e5760405162461bcd60e51b815260206004820152603d60248201527f626964202d20626964206973206c6f776572207468616e20746865206375727260448201527f656e7420626964202b206d696e426964496e6372656d656e74426970730000006064820152608401610c4c565b60028101546001600160801b03908116908316116115df5760405162461bcd60e51b815260206004820152602860248201527f626964202d20626964206973206c6f776572207468616e2074686520737472696044820152676b6520707269636560c01b6064820152608401610c4c565b6115e881613be4565b6002810180546001600160801b03848116600160801b0291161790556003810180546001600160a01b0319163390811790915560018201548254604051632ec14d3f60e01b815263ffffffff600160c01b90920491909116600482015260248101929092526001600160a01b031690632ec14d3f90604401600060405180830381600087803b15801561167a57600080fd5b505af115801561168e573d6000803e3d6000fd5b5050604080518881526001600160801b038616602082015233918101919091527ffd7cfbd219ff1e7365436fb2930a026fa6704a1e0bb39ad104f0485c8c01124d925060600190505b60405180910390a150506001600855505050565b6000818152600260205260408120546001600160a01b031680610aef5760405162461bcd60e51b815260206004820152602960248201527f4552433732313a206f776e657220717565727920666f72206e6f6e657869737460448201526832b73a103a37b5b2b760b91b6064820152608401610c4c565b60006001600160a01b0382166117cd5760405162461bcd60e51b815260206004820152602a60248201527f4552433732313a2062616c616e636520717565727920666f7220746865207a65604482015269726f206164647265737360b01b6064820152608401610c4c565b506001600160a01b031660009081526003602052604090205490565b600c54604051632474521560e21b8152600080516020615a1983398151915260048201523360248201526001600160a01b03909116906391d1485490604401602060405180830381865afa158015611845573d6000803e3d6000fd5b505050506040513d601f19601f820116820180604052508101906118699190614b90565b6118855760405162461bcd60e51b8152600401610c4c90614bad565b60118190556040518181527fbc72fdb44c412ebc646560c1f4d50c150c5c962985c4c9e4e79a66556960e0c890602001610e86565b600260085414156118dd5760405162461bcd60e51b8152600401610c4c90614d94565b600260085560135460ff16156119055760405162461bcd60e51b8152600401610c4c90614c1d565b600c60009054906101000a90046001600160a01b03166001600160a01b0316635b67d9ab6040518163ffffffff1660e01b8152600401600060405180830381600087803b15801561195557600080fd5b505af1158015611969573d6000803e3d6000fd5b5050506000838152600d6020526040902080549091506001600160a01b031633146119fc5760405162461bcd60e51b815260206004820152603960248201527f7265636c61696d4173736574202d2d2061737365742063616e206f6e6c79206260448201527f65207265636c61696d65642062792074686520777269746572000000000000006064820152608401610c4c565b6003810154600160a01b900460ff1615611a745760405162461bcd60e51b815260206004820152603360248201527f7265636c61696d4173736574202d2d20746865206f7074696f6e2068617320616044820152721b1c9958591e481899595b881cd95d1d1b1959606a1b6064820152608401610c4c565b611a7d836116eb565b81546001600160a01b03908116911614611af85760405162461bcd60e51b815260206004820152603660248201527f7265636c61696d4173736574202d2d20746865206f7074696f6e206d7573742060448201527531329037bbb732b210313c903a3432903bb934ba32b960511b6064820152608401610c4c565b805442600160a01b90910463ffffffff1611611b6d5760405162461bcd60e51b815260206004820152602e60248201527f7265636c61696d4173736574202d2d20746865206f7074696f6e206d7573742060448201526d1b9bdd08189948195e1c1a5c995960921b6064820152608401610c4c565b611b7683613763565b60038101805460ff60a01b198116600160a01b179091556001600160a01b031615611c3d5760038101546002820154611bc8916001600160a01b031690600160801b90046001600160801b0316613c44565b60018101548154604051632ec14d3f60e01b8152600160c01b820463ffffffff1660048201526001600160a01b039182166024820152911690632ec14d3f90604401600060405180830381600087803b158015611c2457600080fd5b505af1158015611c38573d6000803e3d6000fd5b505050505b8115611cbc57600181015481546040516312d11cc160e11b8152600160c01b820463ffffffff1660048201526001600160a01b0391821660248201529116906325a2398290604401600060405180830381600087803b158015611c9f57600080fd5b505af1158015611cb3573d6000803e3d6000fd5b50505050611d2b565b6001810154815460405163eaf8b32360e01b8152600160c01b90910463ffffffff1660048201526001600160a01b039091169063eaf8b32390602401600060405180830381600087803b158015611d1257600080fd5b505af1158015611d26573d6000803e3d6000fd5b505050505b6040518381527f3d5004f110af0aa62d4bf0e9ad74ac1096552670cb71f616b46821f524ff1ad89060200160405180910390a15050600160085550565b6060611d7330613d33565b611d7c83613e7a565b604051602001611d8d929190614e84565b6040516020818303038152906040529050919050565b60026008541415611dc65760405162461bcd60e51b8152600401610c4c90614d94565b60026008556000828152600d6020526040902060038101546001600160a01b0316611e3f5760405162461bcd60e51b8152602060048201526024808201527f736574746c65202d2d20626964206d75737420626520776f6e20627920736f6d604482015263656f6e6560e01b6064820152608401610c4c565b805442600160a01b90910463ffffffff1610611e9d5760405162461bcd60e51b815260206004820181905260248201527f736574746c65202d2d206f7074696f6e206d75737420626520657870697265646044820152606401610c4c565b6003810154600160a01b900460ff1615611f0e5760405162461bcd60e51b815260206004820152602c60248201527f736574746c65202d2d207468652063616c6c2063616e6e6f7420616c7265616460448201526b1e481899481cd95d1d1b195960a21b6064820152608401610c4c565b6002810154600090611f33906001600160801b0380821691600160801b900416614eea565b6001600160801b031690506000611f49856116eb565b9050611f5485613763565b6000858152600d602052604090206003908101805460ff60a01b1916600160a01b1790558354908401546001600160a01b03908116911614611fb35782546002840154611fb3916001600160a01b0316906001600160801b0316613c44565b611fbd8183613c44565b83156120325760018301548354604051632777551960e11b8152600160c01b90910463ffffffff1660048201526001600160a01b0390911690634eeeaa3290602401600060405180830381600087803b15801561201957600080fd5b505af115801561202d573d6000803e3d6000fd5b505050505b6040518581527f900e4f5399d198ce8973a6192dd0b62d7fdc957141faa4d42bbddf3613819ab5906020016116d7565b606060018054610b5490614b04565b61207c338383613f78565b5050565b61208a33836134dd565b6120a65760405162461bcd60e51b8152600401610c4c90614b3f565b6120b284848484614047565b50505050565b606060006120c58361407a565b90506001600160e01b03198116632df0f16160e21b141561237d576000838152600d60209081526040808320600181015490548251631f48f6ab60e01b8152600160c01b90910463ffffffff166004820181905292516001600160a01b039092169492938592631f48f6ab9260248082019392918290030181865afa158015612152573d6000803e3d6000fd5b505050506040513d601f19601f820116820180604052508101906121769190614c5e565b60405163e7dc956b60e01b815263ffffffff841660048201529091506000906001600160a01b0385169063e7dc956b90602401602060405180830381865afa1580156121c6573d6000803e3d6000fd5b505050506040513d601f19601f820116820180604052508101906121ea9190614f12565b6040516311edb68160e11b81526004810189905290915060009030906323db6d0290602401602060405180830381865afa15801561222c573d6000803e3d6000fd5b505050506040513d601f19601f820116820180604052508101906122509190614f12565b60405163a05b775f60e01b8152600481018a9052909150600090309063a05b775f90602401602060405180830381865afa158015612292573d6000803e3d6000fd5b505050506040513d601f19601f820116820180604052508101906122b69190614f12565b60008a81526006602052604081205491925090604051632dc818a960e11b8152600481018c90526001600160a01b038716602482015260448101869052606481018490526084810185905260a4810182905290915073__$1ccb32651d98a3fae6a240417ad5ffe6c1$__90635b9031529060c401600060405180830381865af4158015612347573d6000803e3d6000fd5b505050506040513d6000823e601f3d908101601f1916820160405261236f9190810190614f2b565b9a9950505050505050505050565b505060408051808201909152601881527f496e76616c696420756e6465726c79696e6720617373657400000000000000006020820152919050565b60135460009060ff16156123de5760405162461bcd60e51b8152600401610c4c90614c1d565b600c60009054906101000a90046001600160a01b03166001600160a01b0316635b67d9ab6040518163ffffffff1660e01b8152600401600060405180830381600087803b15801561242e57600080fd5b505af1158015612442573d6000803e3d6000fd5b5050604051631f48f6ab60e01b815263ffffffff871660048201528792506001600160a01b0383169150631f48f6ab90602401602060405180830381865afa158015612492573d6000803e3d6000fd5b505050506040513d601f19601f820116820180604052508101906124b69190614c5e565b600e546001600160a01b039081169116146124e35760405162461bcd60e51b8152600401610c4c90614c7b565b60405163ba02481b60e01b815263ffffffff861660048201526001600160a01b0382169063ba02481b90602401602060405180830381865afa15801561252d573d6000803e3d6000fd5b505050506040513d601f19601f820116820180604052508101906125519190614b90565b61256d5760405162461bcd60e51b8152600401610c4c90614cd8565b60405163c72bed1560e01b815263ffffffff8616600482015260009081906001600160a01b0384169063c72bed15906024016040805180830381865afa1580156125bb573d6000803e3d6000fd5b505050506040513d601f19601f820116820180604052508101906125df9190614fa2565b915091508180156125f857506001600160a01b03811630145b61266a5760405162461bcd60e51b815260206004820152603b60248201527f6d696e74576974685661756c74202d2d2063616c6c20636f6e74616374206d7560448201527f73742062652074686520656e7469746c6564206f70657261746f7200000000006064820152608401610c4c565b60405163774a762760e01b815263ffffffff881660048201526001600160a01b0384169063774a762790602401602060405180830381865afa1580156126b4573d6000803e3d6000fd5b505050506040513d601f19601f820116820180604052508101906126d89190614fd1565b63ffffffff168563ffffffff16146127635760405162461bcd60e51b815260206004820152604260248201527f6d696e74576974685661756c74202d2d20656e7469746c656d656e742065787060448201527f69726174696f6e206d757374206d617463682063616c6c20657870697261746960648201526137b760f11b608482015260a401610c4c565b600e5461277b9089906001600160a01b031689613812565b6127975760405162461bcd60e51b8152600401610c4c90614d1e565b60405163ecb2c20b60e01b815263ffffffff881660048201526000906001600160a01b0385169063ecb2c20b90602401602060405180830381865afa1580156127e4573d6000803e3d6000fd5b505050506040513d601f19601f820116820180604052508101906128089190614c5e565b905061281781858a8a8a613978565b9450505050505b949350505050565b60135460009060ff161561284c5760405162461bcd60e51b8152600401610c4c90614c1d565b600c60009054906101000a90046001600160a01b03166001600160a01b0316635b67d9ab6040518163ffffffff1660e01b8152600401600060405180830381600087803b15801561289c57600080fd5b505af11580156128b0573d6000803e3d6000fd5b50506040516331a9108f60e11b815260048101879052600092506001600160a01b0388169150636352211e90602401602060405180830381865afa1580156128fc573d6000803e3d6000fd5b505050506040513d601f19601f820116820180604052508101906129209190614c5e565b600e549091506001600160a01b038781169116146129a65760405162461bcd60e51b815260206004820152603860248201527f6d696e7457697468457263373231202d2d20746f6b656e206d7573742062652060448201527f6f6e207468652070726f6a65637420616c6c6f776c69737400000000000000006064820152608401610c4c565b336001600160a01b0382161480612a28575060405163e985e9c560e01b81526001600160a01b03828116600483015233602483015287169063e985e9c590604401602060405180830381865afa158015612a04573d6000803e3d6000fd5b505050506040513d601f19601f82011682018060405250810190612a289190614b90565b612a9a5760405162461bcd60e51b815260206004820152603860248201527f6d696e7457697468457263373231202d2d2063616c6c6572206d75737420626560448201527f20746f6b656e206f776e6572206f72206f70657261746f7200000000000000006064820152608401610c4c565b60405163e985e9c560e01b81526001600160a01b03828116600483015230602483015287169063e985e9c590604401602060405180830381865afa158015612ae6573d6000803e3d6000fd5b505050506040513d601f19601f82011682018060405250810190612b0a9190614b90565b612b715760405162461bcd60e51b815260206004820152603260248201527f6d696e7457697468457263373231202d2d20486f6f6b436f766572656443616c604482015271361036bab9ba1031329037b832b930ba37b960711b6064820152608401610c4c565b600b5460405163b6f3fa3f60e01b81526001600160a01b03888116600483015260248201889052600092169063b6f3fa3f906044016020604051808303816000875af1158015612bc5573d6000803e3d6000fd5b505050506040513d601f19601f82011682018060405250810190612be99190614c5e565b90506000612ca5612c2889604080516001600160a01b038316602082015260009101604051602081830303815290604052805190602001209050919050565b604051612c376020820161464a565b601f1982820381018352601f9091011660408181528251602093840120600b546001600160f81b03198585015260601b6bffffffffffffffffffffffff1916602184015260358301949094526055808301949094528051808303909401845260759091019052815191012090565b6001600160a01b0316826001600160a01b03161415612cc15750855b6000612cd08484848a8a613978565b604080516001600160a01b038781166020830152308284015263ffffffff8a16606080840191909152835180840390910181526080830193849052635c46a7ef60e11b909352929350918b169163b88d4fde91612d3691889188918e9190608401614fee565b600060405180830381600087803b158015612d5057600080fd5b505af1158015612d64573d6000803e3d6000fd5b50506040516331a9108f60e11b8152600481018b90526001600160a01b0386811693508c169150636352211e90602401602060405180830381865afa158015612db1573d6000803e3d6000fd5b505050506040513d601f19601f82011682018060405250810190612dd59190614c5e565b6001600160a01b03161461123d5760405162461bcd60e51b815260206004820152602860248201527f6d696e7457697468457263373132202d2d206173736574206d757374206265206044820152671a5b881d985d5b1d60c21b6064820152608401610c4c565b6007546000906001600160a01b0383811691161480612e8057506001600160a01b0380841660009081526005602090815260408083209386168352929052205460ff165b9392505050565b60135460ff1615612eaa5760405162461bcd60e51b8152600401610c4c90614c1d565b600c60009054906101000a90046001600160a01b03166001600160a01b0316635b67d9ab6040518163ffffffff1660e01b8152600401600060405180830381600087803b158015612efa57600080fd5b505af1158015612f0e573d6000803e3d6000fd5b5050506000828152600d602052604090208054909150600160a01b900463ffffffff164211612f975760405162461bcd60e51b815260206004820152602f60248201527f6275726e457870697265644f7074696f6e202d2d20746865206f7074696f6e2060448201526e1b5d5cdd08189948195e1c1a5c9959608a1b6064820152608401610c4c565b6003810154600160a01b900460ff16156130195760405162461bcd60e51b815260206004820152603860248201527f6275726e457870697265644f7074696f6e202d2d20746865206f7074696f6e2060448201527f68617320616c7265616479206265656e20736574746c656400000000000000006064820152608401610c4c565b60038101546001600160a01b03161561308f5760405162461bcd60e51b815260206004820152603260248201527f6275726e457870697265644f7074696f6e202d2d20746865206f7074696f6e206044820152716d757374206e6f742068617665206269647360701b6064820152608401610c4c565b61309882613763565b60038101805460ff60a01b1916600160a01b1790556040517f4b523da7fb0ebb1e0d08d5d3a34f8eb493d2ccacfc3a6a2d2fbf011c38606b8c906130df9084815260200190565b60405180910390a15050565b600c54604051632474521560e21b8152600080516020615a1983398151915260048201523360248201526001600160a01b03909116906391d1485490604401602060405180830381865afa158015613147573d6000803e3d6000fd5b505050506040513d601f19601f8201168201806040525081019061316b9190614b90565b6131875760405162461bcd60e51b8152600401610c4c90614bad565b60105481106132095760405162461bcd60e51b815260206004820152604260248201527f74686520736574746c656d656e742061756374696f6e732063616e6e6f74207360448201527f7461727420736f6f6e6572207468616e20616e206f7074696f6e206578706972606482015261195960f21b608482015260a401610c4c565b60128190556040518181527f4c0aa8cbd2a45ad4d1999638fe86b622a70f20cf36cae2b0ac42bffea168066390602001610e86565b600c54604051632474521560e21b8152600080516020615a1983398151915260048201523360248201526001600160a01b03909116906391d1485490604401602060405180830381865afa15801561329a573d6000803e3d6000fd5b505050506040513d601f19601f820116820180604052508101906132be9190614b90565b6132da5760405162461bcd60e51b8152600401610c4c90614bad565b6013805460ff19168215159081179091556040519081527f49da065b3a22e1d922a1aaa365357758c9f7c40aff11b507d1a43f9e9f10002b90602001610e86565b60006133276001614136565b9050801561333f576009805461ff0019166101001790555b600c80546001600160a01b038088166001600160a01b03199283168117909355600b8054918716919092161790556040805163affa881760e01b8152905163affa8817916004808201926020929091908290030181865afa1580156133a8573d6000803e3d6000fd5b505050506040513d601f19601f820116820180604052508101906133cc9190614c5e565b600f80546001600160a01b03199081166001600160a01b0393841617909155600780548216858416179055600e805490911691861691909117905562015180601081905560006011556012556013805460ff191690558015613468576009805461ff0019169055604051600181527f7f26b83ff96e1f2b6a682f133852f6798a09c465da95921460cefb38474024989060200160405180910390a15b5050505050565b600081815260046020526040902080546001600160a01b0319166001600160a01b03841690811790915581906134a4826116eb565b6001600160a01b03167f8c5be1e5ebec7d5bd14f71427d1e84f3dd0314c0f7b2291e5b200ac8c7c3b92560405160405180910390a45050565b6000818152600260205260408120546001600160a01b03166135565760405162461bcd60e51b815260206004820152602c60248201527f4552433732313a206f70657261746f7220717565727920666f72206e6f6e657860448201526b34b9ba32b73a103a37b5b2b760a11b6064820152608401610c4c565b6000613561836116eb565b9050806001600160a01b0316846001600160a01b0316148061358857506135888185612e3c565b8061281e5750836001600160a01b03166135a184610bd7565b6001600160a01b031614949350505050565b826001600160a01b03166135c6826116eb565b6001600160a01b03161461362a5760405162461bcd60e51b815260206004820152602560248201527f4552433732313a207472616e736665722066726f6d20696e636f72726563742060448201526437bbb732b960d91b6064820152608401610c4c565b6001600160a01b03821661368c5760405162461bcd60e51b8152602060048201526024808201527f4552433732313a207472616e7366657220746f20746865207a65726f206164646044820152637265737360e01b6064820152608401610c4c565b61369760008261346f565b6001600160a01b03831660009081526003602052604081208054600192906136c0908490614de1565b90915550506001600160a01b03821660009081526003602052604081208054600192906136ee908490614e6c565b909155505060008181526002602052604080822080546001600160a01b0319166001600160a01b0386811691821790925591518493918716917fddf252ad1be2c89b69c2b068fc378daa952ba7f163c4a11628f55a4df523b3ef91a46000908152600660205260409020805460010190555050565b600061376e826116eb565b905061377b60008361346f565b6001600160a01b03811660009081526003602052604081208054600192906137a4908490614de1565b909155505060008281526002602052604080822080546001600160a01b0319169055518391906001600160a01b038416907fddf252ad1be2c89b69c2b068fc378daa952ba7f163c4a11628f55a4df523b3ef908390a450600090815260066020526040902080546001019055565b604080516001600160a01b038416602080830191909152825180830382018152918301909252805191012060009061384990612c28565b6001600160a01b0316846001600160a01b0316141561386a57506001612e80565b60405163e7dc956b60e01b815263ffffffff831660048201526001600160a01b0385169063e7dc956b90602401602060405180830381865afa9250505080156138d0575060408051601f3d908101601f191682019092526138cd91810190614f12565b60015b61390e573d8080156138fe576040519150601f19603f3d011682016040523d82523d6000602084013e613903565b606091505b506000915050612e80565b604080516001600160a01b0386166020808301919091528183018490528251808303840181526060909201909252805191012061394a90612c28565b6001600160a01b0316856001600160a01b0316141561396d576001915050612e80565b505060009392505050565b6000601054426139889190614e6c565b8263ffffffff1611613a1e5760405162461bcd60e51b815260206004820152605360248201527f5f6d696e744f7074696f6e576974685661756c74202d2d20657870697261746960448201527f6f6e54696d65206d757374206265206d6f7265207468616e206f6e652064617960648201527220696e20746865206675747572652074696d6560681b608482015260a401610c4c565b613a2c600a80546001019055565b6000613a37600a5490565b60408051610100810182526001600160a01b038a8116825263ffffffff87811660208085019182528b83168587019081528d8516606087019081526001600160801b038d811660808901908152600060a08a0181815260c08b0182815260e08c018381528e8452600d9098529b90912099518a5497519551908a166001600160c01b031990981697909717600160a01b95891686021763ffffffff60c01b1916600160c01b979098169690960296909617885590516001880180546001600160a01b03191691881691909117905593519251928416600160801b93909416929092029290921760028501559351600390930180549151939092166001600160a81b0319909116179115159092021790559050613b5387826141c0565b336001600160a01b03881614613b6d57613b6d338261346f565b604080516001600160a01b0389811682528816602082015263ffffffff87811682840152606082018490526001600160801b0387166080830152851660a082015290517f1942da09a08718d22494497e4f9610b26572dd3de279f0793d826d170c5305989181900360c00190a19695505050505050565b600281015481546003830154600160801b9092046001600160801b0316916001600160a01b0391821691161415613c30576002820154613c2d906001600160801b031682614de1565b90505b600382015461207c906001600160a01b0316825b613c4e82826141da565b61207c57600f60009054906101000a90046001600160a01b03166001600160a01b031663d0e30db0826040518263ffffffff1660e01b81526004016000604051808303818588803b158015613ca257600080fd5b505af1158015613cb6573d6000803e3d6000fd5b5050600f5460405163a9059cbb60e01b81526001600160a01b03878116600483015260248201879052909116935063a9059cbb925060440190506020604051808303816000875af1158015613d0f573d6000803e3d6000fd5b505050506040513d601f19601f82011682018060405250810190610d829190614b90565b60408051602880825260608281019093526000919060208201818036833701905050905060005b6014811015613e73576000613d70826013614de1565b613d7b906008614e23565b613d86906002615105565b613d99906001600160a01b038716614e58565b60f81b9050600060108260f81c613db09190615111565b60f81b905060008160f81c6010613dc79190615133565b8360f81c613dd59190615154565b60f81b9050613de382614258565b85613def866002614e23565b81518110613dff57613dff615177565b60200101906001600160f81b031916908160001a905350613e1f81614258565b85613e2b866002614e23565b613e36906001614e6c565b81518110613e4657613e46615177565b60200101906001600160f81b031916908160001a9053505050508080613e6b9061518d565b915050613d5a565b5092915050565b606081613e9e5750506040805180820190915260018152600360fc1b602082015290565b8160005b8115613ec85780613eb28161518d565b9150613ec19050600a83614e58565b9150613ea2565b60008167ffffffffffffffff811115613ee357613ee36148ba565b6040519080825280601f01601f191660200182016040528015613f0d576020820181803683370190505b5090505b841561281e57613f22600183614de1565b9150613f2f600a866151a8565b613f3a906030614e6c565b60f81b818381518110613f4f57613f4f615177565b60200101906001600160f81b031916908160001a905350613f71600a86614e58565b9450613f11565b816001600160a01b0316836001600160a01b03161415613fda5760405162461bcd60e51b815260206004820152601960248201527f4552433732313a20617070726f766520746f2063616c6c6572000000000000006044820152606401610c4c565b6001600160a01b03838116600081815260056020908152604080832094871680845294825291829020805460ff191686151590811790915591519182527f17307eab39ab6107e8899845ad3d59bd9653f200f220920489ca2b5937696c31910160405180910390a3505050565b6140528484846135b3565b61405e8484848461428e565b6120b25760405162461bcd60e51b8152600401610c4c906151bc565b6000818152600d60205260408120600101546140a6906001600160a01b031663162ff4f760e21b614389565b156140d257507fb7c3c584f43982b4afe8313bf8cf1fc0c216c38362e51f0d11d14645199c2693919050565b60405162461bcd60e51b815260206004820152602e60248201527f5f756e6465726c79696e672d636c6173733a20556e737570706f72746564207560448201526d6e6465726c79696e67207479706560901b6064820152608401610c4c565b919050565b600954600090610100900460ff161561417f578160ff16600114801561415b5750303b155b6141775760405162461bcd60e51b8152600401610c4c9061520e565b506000919050565b60095460ff8084169116106141a65760405162461bcd60e51b8152600401610c4c9061520e565b506009805460ff191660ff92909216919091179055600190565b61207c8282604051806020016040528060008152506143a5565b6040805160008082526020820190925281906001600160a01b0385169061753090859060405161420a919061525c565b600060405180830381858888f193505050503d8060008114614248576040519150601f19603f3d011682016040523d82523d6000602084013e61424d565b606091505b509095945050505050565b6000600a60f883901c101561427f5761427660f883901c6030615278565b60f81b92915050565b61427660f883901c6057615278565b60006001600160a01b0384163b1561438157604051630a85bd0160e11b81526001600160a01b0385169063150b7a02906142d2903390899088908890600401614fee565b6020604051808303816000875af192505050801561430d575060408051601f3d908101601f1916820190925261430a9181019061529d565b60015b614367573d80801561433b576040519150601f19603f3d011682016040523d82523d6000602084013e614340565b606091505b50805161435f5760405162461bcd60e51b8152600401610c4c906151bc565b805181602001fd5b6001600160e01b031916630a85bd0160e11b14905061281e565b50600161281e565b6000614394836143d8565b8015612e805750612e80838361440b565b6143af83836144f4565b6143bc600084848461428e565b610d825760405162461bcd60e51b8152600401610c4c906151bc565b60006143eb826301ffc9a760e01b61440b565b8015610aef5750614404826001600160e01b031961440b565b1592915050565b604080516001600160e01b0319831660248083019190915282518083039091018152604490910182526020810180516001600160e01b03166301ffc9a760e01b179052905160009190829081906001600160a01b038716906175309061447290869061525c565b6000604051808303818686fa925050503d80600081146144ae576040519150601f19603f3d011682016040523d82523d6000602084013e6144b3565b606091505b50915091506020815110156144ce5760009350505050610aef565b8180156144ea5750808060200190518101906144ea9190614b90565b9695505050505050565b6001600160a01b03821661454a5760405162461bcd60e51b815260206004820181905260248201527f4552433732313a206d696e7420746f20746865207a65726f20616464726573736044820152606401610c4c565b6000818152600260205260409020546001600160a01b0316156145af5760405162461bcd60e51b815260206004820152601c60248201527f4552433732313a20746f6b656e20616c7265616479206d696e746564000000006044820152606401610c4c565b6001600160a01b03821660009081526003602052604081208054600192906145d8908490614e6c565b909155505060008181526002602052604080822080546001600160a01b0319166001600160a01b03861690811790915590518392907fddf252ad1be2c89b69c2b068fc378daa952ba7f163c4a11628f55a4df523b3ef908290a460009081526006602052604090208054600101905550565b61075e806152bb83390190565b60006020828403121561466957600080fd5b5035919050565b6001600160e01b031981168114610f2357600080fd5b60006020828403121561469857600080fd5b8135612e8081614670565b60005b838110156146be5781810151838201526020016146a6565b838111156120b25750506000910152565b600081518084526146e78160208601602086016146a3565b601f01601f19169290920160200192915050565b602081526000612e8060208301846146cf565b6001600160a01b0381168114610f2357600080fd5b6000806040838503121561473657600080fd5b82356147418161470e565b946020939093013593505050565b60008060006060848603121561476457600080fd5b833561476f8161470e565b9250602084013561477f8161470e565b929592945050506040919091013590565b63ffffffff81168114610f2357600080fd5b80356001600160801b038116811461413157600080fd5b60008060008060008587036101008112156147d357600080fd5b86356147de8161470e565b955060208701356147ee81614790565b94506147fc604088016147a2565b9350606087013561480c81614790565b92506080607f198201121561482057600080fd5b506080860190509295509295909350565b60006020828403121561484357600080fd5b8135612e808161470e565b8015158114610f2357600080fd5b6000806040838503121561486f57600080fd5b8235915060208301356148818161484e565b809150509250929050565b6000806040838503121561489f57600080fd5b82356148aa8161470e565b915060208301356148818161484e565b634e487b7160e01b600052604160045260246000fd5b604051601f8201601f1916810167ffffffffffffffff811182821017156148f9576148f96148ba565b604052919050565b600067ffffffffffffffff82111561491b5761491b6148ba565b50601f01601f191660200190565b6000806000806080858703121561493f57600080fd5b843561494a8161470e565b9350602085013561495a8161470e565b925060408501359150606085013567ffffffffffffffff81111561497d57600080fd5b8501601f8101871361498e57600080fd5b80356149a161499c82614901565b6148d0565b8181528860208385010111156149b657600080fd5b8160208401602083013760006020838301015280935050505092959194509250565b600080600080608085870312156149ee57600080fd5b84356149f98161470e565b93506020850135614a0981614790565b9250614a17604086016147a2565b91506060850135614a2781614790565b939692955090935050565b60008060008060808587031215614a4857600080fd5b8435614a538161470e565b935060208501359250614a17604086016147a2565b60008060408385031215614a7b57600080fd5b8235614a868161470e565b915060208301356148818161470e565b600060208284031215614aa857600080fd5b8135612e808161484e565b60008060008060808587031215614ac957600080fd5b8435614ad48161470e565b93506020850135614ae48161470e565b92506040850135614af48161470e565b91506060850135614a278161470e565b600181811c90821680614b1857607f821691505b60208210811415614b3957634e487b7160e01b600052602260045260246000fd5b50919050565b60208082526031908201527f4552433732313a207472616e736665722063616c6c6572206973206e6f74206f6040820152701ddb995c881b9bdc88185c1c1c9bdd9959607a1b606082015260800190565b600060208284031215614ba257600080fd5b8151612e808161484e565b6020808252604a908201527f6f6e6c794d61726b6574436f6e74726f6c6c6572202d2d2063616c6c6572206460408201527f6f6573206e6f74206861766520746865204d41524b45545f434f4e462070726f606082015269746f636f6c20726f6c6560b01b608082015260a00190565b60208082526021908201527f7768656e4e6f74506175736564202d2d206d61726b65742069732070617573656040820152601960fa1b606082015260800190565b600060208284031215614c7057600080fd5b8151612e808161470e565b60208082526037908201527f6d696e74576974685661756c74202d2d20746f6b656e206d757374206265206f60408201527f6e207468652070726f6a65637420616c6c6f776c697374000000000000000000606082015260800190565b60208082526026908201527f6d696e74576974685661756c742d2d206173736574206d75737420626520696e604082015265081d985d5b1d60d21b606082015260800190565b60208082526033908201527f6d696e74576974685661756c74202d2d2063616e206f6e6c79206d696e7420776040820152726974682070726f746f636f6c207661756c747360681b606082015260800190565b600060208284031215614d8357600080fd5b813560ff81168114612e8057600080fd5b6020808252601f908201527f5265656e7472616e637947756172643a207265656e7472616e742063616c6c00604082015260600190565b634e487b7160e01b600052601160045260246000fd5b600082821015614df357614df3614dcb565b500390565b60006001600160801b03808316818516808303821115614e1a57614e1a614dcb565b01949350505050565b6000816000190483118215151615614e3d57614e3d614dcb565b500290565b634e487b7160e01b600052601260045260246000fd5b600082614e6757614e67614e42565b500490565b60008219821115614e7f57614e7f614dcb565b500190565b7f746f6b656e2e686f6f6b2e78797a2f6f7074696f6e2d636f6e74726163742f00815260008351614ebc81601f8501602088016146a3565b8083019050602f60f81b601f8201528351614ede8160208401602088016146a3565b01602001949350505050565b60006001600160801b0383811690831681811015614f0a57614f0a614dcb565b039392505050565b600060208284031215614f2457600080fd5b5051919050565b600060208284031215614f3d57600080fd5b815167ffffffffffffffff811115614f5457600080fd5b8201601f81018413614f6557600080fd5b8051614f7361499c82614901565b818152856020838501011115614f8857600080fd5b614f998260208301602086016146a3565b95945050505050565b60008060408385031215614fb557600080fd5b8251614fc08161484e565b60208401519092506148818161470e565b600060208284031215614fe357600080fd5b8151612e8081614790565b6001600160a01b03858116825284166020820152604081018390526080606082018190526000906144ea908301846146cf565b600181815b8085111561505c57816000190482111561504257615042614dcb565b8085161561504f57918102915b93841c9390800290615026565b509250929050565b60008261507357506001610aef565b8161508057506000610aef565b816001811461509657600281146150a0576150bc565b6001915050610aef565b60ff8411156150b1576150b1614dcb565b50506001821b610aef565b5060208310610133831016604e8410600b84101617156150df575081810a610aef565b6150e98383615021565b80600019048211156150fd576150fd614dcb565b029392505050565b6000612e808383615064565b600060ff83168061512457615124614e42565b8060ff84160491505092915050565b600060ff821660ff84168160ff04811182151516156150fd576150fd614dcb565b600060ff821660ff84168082101561516e5761516e614dcb565b90039392505050565b634e487b7160e01b600052603260045260246000fd5b60006000198214156151a1576151a1614dcb565b5060010190565b6000826151b7576151b7614e42565b500690565b60208082526032908201527f4552433732313a207472616e7366657220746f206e6f6e20455243373231526560408201527131b2b4bb32b91034b6b83632b6b2b73a32b960711b606082015260800190565b6020808252602e908201527f496e697469616c697a61626c653a20636f6e747261637420697320616c72656160408201526d191e481a5b9a5d1a585b1a5e995960921b606082015260800190565b6000825161526e8184602087016146a3565b9190910192915050565b600060ff821660ff84168060ff0382111561529557615295614dcb565b019392505050565b6000602082840312156152af57600080fd5b8151612e808161467056fe608060405234801561001057600080fd5b5061073e806100206000396000f3fe6080604052600436106100225760003560e01c80637fe8e72c1461003957610031565b366100315761002f610059565b005b61002f610059565b34801561004557600080fd5b5061002f61005436600461054a565b61006b565b6100696100646100d4565b61016d565b565b61009660017fa3f0ad74e5423aebfd80d3ef4346578335a9a72aeaee59ff6cb3582b35133d5161060e565b7fa3f0ad74e5423aebfd80d3ef4346578335a9a72aeaee59ff6cb3582b35133d50146100c4576100c4610633565b6100d082826000610196565b5050565b60006101077fa3f0ad74e5423aebfd80d3ef4346578335a9a72aeaee59ff6cb3582b35133d50546001600160a01b031690565b6001600160a01b0316635c60da1b6040518163ffffffff1660e01b8152600401602060405180830381865afa158015610144573d6000803e3d6000fd5b505050506040513d601f19601f820116820180604052508101906101689190610649565b905090565b3660008037600080366000845af43d6000803e80801561018c573d6000f35b3d6000fd5b505050565b61019f83610256565b6040516001600160a01b038416907f1cf3b03a6cf19fa2baba4df148e9dcabedea7f8a5c07840e207e5c089be95d3e90600090a26000825111806101e05750805b1561019157610250836001600160a01b0316635c60da1b6040518163ffffffff1660e01b8152600401602060405180830381865afa158015610226573d6000803e3d6000fd5b505050506040513d601f19601f8201168201806040525081019061024a9190610649565b836103da565b50505050565b6001600160a01b0381163b6102c05760405162461bcd60e51b815260206004820152602560248201527f455243313936373a206e657720626561636f6e206973206e6f74206120636f6e6044820152641d1c9858dd60da1b60648201526084015b60405180910390fd5b610334816001600160a01b0316635c60da1b6040518163ffffffff1660e01b8152600401602060405180830381865afa158015610301573d6000803e3d6000fd5b505050506040513d601f19601f820116820180604052508101906103259190610649565b6001600160a01b03163b151590565b6103995760405162461bcd60e51b815260206004820152603060248201527f455243313936373a20626561636f6e20696d706c656d656e746174696f6e206960448201526f1cc81b9bdd08184818dbdb9d1c9858dd60821b60648201526084016102b7565b7fa3f0ad74e5423aebfd80d3ef4346578335a9a72aeaee59ff6cb3582b35133d5080546001600160a01b0319166001600160a01b0392909216919091179055565b60606103ff83836040518060600160405280602781526020016106e260279139610406565b9392505050565b60606001600160a01b0384163b61046e5760405162461bcd60e51b815260206004820152602660248201527f416464726573733a2064656c65676174652063616c6c20746f206e6f6e2d636f6044820152651b9d1c9858dd60d21b60648201526084016102b7565b600080856001600160a01b0316856040516104899190610692565b600060405180830381855af49150503d80600081146104c4576040519150601f19603f3d011682016040523d82523d6000602084013e6104c9565b606091505b50915091506104d98282866104e3565b9695505050505050565b606083156104f25750816103ff565b8251156105025782518084602001fd5b8160405162461bcd60e51b81526004016102b791906106ae565b6001600160a01b038116811461053157600080fd5b50565b634e487b7160e01b600052604160045260246000fd5b6000806040838503121561055d57600080fd5b82356105688161051c565b9150602083013567ffffffffffffffff8082111561058557600080fd5b818501915085601f83011261059957600080fd5b8135818111156105ab576105ab610534565b604051601f8201601f19908116603f011681019083821181831017156105d3576105d3610534565b816040528281528860208487010111156105ec57600080fd5b8260208601602083013760006020848301015280955050505050509250929050565b60008282101561062e57634e487b7160e01b600052601160045260246000fd5b500390565b634e487b7160e01b600052600160045260246000fd5b60006020828403121561065b57600080fd5b81516103ff8161051c565b60005b83811015610681578181015183820152602001610669565b838111156102505750506000910152565b600082516106a4818460208701610666565b9190910192915050565b60208152600082518060208401526106cd816040850160208701610666565b601f01601f1916919091016040019291505056fe416464726573733a206c6f772d6c6576656c2064656c65676174652063616c6c206661696c6564a26469706673582212205e0b70f8fb442042d60d04b6fc28a561ca3692d97dfd09ab5c7c59ad70129e0e64736f6c634300080a00338de11a8d956993287a5b6a74c069984045abc1b621d651081c4c77c05c3cb7afa26469706673582212207cbaca949e87c91a07cd4fbfe627c227cffa6fe2794329140c492176f370f3a964736f6c634300080a0033",
  "libraries": {
    "TokenURI": "0xcf8075fa1012697343d0263f6579bf53f7bbdc8c"
  },
  "devdoc": {
    "author": "Jake Nyquist -- j@hook.xyz",
    "details": "Explain to a developer any extra details",
    "events": {
      "MarketPauseUpdated(bool)": {
        "details": "Emitted when the market is paused or unpaused",
        "params": {
          "paused": "true if paused false otherwise"
        }
      },
      "MinBidIncrementUpdated(uint256)": {
        "details": "Emitted when the bid increment is updated",
        "params": {
          "bidIncrementBips": "the new bid increment amount in bips"
        }
      },
      "MinOptionDurationUpdated(uint256)": {
        "details": "emitted when the minimum duration for an option is changed",
        "params": {
          "optionDuration": "new minimum length of an option in seconds."
        }
      },
      "SettlementAuctionStartOffsetUpdated(uint256)": {
        "details": "emitted when the settlement auction start offset is updated",
        "params": {
          "startOffset": "new number of seconds from expiration when the start offset begins"
        }
      }
    },
    "kind": "dev",
    "methods": {
      "approve(address,uint256)": {
        "details": "See {IERC721-approve}."
      },
      "balanceOf(address)": {
        "details": "See {IERC721-balanceOf}."
      },
      "bid(uint256)": {
        "details": "See {IHookCoveredCall-bid}."
      },
      "burn(uint256)": {
        "details": "Burns `tokenId`. See {ERC721-_burn}. Requirements: - The caller must own `tokenId` or be an approved operator."
      },
      "burnExpiredOption(uint256)": {
        "details": "See {IHookCoveredCall-burnExpiredOption}."
      },
      "contractUri(uint256)": {
        "details": "this is the OpenSea compatible collection - level metadata URI."
      },
      "currentBid(uint256)": {
        "details": "See {IHookCoveredCall-currentBid}."
      },
      "currentBidder(uint256)": {
        "details": "See {IHookCoveredCall-currentBidder}."
      },
      "getApproved(uint256)": {
        "details": "See {IERC721-getApproved}."
      },
      "getTransferCount(uint256)": {
        "details": "this count can be used by overbooks to invalidate orders after a token has been transferred, preventing stale order execution by malicious parties"
      },
      "initialize(address,address,address,address)": {
        "details": "Because the deployed contract is proxied, arguments unique to each deployment must be passed in an individual initializer. This function is like a constructor.",
        "params": {
          "hookVaultFactory": "the address of the ERC-721 vault registry",
          "nftContract": "the address for the ERC-721 contract that can serve as underlying instruments",
          "protocol": "the address of the Hook protocol (which contains configurations)"
        }
      },
      "isApprovedForAll(address,address)": {
        "details": "See {IERC721-isApprovedForAll}. this extension ensures that any operator contract located at {_approvedMarketpace} is considered approved internally in the ERC721 contract"
      },
      "mintWithEntitledVault(address,uint32,uint128,uint32)": {
        "details": "See {IHookCoveredCall-mintWithEntitledVault}."
      },
      "mintWithErc721(address,uint256,uint128,uint32)": {
        "details": "See {IHookCoveredCall-mintWithErc721}."
      },
      "mintWithVault(address,uint32,uint128,uint32,(uint8,uint8,bytes32,bytes32))": {
        "details": "See {IHookCoveredCall-mintWithVault}."
      },
      "name()": {
        "details": "See {IERC721Metadata-name}."
      },
      "ownerOf(uint256)": {
        "details": "See {IERC721-ownerOf}."
      },
      "reclaimAsset(uint256,bool)": {
        "details": "See {IHookCoveredCall-reclaimAsset}."
      },
      "safeTransferFrom(address,address,uint256)": {
        "details": "See {IERC721-safeTransferFrom}."
      },
      "safeTransferFrom(address,address,uint256,bytes)": {
        "details": "See {IERC721-safeTransferFrom}."
      },
      "setApprovalForAll(address,bool)": {
        "details": "See {IERC721-setApprovalForAll}."
      },
      "setBidIncrement(uint256)": {
        "details": "set the minimum overage, in bips, for a new bid compared to the current bid.",
        "params": {
          "newBidIncrement": "the minimum bid increment in basis points (1/100th of 1%)"
        }
      },
      "setMarketPaused(bool)": {
        "details": "sets a paused / unpaused state for the market corresponding to this contract",
        "params": {
          "paused": "should the market be set to paused or unpaused"
        }
      },
      "setMinOptionDuration(uint256)": {
        "details": "configures the minimum duration for a newly minted option. Options must be at least this far away in the future.",
        "params": {
          "newMinDuration": "is the minimum option duration in seconds"
        }
      },
      "setSettlementAuctionStartOffset(uint256)": {
        "details": "set the settlement auction start offset. Settlement auctions begin at this time prior to expiration.",
        "params": {
          "newSettlementStartOffset": "in seconds (i.e. block.timestamp increments)"
        }
      },
      "settleOption(uint256,bool)": {
        "details": "See {IHookCoveredCall-settleOption}."
      },
      "supportsInterface(bytes4)": {
        "details": "See {IERC165-supportsInterface}."
      },
      "symbol()": {
        "details": "See {IERC721Metadata-symbol}."
      },
      "tokenURI(uint256)": {
        "details": "See {IERC721-tokenURI}."
      },
      "transferFrom(address,address,uint256)": {
        "details": "See {IERC721-transferFrom}."
      }
    },
    "stateVariables": {
      "_erc721VaultFactory": {
        "details": "the address of the factory in the Hook protocol that can be used to generate ERC721 vaults"
      },
      "_optionIds": {
        "details": "holds the current ID for the last minted option. This is also the tokenID of the"
      },
      "_protocol": {
        "details": "the address of the deployed hook protocol contract, which has permissions and access controls"
      },
      "allowedUnderlyingAddress": {
        "details": "the address of the token contract permitted to serve as underlying assets for this instrument."
      },
      "marketPaused": {
        "details": "this is a flag that can be set to pause this particular instance of the call option contract. NOTE: settlement auctions are still enabled in this case because pausing the market should not change the financial situation for the holder of the options."
      },
      "minBidIncrementBips": {
        "details": "this is the minimum amount of the current bid that the new bid must exceed the current bid by in order to be considered valid. This amount is expressed in basis points (i.e. 1/100th of 1%)"
      },
      "minimumOptionDuration": {
        "details": "this is the minimum duration of an option created in this contract instance"
      },
      "optionParams": {
        "details": "storage of all existing options contracts."
      },
      "settlementAuctionStartOffset": {
        "details": "this is the amount of time before the expiration of the option that the settlement auction will begin."
      },
      "weth": {
        "details": "the address of WETH on the chain where this contract is deployed"
      }
    },
    "title": "HookCoveredCallImplV1 an implementation of covered calls on Hook",
    "version": 1
  },
  "userdoc": {
    "events": {
      "Bid(uint256,uint256,address)": {
        "notice": "emitted when a call option settlement auction gets and accepts a new bid"
      },
      "CallCreated(address,address,uint256,uint256,uint256,uint256)": {
        "notice": "emitted when a new call option is successfully minted with a specific underlying vault"
      },
      "CallReclaimed(uint256)": {
        "notice": "emitted when a call option is reclaimed"
      },
      "CallSettled(uint256)": {
        "notice": "emitted when a call option is settled"
      },
      "ExpiredCallBurned(uint256)": {
        "notice": "emitted when a expired call option is burned"
      }
    },
    "kind": "user",
    "methods": {
      "ADMIN_ROLE()": {
        "notice": "----- ROLES --------The Hook protocol admin can make any changes to the protocol"
      },
      "ALLOWLISTER_ROLE()": {
        "notice": "the allowlister is able to enable and disable projects to mint instruments"
      },
      "CALL_UPGRADER()": {
        "notice": "the call upgrader role is able to upgrade the implementation of the covered call options"
      },
      "COLLECTION_CONF()": {
        "notice": "the collection configuration role allows the actor to make changes the collection configs on the protocol contract"
      },
      "MARKET_CONF()": {
        "notice": "the market configuration role allows the actor to make changes to how the market operates"
      },
      "PAUSER_ROLE()": {
        "notice": "the pauser is able to start and pause various components of the protocol"
      },
      "VAULT_UPGRADER()": {
        "notice": "the vault upgrader role is able to upgrade the implementation for all vaults"
      },
      "constructor": {
        "notice": "--- Constructor"
      },
      "getAssetId(uint256)": {
        "notice": "getter for the assetId of the underlying asset within a vault"
      },
      "getExpiration(uint256)": {
        "notice": "getter for the options expiration. After this time the option is invalid"
      },
      "getStrikePrice(uint256)": {
        "notice": "getter for the option strike price"
      },
      "getTransferCount(uint256)": {
        "notice": "the number of times the token has been transferred"
      },
      "getVaultAddress(uint256)": {
        "notice": "getter for the address holding the underlying asset"
      },
      "initialize(address,address,address,address)": {
        "notice": "Initializes the specific instance of the instrument contract."
      }
    },
    "notice": "Covered call options use this logic to",
    "version": 1
  },
  "storageLayout": {
    "storage": [
      {
        "astId": 1187,
        "contract": "src/HookCoveredCallImplV1.sol:HookCoveredCallImplV1",
        "label": "_name",
        "offset": 0,
        "slot": "0",
        "type": "t_string_storage"
      },
      {
        "astId": 1189,
        "contract": "src/HookCoveredCallImplV1.sol:HookCoveredCallImplV1",
        "label": "_symbol",
        "offset": 0,
        "slot": "1",
        "type": "t_string_storage"
      },
      {
        "astId": 1193,
        "contract": "src/HookCoveredCallImplV1.sol:HookCoveredCallImplV1",
        "label": "_owners",
        "offset": 0,
        "slot": "2",
        "type": "t_mapping(t_uint256,t_address)"
      },
      {
        "astId": 1197,
        "contract": "src/HookCoveredCallImplV1.sol:HookCoveredCallImplV1",
        "label": "_balances",
        "offset": 0,
        "slot": "3",
        "type": "t_mapping(t_address,t_uint256)"
      },
      {
        "astId": 1201,
        "contract": "src/HookCoveredCallImplV1.sol:HookCoveredCallImplV1",
        "label": "_tokenApprovals",
        "offset": 0,
        "slot": "4",
        "type": "t_mapping(t_uint256,t_address)"
      },
      {
        "astId": 1207,
        "contract": "src/HookCoveredCallImplV1.sol:HookCoveredCallImplV1",
        "label": "_operatorApprovals",
        "offset": 0,
        "slot": "5",
        "type": "t_mapping(t_address,t_mapping(t_address,t_bool))"
      },
      {
        "astId": 7932,
        "contract": "src/HookCoveredCallImplV1.sol:HookCoveredCallImplV1",
        "label": "_transfers",
        "offset": 0,
        "slot": "6",
        "type": "t_mapping(t_uint256,t_struct(Counter)2588_storage)"
      },
      {
        "astId": 7947,
        "contract": "src/HookCoveredCallImplV1.sol:HookCoveredCallImplV1",
        "label": "_preApprovedMarketplace",
        "offset": 0,
        "slot": "7",
        "type": "t_address"
      },
      {
        "astId": 1132,
        "contract": "src/HookCoveredCallImplV1.sol:HookCoveredCallImplV1",
        "label": "_status",
        "offset": 0,
        "slot": "8",
        "type": "t_uint256"
      },
      {
        "astId": 894,
        "contract": "src/HookCoveredCallImplV1.sol:HookCoveredCallImplV1",
        "label": "_initialized",
        "offset": 0,
        "slot": "9",
        "type": "t_uint8"
      },
      {
        "astId": 897,
        "contract": "src/HookCoveredCallImplV1.sol:HookCoveredCallImplV1",
        "label": "_initializing",
        "offset": 1,
        "slot": "9",
        "type": "t_bool"
      },
      {
        "astId": 3543,
        "contract": "src/HookCoveredCallImplV1.sol:HookCoveredCallImplV1",
        "label": "_optionIds",
        "offset": 0,
        "slot": "10",
        "type": "t_struct(Counter)2588_storage"
      },
      {
        "astId": 3547,
        "contract": "src/HookCoveredCallImplV1.sol:HookCoveredCallImplV1",
        "label": "_erc721VaultFactory",
        "offset": 0,
        "slot": "11",
        "type": "t_contract(IHookERC721VaultFactory)7094"
      },
      {
        "astId": 3551,
        "contract": "src/HookCoveredCallImplV1.sol:HookCoveredCallImplV1",
        "label": "_protocol",
        "offset": 0,
        "slot": "12",
        "type": "t_contract(IHookProtocol)7138"
      },
      {
        "astId": 3557,
        "contract": "src/HookCoveredCallImplV1.sol:HookCoveredCallImplV1",
        "label": "optionParams",
        "offset": 0,
        "slot": "13",
        "type": "t_mapping(t_uint256,t_struct(CallOption)3539_storage)"
      },
      {
        "astId": 3560,
        "contract": "src/HookCoveredCallImplV1.sol:HookCoveredCallImplV1",
        "label": "allowedUnderlyingAddress",
        "offset": 0,
        "slot": "14",
        "type": "t_address"
      },
      {
        "astId": 3563,
        "contract": "src/HookCoveredCallImplV1.sol:HookCoveredCallImplV1",
        "label": "weth",
        "offset": 0,
        "slot": "15",
        "type": "t_address"
      },
      {
        "astId": 3566,
        "contract": "src/HookCoveredCallImplV1.sol:HookCoveredCallImplV1",
        "label": "minimumOptionDuration",
        "offset": 0,
        "slot": "16",
        "type": "t_uint256"
      },
      {
        "astId": 3569,
        "contract": "src/HookCoveredCallImplV1.sol:HookCoveredCallImplV1",
        "label": "minBidIncrementBips",
        "offset": 0,
        "slot": "17",
        "type": "t_uint256"
      },
      {
        "astId": 3572,
        "contract": "src/HookCoveredCallImplV1.sol:HookCoveredCallImplV1",
        "label": "settlementAuctionStartOffset",
        "offset": 0,
        "slot": "18",
        "type": "t_uint256"
      },
      {
        "astId": 3575,
        "contract": "src/HookCoveredCallImplV1.sol:HookCoveredCallImplV1",
        "label": "marketPaused",
        "offset": 0,
        "slot": "19",
        "type": "t_bool"
      }
    ],
    "types": {
      "t_address": {
        "encoding": "inplace",
        "label": "address",
        "numberOfBytes": "20"
      },
      "t_bool": {
        "encoding": "inplace",
        "label": "bool",
        "numberOfBytes": "1"
      },
      "t_contract(IHookERC721VaultFactory)7094": {
        "encoding": "inplace",
        "label": "contract IHookERC721VaultFactory",
        "numberOfBytes": "20"
      },
      "t_contract(IHookProtocol)7138": {
        "encoding": "inplace",
        "label": "contract IHookProtocol",
        "numberOfBytes": "20"
      },
      "t_mapping(t_address,t_bool)": {
        "encoding": "mapping",
        "key": "t_address",
        "label": "mapping(address => bool)",
        "numberOfBytes": "32",
        "value": "t_bool"
      },
      "t_mapping(t_address,t_mapping(t_address,t_bool))": {
        "encoding": "mapping",
        "key": "t_address",
        "label": "mapping(address => mapping(address => bool))",
        "numberOfBytes": "32",
        "value": "t_mapping(t_address,t_bool)"
      },
      "t_mapping(t_address,t_uint256)": {
        "encoding": "mapping",
        "key": "t_address",
        "label": "mapping(address => uint256)",
        "numberOfBytes": "32",
        "value": "t_uint256"
      },
      "t_mapping(t_uint256,t_address)": {
        "encoding": "mapping",
        "key": "t_uint256",
        "label": "mapping(uint256 => address)",
        "numberOfBytes": "32",
        "value": "t_address"
      },
      "t_mapping(t_uint256,t_struct(CallOption)3539_storage)": {
        "encoding": "mapping",
        "key": "t_uint256",
        "label": "mapping(uint256 => struct HookCoveredCallImplV1.CallOption)",
        "numberOfBytes": "32",
        "value": "t_struct(CallOption)3539_storage"
      },
      "t_mapping(t_uint256,t_struct(Counter)2588_storage)": {
        "encoding": "mapping",
        "key": "t_uint256",
        "label": "mapping(uint256 => struct Counters.Counter)",
        "numberOfBytes": "32",
        "value": "t_struct(Counter)2588_storage"
      },
      "t_string_storage": {
        "encoding": "bytes",
        "label": "string",
        "numberOfBytes": "32"
      },
      "t_struct(CallOption)3539_storage": {
        "encoding": "inplace",
        "label": "struct HookCoveredCallImplV1.CallOption",
        "members": [
          {
            "astId": 3524,
            "contract": "src/HookCoveredCallImplV1.sol:HookCoveredCallImplV1",
            "label": "writer",
            "offset": 0,
            "slot": "0",
            "type": "t_address"
          },
          {
            "astId": 3526,
            "contract": "src/HookCoveredCallImplV1.sol:HookCoveredCallImplV1",
            "label": "expiration",
            "offset": 20,
            "slot": "0",
            "type": "t_uint32"
          },
          {
            "astId": 3528,
            "contract": "src/HookCoveredCallImplV1.sol:HookCoveredCallImplV1",
            "label": "assetId",
            "offset": 24,
            "slot": "0",
            "type": "t_uint32"
          },
          {
            "astId": 3530,
            "contract": "src/HookCoveredCallImplV1.sol:HookCoveredCallImplV1",
            "label": "vaultAddress",
            "offset": 0,
            "slot": "1",
            "type": "t_address"
          },
          {
            "astId": 3532,
            "contract": "src/HookCoveredCallImplV1.sol:HookCoveredCallImplV1",
            "label": "strike",
            "offset": 0,
            "slot": "2",
            "type": "t_uint128"
          },
          {
            "astId": 3534,
            "contract": "src/HookCoveredCallImplV1.sol:HookCoveredCallImplV1",
            "label": "bid",
            "offset": 16,
            "slot": "2",
            "type": "t_uint128"
          },
          {
            "astId": 3536,
            "contract": "src/HookCoveredCallImplV1.sol:HookCoveredCallImplV1",
            "label": "highBidder",
            "offset": 0,
            "slot": "3",
            "type": "t_address"
          },
          {
            "astId": 3538,
            "contract": "src/HookCoveredCallImplV1.sol:HookCoveredCallImplV1",
            "label": "settled",
            "offset": 20,
            "slot": "3",
            "type": "t_bool"
          }
        ],
        "numberOfBytes": "128"
      },
      "t_struct(Counter)2588_storage": {
        "encoding": "inplace",
        "label": "struct Counters.Counter",
        "members": [
          {
            "astId": 2587,
            "contract": "src/HookCoveredCallImplV1.sol:HookCoveredCallImplV1",
            "label": "_value",
            "offset": 0,
            "slot": "0",
            "type": "t_uint256"
          }
        ],
        "numberOfBytes": "32"
      },
      "t_uint128": {
        "encoding": "inplace",
        "label": "uint128",
        "numberOfBytes": "16"
      },
      "t_uint256": {
        "encoding": "inplace",
        "label": "uint256",
        "numberOfBytes": "32"
      },
      "t_uint32": {
        "encoding": "inplace",
        "label": "uint32",
        "numberOfBytes": "4"
      },
      "t_uint8": {
        "encoding": "inplace",
        "label": "uint8",
        "numberOfBytes": "1"
      }
    }
  }
}