{
  "address": "0x1C07ba76Ecd392eea18C6836715058696B097D97",
  "abi": [
    {
      "inputs": [],
      "stateMutability": "nonpayable",
      "type": "constructor"
    },
    {
      "anonymous": false,
      "inputs": [
        {
          "indexed": false,
          "internalType": "address",
          "name": "owner",
          "type": "address"
        },
        {
          "indexed": false,
          "internalType": "uint256",
          "name": "tokenId",
          "type": "uint256"
        },
        {
          "indexed": false,
          "internalType": "address",
          "name": "flashLoanImpl",
          "type": "address"
        }
      ],
      "name": "AssetFlashLoaned",
      "type": "event"
    },
    {
      "anonymous": false,
      "inputs": [
        {
          "indexed": false,
          "internalType": "address",
          "name": "owner",
          "type": "address"
        },
        {
          "indexed": false,
          "internalType": "address",
          "name": "sender",
          "type": "address"
        },
        {
          "indexed": false,
          "internalType": "address",
          "name": "contractAddress",
          "type": "address"
        },
        {
          "indexed": false,
          "internalType": "uint32",
          "name": "assetId",
          "type": "uint32"
        }
      ],
      "name": "AssetReceived",
      "type": "event"
    },
    {
      "anonymous": false,
      "inputs": [
        {
          "indexed": false,
          "internalType": "uint32",
          "name": "assetId",
          "type": "uint32"
        },
        {
          "indexed": false,
          "internalType": "address",
          "name": "to",
          "type": "address"
        },
        {
          "indexed": false,
          "internalType": "address",
          "name": "beneficialOwner",
          "type": "address"
        }
      ],
      "name": "AssetWithdrawn",
      "type": "event"
    },
    {
      "anonymous": false,
      "inputs": [
        {
          "indexed": false,
          "internalType": "uint32",
          "name": "assetId",
          "type": "uint32"
        },
        {
          "indexed": false,
          "internalType": "address",
          "name": "beneficialOwner",
          "type": "address"
        },
        {
          "indexed": false,
          "internalType": "address",
          "name": "setBy",
          "type": "address"
        }
      ],
      "name": "BeneficialOwnerSet",
      "type": "event"
    },
    {
      "anonymous": false,
      "inputs": [
        {
          "indexed": false,
          "internalType": "uint256",
          "name": "assetId",
          "type": "uint256"
        },
        {
          "indexed": false,
          "internalType": "address",
          "name": "beneficialOwner",
          "type": "address"
        }
      ],
      "name": "EntitlementCleared",
      "type": "event"
    },
    {
      "anonymous": false,
      "inputs": [
        {
          "indexed": false,
          "internalType": "uint32",
          "name": "assetId",
          "type": "uint32"
        },
        {
          "indexed": false,
          "internalType": "address",
          "name": "entitledAccount",
          "type": "address"
        },
        {
          "indexed": false,
          "internalType": "uint32",
          "name": "expiry",
          "type": "uint32"
        },
        {
          "indexed": false,
          "internalType": "address",
          "name": "beneficialOwner",
          "type": "address"
        }
      ],
      "name": "EntitlementImposed",
      "type": "event"
    },
    {
      "anonymous": false,
      "inputs": [
        {
          "indexed": false,
          "internalType": "uint8",
          "name": "version",
          "type": "uint8"
        }
      ],
      "name": "Initialized",
      "type": "event"
    },
    {
      "inputs": [],
      "name": "EIP712_DOMAIN_SEPARATOR",
      "outputs": [
        {
          "internalType": "bytes32",
          "name": "",
          "type": "bytes32"
        }
      ],
      "stateMutability": "view",
      "type": "function"
    },
    {
      "inputs": [
        {
          "internalType": "uint32",
          "name": "",
          "type": "uint32"
        }
      ],
      "name": "assetAddress",
      "outputs": [
        {
          "internalType": "address",
          "name": "",
          "type": "address"
        }
      ],
      "stateMutability": "view",
      "type": "function"
    },
    {
      "inputs": [
        {
          "internalType": "uint32",
          "name": "assetId",
          "type": "uint32"
        }
      ],
      "name": "assetTokenId",
      "outputs": [
        {
          "internalType": "uint256",
          "name": "",
          "type": "uint256"
        }
      ],
      "stateMutability": "view",
      "type": "function"
    },
    {
      "inputs": [
        {
          "internalType": "uint32",
          "name": "assetId",
          "type": "uint32"
        }
      ],
      "name": "clearEntitlement",
      "outputs": [],
      "stateMutability": "nonpayable",
      "type": "function"
    },
    {
      "inputs": [
        {
          "internalType": "uint32",
          "name": "assetId",
          "type": "uint32"
        },
        {
          "internalType": "address",
          "name": "receiver",
          "type": "address"
        }
      ],
      "name": "clearEntitlementAndDistribute",
      "outputs": [],
      "stateMutability": "nonpayable",
      "type": "function"
    },
    {
      "inputs": [
        {
          "internalType": "uint32",
          "name": "assetId",
          "type": "uint32"
        }
      ],
      "name": "entitlementExpiration",
      "outputs": [
        {
          "internalType": "uint32",
          "name": "expiry",
          "type": "uint32"
        }
      ],
      "stateMutability": "view",
      "type": "function"
    },
    {
      "inputs": [
        {
          "internalType": "address",
          "name": "to",
          "type": "address"
        },
        {
          "internalType": "bytes",
          "name": "data",
          "type": "bytes"
        }
      ],
      "name": "execTransaction",
      "outputs": [
        {
          "internalType": "bool",
          "name": "success",
          "type": "bool"
        }
      ],
      "stateMutability": "payable",
      "type": "function"
    },
    {
      "inputs": [
        {
          "internalType": "uint32",
          "name": "assetId",
          "type": "uint32"
        },
        {
          "internalType": "address",
          "name": "receiverAddress",
          "type": "address"
        },
        {
          "internalType": "bytes",
          "name": "params",
          "type": "bytes"
        }
      ],
      "name": "flashLoan",
      "outputs": [],
      "stateMutability": "nonpayable",
      "type": "function"
    },
    {
      "inputs": [
        {
          "internalType": "uint32",
          "name": "assetId",
          "type": "uint32"
        }
      ],
      "name": "getBeneficialOwner",
      "outputs": [
        {
          "internalType": "address",
          "name": "",
          "type": "address"
        }
      ],
      "stateMutability": "view",
      "type": "function"
    },
    {
      "inputs": [
        {
          "internalType": "uint32",
          "name": "assetId",
          "type": "uint32"
        }
      ],
      "name": "getCurrentEntitlementOperator",
      "outputs": [
        {
          "internalType": "bool",
          "name": "isActive",
          "type": "bool"
        },
        {
          "internalType": "address",
          "name": "operator",
          "type": "address"
        }
      ],
      "stateMutability": "view",
      "type": "function"
    },
    {
      "inputs": [
        {
          "internalType": "uint32",
          "name": "assetId",
          "type": "uint32"
        }
      ],
      "name": "getHoldsAsset",
      "outputs": [
        {
          "internalType": "bool",
          "name": "holdsAsset",
          "type": "bool"
        }
      ],
      "stateMutability": "view",
      "type": "function"
    },
    {
      "inputs": [
        {
          "components": [
            {
              "internalType": "address",
              "name": "beneficialOwner",
              "type": "address"
            },
            {
              "internalType": "address",
              "name": "operator",
              "type": "address"
            },
            {
              "internalType": "address",
              "name": "vaultAddress",
              "type": "address"
            },
            {
              "internalType": "uint32",
              "name": "assetId",
              "type": "uint32"
            },
            {
              "internalType": "uint32",
              "name": "expiry",
              "type": "uint32"
            }
          ],
          "internalType": "struct Entitlements.Entitlement",
          "name": "entitlement",
          "type": "tuple"
        }
      ],
      "name": "grantEntitlement",
      "outputs": [],
      "stateMutability": "nonpayable",
      "type": "function"
    },
    {
      "inputs": [
        {
          "internalType": "uint32",
          "name": "assetId",
          "type": "uint32"
        }
      ],
      "name": "hasActiveEntitlement",
      "outputs": [
        {
          "internalType": "bool",
          "name": "",
          "type": "bool"
        }
      ],
      "stateMutability": "view",
      "type": "function"
    },
    {
      "inputs": [
        {
          "internalType": "address",
          "name": "operator",
          "type": "address"
        },
        {
          "internalType": "uint32",
          "name": "expiry",
          "type": "uint32"
        },
        {
          "internalType": "uint32",
          "name": "assetId",
          "type": "uint32"
        },
        {
          "internalType": "uint8",
          "name": "v",
          "type": "uint8"
        },
        {
          "internalType": "bytes32",
          "name": "r",
          "type": "bytes32"
        },
        {
          "internalType": "bytes32",
          "name": "s",
          "type": "bytes32"
        }
      ],
      "name": "imposeEntitlement",
      "outputs": [],
      "stateMutability": "nonpayable",
      "type": "function"
    },
    {
      "inputs": [
        {
          "internalType": "address",
          "name": "nftContract",
          "type": "address"
        },
        {
          "internalType": "address",
          "name": "hookAddress",
          "type": "address"
        }
      ],
      "name": "initialize",
      "outputs": [],
      "stateMutability": "nonpayable",
      "type": "function"
    },
    {
      "inputs": [
        {
          "internalType": "address",
          "name": "nftContract",
          "type": "address"
        },
        {
          "internalType": "uint256",
          "name": "tokenId",
          "type": "uint256"
        },
        {
          "internalType": "address",
          "name": "hookAddress",
          "type": "address"
        }
      ],
      "name": "initialize",
      "outputs": [],
      "stateMutability": "nonpayable",
      "type": "function"
    },
    {
      "inputs": [
        {
          "internalType": "address",
          "name": "operator",
          "type": "address"
        },
        {
          "internalType": "address",
          "name": "from",
          "type": "address"
        },
        {
          "internalType": "uint256",
          "name": "tokenId",
          "type": "uint256"
        },
        {
          "internalType": "bytes",
          "name": "data",
          "type": "bytes"
        }
      ],
      "name": "onERC721Received",
      "outputs": [
        {
          "internalType": "bytes4",
          "name": "",
          "type": "bytes4"
        }
      ],
      "stateMutability": "nonpayable",
      "type": "function"
    },
    {
      "inputs": [
        {
          "internalType": "uint32",
          "name": "assetId",
          "type": "uint32"
        },
        {
          "internalType": "address",
          "name": "newBeneficialOwner",
          "type": "address"
        }
      ],
      "name": "setBeneficialOwner",
      "outputs": [],
      "stateMutability": "nonpayable",
      "type": "function"
    },
    {
      "inputs": [
        {
          "internalType": "bytes4",
          "name": "interfaceId",
          "type": "bytes4"
        }
      ],
      "name": "supportsInterface",
      "outputs": [
        {
          "internalType": "bool",
          "name": "",
          "type": "bool"
        }
      ],
      "stateMutability": "view",
      "type": "function"
    },
    {
      "inputs": [
        {
          "internalType": "address",
          "name": "operator",
          "type": "address"
        },
        {
          "internalType": "uint32",
          "name": "expiry",
          "type": "uint32"
        },
        {
          "internalType": "uint32",
          "name": "assetId",
          "type": "uint32"
        },
        {
          "internalType": "uint8",
          "name": "v",
          "type": "uint8"
        },
        {
          "internalType": "bytes32",
          "name": "r",
          "type": "bytes32"
        },
        {
          "internalType": "bytes32",
          "name": "s",
          "type": "bytes32"
        }
      ],
      "name": "validateEntitlementSignature",
      "outputs": [],
      "stateMutability": "view",
      "type": "function"
    },
    {
      "inputs": [
        {
          "internalType": "uint32",
          "name": "assetId",
          "type": "uint32"
        }
      ],
      "name": "withdrawalAsset",
      "outputs": [],
      "stateMutability": "nonpayable",
      "type": "function"
    }
  ],
  "transactionHash": "0xd061cad81764ea8d2905a07f5ad7724b06ba8ad2d4af725f4d4e75e403c97282",
  "args": [],
  "numDeployments": 1,
  "solcInputHash": "f9079719c55ec367359fccdad37d4c49",
  "bytecode": "0x608060405234801561001057600080fd5b506001600255612945806100256000396000f3fe60806040526004361061012a5760003560e01c80637ae7cfb5116100ab578063c72bed151161006f578063c72bed151461036a578063dab400f3146103a9578063dbd74309146103cd578063e7dc956b146103ed578063eaf8b3231461040d578063ecb2c20b1461042d57600080fd5b80637ae7cfb5146102d7578063942811b5146102ea578063ba02481b1461030a578063bf6346b71461032a578063c350a1b51461034a57600080fd5b80632ec14d3f116100f25780632ec14d3f14610222578063485cc955146102425780634eeeaa321461026257806360bbf4a414610282578063774a7627146102a257600080fd5b806301ffc9a71461012f57806303e7158b14610164578063150b7a02146101865780631f48f6ab146101bf57806325a2398214610202575b600080fd5b34801561013b57600080fd5b5061014f61014a36600461235a565b610469565b60405190151581526020015b60405180910390f35b34801561017057600080fd5b5061018461017f3660046123b4565b6104a0565b005b34801561019257600080fd5b506101a66101a136600461246d565b6104e5565b6040516001600160e01b0319909116815260200161015b565b3480156101cb57600080fd5b506101ea6101da3660046124e0565b506003546001600160a01b031690565b6040516001600160a01b03909116815260200161015b565b34801561020e57600080fd5b5061018461021d3660046124fb565b610702565b34801561022e57600080fd5b5061018461023d3660046124fb565b61096b565b34801561024e57600080fd5b5061018461025d366004612532565b61099f565b34801561026e57600080fd5b5061018461027d3660046124e0565b610a45565b34801561028e57600080fd5b5061018461029d366004612550565b610a77565b3480156102ae57600080fd5b506102c26102bd3660046124e0565b610b6a565b60405163ffffffff909116815260200161015b565b61014f6102e536600461257e565b610bac565b3480156102f657600080fd5b5061014f6103053660046124e0565b610ef1565b34801561031657600080fd5b5061014f6103253660046124e0565b610f46565b34801561033657600080fd5b50610184610345366004612642565b610f62565b34801561035657600080fd5b506101846103653660046126a5565b611599565b34801561037657600080fd5b5061038a6103853660046124e0565b6115b1565b6040805192151583526001600160a01b0390911660208301520161015b565b3480156103b557600080fd5b506103bf60005481565b60405190815260200161015b565b3480156103d957600080fd5b506101846103e83660046123b4565b6115ea565b3480156103f957600080fd5b506103bf6104083660046124e0565b6117a0565b34801561041957600080fd5b506101846104283660046124e0565b6117ab565b34801561043957600080fd5b506101ea6104483660046124e0565b63ffffffff166000908152600460205260409020546001600160a01b031690565b60006001600160e01b0319821663162ff4f760e21b148061049a57506001600160e01b031982166301ffc9a760e01b145b92915050565b63ffffffff841680156104ce5760405162461bcd60e51b81526004016104c5906126e7565b60405180910390fd5b6104dc8787878787876118cc565b50505050505050565b6003546000906001600160a01b031633148015610503575060065484145b1561058657610513600086611986565b811561058157600080806105298587018761273b565b92509250925061053a600084611986565b600080805260046020527f17ef568e3e12ab5b9c7254a8d58478811de00f9e6eb34345acd53bf8fd09d3ec5461057d9190849084906001600160a01b0316611a67565b5050505b6106a0565b60055460035460405163194f672960e01b81526001600160a01b0391821660048201527fb412698babfc09c0301b5d182736929808a05b7d7d7385d9ef48282f76765780602482015291169063194f672990604401602060405180830381865afa1580156105f8573d6000803e3d6000fd5b505050506040513d601f19601f8201168201806040525081019061061c9190612782565b156106a05760405162461bcd60e51b815260206004820152604860248201527f6f6e4552433732315265636569766564202d2d206e6f6e2d657363726f77206160448201527f737365742072657475726e6564207768656e2061697264726f70732061726520606482015267191a5cd8589b195960c21b608482015260a4016104c5565b604080516001600160a01b0387811682528816602082015233818301526000606082015290517f7897fd58abdfc815ef9370ad67929a217fbaa4b692c4b1086930ae97e4a7fe2d9181900360800190a150630a85bd0160e11b95945050505050565b6002805414156107545760405162461bcd60e51b815260206004820152601f60248201527f5265656e7472616e637947756172643a207265656e7472616e742063616c6c0060448201526064016104c5565b6002805563ffffffff82166000908152600460205260409020546001600160a01b038281169116146108075760405162461bcd60e51b815260206004820152605060248201527f636c656172456e7469746c656d656e74416e6444697374726962757465202d2d60448201527f204f6e6c79207468652062656e6566696369616c206f776e65722063616e207260648201526f1958d95a5d99481d1a1948185cdcd95d60821b608482015260a4016104c5565b6001600160a01b0381166108925760405162461bcd60e51b815260206004820152604660248201527f636c656172456e7469746c656d656e74416e6444697374726962757465202d2d60448201527f206173736574732063616e6e6f742062652073656e7420746f206e756c6c206160648201526564647265737360d01b608482015260a4016104c5565b61089b826117ab565b6003546001600160a01b03166342842e0e30836108b786611c68565b6040518463ffffffff1660e01b81526004016108d5939291906127a4565b600060405180830381600087803b1580156108ef57600080fd5b505af1158015610903573d6000803e3d6000fd5b50505063ffffffff8316600090815260046020526040908190205490517f79ab5c29ad5c9805473ba77c80b4472dd5721aae58e97158a7bbc53205ee7180925061095a91859133916001600160a01b0316906127c8565b60405180910390a150506001600255565b63ffffffff821680156109905760405162461bcd60e51b81526004016104c5906126e7565b61099a8383611c99565b505050565b60006109ab6001611e26565b905080156109c3576001805461ff0019166101001790555b6109cc82611eae565b600380546001600160a01b038086166001600160a01b0319928316179092556005805492851692909116919091179055801561099a576001805461ff00191681556040519081527f7f26b83ff96e1f2b6a682f133852f6798a09c465da95921460cefb38474024989060200160405180910390a1505050565b63ffffffff81168015610a6a5760405162461bcd60e51b81526004016104c5906126e7565b610a7382611f60565b5050565b3360046000610a8c60808501606086016124e0565b63ffffffff1681526020810191909152604001600020546001600160a01b031614610b2e5760405162461bcd60e51b815260206004820152604660248201527f6772616e74456e7469746c656d656e74202d2d206f6e6c79207468652062656e60448201527f6566696369616c206f776e65722063616e206772616e7420616e20656e7469746064820152651b195b595b9d60d21b608482015260a4016104c5565b610b67610b4160808301606084016124e0565b610b5160408401602085016127ef565b610b6160a08501608086016124e0565b33611a67565b50565b6000610b7582610ef1565b610b8157506000919050565b5063ffffffff908116600090815260046020526040902060010154600160a01b90041690565b919050565b600080805260046020527f17ef568e3e12ab5b9c7254a8d58478811de00f9e6eb34345acd53bf8fd09d3ec546001600160a01b03163314610c635760405162461bcd60e51b8152602060048201526044602482018190527f657865635472616e73616374696f6e202d2d206f6e6c79207468652062656e65908201527f66696369616c206f776e65722063616e2075736520746865207472616e7361636064820152633a34b7b760e11b608482015260a4016104c5565b6003546001600160a01b0384811691161415610cf65760405162461bcd60e51b815260206004820152604660248201527f657865635472616e73616374696f6e202d2d2063616e6e6f742073656e64207460448201527f72616e73616374696f6e7320746f20746865204e465420636f6e74726163742060648201526534ba39b2b63360d11b608482015260a4016104c5565b6001600160a01b038316301415610d695760405162461bcd60e51b815260206004820152603160248201527f657865635472616e73616374696f6e202d2d2063616e6e6f742063616c6c20746044820152701a19481d985d5b1d0818dbdb9d1c9858dd607a1b60648201526084016104c5565b60055460035460405163194f672960e01b81526001600160a01b0391821660048201527f2bd4c5aff60ff3434688f381717660e12ab5cc42c032cfecd11e47b7660aaf88602482015291169063194f672990604401602060405180830381865afa158015610ddb573d6000803e3d6000fd5b505050506040513d601f19601f82011682018060405250810190610dff9190612782565b15610e725760405162461bcd60e51b815260206004820152603a60248201527f657865635472616e73616374696f6e202d2d206665617475726520697320646960448201527f7361626c656420666f72207468697320636f6c6c656374696f6e00000000000060648201526084016104c5565b826001600160a01b03163483604051610e8b919061280c565b60006040518083038185875af1925050503d8060008114610ec8576040519150601f19603f3d011682016040523d82523d6000602084013e610ecd565b606091505b50909150309050610ede60006120d5565b6001600160a01b03161461049a57600080fd5b63ffffffff8082166000908152600460205260408120600101549091600160a01b909104164210801561049a57505063ffffffff166000908152600460205260409020600101546001600160a01b0316151590565b600030610f52836120d5565b6001600160a01b03161492915050565b600280541415610fb45760405162461bcd60e51b815260206004820152601f60248201527f5265656e7472616e637947756172643a207265656e7472616e742063616c6c0060448201526064016104c5565b60028055826001600160a01b03811661100f5760405162461bcd60e51b815260206004820152601960248201527f666c6173684c6f616e202d2d207a65726f20616464726573730000000000000060448201526064016104c5565b30611019866120d5565b6001600160a01b03161461106f5760405162461bcd60e51b815260206004820152601f60248201527f666c6173684c6f616e202d2d206173736574206e6f7420696e207661756c740060448201526064016104c5565b63ffffffff85166000908152600460205260409020546001600160a01b031633146110ef5760405162461bcd60e51b815260206004820152602a60248201527f666c6173684c6f616e202d2d206e6f742063616c6c656420627920746865206160448201526939b9b2ba1037bbb732b960b11b60648201526084016104c5565b60055460035460405163194f672960e01b81526001600160a01b0391821660048201527f7b2ae2881a80edd04dac29e0424a8afcb85d139d6204e45ea854215cb864990b602482015291169063194f672990604401602060405180830381865afa158015611161573d6000803e3d6000fd5b505050506040513d601f19601f820116820180604052508101906111859190612782565b156111f85760405162461bcd60e51b815260206004820152603960248201527f666c6173684c6f616e202d2d20666c6173684c6f616e2066656174757265206460448201527f697361626c656420666f72207468697320636f6e74726163740000000000000060648201526084016104c5565b63ffffffff85166000908152600460209081526040808320905161124c920181546001600160a01b03908116825260019290920154918216602082015260a09190911c63ffffffff16604082015260600190565b60408051601f1981840301815291905280516020909101206003549091506001600160a01b03166342842e0e30876112838a611c68565b6040518463ffffffff1660e01b81526004016112a1939291906127a4565b600060405180830381600087803b1580156112bb57600080fd5b505af11580156112cf573d6000803e3d6000fd5b50506003546001600160a01b03808616935063817dc5e59250166112f289611c68565b333089896040518763ffffffff1660e01b815260040161131796959493929190612847565b6020604051808303816000875af1158015611336573d6000803e3d6000fd5b505050506040513d601f19601f8201168201806040525081019061135a9190612782565b6113c45760405162461bcd60e51b815260206004820152603560248201527f666c6173684c6f616e202d2d2074686520666c617368206c6f616e20636f6e7460448201527472616374206d7573742072657475726e207472756560581b60648201526084016104c5565b6003546001600160a01b03166323b872dd86306113e08a611c68565b6040518463ffffffff1660e01b81526004016113fe939291906127a4565b600060405180830381600087803b15801561141857600080fd5b505af115801561142c573d6000803e3d6000fd5b50505050306001600160a01b0316611443876120d5565b6001600160a01b03161461145657600080fd5b63ffffffff861660009081526004602090815260409182902091516114ac92910181546001600160a01b03908116825260019290920154918216602082015260a09190911c63ffffffff16604082015260600190565b60405160208183030381529060405280519060200120811461152a5760405162461bcd60e51b815260206004820152603160248201527f666c6173684c6f616e202d2d20656e7469746c656d656e742073746174652063604482015270185b9b9bdd081899481b5bd91a599a5959607a1b60648201526084016104c5565b63ffffffff86166000818152600460209081526040918290205482516001600160a01b0391821681529182019390935291871682820152517fb9a0fd57b76d147a2f98aed604908c2285d360c4349bf8c59e89365e39b2f9e29181900360600190a15050600160025550505050565b6115a281611eae565b600682905561099a838261099f565b6000806115bd83610ef1565b63ffffffff90931660009081526004602052604090206001015492936001600160a01b0390931692915050565b6040805160a08101825263ffffffff808716600081815260046020908152858220546001600160a01b0390811686528c169085015230948401949094526060830152871660808201526116459061164090612151565b61228f565b6040805160008082526020820180845284905260ff88169282019290925260608101869052608081018590529192509060019060a0016020604051602081039080840390855afa15801561169d573d6000803e3d6000fd5b5050604051601f1901519150506001600160a01b0381166117005760405162461bcd60e51b815260206004820152601960248201527f7265636f76657265642061646472657373206973206e756c6c0000000000000060448201526064016104c5565b63ffffffff86166000908152600460205260409020546001600160a01b038281169116146117965760405162461bcd60e51b815260206004820152603e60248201527f76616c6964617465456e7469746c656d656e745369676e6174757265202d2d2d60448201527f206e6f74207369676e65642062792062656e6566696369616c4f776e6572000060648201526084016104c5565b5050505050505050565b600061049a82611c68565b6117b481610ef1565b61181d5760405162461bcd60e51b815260206004820152603460248201527f636c656172456e7469746c656d656e74202d2d20616e2061637469766520656e6044820152731d1a5d1b195b595b9d081b5d5cdd08195e1a5cdd60621b60648201526084016104c5565b63ffffffff81166000908152600460205260409020600101546001600160a01b031633146118c35760405162461bcd60e51b815260206004820152604760248201527f636c656172456e7469746c656d656e74202d2d206f6e6c792074686520656e7460448201527f69746c656420616464726573732063616e20636c6561722074686520656e74696064820152661d1b195b595b9d60ca1b608482015260a4016104c5565b610b67816122b8565b63ffffffff84166000908152600460205260409020546001600160a01b03166119705760405162461bcd60e51b815260206004820152604a60248201527f696d706f7365456e7469746c656d656e74202d2d2062656e6566696369616c2060448201527f6f776e6572206d7573742062652073657420746f20696d706f736520616e20656064820152691b9d1a5d1b195b595b9d60b21b608482015260a4016104c5565b61197e86868686868661231e565b505050505050565b6001600160a01b0381166119f95760405162461bcd60e51b815260206004820152603460248201527f5f73657442656e6566696369616c4f776e6572202d2d206e6577206f776e657260448201527320697320746865207a65726f206164647265737360601b60648201526084016104c5565b63ffffffff82166000908152600460205260409081902080546001600160a01b0319166001600160a01b038416179055517f183944454934706f9df1285ff0207d23600c244528512cdc01c94f5ec8f601b490611a5b908490849033906127c8565b60405180910390a15050565b611a7084610ef1565b15611b145760405162461bcd60e51b815260206004820152606260248201527f5f766572696679416e645265676973746572456e7469746c656d656e74202d2d60448201527f206578697374696e6720656e7469746c656d656e74206d75737420626520636c60648201527f6561726564206265666f7265207265676973746572696e672061206e6577206f6084820152616e6560f01b60a482015260c4016104c5565b428263ffffffff1611611b9e5760405162461bcd60e51b815260206004820152604660248201527f5f766572696679416e645265676973746572456e7469746c656d656e74202d2d60448201527f20656e7469746c656d656e74206d7573742065787069726520696e207468652060648201526566757475726560d01b608482015260a4016104c5565b60408051606080820183526001600160a01b03848116808452878216602080860182815263ffffffff8a8116888a018181528e83166000818152600487528c90209a518b546001600160a01b031916908a16178b5593516001909a01805491519a9098166001600160c01b031990911617600160a01b9990921698909802179094558651938452830152938101929092528101919091527f595e586d44ea8c92723ac9fdd4897e8a5ee6d55e2bad6d386fe7ccbff5912b239060800160405180910390a150505050565b600063ffffffff82168015611c8f5760405162461bcd60e51b81526004016104c5906126e7565b5050600654919050565b611ca282610ef1565b15611d745763ffffffff82166000908152600460205260409020600101546001600160a01b03163314611d6f5760405162461bcd60e51b815260206004820152606360248201527f73657442656e6566696369616c4f776e6572202d2d206f6e6c7920746865206360448201527f6f6e74726163742077697468207468652061637469766520656e7469746c656d60648201527f656e742063616e20757064617465207468652062656e6566696369616c206f776084820152623732b960e91b60a482015260c4016104c5565b611e1c565b63ffffffff82166000908152600460205260409020546001600160a01b03163314611e1c5760405162461bcd60e51b815260206004820152604c60248201527f73657442656e6566696369616c4f776e6572202d2d206f6e6c7920746865206360448201527f757272656e74206f776e65722063616e20757064617465207468652062656e6560648201526b3334b1b4b0b61037bbb732b960a11b608482015260a4016104c5565b610a738282611986565b600154600090610100900460ff1615611e6f578160ff166001148015611e4b5750303b155b611e675760405162461bcd60e51b81526004016104c5906128a4565b506000919050565b60015460ff808416911610611e965760405162461bcd60e51b81526004016104c5906128a4565b506001805460ff191660ff9290921691909117815590565b604080517f8b73c3c69bb8fe3d512ecc4cf759cc79239f7b179b0ffacaa9a75d522b39400f60208201527fbefac456e8d3c7dcbe25358dd865ef756e23bdcd0f4f36a6e915a0f24b6849e9918101919091527f06c015bd22b4c69690933c1058878ebdfef31f9aaae40bbe86d8a09fe1b2972c606082015246608082018190526001600160a01b03831660a08301529060c00160408051601f1981840301815291905280516020909101206000555050565b611f6981610ef1565b15611ff05760405162461bcd60e51b815260206004820152604b60248201527f7769746864726177616c4173736574202d2d207468652061737365742063616e60448201527f6e6f742062652077697468647261776e207769746820616e206163746976652060648201526a195b9d1a5d1b195b595b9d60aa1b608482015260a4016104c5565b60035463ffffffff82166000908152600460205260409020546001600160a01b03918216916342842e0e9130911661202785611c68565b6040518463ffffffff1660e01b8152600401612045939291906127a4565b600060405180830381600087803b15801561205f57600080fd5b505af1158015612073573d6000803e3d6000fd5b50505063ffffffff8216600090815260046020526040908190205490517f79ab5c29ad5c9805473ba77c80b4472dd5721aae58e97158a7bbc53205ee718092506120ca91849133916001600160a01b0316906127c8565b60405180910390a150565b6003546000906001600160a01b0316636352211e6120f284611c68565b6040518263ffffffff1660e01b815260040161211091815260200190565b602060405180830381865afa15801561212d573d6000803e3d6000fd5b505050506040513d601f19601f8201168201806040525081019061049a91906128f2565b6040516b08adce8d2e8d8cadacadce8560a31b60208201527f616464726573732062656e6566696369616c4f776e65722c0000000000000000602c820152701859191c995cdcc81bdc195c985d1bdc8b607a1b6044820152741859191c995cdcc81d985d5b1d1059191c995cdccb605a1b60558201526e1d5a5b9d0ccc88185cdcd95d12590b608a1b606a8201526c75696e7433322065787069727960981b6079820152602960f81b608682015260009060870160408051601f198184030181528282528051602091820120855186830151878501516060808a01516080808c0151978a01969096526001600160a01b039485169789019790975291831691870191909152169084015263ffffffff91821660a08401521660c082015260e0015b604051602081830303815290604052805190602001209050919050565b6000805460405161190160f01b6020820152602281019190915260428101839052606201612272565b63ffffffff81166000818152600460209081526040918290206001810180546001600160c01b03191690555482519384526001600160a01b0316908301527fd7aa6a9fe8ec62f38eafaf1c43d6816defbf427c414d3b0e865cb5cdd52a647c91016120ca565b61232c8686868686866115ea565b63ffffffff841660009081526004602052604090205461197e908590889088906001600160a01b0316611a67565b60006020828403121561236c57600080fd5b81356001600160e01b03198116811461238457600080fd5b9392505050565b6001600160a01b0381168114610b6757600080fd5b803563ffffffff81168114610ba757600080fd5b60008060008060008060c087890312156123cd57600080fd5b86356123d88161238b565b95506123e6602088016123a0565b94506123f4604088016123a0565b9350606087013560ff8116811461240a57600080fd5b9598949750929560808101359460a0909101359350915050565b60008083601f84011261243657600080fd5b50813567ffffffffffffffff81111561244e57600080fd5b60208301915083602082850101111561246657600080fd5b9250929050565b60008060008060006080868803121561248557600080fd5b85356124908161238b565b945060208601356124a08161238b565b935060408601359250606086013567ffffffffffffffff8111156124c357600080fd5b6124cf88828901612424565b969995985093965092949392505050565b6000602082840312156124f257600080fd5b612384826123a0565b6000806040838503121561250e57600080fd5b612517836123a0565b915060208301356125278161238b565b809150509250929050565b6000806040838503121561254557600080fd5b82356125178161238b565b600060a0828403121561256257600080fd5b50919050565b634e487b7160e01b600052604160045260246000fd5b6000806040838503121561259157600080fd5b823561259c8161238b565b9150602083013567ffffffffffffffff808211156125b957600080fd5b818501915085601f8301126125cd57600080fd5b8135818111156125df576125df612568565b604051601f8201601f19908116603f0116810190838211818310171561260757612607612568565b8160405282815288602084870101111561262057600080fd5b8260208601602083013760006020848301015280955050505050509250929050565b6000806000806060858703121561265857600080fd5b612661856123a0565b935060208501356126718161238b565b9250604085013567ffffffffffffffff81111561268d57600080fd5b61269987828801612424565b95989497509550505050565b6000806000606084860312156126ba57600080fd5b83356126c58161238b565b92506020840135915060408401356126dc8161238b565b809150509250925092565b60208082526034908201527f6173736574496449735a65726f202d2d2074686973207661756c74206f6e6c79604082015273020737570706f72747320617373657420696420360641b606082015260800190565b60008060006060848603121561275057600080fd5b833561275b8161238b565b9250602084013561276b8161238b565b9150612779604085016123a0565b90509250925092565b60006020828403121561279457600080fd5b8151801515811461238457600080fd5b6001600160a01b039384168152919092166020820152604081019190915260600190565b63ffffffff9390931683526001600160a01b03918216602084015216604082015260600190565b60006020828403121561280157600080fd5b81356123848161238b565b6000825160005b8181101561282d5760208186018101518583015201612813565b8181111561283c576000828501525b509190910192915050565b6001600160a01b0387811682526020820187905285811660408301528416606082015260a06080820181905281018290526000828460c0840137600060c0848401015260c0601f19601f8501168301019050979650505050505050565b6020808252602e908201527f496e697469616c697a61626c653a20636f6e747261637420697320616c72656160408201526d191e481a5b9a5d1a585b1a5e995960921b606082015260800190565b60006020828403121561290457600080fd5b81516123848161238b56fea264697066735822122084064781a59fb145b305e2ad2d608a78454b4ebd7e3deac9235bb3162b36a21064736f6c634300080a0033",
  "devdoc": {
    "author": "Jake Nyquist - j@hook.xyz",
    "details": "This contract implements ERC721Receiver and",
    "kind": "dev",
    "methods": {
      "assetTokenId(uint32)": {
        "details": "returns the underlying token ID for a given asset. In this case the tokenId == the assetId"
      },
      "clearEntitlement(uint32)": {
        "details": "See {IHookERC721Vault-clearEntitlement}.This can only be called if an entitlement currently exists, otherwise it would be a no-op"
      },
      "clearEntitlementAndDistribute(uint32,address)": {
        "details": "See {IHookERC721Vault-clearEntitlementAndDistribute}.The entitlement must be exist, and must be called by the {operator}. The operator can specify a intended receiver, which should match the beneficialOwner. The function will throw if the receiver and owner do not match.",
        "params": {
          "assetId": "the id of the specific vaulted asset",
          "receiver": "the intended receiver of the asset"
        }
      },
      "entitlementExpiration(uint32)": {
        "details": "See {IHookVault-entitlementExpiration}."
      },
      "execTransaction(address,bytes)": {
        "details": "See {IHookERC721Vault-execTransaction}.Allows a beneficial owner to send an arbitrary call from this wallet as long as the underlying NFT is still owned by us after the transaction. The ether value sent is forwarded. Return value is suppressed. Because this contract holds only a single asset owned by a single address, it supports calling exec transaction from this address because such calls are unlikely to impact other owner's assets."
      },
      "flashLoan(uint32,address,bytes)": {
        "details": "See {IHookERC721Vault-flashLoan}."
      },
      "getBeneficialOwner(uint32)": {
        "details": "See {IHookERC721Vault-getBeneficialOwner}."
      },
      "getCurrentEntitlementOperator(uint32)": {
        "params": {
          "assetId": "the id of the underlying asset"
        }
      },
      "getHoldsAsset(uint32)": {
        "details": "See {IHookERC721Vault-getHoldsAsset}."
      },
      "grantEntitlement((address,address,address,uint32,uint32))": {
        "details": "See {IHookERC721Vault-grantEntitlement}.The entitlement must be sent by the current beneficial owner"
      },
      "imposeEntitlement(address,uint32,uint32,uint8,bytes32,bytes32)": {
        "details": "See {IHookERC721Vault-imposeEntitlement}.The entitlement must be signed by the current beneficial owner of the contract. Anyone can submit the entitlement"
      },
      "onERC721Received(address,address,uint256,bytes)": {
        "details": "See {IERC721Receiver-onERC721Received}. Always returns `IERC721Receiver.onERC721Received.selector`. This method requires an override implementation because the the arguments must be embedded in the body of the function"
      },
      "setBeneficialOwner(uint32,address)": {
        "details": "See {IHookERC721Vault-setBeneficialOwner}."
      },
      "supportsInterface(bytes4)": {
        "details": "See {IERC165-supportsInterface}."
      },
      "validateEntitlementSignature(address,uint32,uint32,uint8,bytes32,bytes32)": {
        "details": "Validates that a specific signature is actually the entitlement EIP-712 signed by the beneficial owner specified in the entitlement."
      },
      "withdrawalAsset(uint32)": {
        "details": "See {IHookERC721Vault-withdrawalAsset}.withdrawals can only be performed by the beneficial owner if there are no entitlements"
      }
    },
    "stateVariables": {
      "_tokenId": {
        "details": "this is the only tokenID the vault covers."
      }
    },
    "title": "HookVault -- implementation of a Vault for a single NFT asset, with entitlements.",
    "version": 1
  },
  "userdoc": {
    "events": {
      "AssetFlashLoaned(address,uint256,address)": {
        "notice": "emitted after an asset is flash loaned by its beneficial owner."
      },
      "AssetReceived(address,address,address,uint32)": {
        "notice": "emitted when an asset is added into the vault"
      },
      "AssetWithdrawn(uint32,address,address)": {
        "notice": "emitted when an asset is withdrawn from the vault"
      },
      "BeneficialOwnerSet(uint32,address,address)": {
        "notice": "emitted when the beneficial owner of an asset changes"
      },
      "EntitlementCleared(uint256,address)": {
        "notice": "emitted when an entitlement is cleared from an asset"
      },
      "EntitlementImposed(uint32,address,uint32,address)": {
        "notice": "emitted when an entitlement is placed on an asset"
      }
    },
    "kind": "user",
    "methods": {
      "constructor": {
        "notice": "Upgradeable Implementations cannot have a constructor, so we call the initialize instead;"
      },
      "getCurrentEntitlementOperator(uint32)": {
        "notice": "looks up the current operator of an entitlement on an asset"
      },
      "initialize(address,address)": {
        "notice": "-- constructor"
      },
      "initialize(address,uint256,address)": {
        "notice": "-- constructor"
      }
    },
    "notice": "HookVault holds a single NFT asset in escrow on behalf of a user. Other contracts are able to register \"entitlements\" for a fixed period of time on the asset, which give them the ability to change the vault's owner.",
    "version": 1
  },
  "storageLayout": {
    "storage": [
      {
        "astId": 7863,
        "contract": "src/HookERC721VaultImplV1.sol:HookERC721VaultImplV1",
        "label": "EIP712_DOMAIN_SEPARATOR",
        "offset": 0,
        "slot": "0",
        "type": "t_bytes32"
      },
      {
        "astId": 894,
        "contract": "src/HookERC721VaultImplV1.sol:HookERC721VaultImplV1",
        "label": "_initialized",
        "offset": 0,
        "slot": "1",
        "type": "t_uint8"
      },
      {
        "astId": 897,
        "contract": "src/HookERC721VaultImplV1.sol:HookERC721VaultImplV1",
        "label": "_initializing",
        "offset": 1,
        "slot": "1",
        "type": "t_bool"
      },
      {
        "astId": 1132,
        "contract": "src/HookERC721VaultImplV1.sol:HookERC721VaultImplV1",
        "label": "_status",
        "offset": 0,
        "slot": "2",
        "type": "t_uint256"
      },
      {
        "astId": 4884,
        "contract": "src/HookERC721VaultImplV1.sol:HookERC721VaultImplV1",
        "label": "_nftContract",
        "offset": 0,
        "slot": "3",
        "type": "t_contract(IERC721)2143"
      },
      {
        "astId": 4897,
        "contract": "src/HookERC721VaultImplV1.sol:HookERC721VaultImplV1",
        "label": "assets",
        "offset": 0,
        "slot": "4",
        "type": "t_mapping(t_uint32,t_struct(Asset)4891_storage)"
      },
      {
        "astId": 4900,
        "contract": "src/HookERC721VaultImplV1.sol:HookERC721VaultImplV1",
        "label": "_hookProtocol",
        "offset": 0,
        "slot": "5",
        "type": "t_contract(IHookProtocol)7138"
      },
      {
        "astId": 6137,
        "contract": "src/HookERC721VaultImplV1.sol:HookERC721VaultImplV1",
        "label": "_tokenId",
        "offset": 0,
        "slot": "6",
        "type": "t_uint256"
      }
    ],
    "types": {
      "t_address": {
        "encoding": "inplace",
        "label": "address",
        "numberOfBytes": "20"
      },
      "t_bool": {
        "encoding": "inplace",
        "label": "bool",
        "numberOfBytes": "1"
      },
      "t_bytes32": {
        "encoding": "inplace",
        "label": "bytes32",
        "numberOfBytes": "32"
      },
      "t_contract(IERC721)2143": {
        "encoding": "inplace",
        "label": "contract IERC721",
        "numberOfBytes": "20"
      },
      "t_contract(IHookProtocol)7138": {
        "encoding": "inplace",
        "label": "contract IHookProtocol",
        "numberOfBytes": "20"
      },
      "t_mapping(t_uint32,t_struct(Asset)4891_storage)": {
        "encoding": "mapping",
        "key": "t_uint32",
        "label": "mapping(uint32 => struct HookERC721MultiVaultImplV1.Asset)",
        "numberOfBytes": "32",
        "value": "t_struct(Asset)4891_storage"
      },
      "t_struct(Asset)4891_storage": {
        "encoding": "inplace",
        "label": "struct HookERC721MultiVaultImplV1.Asset",
        "members": [
          {
            "astId": 4886,
            "contract": "src/HookERC721VaultImplV1.sol:HookERC721VaultImplV1",
            "label": "beneficialOwner",
            "offset": 0,
            "slot": "0",
            "type": "t_address"
          },
          {
            "astId": 4888,
            "contract": "src/HookERC721VaultImplV1.sol:HookERC721VaultImplV1",
            "label": "operator",
            "offset": 0,
            "slot": "1",
            "type": "t_address"
          },
          {
            "astId": 4890,
            "contract": "src/HookERC721VaultImplV1.sol:HookERC721VaultImplV1",
            "label": "expiry",
            "offset": 20,
            "slot": "1",
            "type": "t_uint32"
          }
        ],
        "numberOfBytes": "64"
      },
      "t_uint256": {
        "encoding": "inplace",
        "label": "uint256",
        "numberOfBytes": "32"
      },
      "t_uint32": {
        "encoding": "inplace",
        "label": "uint32",
        "numberOfBytes": "4"
      },
      "t_uint8": {
        "encoding": "inplace",
        "label": "uint8",
        "numberOfBytes": "1"
      }
    }
  }
}