{
  "address": "0x88754763fCc806c9dc80366EA6689B8C3eb86205",
  "abi": [
    {
      "inputs": [],
      "stateMutability": "nonpayable",
      "type": "constructor"
    },
    {
      "anonymous": false,
      "inputs": [
        {
          "indexed": true,
          "internalType": "address",
          "name": "owner",
          "type": "address"
        },
        {
          "indexed": true,
          "internalType": "address",
          "name": "approved",
          "type": "address"
        },
        {
          "indexed": true,
          "internalType": "uint256",
          "name": "tokenId",
          "type": "uint256"
        }
      ],
      "name": "Approval",
      "type": "event"
    },
    {
      "anonymous": false,
      "inputs": [
        {
          "indexed": true,
          "internalType": "address",
          "name": "owner",
          "type": "address"
        },
        {
          "indexed": true,
          "internalType": "address",
          "name": "operator",
          "type": "address"
        },
        {
          "indexed": false,
          "internalType": "bool",
          "name": "approved",
          "type": "bool"
        }
      ],
      "name": "ApprovalForAll",
      "type": "event"
    },
    {
      "anonymous": false,
      "inputs": [
        {
          "indexed": false,
          "internalType": "uint256",
          "name": "optionId",
          "type": "uint256"
        },
        {
          "indexed": false,
          "internalType": "uint256",
          "name": "bidAmount",
          "type": "uint256"
        },
        {
          "indexed": false,
          "internalType": "address",
          "name": "bidder",
          "type": "address"
        }
      ],
      "name": "Bid",
      "type": "event"
    },
    {
      "anonymous": false,
      "inputs": [
        {
          "indexed": false,
          "internalType": "address",
          "name": "writer",
          "type": "address"
        },
        {
          "indexed": false,
          "internalType": "address",
          "name": "vaultAddress",
          "type": "address"
        },
        {
          "indexed": false,
          "internalType": "uint256",
          "name": "assetId",
          "type": "uint256"
        },
        {
          "indexed": false,
          "internalType": "uint256",
          "name": "optionId",
          "type": "uint256"
        },
        {
          "indexed": false,
          "internalType": "uint256",
          "name": "strikePrice",
          "type": "uint256"
        },
        {
          "indexed": false,
          "internalType": "uint256",
          "name": "expiration",
          "type": "uint256"
        }
      ],
      "name": "CallCreated",
      "type": "event"
    },
    {
      "anonymous": false,
      "inputs": [
        {
          "indexed": false,
          "internalType": "uint256",
          "name": "optionId",
          "type": "uint256"
        },
        {
          "indexed": false,
          "internalType": "address",
          "name": "to",
          "type": "address"
        },
        {
          "indexed": false,
          "internalType": "uint256",
          "name": "amount",
          "type": "uint256"
        }
      ],
      "name": "CallProceedsDistributed",
      "type": "event"
    },
    {
      "anonymous": false,
      "inputs": [
        {
          "indexed": false,
          "internalType": "uint256",
          "name": "optionId",
          "type": "uint256"
        }
      ],
      "name": "CallReclaimed",
      "type": "event"
    },
    {
      "anonymous": false,
      "inputs": [
        {
          "indexed": false,
          "internalType": "uint256",
          "name": "optionId",
          "type": "uint256"
        },
        {
          "indexed": false,
          "internalType": "bool",
          "name": "claimable",
          "type": "bool"
        }
      ],
      "name": "CallSettled",
      "type": "event"
    },
    {
      "anonymous": false,
      "inputs": [
        {
          "indexed": false,
          "internalType": "uint256",
          "name": "optionId",
          "type": "uint256"
        }
      ],
      "name": "ExpiredCallBurned",
      "type": "event"
    },
    {
      "anonymous": false,
      "inputs": [
        {
          "indexed": false,
          "internalType": "uint8",
          "name": "version",
          "type": "uint8"
        }
      ],
      "name": "Initialized",
      "type": "event"
    },
    {
      "anonymous": false,
      "inputs": [
        {
          "indexed": false,
          "internalType": "bool",
          "name": "paused",
          "type": "bool"
        }
      ],
      "name": "MarketPauseUpdated",
      "type": "event"
    },
    {
      "anonymous": false,
      "inputs": [
        {
          "indexed": false,
          "internalType": "uint256",
          "name": "bidIncrementBips",
          "type": "uint256"
        }
      ],
      "name": "MinBidIncrementUpdated",
      "type": "event"
    },
    {
      "anonymous": false,
      "inputs": [
        {
          "indexed": false,
          "internalType": "uint256",
          "name": "optionDuration",
          "type": "uint256"
        }
      ],
      "name": "MinOptionDurationUpdated",
      "type": "event"
    },
    {
      "anonymous": false,
      "inputs": [
        {
          "indexed": false,
          "internalType": "uint256",
          "name": "startOffset",
          "type": "uint256"
        }
      ],
      "name": "SettlementAuctionStartOffsetUpdated",
      "type": "event"
    },
    {
      "anonymous": false,
      "inputs": [
        {
          "indexed": true,
          "internalType": "address",
          "name": "from",
          "type": "address"
        },
        {
          "indexed": true,
          "internalType": "address",
          "name": "to",
          "type": "address"
        },
        {
          "indexed": true,
          "internalType": "uint256",
          "name": "tokenId",
          "type": "uint256"
        }
      ],
      "name": "Transfer",
      "type": "event"
    },
    {
      "inputs": [],
      "name": "ALLOWLISTER_ROLE",
      "outputs": [
        {
          "internalType": "bytes32",
          "name": "",
          "type": "bytes32"
        }
      ],
      "stateMutability": "view",
      "type": "function"
    },
    {
      "inputs": [],
      "name": "CALL_UPGRADER",
      "outputs": [
        {
          "internalType": "bytes32",
          "name": "",
          "type": "bytes32"
        }
      ],
      "stateMutability": "view",
      "type": "function"
    },
    {
      "inputs": [],
      "name": "COLLECTION_CONF",
      "outputs": [
        {
          "internalType": "bytes32",
          "name": "",
          "type": "bytes32"
        }
      ],
      "stateMutability": "view",
      "type": "function"
    },
    {
      "inputs": [],
      "name": "MARKET_CONF",
      "outputs": [
        {
          "internalType": "bytes32",
          "name": "",
          "type": "bytes32"
        }
      ],
      "stateMutability": "view",
      "type": "function"
    },
    {
      "inputs": [],
      "name": "PAUSER_ROLE",
      "outputs": [
        {
          "internalType": "bytes32",
          "name": "",
          "type": "bytes32"
        }
      ],
      "stateMutability": "view",
      "type": "function"
    },
    {
      "inputs": [],
      "name": "VAULT_UPGRADER",
      "outputs": [
        {
          "internalType": "bytes32",
          "name": "",
          "type": "bytes32"
        }
      ],
      "stateMutability": "view",
      "type": "function"
    },
    {
      "inputs": [],
      "name": "_preApprovedMarketplace",
      "outputs": [
        {
          "internalType": "address",
          "name": "",
          "type": "address"
        }
      ],
      "stateMutability": "view",
      "type": "function"
    },
    {
      "inputs": [],
      "name": "allowedUnderlyingAddress",
      "outputs": [
        {
          "internalType": "address",
          "name": "",
          "type": "address"
        }
      ],
      "stateMutability": "view",
      "type": "function"
    },
    {
      "inputs": [
        {
          "internalType": "address",
          "name": "to",
          "type": "address"
        },
        {
          "internalType": "uint256",
          "name": "tokenId",
          "type": "uint256"
        }
      ],
      "name": "approve",
      "outputs": [],
      "stateMutability": "nonpayable",
      "type": "function"
    },
    {
      "inputs": [
        {
          "internalType": "contract IHookVault",
          "name": "",
          "type": "address"
        },
        {
          "internalType": "uint32",
          "name": "",
          "type": "uint32"
        }
      ],
      "name": "assetOptions",
      "outputs": [
        {
          "internalType": "uint256",
          "name": "",
          "type": "uint256"
        }
      ],
      "stateMutability": "view",
      "type": "function"
    },
    {
      "inputs": [
        {
          "internalType": "address",
          "name": "owner",
          "type": "address"
        }
      ],
      "name": "balanceOf",
      "outputs": [
        {
          "internalType": "uint256",
          "name": "",
          "type": "uint256"
        }
      ],
      "stateMutability": "view",
      "type": "function"
    },
    {
      "inputs": [
        {
          "internalType": "uint256",
          "name": "optionId",
          "type": "uint256"
        }
      ],
      "name": "bid",
      "outputs": [],
      "stateMutability": "payable",
      "type": "function"
    },
    {
      "inputs": [
        {
          "internalType": "uint256",
          "name": "tokenId",
          "type": "uint256"
        }
      ],
      "name": "burn",
      "outputs": [],
      "stateMutability": "nonpayable",
      "type": "function"
    },
    {
      "inputs": [
        {
          "internalType": "uint256",
          "name": "optionId",
          "type": "uint256"
        }
      ],
      "name": "burnExpiredOption",
      "outputs": [],
      "stateMutability": "nonpayable",
      "type": "function"
    },
    {
      "inputs": [
        {
          "internalType": "uint256",
          "name": "optionId",
          "type": "uint256"
        }
      ],
      "name": "claimOptionProceeds",
      "outputs": [],
      "stateMutability": "nonpayable",
      "type": "function"
    },
    {
      "inputs": [
        {
          "internalType": "uint256",
          "name": "optionId",
          "type": "uint256"
        }
      ],
      "name": "contractUri",
      "outputs": [
        {
          "internalType": "string",
          "name": "",
          "type": "string"
        }
      ],
      "stateMutability": "view",
      "type": "function"
    },
    {
      "inputs": [
        {
          "internalType": "uint256",
          "name": "optionId",
          "type": "uint256"
        }
      ],
      "name": "currentBid",
      "outputs": [
        {
          "internalType": "uint128",
          "name": "",
          "type": "uint128"
        }
      ],
      "stateMutability": "view",
      "type": "function"
    },
    {
      "inputs": [
        {
          "internalType": "uint256",
          "name": "optionId",
          "type": "uint256"
        }
      ],
      "name": "currentBidder",
      "outputs": [
        {
          "internalType": "address",
          "name": "",
          "type": "address"
        }
      ],
      "stateMutability": "view",
      "type": "function"
    },
    {
      "inputs": [
        {
          "internalType": "uint256",
          "name": "tokenId",
          "type": "uint256"
        }
      ],
      "name": "getApproved",
      "outputs": [
        {
          "internalType": "address",
          "name": "",
          "type": "address"
        }
      ],
      "stateMutability": "view",
      "type": "function"
    },
    {
      "inputs": [
        {
          "internalType": "uint256",
          "name": "optionId",
          "type": "uint256"
        }
      ],
      "name": "getAssetId",
      "outputs": [
        {
          "internalType": "uint32",
          "name": "",
          "type": "uint32"
        }
      ],
      "stateMutability": "view",
      "type": "function"
    },
    {
      "inputs": [
        {
          "internalType": "uint256",
          "name": "optionId",
          "type": "uint256"
        }
      ],
      "name": "getExpiration",
      "outputs": [
        {
          "internalType": "uint256",
          "name": "",
          "type": "uint256"
        }
      ],
      "stateMutability": "view",
      "type": "function"
    },
    {
      "inputs": [
        {
          "internalType": "address",
          "name": "vault",
          "type": "address"
        },
        {
          "internalType": "uint32",
          "name": "assetId",
          "type": "uint32"
        }
      ],
      "name": "getOptionIdForAsset",
      "outputs": [
        {
          "internalType": "uint256",
          "name": "",
          "type": "uint256"
        }
      ],
      "stateMutability": "view",
      "type": "function"
    },
    {
      "inputs": [
        {
          "internalType": "uint256",
          "name": "optionId",
          "type": "uint256"
        }
      ],
      "name": "getStrikePrice",
      "outputs": [
        {
          "internalType": "uint256",
          "name": "",
          "type": "uint256"
        }
      ],
      "stateMutability": "view",
      "type": "function"
    },
    {
      "inputs": [
        {
          "internalType": "uint256",
          "name": "optionId",
          "type": "uint256"
        }
      ],
      "name": "getTransferCount",
      "outputs": [
        {
          "internalType": "uint256",
          "name": "",
          "type": "uint256"
        }
      ],
      "stateMutability": "view",
      "type": "function"
    },
    {
      "inputs": [
        {
          "internalType": "uint256",
          "name": "optionId",
          "type": "uint256"
        }
      ],
      "name": "getVaultAddress",
      "outputs": [
        {
          "internalType": "address",
          "name": "",
          "type": "address"
        }
      ],
      "stateMutability": "view",
      "type": "function"
    },
    {
      "inputs": [
        {
          "internalType": "address",
          "name": "protocol",
          "type": "address"
        },
        {
          "internalType": "address",
          "name": "nftContract",
          "type": "address"
        },
        {
          "internalType": "address",
          "name": "hookVaultFactory",
          "type": "address"
        },
        {
          "internalType": "address",
          "name": "preApprovedMarketplace",
          "type": "address"
        }
      ],
      "name": "initialize",
      "outputs": [],
      "stateMutability": "nonpayable",
      "type": "function"
    },
    {
      "inputs": [
        {
          "internalType": "address",
          "name": "owner",
          "type": "address"
        },
        {
          "internalType": "address",
          "name": "operator",
          "type": "address"
        }
      ],
      "name": "isApprovedForAll",
      "outputs": [
        {
          "internalType": "bool",
          "name": "",
          "type": "bool"
        }
      ],
      "stateMutability": "view",
      "type": "function"
    },
    {
      "inputs": [],
      "name": "marketPaused",
      "outputs": [
        {
          "internalType": "bool",
          "name": "",
          "type": "bool"
        }
      ],
      "stateMutability": "view",
      "type": "function"
    },
    {
      "inputs": [],
      "name": "minBidIncrementBips",
      "outputs": [
        {
          "internalType": "uint256",
          "name": "",
          "type": "uint256"
        }
      ],
      "stateMutability": "view",
      "type": "function"
    },
    {
      "inputs": [],
      "name": "minimumOptionDuration",
      "outputs": [
        {
          "internalType": "uint256",
          "name": "",
          "type": "uint256"
        }
      ],
      "stateMutability": "view",
      "type": "function"
    },
    {
      "inputs": [
        {
          "internalType": "address",
          "name": "vaultAddress",
          "type": "address"
        },
        {
          "internalType": "uint32",
          "name": "assetId",
          "type": "uint32"
        },
        {
          "internalType": "uint128",
          "name": "strikePrice",
          "type": "uint128"
        },
        {
          "internalType": "uint32",
          "name": "expirationTime",
          "type": "uint32"
        }
      ],
      "name": "mintWithEntitledVault",
      "outputs": [
        {
          "internalType": "uint256",
          "name": "",
          "type": "uint256"
        }
      ],
      "stateMutability": "nonpayable",
      "type": "function"
    },
    {
      "inputs": [
        {
          "internalType": "address",
          "name": "tokenAddress",
          "type": "address"
        },
        {
          "internalType": "uint256",
          "name": "tokenId",
          "type": "uint256"
        },
        {
          "internalType": "uint128",
          "name": "strikePrice",
          "type": "uint128"
        },
        {
          "internalType": "uint32",
          "name": "expirationTime",
          "type": "uint32"
        }
      ],
      "name": "mintWithErc721",
      "outputs": [
        {
          "internalType": "uint256",
          "name": "",
          "type": "uint256"
        }
      ],
      "stateMutability": "nonpayable",
      "type": "function"
    },
    {
      "inputs": [
        {
          "internalType": "address",
          "name": "vaultAddress",
          "type": "address"
        },
        {
          "internalType": "uint32",
          "name": "assetId",
          "type": "uint32"
        },
        {
          "internalType": "uint128",
          "name": "strikePrice",
          "type": "uint128"
        },
        {
          "internalType": "uint32",
          "name": "expirationTime",
          "type": "uint32"
        },
        {
          "components": [
            {
              "internalType": "enum Signatures.SignatureType",
              "name": "signatureType",
              "type": "uint8"
            },
            {
              "internalType": "uint8",
              "name": "v",
              "type": "uint8"
            },
            {
              "internalType": "bytes32",
              "name": "r",
              "type": "bytes32"
            },
            {
              "internalType": "bytes32",
              "name": "s",
              "type": "bytes32"
            }
          ],
          "internalType": "struct Signatures.Signature",
          "name": "signature",
          "type": "tuple"
        }
      ],
      "name": "mintWithVault",
      "outputs": [
        {
          "internalType": "uint256",
          "name": "",
          "type": "uint256"
        }
      ],
      "stateMutability": "nonpayable",
      "type": "function"
    },
    {
      "inputs": [],
      "name": "name",
      "outputs": [
        {
          "internalType": "string",
          "name": "",
          "type": "string"
        }
      ],
      "stateMutability": "view",
      "type": "function"
    },
    {
      "inputs": [
        {
          "internalType": "uint256",
          "name": "",
          "type": "uint256"
        }
      ],
      "name": "optionClaims",
      "outputs": [
        {
          "internalType": "uint256",
          "name": "",
          "type": "uint256"
        }
      ],
      "stateMutability": "view",
      "type": "function"
    },
    {
      "inputs": [
        {
          "internalType": "uint256",
          "name": "",
          "type": "uint256"
        }
      ],
      "name": "optionParams",
      "outputs": [
        {
          "internalType": "address",
          "name": "writer",
          "type": "address"
        },
        {
          "internalType": "uint32",
          "name": "expiration",
          "type": "uint32"
        },
        {
          "internalType": "uint32",
          "name": "assetId",
          "type": "uint32"
        },
        {
          "internalType": "address",
          "name": "vaultAddress",
          "type": "address"
        },
        {
          "internalType": "uint128",
          "name": "strike",
          "type": "uint128"
        },
        {
          "internalType": "uint128",
          "name": "bid",
          "type": "uint128"
        },
        {
          "internalType": "address",
          "name": "highBidder",
          "type": "address"
        },
        {
          "internalType": "bool",
          "name": "settled",
          "type": "bool"
        }
      ],
      "stateMutability": "view",
      "type": "function"
    },
    {
      "inputs": [
        {
          "internalType": "uint256",
          "name": "tokenId",
          "type": "uint256"
        }
      ],
      "name": "ownerOf",
      "outputs": [
        {
          "internalType": "address",
          "name": "",
          "type": "address"
        }
      ],
      "stateMutability": "view",
      "type": "function"
    },
    {
      "inputs": [
        {
          "internalType": "uint256",
          "name": "optionId",
          "type": "uint256"
        },
        {
          "internalType": "bool",
          "name": "returnNft",
          "type": "bool"
        }
      ],
      "name": "reclaimAsset",
      "outputs": [],
      "stateMutability": "nonpayable",
      "type": "function"
    },
    {
      "inputs": [
        {
          "internalType": "address",
          "name": "from",
          "type": "address"
        },
        {
          "internalType": "address",
          "name": "to",
          "type": "address"
        },
        {
          "internalType": "uint256",
          "name": "tokenId",
          "type": "uint256"
        }
      ],
      "name": "safeTransferFrom",
      "outputs": [],
      "stateMutability": "nonpayable",
      "type": "function"
    },
    {
      "inputs": [
        {
          "internalType": "address",
          "name": "from",
          "type": "address"
        },
        {
          "internalType": "address",
          "name": "to",
          "type": "address"
        },
        {
          "internalType": "uint256",
          "name": "tokenId",
          "type": "uint256"
        },
        {
          "internalType": "bytes",
          "name": "data",
          "type": "bytes"
        }
      ],
      "name": "safeTransferFrom",
      "outputs": [],
      "stateMutability": "nonpayable",
      "type": "function"
    },
    {
      "inputs": [
        {
          "internalType": "address",
          "name": "operator",
          "type": "address"
        },
        {
          "internalType": "bool",
          "name": "approved",
          "type": "bool"
        }
      ],
      "name": "setApprovalForAll",
      "outputs": [],
      "stateMutability": "nonpayable",
      "type": "function"
    },
    {
      "inputs": [
        {
          "internalType": "uint256",
          "name": "newBidIncrement",
          "type": "uint256"
        }
      ],
      "name": "setBidIncrement",
      "outputs": [],
      "stateMutability": "nonpayable",
      "type": "function"
    },
    {
      "inputs": [
        {
          "internalType": "bool",
          "name": "paused",
          "type": "bool"
        }
      ],
      "name": "setMarketPaused",
      "outputs": [],
      "stateMutability": "nonpayable",
      "type": "function"
    },
    {
      "inputs": [
        {
          "internalType": "uint256",
          "name": "newMinDuration",
          "type": "uint256"
        }
      ],
      "name": "setMinOptionDuration",
      "outputs": [],
      "stateMutability": "nonpayable",
      "type": "function"
    },
    {
      "inputs": [
        {
          "internalType": "uint256",
          "name": "newSettlementStartOffset",
          "type": "uint256"
        }
      ],
      "name": "setSettlementAuctionStartOffset",
      "outputs": [],
      "stateMutability": "nonpayable",
      "type": "function"
    },
    {
      "inputs": [
        {
          "internalType": "uint256",
          "name": "optionId",
          "type": "uint256"
        }
      ],
      "name": "settleOption",
      "outputs": [],
      "stateMutability": "nonpayable",
      "type": "function"
    },
    {
      "inputs": [],
      "name": "settlementAuctionStartOffset",
      "outputs": [
        {
          "internalType": "uint256",
          "name": "",
          "type": "uint256"
        }
      ],
      "stateMutability": "view",
      "type": "function"
    },
    {
      "inputs": [
        {
          "internalType": "bytes4",
          "name": "interfaceId",
          "type": "bytes4"
        }
      ],
      "name": "supportsInterface",
      "outputs": [
        {
          "internalType": "bool",
          "name": "",
          "type": "bool"
        }
      ],
      "stateMutability": "view",
      "type": "function"
    },
    {
      "inputs": [],
      "name": "symbol",
      "outputs": [
        {
          "internalType": "string",
          "name": "",
          "type": "string"
        }
      ],
      "stateMutability": "view",
      "type": "function"
    },
    {
      "inputs": [
        {
          "internalType": "uint256",
          "name": "tokenId",
          "type": "uint256"
        }
      ],
      "name": "tokenURI",
      "outputs": [
        {
          "internalType": "string",
          "name": "",
          "type": "string"
        }
      ],
      "stateMutability": "view",
      "type": "function"
    },
    {
      "inputs": [
        {
          "internalType": "address",
          "name": "from",
          "type": "address"
        },
        {
          "internalType": "address",
          "name": "to",
          "type": "address"
        },
        {
          "internalType": "uint256",
          "name": "tokenId",
          "type": "uint256"
        }
      ],
      "name": "transferFrom",
      "outputs": [],
      "stateMutability": "nonpayable",
      "type": "function"
    },
    {
      "inputs": [],
      "name": "weth",
      "outputs": [
        {
          "internalType": "address",
          "name": "",
          "type": "address"
        }
      ],
      "stateMutability": "view",
      "type": "function"
    }
  ],
  "transactionHash": "0xe3d90878b61f17b0f8bbb0ecad83d59a6c10f800b07f6fede1c56fe3339ad8b8",
  "args": [],
  "numDeployments": 1,
  "solcInputHash": "bce784fa557baf3b8bfd2d09431e04e2",
  "bytecode": "0x6080604052600780546001600160a01b03191690553480156200002157600080fd5b5060408051808201909152600481526310d85b1b60e21b60208201526200004881620000a3565b60405180604001604052806004815260200163125394d560e21b81525081600090805190602001906200007d929190620000ce565b50805162000093906001906020840190620000ce565b5050600160085550620002189050565b606081604051602001620000b8919062000174565b6040516020818303038152906040529050919050565b828054620000dc90620001db565b90600052602060002090601f0160209004810192826200010057600085556200014b565b82601f106200011b57805160ff19168380011785556200014b565b828001600101855582156200014b579182015b828111156200014b5782518255916020019190600101906200012e565b50620001599291506200015d565b5090565b5b808211156200015957600081556001016200015e565b6402437b7b5960dd1b81526000825160005b81811015620001a5576020818601810151600586840101520162000186565b81811115620001b8576000600583860101525b506a081a5b9cdd1c9d5b595b9d60aa1b6005939091019283015250601001919050565b600181811c90821680620001f057607f821691505b602082108114156200021257634e487b7160e01b600052602260045260246000fd5b50919050565b615d8980620002286000396000f3fe60806040526004361061024e5760003560e01c80623a4a0f1461025357806301ffc9a71461028657806306fdde03146102b6578063081812fc146102d8578063095ea7b3146103055780630d5e67ec146103275780631e2e74e21461035b57806323b872dd1461039357806323db6d02146103b3578063247f0879146103ec57806332ab2f841461040c5780633a283bd21461042c5780633c7cfe34146104465780633fc8cef31461049e57806342842e0e146104be57806342966c68146104de578063439bb40f146104fe578063454a2ab31461051e578063536ff9ad1461053157806361f547fd1461055e5780636352211e1461058b57806367207872146105ab57806370a08231146105c157806377ff20bd146105e15780637b850da91461062c5780637f1a48851461064c5780637fb6afd41461066c578063829b58471461068c57806383b6fa98146106ac57806390f0252a146106cc57806395d89b4114610705578063a05b775f1461071a578063a22cb46514610754578063a34fd3fb14610774578063acca6838146107a8578063b4985c94146107dc578063b88d4fde146107fc578063bb31173a1461081c578063c87b56dd14610850578063cc06752514610870578063cd52d15114610890578063d365016c14610974578063dee92f5d14610994578063e63ab1e9146109aa578063e6bd26a2146109de578063e985e9c5146109fe578063e9d69ff214610a1e578063ed059f2714610a3e578063ef17ac7f14610a5e578063f23c19e814610a7e578063f8c8765e14610aa0578063ff58aaaa14610ac0575b600080fd5b34801561025f57600080fd5b5061027361026e366004614825565b610ad6565b6040519081526020015b60405180910390f35b34801561029257600080fd5b506102a66102a1366004614854565b610aec565b604051901515815260200161027d565b3480156102c257600080fd5b506102cb610b3c565b60405161027d91906148c9565b3480156102e457600080fd5b506102f86102f3366004614825565b610bce565b60405161027d91906148dc565b34801561031157600080fd5b50610325610320366004614905565b610bf5565b005b34801561033357600080fd5b506102737f945438d5e976f17e0d00cb2997cf8951c55e12977d86234d6738d1865abe006e81565b34801561036757600080fd5b50610273610376366004614943565b600e60209081526000928352604080842090915290825290205481565b34801561039f57600080fd5b506103256103ae36600461497c565b610d10565b3480156103bf57600080fd5b506102736103ce366004614825565b6000908152600d60205260409020600201546001600160801b031690565b3480156103f857600080fd5b50610325610407366004614825565b610d42565b34801561041857600080fd5b50610325610427366004614825565b610e3f565b34801561043857600080fd5b506015546102a69060ff1681565b34801561045257600080fd5b50610486610461366004614825565b6000908152600d6020526040902060020154600160801b90046001600160801b031690565b6040516001600160801b03909116815260200161027d565b3480156104aa57600080fd5b506011546102f8906001600160a01b031681565b3480156104ca57600080fd5b506103256104d936600461497c565b610f26565b3480156104ea57600080fd5b506103256104f9366004614825565b610f41565b34801561050a57600080fd5b506102736105193660046149d4565b610f72565b61032561052c366004614825565b61144d565b34801561053d57600080fd5b5061027361054c366004614825565b600f6020526000908152604090205481565b34801561056a57600080fd5b5061057e610579366004614825565b611866565b60405161027d9190614a4c565b34801561059757600080fd5b506102f86105a6366004614825565b611885565b3480156105b757600080fd5b5061027360125481565b3480156105cd57600080fd5b506102736105dc366004614a5d565b6118ba565b3480156105ed57600080fd5b506102736105fc366004614943565b6001600160a01b0382166000908152600e6020908152604080832063ffffffff8516845290915290205492915050565b34801561063857600080fd5b50610325610647366004614825565b611940565b34801561065857600080fd5b506007546102f8906001600160a01b031681565b34801561067857600080fd5b50610325610687366004614a88565b611a20565b34801561069857600080fd5b506102cb6106a7366004614825565b611e02565b3480156106b857600080fd5b506103256106c7366004614825565b611e3d565b3480156106d857600080fd5b506102f86106e7366004614825565b6000908152600d60205260409020600301546001600160a01b031690565b34801561071157600080fd5b506102cb6120a1565b34801561072657600080fd5b50610273610735366004614825565b6000908152600d6020526040902054600160a01b900463ffffffff1690565b34801561076057600080fd5b5061032561076f366004614aad565b6120b0565b34801561078057600080fd5b506102737f657f307dfada290937bc821a25e2da10feb07809ba9560b816723e8b47fe379a81565b3480156107b457600080fd5b506102737ffba4f6dd992a27a814ee807eb2f9332d6d01312041726966a540cf4a4a89155381565b3480156107e857600080fd5b506010546102f8906001600160a01b031681565b34801561080857600080fd5b50610325610817366004614b48565b6120bf565b34801561082857600080fd5b506102737ff7e0191f3657a6da7569740b1cdeac8c3425bcbfd257d4fdc6d2241598f4de8b81565b34801561085c57600080fd5b506102cb61086b366004614825565b6120f7565b34801561087c57600080fd5b5061027361088b366004614bf6565b6123e2565b34801561089c57600080fd5b506109156108ab366004614825565b600d6020526000908152604090208054600182015460028301546003909301546001600160a01b0380841694600160a01b80860463ffffffff90811696600160c01b900416948316936001600160801b0380841694600160801b9094041692811691900460ff1688565b604080516001600160a01b03998a16815263ffffffff9889166020820152969097169686019690965292861660608501526001600160801b0391821660808501521660a083015290921660c0830152151560e08201526101000161027d565b34801561098057600080fd5b5061027361098f366004614c50565b61299f565b3480156109a057600080fd5b5061027360135481565b3480156109b657600080fd5b506102737f65d7a28e3265b37a6474929f336521b332c1681b933f6cb9f3376673440d862a81565b3480156109ea57600080fd5b506102f86109f9366004614825565b613023565b348015610a0a57600080fd5b506102a6610a19366004614c86565b613041565b348015610a2a57600080fd5b50610325610a39366004614825565b61308c565b348015610a4a57600080fd5b50610325610a59366004614825565b613302565b348015610a6a57600080fd5b50610325610a79366004614cb4565b6133e2565b348015610a8a57600080fd5b50610273600080516020615d1483398151915281565b348015610aac57600080fd5b50610325610abb366004614cd1565b613509565b348015610acc57600080fd5b5061027360145481565b6000818152600660205260408120545b92915050565b60006001600160e01b031982166380ac58cd60e01b1480610b1d57506001600160e01b03198216635b5e139f60e01b145b80610ae657506301ffc9a760e01b6001600160e01b0319831614610ae6565b606060008054610b4b90614d22565b80601f0160208091040260200160405190810160405280929190818152602001828054610b7790614d22565b8015610bc45780601f10610b9957610100808354040283529160200191610bc4565b820191906000526020600020905b815481529060010190602001808311610ba757829003601f168201915b5050505050905090565b6000610bd982613709565b506000908152600460205260409020546001600160a01b031690565b6000610c0082611885565b9050806001600160a01b0316836001600160a01b03161415610c735760405162461bcd60e51b815260206004820152602160248201527f4552433732313a20617070726f76616c20746f2063757272656e74206f776e656044820152603960f91b60648201526084015b60405180910390fd5b336001600160a01b0382161480610c8f5750610c8f8133613041565b610d015760405162461bcd60e51b815260206004820152603e60248201527f4552433732313a20617070726f76652063616c6c6572206973206e6f7420746f60448201527f6b656e206f776e6572206e6f7220617070726f76656420666f7220616c6c00006064820152608401610c6a565b610d0b838361372e565b505050565b610d1b335b8261379c565b610d375760405162461bcd60e51b8152600401610c6a90614d5d565b610d0b8383836137fb565b60026008541415610d655760405162461bcd60e51b8152600401610c6a90614dab565b60026008556000610d7582611885565b9050336001600160a01b03821614610dc05760405162461bcd60e51b815260206004820152600e60248201526d634f502d6f776e6572206f6e6c7960901b6044820152606401610c6a565b6000828152600f6020526040812080549190558015610e3557610de28361398b565b604080518481526001600160a01b03841660208201529081018290527f3b243b2a7fb9066beef2765291666e8995942faa5d65b584d1c4acea92f166579060600160405180910390a1610e358282613a1c565b5050600160085550565b600c54604051632474521560e21b81526001600160a01b03909116906391d1485490610e7f90600080516020615d14833981519152903390600401614de2565b602060405180830381865afa158015610e9c573d6000803e3d6000fd5b505050506040513d601f19601f82011682018060405250810190610ec09190614df9565b610edc5760405162461bcd60e51b8152600401610c6a90614e16565b8060145410610eea57600080fd5b60128190556040518181527f40f2d0804ee87f2940dd9632dfaf1a60b67da0186089af5431b86c17cd234c9e906020015b60405180910390a150565b610d0b838383604051806020016040528060008152506120bf565b610f4a33610d15565b610f665760405162461bcd60e51b8152600401610c6a90614d5d565b610f6f8161398b565b50565b600060026008541415610f975760405162461bcd60e51b8152600401610c6a90614dab565b600260085560155460ff1615610fbf5760405162461bcd60e51b8152600401610c6a90614e48565b600c60009054906101000a90046001600160a01b03166001600160a01b0316635b67d9ab6040518163ffffffff1660e01b8152600401600060405180830381600087803b15801561100f57600080fd5b505af1158015611023573d6000803e3d6000fd5b5050604051631f48f6ab60e01b81528892506001600160a01b0383169150631f48f6ab90611055908990600401614a4c565b602060405180830381865afa158015611072573d6000803e3d6000fd5b505050506040513d601f19601f820116820180604052508101906110969190614e6f565b6010546001600160a01b039081169116146110eb5760405162461bcd60e51b81526020600482015260156024820152741b55d58b5d1bdad95b881b9bdd08185b1b1bddd959605a1b6044820152606401610c6a565b60405163ba02481b60e01b81526001600160a01b0382169063ba02481b90611117908990600401614a4c565b602060405180830381865afa158015611134573d6000803e3d6000fd5b505050506040513d601f19601f820116820180604052508101906111589190614df9565b61119d5760405162461bcd60e51b81526020600482015260166024820152751b55d58b585cdcd95d081b9bdd081a5b881d985d5b1d60521b6044820152606401610c6a565b6010546111b59088906001600160a01b031688613b08565b6112105760405162461bcd60e51b815260206004820152602660248201527f6d57562d63616e206f6e6c79206d696e7420776974682070726f746f636f6c206044820152657661756c747360d01b6064820152608401610c6a565b60405163ecb2c20b60e01b81526000906001600160a01b0383169063ecb2c20b9061123f908a90600401614a4c565b602060405180830381865afa15801561125c573d6000803e3d6000fd5b505050506040513d601f19601f820116820180604052508101906112809190614e6f565b9050336001600160a01b03821614806113165750604051635781257360e11b81526001600160a01b0383169063af024ae6906112c0908a90600401614a4c565b602060405180830381865afa1580156112dd573d6000803e3d6000fd5b505050506040513d601f19601f820116820180604052508101906113019190614e6f565b6001600160a01b0316336001600160a01b0316145b6113815760405162461bcd60e51b815260206004820152603660248201527f6d57562d63616c6c656420627920736f6d656f6e65206f74686572207468616e604482015275103a34329037bbb732b91037b91037b832b930ba37b960511b6064820152608401610c6a565b6001600160a01b0382166303e7158b30878a6113a360408a0160208b01614e8c565b604080516001600160e01b031960e088901b1681526001600160a01b03909516600486015263ffffffff938416602486015291909216604484015260ff90911660648301528701356084820152606087013560a482015260c401600060405180830381600087803b15801561141757600080fd5b505af115801561142b573d6000803e3d6000fd5b5050505061143c8183898989613c15565b600160085598975050505050505050565b600260085414156114705760405162461bcd60e51b8152600401610c6a90614dab565b600260088190556000828152600d602090815260409182902082516101008101845281546001600160a01b03808216835263ffffffff600160a01b8084048216968501879052600160c01b9093041695830195909552600183015485166060830152948201546001600160801b038082166080840152600160801b9091041660a082015260039091015492831660c082015260ff9390920492909216151560e0820152829142106115505760405162461bcd60e51b815260206004820152600a60248201526918914b595e1c1a5c995960b21b6044820152606401610c6a565b42601454826020015163ffffffff166115699190614ec5565b11156115b75760405162461bcd60e51b815260206004820152601d60248201527f62452d62696464696e6720737461727473206f6e206c617374206461790000006044820152606401610c6a565b8060e00151156115fe5760405162461bcd60e51b815260206004820152601260248201527118914b585b1c9958591e481cd95d1d1b195960721b6044820152606401610c6a565b6000838152600d6020526040902080543491906001600160a01b031633141561163c576002810154611639906001600160801b031683614edc565b91505b60135460028201546127109161166191600160801b90046001600160801b0316614f07565b61166b9190614f3c565b600282015461168a9190600160801b90046001600160801b0316614f50565b826001600160801b031610156116f05760405162461bcd60e51b815260206004820152602560248201527f622d6d757374206f766572626964206279206d696e426964496e6372656d656e604482015264744269707360d81b6064820152608401610c6a565b60028101546001600160801b039081169083161161175c5760405162461bcd60e51b8152602060048201526024808201527f622d626964206973206c6f776572207468616e2074686520737472696b6520706044820152637269636560e01b6064820152608401610c6a565b61176581613f13565b6002810180546001600160801b03808516600160801b0291161790556003810180546001600160a01b0319163390811790915560018201548254604051632ec14d3f60e01b81526001600160a01b039290921692632ec14d3f926117db9263ffffffff600160c01b909104169190600401614f68565b600060405180830381600087803b1580156117f557600080fd5b505af1158015611809573d6000803e3d6000fd5b5050604080518881526001600160801b038616602082015233918101919091527ffd7cfbd219ff1e7365436fb2930a026fa6704a1e0bb39ad104f0485c8c01124d925060600190505b60405180910390a150506001600855505050565b6000908152600d6020526040902054600160c01b900463ffffffff1690565b6000818152600260205260408120546001600160a01b031680610ae65760405162461bcd60e51b8152600401610c6a90614f87565b60006001600160a01b0382166119245760405162461bcd60e51b815260206004820152602960248201527f4552433732313a2061646472657373207a65726f206973206e6f7420612076616044820152683634b21037bbb732b960b91b6064820152608401610c6a565b506001600160a01b031660009081526003602052604090205490565b600c54604051632474521560e21b81526001600160a01b03909116906391d148549061198090600080516020615d14833981519152903390600401614de2565b602060405180830381865afa15801561199d573d6000803e3d6000fd5b505050506040513d601f19601f820116820180604052508101906119c19190614df9565b6119dd5760405162461bcd60e51b8152600401610c6a90614e16565b6107d081106119eb57600080fd5b60138190556040518181527fbc72fdb44c412ebc646560c1f4d50c150c5c962985c4c9e4e79a66556960e0c890602001610f1b565b60026008541415611a435760405162461bcd60e51b8152600401610c6a90614dab565b60026008556000828152600d6020526040902080546001600160a01b03163314611aa05760405162461bcd60e51b815260206004820152600e60248201526d392096b7b7363c903bb934ba32b960911b6044820152606401610c6a565b6003810154600160a01b900460ff1615611af05760405162461bcd60e51b81526020600482015260116024820152701c904b5bdc1d1a5bdb881cd95d1d1b1959607a1b6044820152606401610c6a565b611af983611885565b81546001600160a01b03908116911614611b4a5760405162461bcd60e51b8152602060048201526012602482015271392096bbb934ba32b91036bab9ba1037bbb760711b6044820152606401610c6a565b805442600160a01b90910463ffffffff1611611b9c5760405162461bcd60e51b81526020600482015260116024820152701c904b5bdc1d1a5bdb88195e1c1a5c9959607a1b6044820152606401610c6a565b611ba58361398b565b60038101805460ff60a01b198116600160a01b179091556001600160a01b031615611cd057805460038201546001600160a01b0390811691161415611c2c5760038101546002820154611c27916001600160a01b031690611c19906001600160801b0380821691600160801b900416614fb9565b6001600160801b0316613a1c565b611c59565b60038101546002820154611c59916001600160a01b031690600160801b90046001600160801b0316613a1c565b60018101548154604051632ec14d3f60e01b81526001600160a01b0392831692632ec14d3f92611c9d92600160c01b820463ffffffff169290911690600401614f68565b600060405180830381600087803b158015611cb757600080fd5b505af1158015611ccb573d6000803e3d6000fd5b505050505b8115611d5157600181015481546040516312d11cc160e11b81526001600160a01b03928316926325a2398292611d1a92600160c01b820463ffffffff169290911690600401614f68565b600060405180830381600087803b158015611d3457600080fd5b505af1158015611d48573d6000803e3d6000fd5b50505050611dc5565b6001810154815460405163eaf8b32360e01b81526001600160a01b039092169163eaf8b32391611d9291600160c01b90910463ffffffff1690600401614a4c565b600060405180830381600087803b158015611dac57600080fd5b505af1158015611dc0573d6000803e3d6000fd5b505050505b6040518381527f3d5004f110af0aa62d4bf0e9ad74ac1096552670cb71f616b46821f524ff1ad89060200160405180910390a15050600160085550565b6060611e0d30613f7d565b611e16836140c4565b604051602001611e27929190614fe1565b6040516020818303038152906040529050919050565b60026008541415611e605760405162461bcd60e51b8152600401610c6a90614dab565b60026008556000818152600d6020526040902060038101546001600160a01b0316611ecc5760405162461bcd60e51b815260206004820152601c60248201527b732d626964206d75737420626520776f6e20627920736f6d656f6e6560201b6044820152606401610c6a565b805442600160a01b90910463ffffffff1610611f255760405162461bcd60e51b81526020600482015260186024820152771ccb5bdc1d1a5bdb881b5d5cdd08189948195e1c1a5c995960421b6044820152606401610c6a565b6003810154600160a01b900460ff1615611f8d5760405162461bcd60e51b8152602060048201526024808201527f732d7468652063616c6c2063616e6e6f7420616c7265616479206265207365746044820152631d1b195960e21b6064820152608401610c6a565b6002810154600090611fb2906001600160801b0380821691600160801b900416614fb9565b6001600160801b031690506000611fc884611885565b6000858152600d602052604090206003908101805460ff60a01b1916600160a01b1790558454908501549192506001600160a01b0391821691161461202a578254600284015461202a916001600160a01b0316906001600160801b0316613a1c565b6000336001600160a01b0383161415612055576120478284613a1c565b6120508561398b565b61206a565b506000848152600f6020526040902082905560015b6040805186815282151560208201527f73ee909c0777ba4f98c2039b3978c80555cd6ac9c54da8b3235e0efc262f095c9101611852565b606060018054610b4b90614d22565b6120bb3383836141c1565b5050565b6120c9338361379c565b6120e55760405162461bcd60e51b8152600401610c6a90614d5d565b6120f18484848461428c565b50505050565b60606000612104836142bf565b90506001600160e01b031981166339d690a360e11b14156123ac57600061212a84613023565b9050600061213785611866565b90506000826001600160a01b0316631f48f6ab836040518263ffffffff1660e01b81526004016121679190614a4c565b602060405180830381865afa158015612184573d6000803e3d6000fd5b505050506040513d601f19601f820116820180604052508101906121a89190614e6f565b90506000836001600160a01b031663e7dc956b846040518263ffffffff1660e01b81526004016121d89190614a4c565b602060405180830381865afa1580156121f5573d6000803e3d6000fd5b505050506040513d601f19601f820116820180604052508101906122199190615047565b6040516311edb68160e11b81526004810189905290915060009030906323db6d0290602401602060405180830381865afa15801561225b573d6000803e3d6000fd5b505050506040513d601f19601f8201168201806040525081019061227f9190615047565b60405163a05b775f60e01b8152600481018a9052909150600090309063a05b775f90602401602060405180830381865afa1580156122c1573d6000803e3d6000fd5b505050506040513d601f19601f820116820180604052508101906122e59190615047565b60008a81526006602052604081205491925090604051632dc818a960e11b8152600481018c90526001600160a01b038716602482015260448101869052606481018490526084810185905260a4810182905290915073f28B0c5Ef44dd4b3e933ac0d2E8F9b4373Ce6a4490635b9031529060c401600060405180830381865af4158015612376573d6000803e3d6000fd5b505050506040513d6000823e601f3d908101601f1916820160405261239e9190810190615060565b9a9950505050505050505050565b5050604080518082019091526018815277125b9d985b1a59081d5b99195c9b1e5a5b99c8185cdcd95d60421b6020820152919050565b6000600260085414156124075760405162461bcd60e51b8152600401610c6a90614dab565b600260085560155460ff161561242f5760405162461bcd60e51b8152600401610c6a90614e48565b600c60009054906101000a90046001600160a01b03166001600160a01b0316635b67d9ab6040518163ffffffff1660e01b8152600401600060405180830381600087803b15801561247f57600080fd5b505af1158015612493573d6000803e3d6000fd5b5050604051631f48f6ab60e01b81528792506001600160a01b0383169150631f48f6ab906124c5908890600401614a4c565b602060405180830381865afa1580156124e2573d6000803e3d6000fd5b505050506040513d601f19601f820116820180604052508101906125069190614e6f565b6010546001600160a01b0390811691161461255c5760405162461bcd60e51b81526020600482015260166024820152751b55d1558b5d1bdad95b881b9bdd08185b1b1bddd95960521b6044820152606401610c6a565b60405163ba02481b60e01b81526001600160a01b0382169063ba02481b90612588908890600401614a4c565b602060405180830381865afa1580156125a5573d6000803e3d6000fd5b505050506040513d601f19601f820116820180604052508101906125c99190614df9565b6126135760405162461bcd60e51b815260206004820152601b60248201527a1b55d1558b585cdcd95d081b5d5cdd081899481a5b881d985d5b1d602a1b6044820152606401610c6a565b600080826001600160a01b031663c72bed15886040518263ffffffff1660e01b81526004016126429190614a4c565b6040805180830381865afa15801561265e573d6000803e3d6000fd5b505050506040513d601f19601f8201168201806040525081019061268291906150d6565b9150915081801561269b57506001600160a01b03811630145b6126e75760405162461bcd60e51b815260206004820152601f60248201527f6d5745562d63616c6c20636f6e7472616374206e6f74206f70657261746f72006044820152606401610c6a565b60405163774a762760e01b81526001600160a01b0384169063774a762790612713908a90600401614a4c565b602060405180830381865afa158015612730573d6000803e3d6000fd5b505050506040513d601f19601f820116820180604052508101906127549190615105565b63ffffffff168563ffffffff16146127bc5760405162461bcd60e51b815260206004820152602560248201527f6d5745562d656e7469746c656d656e742065787069726174696f6e2064696666604482015264195c995b9d60da1b6064820152608401610c6a565b6010546127d49089906001600160a01b031689613b08565b61282a5760405162461bcd60e51b815260206004820152602160248201527f6d5745562d6f6e6c792070726f746f636f6c207661756c747320616c6c6f77656044820152601960fa1b6064820152608401610c6a565b60405163ecb2c20b60e01b81526000906001600160a01b0385169063ecb2c20b90612859908b90600401614a4c565b602060405180830381865afa158015612876573d6000803e3d6000fd5b505050506040513d601f19601f8201168201806040525081019061289a9190614e6f565b90506001600160a01b0381163314806129285750604051635781257360e11b815233906001600160a01b0386169063af024ae6906128dc908c90600401614a4c565b602060405180830381865afa1580156128f9573d6000803e3d6000fd5b505050506040513d601f19601f8201168201806040525081019061291d9190614e6f565b6001600160a01b0316145b6129805760405162461bcd60e51b8152602060048201526024808201527f6d5745562d6f6e6c79206f776e6572206f72206f70657261746f72206d6179206044820152631b5a5b9d60e21b6064820152608401610c6a565b61298d81858a8a8a613c15565b60016008559998505050505050505050565b6000600260085414156129c45760405162461bcd60e51b8152600401610c6a90614dab565b600260085560155460ff16156129ec5760405162461bcd60e51b8152600401610c6a90614e48565b600c60009054906101000a90046001600160a01b03166001600160a01b0316635b67d9ab6040518163ffffffff1660e01b8152600401600060405180830381600087803b158015612a3c57600080fd5b505af1158015612a50573d6000803e3d6000fd5b50506040516331a9108f60e11b815260048101879052600092506001600160a01b0388169150636352211e90602401602060405180830381865afa158015612a9c573d6000803e3d6000fd5b505050506040513d601f19601f82011682018060405250810190612ac09190614e6f565b6010549091506001600160a01b03878116911614612b1e5760405162461bcd60e51b815260206004820152601b60248201527a1b55d14dcb5d1bdad95b881b9bdd081bdb88185b1b1bdddb1a5cdd602a1b6044820152606401610c6a565b336001600160a01b0382161480612b9f575060405163e985e9c560e01b81526001600160a01b0387169063e985e9c590612b5e9084903390600401615122565b602060405180830381865afa158015612b7b573d6000803e3d6000fd5b505050506040513d601f19601f82011682018060405250810190612b9f9190614df9565b80612c1b575060405163020604bf60e21b81526004810186905233906001600160a01b0388169063081812fc90602401602060405180830381865afa158015612bec573d6000803e3d6000fd5b505050506040513d601f19601f82011682018060405250810190612c109190614e6f565b6001600160a01b0316145b612c715760405162461bcd60e51b815260206004820152602160248201527f6d5745372d63616c6c6572206e6f74206f776e6572206f72206f70657261746f6044820152603960f91b6064820152608401610c6a565b60405163e985e9c560e01b81526001600160a01b0387169063e985e9c590612c9f9084903090600401615122565b602060405180830381865afa158015612cbc573d6000803e3d6000fd5b505050506040513d601f19601f82011682018060405250810190612ce09190614df9565b80612d5c575060405163020604bf60e21b81526004810186905230906001600160a01b0388169063081812fc90602401602060405180830381865afa158015612d2d573d6000803e3d6000fd5b505050506040513d601f19601f82011682018060405250810190612d519190614e6f565b6001600160a01b0316145b612da55760405162461bcd60e51b815260206004820152601a60248201527936aba29b96b737ba1030b8383937bb32b21037b832b930ba37b960311b6044820152606401610c6a565b600b5460405163b6f3fa3f60e01b81526000916001600160a01b03169063b6f3fa3f90612dd8908a908a9060040161513c565b6020604051808303816000875af1158015612df7573d6000803e3d6000fd5b505050506040513d601f19601f82011682018060405250810190612e1b9190614e6f565b90506000612ea3612e2b8961436a565b604051612e3a60208201614818565b601f1982820381018352601f9091011660408181528251602093840120600b546001600160f81b03198585015260601b6001600160601b031916602184015260358301949094526055808301949094528051808303909401845260759091019052815191012090565b6001600160a01b0316826001600160a01b03161415612ebf5750855b6000612ece8484848a8a613c15565b604080516001600160a01b038781166020830152308284015263ffffffff8a16606080840191909152835180840390910181526080830193849052635c46a7ef60e11b909352929350918b169163b88d4fde91612f3491889188918e9190608401615155565b600060405180830381600087803b158015612f4e57600080fd5b505af1158015612f62573d6000803e3d6000fd5b50506040516331a9108f60e11b8152600481018b90526001600160a01b0386811693508c169150636352211e90602401602060405180830381865afa158015612faf573d6000803e3d6000fd5b505050506040513d601f19601f82011682018060405250810190612fd39190614e6f565b6001600160a01b03161461143c5760405162461bcd60e51b81526020600482015260176024820152761b55d14dcb585cdcd95d081b9bdd081a5b881d985d5b1d604a1b6044820152606401610c6a565b6000908152600d60205260409020600101546001600160a01b031690565b6007546000906001600160a01b038381169116148061308557506001600160a01b0380841660009081526005602090815260408083209386168352929052205460ff165b9392505050565b600260085414156130af5760405162461bcd60e51b8152600401610c6a90614dab565b600260085560155460ff16156130d75760405162461bcd60e51b8152600401610c6a90614e48565b600c60009054906101000a90046001600160a01b03166001600160a01b0316635b67d9ab6040518163ffffffff1660e01b8152600401600060405180830381600087803b15801561312757600080fd5b505af115801561313b573d6000803e3d6000fd5b5050506000828152600d602090815260409182902082516101008101845281546001600160a01b03808216835263ffffffff600160a01b8084048216968501879052600160c01b909304169583019590955260018301548516606083015260028301546001600160801b038082166080850152600160801b9091041660a083015260039092015493841660c082015260ff9190930416151560e0830152909150421161321e5760405162461bcd60e51b8152602060048201526012602482015271189153cb5bdc1d1a5bdb88195e1c1a5c995960721b6044820152606401610c6a565b8060e00151156132655760405162461bcd60e51b8152602060048201526012602482015271189153cb5bdc1d1a5bdb881cd95d1d1b195960721b6044820152606401610c6a565b60c08101516001600160a01b0316156132b65760405162461bcd60e51b815260206004820152601360248201527262454f2d6f7074696f6e20686173206269647360681b6044820152606401610c6a565b6132bf8261398b565b600160e08201526040518281527f4b523da7fb0ebb1e0d08d5d3a34f8eb493d2ccacfc3a6a2d2fbf011c38606b8c9060200160405180910390a150506001600855565b600c54604051632474521560e21b81526001600160a01b03909116906391d148549061334290600080516020615d14833981519152903390600401614de2565b602060405180830381865afa15801561335f573d6000803e3d6000fd5b505050506040513d601f19601f820116820180604052508101906133839190614df9565b61339f5760405162461bcd60e51b8152600401610c6a90614e16565b60125481106133ad57600080fd5b60148190556040518181527f4c0aa8cbd2a45ad4d1999638fe86b622a70f20cf36cae2b0ac42bffea168066390602001610f1b565b600c54604051632474521560e21b81526001600160a01b03909116906391d148549061342290600080516020615d14833981519152903390600401614de2565b602060405180830381865afa15801561343f573d6000803e3d6000fd5b505050506040513d601f19601f820116820180604052508101906134639190614df9565b61347f5760405162461bcd60e51b8152600401610c6a90614e16565b60155460ff1615158115146134c85760405162461bcd60e51b815260206004820152600f60248201526e734d502d6d757374206368616e676560881b6044820152606401610c6a565b6015805460ff19168215159081179091556040519081527f49da065b3a22e1d922a1aaa365357758c9f7c40aff11b507d1a43f9e9f10002b90602001610f1b565b600954610100900460ff16158080156135295750600954600160ff909116105b8061354a57506135383061439a565b15801561354a575060095460ff166001145b6135ad5760405162461bcd60e51b815260206004820152602e60248201527f496e697469616c697a61626c653a20636f6e747261637420697320616c72656160448201526d191e481a5b9a5d1a585b1a5e995960921b6064820152608401610c6a565b6009805460ff1916600117905580156135d0576009805461ff0019166101001790555b600c80546001600160a01b038088166001600160a01b03199283168117909355600b8054918716919092161790556040805163affa881760e01b8152905163affa8817916004808201926020929091908290030181865afa158015613639573d6000803e3d6000fd5b505050506040513d601f19601f8201168201806040525081019061365d9190614e6f565b601180546001600160a01b03199081166001600160a01b039384161790915560078054821685841617905560108054909116918616919091179055600a8054600101905562015180601281905560326013556014556015805460ff191690558015613702576009805461ff0019169055604051600181527f7f26b83ff96e1f2b6a682f133852f6798a09c465da95921460cefb38474024989060200160405180910390a15b5050505050565b613712816143a9565b610f6f5760405162461bcd60e51b8152600401610c6a90614f87565b600081815260046020526040902080546001600160a01b0319166001600160a01b038416908117909155819061376382611885565b6001600160a01b03167f8c5be1e5ebec7d5bd14f71427d1e84f3dd0314c0f7b2291e5b200ac8c7c3b92560405160405180910390a45050565b6000806137a883611885565b9050806001600160a01b0316846001600160a01b031614806137cf57506137cf8185613041565b806137f35750836001600160a01b03166137e884610bce565b6001600160a01b0316145b949350505050565b826001600160a01b031661380e82611885565b6001600160a01b0316146138725760405162461bcd60e51b815260206004820152602560248201527f4552433732313a207472616e736665722066726f6d20696e636f72726563742060448201526437bbb732b960d91b6064820152608401610c6a565b6001600160a01b0382166138d45760405162461bcd60e51b8152602060048201526024808201527f4552433732313a207472616e7366657220746f20746865207a65726f206164646044820152637265737360e01b6064820152608401610c6a565b6138df60008261372e565b6001600160a01b0383166000908152600360205260408120805460019290613908908490614ec5565b90915550506001600160a01b0382166000908152600360205260408120805460019290613936908490614f50565b909155505060008181526002602052604080822080546001600160a01b0319166001600160a01b038681169182179092559151849391871691600080516020615d3483398151915291a4610d0b8383836143c6565b600061399682611885565b90506139a360008361372e565b6001600160a01b03811660009081526003602052604081208054600192906139cc908490614ec5565b909155505060008281526002602052604080822080546001600160a01b0319169055518391906001600160a01b03841690600080516020615d34833981519152908390a46120bb816000846143c6565b613a2682826143df565b6120bb57601160009054906101000a90046001600160a01b03166001600160a01b031663d0e30db0826040518263ffffffff1660e01b81526004016000604051808303818588803b158015613a7a57600080fd5b505af1158015613a8e573d6000803e3d6000fd5b505060115460405163a9059cbb60e01b81526001600160a01b03909116935063a9059cbb9250613ac591508590859060040161513c565b6020604051808303816000875af1158015613ae4573d6000803e3d6000fd5b505050506040513d601f19601f82011682018060405250810190610d0b9190614df9565b6000613b16612e2b8461436a565b6001600160a01b0316846001600160a01b03161415613b3757506001613085565b60405163e7dc956b60e01b81526001600160a01b0385169063e7dc956b90613b63908590600401614a4c565b602060405180830381865afa925050508015613b9c575060408051601f3d908101601f19168201909252613b9991810190615047565b60015b613bda573d808015613bca576040519150601f19603f3d011682016040523d82523d6000602084013e613bcf565b606091505b506000915050613085565b613be7612e2b858361445d565b6001600160a01b0316856001600160a01b03161415613c0a576001915050613085565b505060009392505050565b600060125442613c259190614f50565b8263ffffffff1611613c885760405162461bcd60e51b815260206004820152602660248201527f5f6d4f57562d6578706972657320736f6f6e6572207468616e206d696e2064756044820152653930ba34b7b760d11b6064820152608401610c6a565b6001600160a01b0385166000908152600e6020908152604080832063ffffffff881684529091529020548015613d2e576000818152600d6020526040902060030154600160a01b900460ff16613d2e5760405162461bcd60e51b815260206004820152602560248201527f5f6d4f57562d70726576696f7573206f7074696f6e206d7573742062652073656044820152641d1d1b195960da1b6064820152608401610c6a565b613d3c600a80546001019055565b6000613d47600a5490565b60408051610100810182526001600160a01b038b8116825263ffffffff88811660208085019182528c83168587019081528e8516606087019081526001600160801b038e811660808901908152600060a08a0181815260c08b0182815260e08c018381528e8452600d9098529b90912099518a5497519551908a166001600160c01b031990981697909717600160a01b95891686021763ffffffff60c01b1916600160c01b979098169690960296909617885590516001880180546001600160a01b03191691881691909117905593519251928416600160801b93909416929092029290921760028501559351600390930180549151939092166001600160a81b0319909116179115159092021790559050613e638882614490565b336001600160a01b03891614613e7d57613e7d338261372e565b6001600160a01b038781166000818152600e6020908152604080832063ffffffff8c8116808652918452938290208790558151958e1686529185019390935283830152606083018490526001600160801b0388166080840152861660a0830152517f1942da09a08718d22494497e4f9610b26572dd3de279f0793d826d170c5305989181900360c00190a1979650505050505050565b600281015481546003830154600160801b9092046001600160801b0316916001600160a01b0391821691161415613f5f576002820154613f5c906001600160801b031682614ec5565b90505b80156120bb5760038201546120bb906001600160a01b031682613a1c565b60408051602880825260608281019093526000919060208201818036833701905050905060005b60148110156140bd576000613fba826013614ec5565b613fc5906008614f07565b613fd0906002615276565b613fe3906001600160a01b038716614f3c565b60f81b9050600060108260f81c613ffa9190615282565b60f81b905060008160f81c601061401191906152a4565b8360f81c61401f91906152c5565b60f81b905061402d826144aa565b85614039866002614f07565b81518110614049576140496152e8565b60200101906001600160f81b031916908160001a905350614069816144aa565b85614075866002614f07565b614080906001614f50565b81518110614090576140906152e8565b60200101906001600160f81b031916908160001a90535050505080806140b5906152fe565b915050613fa4565b5092915050565b6060816140e85750506040805180820190915260018152600360fc1b602082015290565b8160005b811561411257806140fc816152fe565b915061410b9050600a83614f3c565b91506140ec565b6000816001600160401b0381111561412c5761412c614adb565b6040519080825280601f01601f191660200182016040528015614156576020820181803683370190505b5090505b84156137f35761416b600183614ec5565b9150614178600a86615319565b614183906030614f50565b60f81b818381518110614198576141986152e8565b60200101906001600160f81b031916908160001a9053506141ba600a86614f3c565b945061415a565b816001600160a01b0316836001600160a01b0316141561421f5760405162461bcd60e51b815260206004820152601960248201527822a9219b99189d1030b8383937bb32903a379031b0b63632b960391b6044820152606401610c6a565b6001600160a01b03838116600081815260056020908152604080832094871680845294825291829020805460ff191686151590811790915591519182527f17307eab39ab6107e8899845ad3d59bd9653f200f220920489ca2b5937696c31910160405180910390a3505050565b6142978484846137fb565b6142a3848484846144e0565b6120f15760405162461bcd60e51b8152600401610c6a9061532d565b60006142da6142cd83613023565b63162ff4f760e21b6145e5565b1561430657507f73ad2146b3d3a286642c794379d750360a2d53a3459a11b3e5d6cc900f55f44a919050565b60405162461bcd60e51b815260206004820152602e60248201527f5f756e6465726c79696e672d636c6173733a20556e737570706f72746564207560448201526d6e6465726c79696e67207479706560901b6064820152608401610c6a565b919050565b60008160405160200161437d91906148dc565b604051602081830303815290604052805190602001209050919050565b6001600160a01b03163b151590565b6000908152600260205260409020546001600160a01b0316151590565b6000908152600660205260409020805460010190555050565b6040805160008082526020820190925281906001600160a01b0385169061753090859060405161440f919061537f565b600060405180830381858888f193505050503d806000811461444d576040519150601f19603f3d011682016040523d82523d6000602084013e614452565b606091505b509095945050505050565b6000828260405160200161447292919061513c565b60405160208183030381529060405280519060200120905092915050565b6120bb828260405180602001604052806000815250614601565b6000600a60f883901c10156144d1576144c860f883901c603061539b565b60f81b92915050565b6144c860f883901c605761539b565b60006144f4846001600160a01b031661439a565b156145da57604051630a85bd0160e11b81526001600160a01b0385169063150b7a029061452b903390899088908890600401615155565b6020604051808303816000875af1925050508015614566575060408051601f3d908101601f19168201909252614563918101906153c0565b60015b6145c0573d808015614594576040519150601f19603f3d011682016040523d82523d6000602084013e614599565b606091505b5080516145b85760405162461bcd60e51b8152600401610c6a9061532d565b805181602001fd5b6001600160e01b031916630a85bd0160e11b1490506137f3565b506001949350505050565b60006145f083614634565b801561308557506130858383614667565b61460b83836146f0565b61461860008484846144e0565b610d0b5760405162461bcd60e51b8152600401610c6a9061532d565b6000614647826301ffc9a760e01b614667565b8015610ae65750614660826001600160e01b0319614667565b1592915050565b604080516001600160e01b03198316602480830191909152825180830390910181526044909101909152602080820180516001600160e01b03166301ffc9a760e01b178152825160009392849283928392918391908a617530fa92503d915060005190508280156146d9575060208210155b80156146e55750600081115b979650505050505050565b6001600160a01b0382166147465760405162461bcd60e51b815260206004820181905260248201527f4552433732313a206d696e7420746f20746865207a65726f20616464726573736044820152606401610c6a565b61474f816143a9565b1561479b5760405162461bcd60e51b815260206004820152601c60248201527b115490cdcc8c4e881d1bdad95b88185b1c9958591e481b5a5b9d195960221b6044820152606401610c6a565b6001600160a01b03821660009081526003602052604081208054600192906147c4908490614f50565b909155505060008181526002602052604080822080546001600160a01b0319166001600160a01b0386169081179091559051839290600080516020615d34833981519152908290a46120bb600083836143c6565b610936806153de83390190565b60006020828403121561483757600080fd5b5035919050565b6001600160e01b031981168114610f6f57600080fd5b60006020828403121561486657600080fd5b81356130858161483e565b60005b8381101561488c578181015183820152602001614874565b838111156120f15750506000910152565b600081518084526148b5816020860160208601614871565b601f01601f19169290920160200192915050565b602081526000613085602083018461489d565b6001600160a01b0391909116815260200190565b6001600160a01b0381168114610f6f57600080fd5b6000806040838503121561491857600080fd5b8235614923816148f0565b946020939093013593505050565b63ffffffff81168114610f6f57600080fd5b6000806040838503121561495657600080fd5b8235614961816148f0565b9150602083013561497181614931565b809150509250929050565b60008060006060848603121561499157600080fd5b833561499c816148f0565b925060208401356149ac816148f0565b929592945050506040919091013590565b80356001600160801b038116811461436557600080fd5b60008060008060008587036101008112156149ee57600080fd5b86356149f9816148f0565b95506020870135614a0981614931565b9450614a17604088016149bd565b93506060870135614a2781614931565b92506080607f1982011215614a3b57600080fd5b506080860190509295509295909350565b63ffffffff91909116815260200190565b600060208284031215614a6f57600080fd5b8135613085816148f0565b8015158114610f6f57600080fd5b60008060408385031215614a9b57600080fd5b82359150602083013561497181614a7a565b60008060408385031215614ac057600080fd5b8235614acb816148f0565b9150602083013561497181614a7a565b634e487b7160e01b600052604160045260246000fd5b604051601f8201601f191681016001600160401b0381118282101715614b1957614b19614adb565b604052919050565b60006001600160401b03821115614b3a57614b3a614adb565b50601f01601f191660200190565b60008060008060808587031215614b5e57600080fd5b8435614b69816148f0565b93506020850135614b79816148f0565b92506040850135915060608501356001600160401b03811115614b9b57600080fd5b8501601f81018713614bac57600080fd5b8035614bbf614bba82614b21565b614af1565b818152886020838501011115614bd457600080fd5b8160208401602083013760006020838301015280935050505092959194509250565b60008060008060808587031215614c0c57600080fd5b8435614c17816148f0565b93506020850135614c2781614931565b9250614c35604086016149bd565b91506060850135614c4581614931565b939692955090935050565b60008060008060808587031215614c6657600080fd5b8435614c71816148f0565b935060208501359250614c35604086016149bd565b60008060408385031215614c9957600080fd5b8235614ca4816148f0565b91506020830135614971816148f0565b600060208284031215614cc657600080fd5b813561308581614a7a565b60008060008060808587031215614ce757600080fd5b8435614cf2816148f0565b93506020850135614d02816148f0565b92506040850135614d12816148f0565b91506060850135614c45816148f0565b600181811c90821680614d3657607f821691505b60208210811415614d5757634e487b7160e01b600052602260045260246000fd5b50919050565b6020808252602e908201527f4552433732313a2063616c6c6572206973206e6f7420746f6b656e206f776e6560408201526d1c881b9bdc88185c1c1c9bdd995960921b606082015260800190565b6020808252601f908201527f5265656e7472616e637947756172643a207265656e7472616e742063616c6c00604082015260600190565b9182526001600160a01b0316602082015260400190565b600060208284031215614e0b57600080fd5b815161308581614a7a565b60208082526018908201527731b0b63632b9103732b2b2399026a0a925a2aa2fa1a7a72360411b604082015260600190565b6020808252600d908201526c1b585c9ad95d081c185d5cd959609a1b604082015260600190565b600060208284031215614e8157600080fd5b8151613085816148f0565b600060208284031215614e9e57600080fd5b813560ff8116811461308557600080fd5b634e487b7160e01b600052601160045260246000fd5b600082821015614ed757614ed7614eaf565b500390565b60006001600160801b03828116848216808303821115614efe57614efe614eaf565b01949350505050565b6000816000190483118215151615614f2157614f21614eaf565b500290565b634e487b7160e01b600052601260045260246000fd5b600082614f4b57614f4b614f26565b500490565b60008219821115614f6357614f63614eaf565b500190565b63ffffffff9290921682526001600160a01b0316602082015260400190565b602080825260189082015277115490cdcc8c4e881a5b9d985b1a59081d1bdad95b88125160421b604082015260600190565b60006001600160801b0383811690831681811015614fd957614fd9614eaf565b039392505050565b7f746f6b656e2e686f6f6b2e78797a2f6f7074696f6e2d636f6e74726163742f0081526000835161501981601f850160208801614871565b8083019050602f60f81b601f820152835161503b816020840160208801614871565b01602001949350505050565b60006020828403121561505957600080fd5b5051919050565b60006020828403121561507257600080fd5b81516001600160401b0381111561508857600080fd5b8201601f8101841361509957600080fd5b80516150a7614bba82614b21565b8181528560208385010111156150bc57600080fd5b6150cd826020830160208601614871565b95945050505050565b600080604083850312156150e957600080fd5b82516150f481614a7a565b6020840151909250614971816148f0565b60006020828403121561511757600080fd5b815161308581614931565b6001600160a01b0392831681529116602082015260400190565b6001600160a01b03929092168252602082015260400190565b6001600160a01b03858116825284166020820152604081018390526080606082018190526000906151889083018461489d565b9695505050505050565b600181815b808511156151cd5781600019048211156151b3576151b3614eaf565b808516156151c057918102915b93841c9390800290615197565b509250929050565b6000826151e457506001610ae6565b816151f157506000610ae6565b816001811461520757600281146152115761522d565b6001915050610ae6565b60ff84111561522257615222614eaf565b50506001821b610ae6565b5060208310610133831016604e8410600b8410161715615250575081810a610ae6565b61525a8383615192565b806000190482111561526e5761526e614eaf565b029392505050565b600061308583836151d5565b600060ff83168061529557615295614f26565b8060ff84160491505092915050565b600060ff821660ff84168160ff048111821515161561526e5761526e614eaf565b600060ff821660ff8416808210156152df576152df614eaf565b90039392505050565b634e487b7160e01b600052603260045260246000fd5b600060001982141561531257615312614eaf565b5060010190565b60008261532857615328614f26565b500690565b60208082526032908201527f4552433732313a207472616e7366657220746f206e6f6e20455243373231526560408201527131b2b4bb32b91034b6b83632b6b2b73a32b960711b606082015260800190565b60008251615391818460208701614871565b9190910192915050565b600060ff821660ff84168060ff038211156153b8576153b8614eaf565b019392505050565b6000602082840312156153d257600080fd5b81516130858161483e56fe608060405234801561001057600080fd5b50610916806100206000396000f3fe6080604052600436106100225760003560e01c80637fe8e72c1461003957610031565b366100315761002f610059565b005b61002f610059565b34801561004557600080fd5b5061002f61005436600461068c565b61006b565b61006961006461016f565b6101f6565b565b6000610077600161021a565b905080156100af57600161009f61009c8260008051602061087a83398151915261074f565b90565b805460ff19169115159190911790555b6100da60017fa3f0ad74e5423aebfd80d3ef4346578335a9a72aeaee59ff6cb3582b35133d5161074f565b60008051602061085a833981519152146100f6576100f6610774565b610102838360006102ee565b801561016a57600061012661009c600160008051602061087a83398151915261074f565b805460ff1916911515919091179055604051600181527f7f26b83ff96e1f2b6a682f133852f6798a09c465da95921460cefb38474024989060200160405180910390a15b505050565b600061019060008051602061085a833981519152546001600160a01b031690565b6001600160a01b0316635c60da1b6040518163ffffffff1660e01b8152600401602060405180830381865afa1580156101cd573d6000803e3d6000fd5b505050506040513d601f19601f820116820180604052508101906101f1919061078a565b905090565b3660008037600080366000845af43d6000803e808015610215573d6000f35b3d6000fd5b600061023861009c600160008051602061087a83398151915261074f565b5460ff1615610287578160ff16600114801561025a5750610258306103ae565b155b61027f5760405162461bcd60e51b8152600401610276906107a7565b60405180910390fd5b506000919050565b60ff82166102a761009c600160008051602061089a83398151915261074f565b54106102c55760405162461bcd60e51b8152600401610276906107a7565b60ff82166102e561009c600160008051602061089a83398151915261074f565b55506001919050565b6102f7836103bd565b6040516001600160a01b038416907f1cf3b03a6cf19fa2baba4df148e9dcabedea7f8a5c07840e207e5c089be95d3e90600090a26000825111806103385750805b1561016a576103a8836001600160a01b0316635c60da1b6040518163ffffffff1660e01b8152600401602060405180830381865afa15801561037e573d6000803e3d6000fd5b505050506040513d601f19601f820116820180604052508101906103a2919061078a565b8361051e565b50505050565b6001600160a01b03163b151590565b6103c6816103ae565b6104205760405162461bcd60e51b815260206004820152602560248201527f455243313936373a206e657720626561636f6e206973206e6f74206120636f6e6044820152641d1c9858dd60da1b6064820152608401610276565b61048a816001600160a01b0316635c60da1b6040518163ffffffff1660e01b8152600401602060405180830381865afa158015610461573d6000803e3d6000fd5b505050506040513d601f19601f82011682018060405250810190610485919061078a565b6103ae565b6104ef5760405162461bcd60e51b815260206004820152603060248201527f455243313936373a20626561636f6e20696d706c656d656e746174696f6e206960448201526f1cc81b9bdd08184818dbdb9d1c9858dd60821b6064820152608401610276565b60008051602061085a83398151915280546001600160a01b0319166001600160a01b0392909216919091179055565b606061054383836040518060600160405280602781526020016108ba6027913961054a565b9392505050565b6060610555846103ae565b6105b05760405162461bcd60e51b815260206004820152602660248201527f416464726573733a2064656c65676174652063616c6c20746f206e6f6e2d636f6044820152651b9d1c9858dd60d21b6064820152608401610276565b600080856001600160a01b0316856040516105cb919061080a565b600060405180830381855af49150503d8060008114610606576040519150601f19603f3d011682016040523d82523d6000602084013e61060b565b606091505b509150915061061b828286610625565b9695505050505050565b60608315610634575081610543565b8251156106445782518084602001fd5b8160405162461bcd60e51b81526004016102769190610826565b6001600160a01b038116811461067357600080fd5b50565b634e487b7160e01b600052604160045260246000fd5b6000806040838503121561069f57600080fd5b82356106aa8161065e565b915060208301356001600160401b03808211156106c657600080fd5b818501915085601f8301126106da57600080fd5b8135818111156106ec576106ec610676565b604051601f8201601f19908116603f0116810190838211818310171561071457610714610676565b8160405282815288602084870101111561072d57600080fd5b8260208601602083013760006020848301015280955050505050509250929050565b60008282101561076f57634e487b7160e01b600052601160045260246000fd5b500390565b634e487b7160e01b600052600160045260246000fd5b60006020828403121561079c57600080fd5b81516105438161065e565b6020808252601f908201527f636f6e747261637420697320616c726561647920696e697469616c697a656400604082015260600190565b60005b838110156107f95781810151838201526020016107e1565b838111156103a85750506000910152565b6000825161081c8184602087016107de565b9190910192915050565b60208152600082518060208401526108458160408501602087016107de565b601f01601f1916919091016040019291505056fea3f0ad74e5423aebfd80d3ef4346578335a9a72aeaee59ff6cb3582b35133d50ba701f97ffd09be973ab0487da5ef9921c2bd0aad55202b3c0b41745a8ecda29021cb2f443fd62c4cb6b5d341f5eb8cd045222fc4183f8753d3725ac19741805416464726573733a206c6f772d6c6576656c2064656c65676174652063616c6c206661696c6564a26469706673582212201902b2ab44cdf0715c6e3d610362589ccda73f8de411b662f588e9f6dea04ad464736f6c634300080a00338de11a8d956993287a5b6a74c069984045abc1b621d651081c4c77c05c3cb7afddf252ad1be2c89b69c2b068fc378daa952ba7f163c4a11628f55a4df523b3efa26469706673582212202506456192bf8a8b8ab8155cbb2ea0f22bd640e7b1875ef07165fb4b8dfe345e64736f6c634300080a0033",
  "deployedBytecode": "0x60806040526004361061024e5760003560e01c80623a4a0f1461025357806301ffc9a71461028657806306fdde03146102b6578063081812fc146102d8578063095ea7b3146103055780630d5e67ec146103275780631e2e74e21461035b57806323b872dd1461039357806323db6d02146103b3578063247f0879146103ec57806332ab2f841461040c5780633a283bd21461042c5780633c7cfe34146104465780633fc8cef31461049e57806342842e0e146104be57806342966c68146104de578063439bb40f146104fe578063454a2ab31461051e578063536ff9ad1461053157806361f547fd1461055e5780636352211e1461058b57806367207872146105ab57806370a08231146105c157806377ff20bd146105e15780637b850da91461062c5780637f1a48851461064c5780637fb6afd41461066c578063829b58471461068c57806383b6fa98146106ac57806390f0252a146106cc57806395d89b4114610705578063a05b775f1461071a578063a22cb46514610754578063a34fd3fb14610774578063acca6838146107a8578063b4985c94146107dc578063b88d4fde146107fc578063bb31173a1461081c578063c87b56dd14610850578063cc06752514610870578063cd52d15114610890578063d365016c14610974578063dee92f5d14610994578063e63ab1e9146109aa578063e6bd26a2146109de578063e985e9c5146109fe578063e9d69ff214610a1e578063ed059f2714610a3e578063ef17ac7f14610a5e578063f23c19e814610a7e578063f8c8765e14610aa0578063ff58aaaa14610ac0575b600080fd5b34801561025f57600080fd5b5061027361026e366004614825565b610ad6565b6040519081526020015b60405180910390f35b34801561029257600080fd5b506102a66102a1366004614854565b610aec565b604051901515815260200161027d565b3480156102c257600080fd5b506102cb610b3c565b60405161027d91906148c9565b3480156102e457600080fd5b506102f86102f3366004614825565b610bce565b60405161027d91906148dc565b34801561031157600080fd5b50610325610320366004614905565b610bf5565b005b34801561033357600080fd5b506102737f945438d5e976f17e0d00cb2997cf8951c55e12977d86234d6738d1865abe006e81565b34801561036757600080fd5b50610273610376366004614943565b600e60209081526000928352604080842090915290825290205481565b34801561039f57600080fd5b506103256103ae36600461497c565b610d10565b3480156103bf57600080fd5b506102736103ce366004614825565b6000908152600d60205260409020600201546001600160801b031690565b3480156103f857600080fd5b50610325610407366004614825565b610d42565b34801561041857600080fd5b50610325610427366004614825565b610e3f565b34801561043857600080fd5b506015546102a69060ff1681565b34801561045257600080fd5b50610486610461366004614825565b6000908152600d6020526040902060020154600160801b90046001600160801b031690565b6040516001600160801b03909116815260200161027d565b3480156104aa57600080fd5b506011546102f8906001600160a01b031681565b3480156104ca57600080fd5b506103256104d936600461497c565b610f26565b3480156104ea57600080fd5b506103256104f9366004614825565b610f41565b34801561050a57600080fd5b506102736105193660046149d4565b610f72565b61032561052c366004614825565b61144d565b34801561053d57600080fd5b5061027361054c366004614825565b600f6020526000908152604090205481565b34801561056a57600080fd5b5061057e610579366004614825565b611866565b60405161027d9190614a4c565b34801561059757600080fd5b506102f86105a6366004614825565b611885565b3480156105b757600080fd5b5061027360125481565b3480156105cd57600080fd5b506102736105dc366004614a5d565b6118ba565b3480156105ed57600080fd5b506102736105fc366004614943565b6001600160a01b0382166000908152600e6020908152604080832063ffffffff8516845290915290205492915050565b34801561063857600080fd5b50610325610647366004614825565b611940565b34801561065857600080fd5b506007546102f8906001600160a01b031681565b34801561067857600080fd5b50610325610687366004614a88565b611a20565b34801561069857600080fd5b506102cb6106a7366004614825565b611e02565b3480156106b857600080fd5b506103256106c7366004614825565b611e3d565b3480156106d857600080fd5b506102f86106e7366004614825565b6000908152600d60205260409020600301546001600160a01b031690565b34801561071157600080fd5b506102cb6120a1565b34801561072657600080fd5b50610273610735366004614825565b6000908152600d6020526040902054600160a01b900463ffffffff1690565b34801561076057600080fd5b5061032561076f366004614aad565b6120b0565b34801561078057600080fd5b506102737f657f307dfada290937bc821a25e2da10feb07809ba9560b816723e8b47fe379a81565b3480156107b457600080fd5b506102737ffba4f6dd992a27a814ee807eb2f9332d6d01312041726966a540cf4a4a89155381565b3480156107e857600080fd5b506010546102f8906001600160a01b031681565b34801561080857600080fd5b50610325610817366004614b48565b6120bf565b34801561082857600080fd5b506102737ff7e0191f3657a6da7569740b1cdeac8c3425bcbfd257d4fdc6d2241598f4de8b81565b34801561085c57600080fd5b506102cb61086b366004614825565b6120f7565b34801561087c57600080fd5b5061027361088b366004614bf6565b6123e2565b34801561089c57600080fd5b506109156108ab366004614825565b600d6020526000908152604090208054600182015460028301546003909301546001600160a01b0380841694600160a01b80860463ffffffff90811696600160c01b900416948316936001600160801b0380841694600160801b9094041692811691900460ff1688565b604080516001600160a01b03998a16815263ffffffff9889166020820152969097169686019690965292861660608501526001600160801b0391821660808501521660a083015290921660c0830152151560e08201526101000161027d565b34801561098057600080fd5b5061027361098f366004614c50565b61299f565b3480156109a057600080fd5b5061027360135481565b3480156109b657600080fd5b506102737f65d7a28e3265b37a6474929f336521b332c1681b933f6cb9f3376673440d862a81565b3480156109ea57600080fd5b506102f86109f9366004614825565b613023565b348015610a0a57600080fd5b506102a6610a19366004614c86565b613041565b348015610a2a57600080fd5b50610325610a39366004614825565b61308c565b348015610a4a57600080fd5b50610325610a59366004614825565b613302565b348015610a6a57600080fd5b50610325610a79366004614cb4565b6133e2565b348015610a8a57600080fd5b50610273600080516020615d1483398151915281565b348015610aac57600080fd5b50610325610abb366004614cd1565b613509565b348015610acc57600080fd5b5061027360145481565b6000818152600660205260408120545b92915050565b60006001600160e01b031982166380ac58cd60e01b1480610b1d57506001600160e01b03198216635b5e139f60e01b145b80610ae657506301ffc9a760e01b6001600160e01b0319831614610ae6565b606060008054610b4b90614d22565b80601f0160208091040260200160405190810160405280929190818152602001828054610b7790614d22565b8015610bc45780601f10610b9957610100808354040283529160200191610bc4565b820191906000526020600020905b815481529060010190602001808311610ba757829003601f168201915b5050505050905090565b6000610bd982613709565b506000908152600460205260409020546001600160a01b031690565b6000610c0082611885565b9050806001600160a01b0316836001600160a01b03161415610c735760405162461bcd60e51b815260206004820152602160248201527f4552433732313a20617070726f76616c20746f2063757272656e74206f776e656044820152603960f91b60648201526084015b60405180910390fd5b336001600160a01b0382161480610c8f5750610c8f8133613041565b610d015760405162461bcd60e51b815260206004820152603e60248201527f4552433732313a20617070726f76652063616c6c6572206973206e6f7420746f60448201527f6b656e206f776e6572206e6f7220617070726f76656420666f7220616c6c00006064820152608401610c6a565b610d0b838361372e565b505050565b610d1b335b8261379c565b610d375760405162461bcd60e51b8152600401610c6a90614d5d565b610d0b8383836137fb565b60026008541415610d655760405162461bcd60e51b8152600401610c6a90614dab565b60026008556000610d7582611885565b9050336001600160a01b03821614610dc05760405162461bcd60e51b815260206004820152600e60248201526d634f502d6f776e6572206f6e6c7960901b6044820152606401610c6a565b6000828152600f6020526040812080549190558015610e3557610de28361398b565b604080518481526001600160a01b03841660208201529081018290527f3b243b2a7fb9066beef2765291666e8995942faa5d65b584d1c4acea92f166579060600160405180910390a1610e358282613a1c565b5050600160085550565b600c54604051632474521560e21b81526001600160a01b03909116906391d1485490610e7f90600080516020615d14833981519152903390600401614de2565b602060405180830381865afa158015610e9c573d6000803e3d6000fd5b505050506040513d601f19601f82011682018060405250810190610ec09190614df9565b610edc5760405162461bcd60e51b8152600401610c6a90614e16565b8060145410610eea57600080fd5b60128190556040518181527f40f2d0804ee87f2940dd9632dfaf1a60b67da0186089af5431b86c17cd234c9e906020015b60405180910390a150565b610d0b838383604051806020016040528060008152506120bf565b610f4a33610d15565b610f665760405162461bcd60e51b8152600401610c6a90614d5d565b610f6f8161398b565b50565b600060026008541415610f975760405162461bcd60e51b8152600401610c6a90614dab565b600260085560155460ff1615610fbf5760405162461bcd60e51b8152600401610c6a90614e48565b600c60009054906101000a90046001600160a01b03166001600160a01b0316635b67d9ab6040518163ffffffff1660e01b8152600401600060405180830381600087803b15801561100f57600080fd5b505af1158015611023573d6000803e3d6000fd5b5050604051631f48f6ab60e01b81528892506001600160a01b0383169150631f48f6ab90611055908990600401614a4c565b602060405180830381865afa158015611072573d6000803e3d6000fd5b505050506040513d601f19601f820116820180604052508101906110969190614e6f565b6010546001600160a01b039081169116146110eb5760405162461bcd60e51b81526020600482015260156024820152741b55d58b5d1bdad95b881b9bdd08185b1b1bddd959605a1b6044820152606401610c6a565b60405163ba02481b60e01b81526001600160a01b0382169063ba02481b90611117908990600401614a4c565b602060405180830381865afa158015611134573d6000803e3d6000fd5b505050506040513d601f19601f820116820180604052508101906111589190614df9565b61119d5760405162461bcd60e51b81526020600482015260166024820152751b55d58b585cdcd95d081b9bdd081a5b881d985d5b1d60521b6044820152606401610c6a565b6010546111b59088906001600160a01b031688613b08565b6112105760405162461bcd60e51b815260206004820152602660248201527f6d57562d63616e206f6e6c79206d696e7420776974682070726f746f636f6c206044820152657661756c747360d01b6064820152608401610c6a565b60405163ecb2c20b60e01b81526000906001600160a01b0383169063ecb2c20b9061123f908a90600401614a4c565b602060405180830381865afa15801561125c573d6000803e3d6000fd5b505050506040513d601f19601f820116820180604052508101906112809190614e6f565b9050336001600160a01b03821614806113165750604051635781257360e11b81526001600160a01b0383169063af024ae6906112c0908a90600401614a4c565b602060405180830381865afa1580156112dd573d6000803e3d6000fd5b505050506040513d601f19601f820116820180604052508101906113019190614e6f565b6001600160a01b0316336001600160a01b0316145b6113815760405162461bcd60e51b815260206004820152603660248201527f6d57562d63616c6c656420627920736f6d656f6e65206f74686572207468616e604482015275103a34329037bbb732b91037b91037b832b930ba37b960511b6064820152608401610c6a565b6001600160a01b0382166303e7158b30878a6113a360408a0160208b01614e8c565b604080516001600160e01b031960e088901b1681526001600160a01b03909516600486015263ffffffff938416602486015291909216604484015260ff90911660648301528701356084820152606087013560a482015260c401600060405180830381600087803b15801561141757600080fd5b505af115801561142b573d6000803e3d6000fd5b5050505061143c8183898989613c15565b600160085598975050505050505050565b600260085414156114705760405162461bcd60e51b8152600401610c6a90614dab565b600260088190556000828152600d602090815260409182902082516101008101845281546001600160a01b03808216835263ffffffff600160a01b8084048216968501879052600160c01b9093041695830195909552600183015485166060830152948201546001600160801b038082166080840152600160801b9091041660a082015260039091015492831660c082015260ff9390920492909216151560e0820152829142106115505760405162461bcd60e51b815260206004820152600a60248201526918914b595e1c1a5c995960b21b6044820152606401610c6a565b42601454826020015163ffffffff166115699190614ec5565b11156115b75760405162461bcd60e51b815260206004820152601d60248201527f62452d62696464696e6720737461727473206f6e206c617374206461790000006044820152606401610c6a565b8060e00151156115fe5760405162461bcd60e51b815260206004820152601260248201527118914b585b1c9958591e481cd95d1d1b195960721b6044820152606401610c6a565b6000838152600d6020526040902080543491906001600160a01b031633141561163c576002810154611639906001600160801b031683614edc565b91505b60135460028201546127109161166191600160801b90046001600160801b0316614f07565b61166b9190614f3c565b600282015461168a9190600160801b90046001600160801b0316614f50565b826001600160801b031610156116f05760405162461bcd60e51b815260206004820152602560248201527f622d6d757374206f766572626964206279206d696e426964496e6372656d656e604482015264744269707360d81b6064820152608401610c6a565b60028101546001600160801b039081169083161161175c5760405162461bcd60e51b8152602060048201526024808201527f622d626964206973206c6f776572207468616e2074686520737472696b6520706044820152637269636560e01b6064820152608401610c6a565b61176581613f13565b6002810180546001600160801b03808516600160801b0291161790556003810180546001600160a01b0319163390811790915560018201548254604051632ec14d3f60e01b81526001600160a01b039290921692632ec14d3f926117db9263ffffffff600160c01b909104169190600401614f68565b600060405180830381600087803b1580156117f557600080fd5b505af1158015611809573d6000803e3d6000fd5b5050604080518881526001600160801b038616602082015233918101919091527ffd7cfbd219ff1e7365436fb2930a026fa6704a1e0bb39ad104f0485c8c01124d925060600190505b60405180910390a150506001600855505050565b6000908152600d6020526040902054600160c01b900463ffffffff1690565b6000818152600260205260408120546001600160a01b031680610ae65760405162461bcd60e51b8152600401610c6a90614f87565b60006001600160a01b0382166119245760405162461bcd60e51b815260206004820152602960248201527f4552433732313a2061646472657373207a65726f206973206e6f7420612076616044820152683634b21037bbb732b960b91b6064820152608401610c6a565b506001600160a01b031660009081526003602052604090205490565b600c54604051632474521560e21b81526001600160a01b03909116906391d148549061198090600080516020615d14833981519152903390600401614de2565b602060405180830381865afa15801561199d573d6000803e3d6000fd5b505050506040513d601f19601f820116820180604052508101906119c19190614df9565b6119dd5760405162461bcd60e51b8152600401610c6a90614e16565b6107d081106119eb57600080fd5b60138190556040518181527fbc72fdb44c412ebc646560c1f4d50c150c5c962985c4c9e4e79a66556960e0c890602001610f1b565b60026008541415611a435760405162461bcd60e51b8152600401610c6a90614dab565b60026008556000828152600d6020526040902080546001600160a01b03163314611aa05760405162461bcd60e51b815260206004820152600e60248201526d392096b7b7363c903bb934ba32b960911b6044820152606401610c6a565b6003810154600160a01b900460ff1615611af05760405162461bcd60e51b81526020600482015260116024820152701c904b5bdc1d1a5bdb881cd95d1d1b1959607a1b6044820152606401610c6a565b611af983611885565b81546001600160a01b03908116911614611b4a5760405162461bcd60e51b8152602060048201526012602482015271392096bbb934ba32b91036bab9ba1037bbb760711b6044820152606401610c6a565b805442600160a01b90910463ffffffff1611611b9c5760405162461bcd60e51b81526020600482015260116024820152701c904b5bdc1d1a5bdb88195e1c1a5c9959607a1b6044820152606401610c6a565b611ba58361398b565b60038101805460ff60a01b198116600160a01b179091556001600160a01b031615611cd057805460038201546001600160a01b0390811691161415611c2c5760038101546002820154611c27916001600160a01b031690611c19906001600160801b0380821691600160801b900416614fb9565b6001600160801b0316613a1c565b611c59565b60038101546002820154611c59916001600160a01b031690600160801b90046001600160801b0316613a1c565b60018101548154604051632ec14d3f60e01b81526001600160a01b0392831692632ec14d3f92611c9d92600160c01b820463ffffffff169290911690600401614f68565b600060405180830381600087803b158015611cb757600080fd5b505af1158015611ccb573d6000803e3d6000fd5b505050505b8115611d5157600181015481546040516312d11cc160e11b81526001600160a01b03928316926325a2398292611d1a92600160c01b820463ffffffff169290911690600401614f68565b600060405180830381600087803b158015611d3457600080fd5b505af1158015611d48573d6000803e3d6000fd5b50505050611dc5565b6001810154815460405163eaf8b32360e01b81526001600160a01b039092169163eaf8b32391611d9291600160c01b90910463ffffffff1690600401614a4c565b600060405180830381600087803b158015611dac57600080fd5b505af1158015611dc0573d6000803e3d6000fd5b505050505b6040518381527f3d5004f110af0aa62d4bf0e9ad74ac1096552670cb71f616b46821f524ff1ad89060200160405180910390a15050600160085550565b6060611e0d30613f7d565b611e16836140c4565b604051602001611e27929190614fe1565b6040516020818303038152906040529050919050565b60026008541415611e605760405162461bcd60e51b8152600401610c6a90614dab565b60026008556000818152600d6020526040902060038101546001600160a01b0316611ecc5760405162461bcd60e51b815260206004820152601c60248201527b732d626964206d75737420626520776f6e20627920736f6d656f6e6560201b6044820152606401610c6a565b805442600160a01b90910463ffffffff1610611f255760405162461bcd60e51b81526020600482015260186024820152771ccb5bdc1d1a5bdb881b5d5cdd08189948195e1c1a5c995960421b6044820152606401610c6a565b6003810154600160a01b900460ff1615611f8d5760405162461bcd60e51b8152602060048201526024808201527f732d7468652063616c6c2063616e6e6f7420616c7265616479206265207365746044820152631d1b195960e21b6064820152608401610c6a565b6002810154600090611fb2906001600160801b0380821691600160801b900416614fb9565b6001600160801b031690506000611fc884611885565b6000858152600d602052604090206003908101805460ff60a01b1916600160a01b1790558454908501549192506001600160a01b0391821691161461202a578254600284015461202a916001600160a01b0316906001600160801b0316613a1c565b6000336001600160a01b0383161415612055576120478284613a1c565b6120508561398b565b61206a565b506000848152600f6020526040902082905560015b6040805186815282151560208201527f73ee909c0777ba4f98c2039b3978c80555cd6ac9c54da8b3235e0efc262f095c9101611852565b606060018054610b4b90614d22565b6120bb3383836141c1565b5050565b6120c9338361379c565b6120e55760405162461bcd60e51b8152600401610c6a90614d5d565b6120f18484848461428c565b50505050565b60606000612104836142bf565b90506001600160e01b031981166339d690a360e11b14156123ac57600061212a84613023565b9050600061213785611866565b90506000826001600160a01b0316631f48f6ab836040518263ffffffff1660e01b81526004016121679190614a4c565b602060405180830381865afa158015612184573d6000803e3d6000fd5b505050506040513d601f19601f820116820180604052508101906121a89190614e6f565b90506000836001600160a01b031663e7dc956b846040518263ffffffff1660e01b81526004016121d89190614a4c565b602060405180830381865afa1580156121f5573d6000803e3d6000fd5b505050506040513d601f19601f820116820180604052508101906122199190615047565b6040516311edb68160e11b81526004810189905290915060009030906323db6d0290602401602060405180830381865afa15801561225b573d6000803e3d6000fd5b505050506040513d601f19601f8201168201806040525081019061227f9190615047565b60405163a05b775f60e01b8152600481018a9052909150600090309063a05b775f90602401602060405180830381865afa1580156122c1573d6000803e3d6000fd5b505050506040513d601f19601f820116820180604052508101906122e59190615047565b60008a81526006602052604081205491925090604051632dc818a960e11b8152600481018c90526001600160a01b038716602482015260448101869052606481018490526084810185905260a4810182905290915073__$1ccb32651d98a3fae6a240417ad5ffe6c1$__90635b9031529060c401600060405180830381865af4158015612376573d6000803e3d6000fd5b505050506040513d6000823e601f3d908101601f1916820160405261239e9190810190615060565b9a9950505050505050505050565b5050604080518082019091526018815277125b9d985b1a59081d5b99195c9b1e5a5b99c8185cdcd95d60421b6020820152919050565b6000600260085414156124075760405162461bcd60e51b8152600401610c6a90614dab565b600260085560155460ff161561242f5760405162461bcd60e51b8152600401610c6a90614e48565b600c60009054906101000a90046001600160a01b03166001600160a01b0316635b67d9ab6040518163ffffffff1660e01b8152600401600060405180830381600087803b15801561247f57600080fd5b505af1158015612493573d6000803e3d6000fd5b5050604051631f48f6ab60e01b81528792506001600160a01b0383169150631f48f6ab906124c5908890600401614a4c565b602060405180830381865afa1580156124e2573d6000803e3d6000fd5b505050506040513d601f19601f820116820180604052508101906125069190614e6f565b6010546001600160a01b0390811691161461255c5760405162461bcd60e51b81526020600482015260166024820152751b55d1558b5d1bdad95b881b9bdd08185b1b1bddd95960521b6044820152606401610c6a565b60405163ba02481b60e01b81526001600160a01b0382169063ba02481b90612588908890600401614a4c565b602060405180830381865afa1580156125a5573d6000803e3d6000fd5b505050506040513d601f19601f820116820180604052508101906125c99190614df9565b6126135760405162461bcd60e51b815260206004820152601b60248201527a1b55d1558b585cdcd95d081b5d5cdd081899481a5b881d985d5b1d602a1b6044820152606401610c6a565b600080826001600160a01b031663c72bed15886040518263ffffffff1660e01b81526004016126429190614a4c565b6040805180830381865afa15801561265e573d6000803e3d6000fd5b505050506040513d601f19601f8201168201806040525081019061268291906150d6565b9150915081801561269b57506001600160a01b03811630145b6126e75760405162461bcd60e51b815260206004820152601f60248201527f6d5745562d63616c6c20636f6e7472616374206e6f74206f70657261746f72006044820152606401610c6a565b60405163774a762760e01b81526001600160a01b0384169063774a762790612713908a90600401614a4c565b602060405180830381865afa158015612730573d6000803e3d6000fd5b505050506040513d601f19601f820116820180604052508101906127549190615105565b63ffffffff168563ffffffff16146127bc5760405162461bcd60e51b815260206004820152602560248201527f6d5745562d656e7469746c656d656e742065787069726174696f6e2064696666604482015264195c995b9d60da1b6064820152608401610c6a565b6010546127d49089906001600160a01b031689613b08565b61282a5760405162461bcd60e51b815260206004820152602160248201527f6d5745562d6f6e6c792070726f746f636f6c207661756c747320616c6c6f77656044820152601960fa1b6064820152608401610c6a565b60405163ecb2c20b60e01b81526000906001600160a01b0385169063ecb2c20b90612859908b90600401614a4c565b602060405180830381865afa158015612876573d6000803e3d6000fd5b505050506040513d601f19601f8201168201806040525081019061289a9190614e6f565b90506001600160a01b0381163314806129285750604051635781257360e11b815233906001600160a01b0386169063af024ae6906128dc908c90600401614a4c565b602060405180830381865afa1580156128f9573d6000803e3d6000fd5b505050506040513d601f19601f8201168201806040525081019061291d9190614e6f565b6001600160a01b0316145b6129805760405162461bcd60e51b8152602060048201526024808201527f6d5745562d6f6e6c79206f776e6572206f72206f70657261746f72206d6179206044820152631b5a5b9d60e21b6064820152608401610c6a565b61298d81858a8a8a613c15565b60016008559998505050505050505050565b6000600260085414156129c45760405162461bcd60e51b8152600401610c6a90614dab565b600260085560155460ff16156129ec5760405162461bcd60e51b8152600401610c6a90614e48565b600c60009054906101000a90046001600160a01b03166001600160a01b0316635b67d9ab6040518163ffffffff1660e01b8152600401600060405180830381600087803b158015612a3c57600080fd5b505af1158015612a50573d6000803e3d6000fd5b50506040516331a9108f60e11b815260048101879052600092506001600160a01b0388169150636352211e90602401602060405180830381865afa158015612a9c573d6000803e3d6000fd5b505050506040513d601f19601f82011682018060405250810190612ac09190614e6f565b6010549091506001600160a01b03878116911614612b1e5760405162461bcd60e51b815260206004820152601b60248201527a1b55d14dcb5d1bdad95b881b9bdd081bdb88185b1b1bdddb1a5cdd602a1b6044820152606401610c6a565b336001600160a01b0382161480612b9f575060405163e985e9c560e01b81526001600160a01b0387169063e985e9c590612b5e9084903390600401615122565b602060405180830381865afa158015612b7b573d6000803e3d6000fd5b505050506040513d601f19601f82011682018060405250810190612b9f9190614df9565b80612c1b575060405163020604bf60e21b81526004810186905233906001600160a01b0388169063081812fc90602401602060405180830381865afa158015612bec573d6000803e3d6000fd5b505050506040513d601f19601f82011682018060405250810190612c109190614e6f565b6001600160a01b0316145b612c715760405162461bcd60e51b815260206004820152602160248201527f6d5745372d63616c6c6572206e6f74206f776e6572206f72206f70657261746f6044820152603960f91b6064820152608401610c6a565b60405163e985e9c560e01b81526001600160a01b0387169063e985e9c590612c9f9084903090600401615122565b602060405180830381865afa158015612cbc573d6000803e3d6000fd5b505050506040513d601f19601f82011682018060405250810190612ce09190614df9565b80612d5c575060405163020604bf60e21b81526004810186905230906001600160a01b0388169063081812fc90602401602060405180830381865afa158015612d2d573d6000803e3d6000fd5b505050506040513d601f19601f82011682018060405250810190612d519190614e6f565b6001600160a01b0316145b612da55760405162461bcd60e51b815260206004820152601a60248201527936aba29b96b737ba1030b8383937bb32b21037b832b930ba37b960311b6044820152606401610c6a565b600b5460405163b6f3fa3f60e01b81526000916001600160a01b03169063b6f3fa3f90612dd8908a908a9060040161513c565b6020604051808303816000875af1158015612df7573d6000803e3d6000fd5b505050506040513d601f19601f82011682018060405250810190612e1b9190614e6f565b90506000612ea3612e2b8961436a565b604051612e3a60208201614818565b601f1982820381018352601f9091011660408181528251602093840120600b546001600160f81b03198585015260601b6001600160601b031916602184015260358301949094526055808301949094528051808303909401845260759091019052815191012090565b6001600160a01b0316826001600160a01b03161415612ebf5750855b6000612ece8484848a8a613c15565b604080516001600160a01b038781166020830152308284015263ffffffff8a16606080840191909152835180840390910181526080830193849052635c46a7ef60e11b909352929350918b169163b88d4fde91612f3491889188918e9190608401615155565b600060405180830381600087803b158015612f4e57600080fd5b505af1158015612f62573d6000803e3d6000fd5b50506040516331a9108f60e11b8152600481018b90526001600160a01b0386811693508c169150636352211e90602401602060405180830381865afa158015612faf573d6000803e3d6000fd5b505050506040513d601f19601f82011682018060405250810190612fd39190614e6f565b6001600160a01b03161461143c5760405162461bcd60e51b81526020600482015260176024820152761b55d14dcb585cdcd95d081b9bdd081a5b881d985d5b1d604a1b6044820152606401610c6a565b6000908152600d60205260409020600101546001600160a01b031690565b6007546000906001600160a01b038381169116148061308557506001600160a01b0380841660009081526005602090815260408083209386168352929052205460ff165b9392505050565b600260085414156130af5760405162461bcd60e51b8152600401610c6a90614dab565b600260085560155460ff16156130d75760405162461bcd60e51b8152600401610c6a90614e48565b600c60009054906101000a90046001600160a01b03166001600160a01b0316635b67d9ab6040518163ffffffff1660e01b8152600401600060405180830381600087803b15801561312757600080fd5b505af115801561313b573d6000803e3d6000fd5b5050506000828152600d602090815260409182902082516101008101845281546001600160a01b03808216835263ffffffff600160a01b8084048216968501879052600160c01b909304169583019590955260018301548516606083015260028301546001600160801b038082166080850152600160801b9091041660a083015260039092015493841660c082015260ff9190930416151560e0830152909150421161321e5760405162461bcd60e51b8152602060048201526012602482015271189153cb5bdc1d1a5bdb88195e1c1a5c995960721b6044820152606401610c6a565b8060e00151156132655760405162461bcd60e51b8152602060048201526012602482015271189153cb5bdc1d1a5bdb881cd95d1d1b195960721b6044820152606401610c6a565b60c08101516001600160a01b0316156132b65760405162461bcd60e51b815260206004820152601360248201527262454f2d6f7074696f6e20686173206269647360681b6044820152606401610c6a565b6132bf8261398b565b600160e08201526040518281527f4b523da7fb0ebb1e0d08d5d3a34f8eb493d2ccacfc3a6a2d2fbf011c38606b8c9060200160405180910390a150506001600855565b600c54604051632474521560e21b81526001600160a01b03909116906391d148549061334290600080516020615d14833981519152903390600401614de2565b602060405180830381865afa15801561335f573d6000803e3d6000fd5b505050506040513d601f19601f820116820180604052508101906133839190614df9565b61339f5760405162461bcd60e51b8152600401610c6a90614e16565b60125481106133ad57600080fd5b60148190556040518181527f4c0aa8cbd2a45ad4d1999638fe86b622a70f20cf36cae2b0ac42bffea168066390602001610f1b565b600c54604051632474521560e21b81526001600160a01b03909116906391d148549061342290600080516020615d14833981519152903390600401614de2565b602060405180830381865afa15801561343f573d6000803e3d6000fd5b505050506040513d601f19601f820116820180604052508101906134639190614df9565b61347f5760405162461bcd60e51b8152600401610c6a90614e16565b60155460ff1615158115146134c85760405162461bcd60e51b815260206004820152600f60248201526e734d502d6d757374206368616e676560881b6044820152606401610c6a565b6015805460ff19168215159081179091556040519081527f49da065b3a22e1d922a1aaa365357758c9f7c40aff11b507d1a43f9e9f10002b90602001610f1b565b600954610100900460ff16158080156135295750600954600160ff909116105b8061354a57506135383061439a565b15801561354a575060095460ff166001145b6135ad5760405162461bcd60e51b815260206004820152602e60248201527f496e697469616c697a61626c653a20636f6e747261637420697320616c72656160448201526d191e481a5b9a5d1a585b1a5e995960921b6064820152608401610c6a565b6009805460ff1916600117905580156135d0576009805461ff0019166101001790555b600c80546001600160a01b038088166001600160a01b03199283168117909355600b8054918716919092161790556040805163affa881760e01b8152905163affa8817916004808201926020929091908290030181865afa158015613639573d6000803e3d6000fd5b505050506040513d601f19601f8201168201806040525081019061365d9190614e6f565b601180546001600160a01b03199081166001600160a01b039384161790915560078054821685841617905560108054909116918616919091179055600a8054600101905562015180601281905560326013556014556015805460ff191690558015613702576009805461ff0019169055604051600181527f7f26b83ff96e1f2b6a682f133852f6798a09c465da95921460cefb38474024989060200160405180910390a15b5050505050565b613712816143a9565b610f6f5760405162461bcd60e51b8152600401610c6a90614f87565b600081815260046020526040902080546001600160a01b0319166001600160a01b038416908117909155819061376382611885565b6001600160a01b03167f8c5be1e5ebec7d5bd14f71427d1e84f3dd0314c0f7b2291e5b200ac8c7c3b92560405160405180910390a45050565b6000806137a883611885565b9050806001600160a01b0316846001600160a01b031614806137cf57506137cf8185613041565b806137f35750836001600160a01b03166137e884610bce565b6001600160a01b0316145b949350505050565b826001600160a01b031661380e82611885565b6001600160a01b0316146138725760405162461bcd60e51b815260206004820152602560248201527f4552433732313a207472616e736665722066726f6d20696e636f72726563742060448201526437bbb732b960d91b6064820152608401610c6a565b6001600160a01b0382166138d45760405162461bcd60e51b8152602060048201526024808201527f4552433732313a207472616e7366657220746f20746865207a65726f206164646044820152637265737360e01b6064820152608401610c6a565b6138df60008261372e565b6001600160a01b0383166000908152600360205260408120805460019290613908908490614ec5565b90915550506001600160a01b0382166000908152600360205260408120805460019290613936908490614f50565b909155505060008181526002602052604080822080546001600160a01b0319166001600160a01b038681169182179092559151849391871691600080516020615d3483398151915291a4610d0b8383836143c6565b600061399682611885565b90506139a360008361372e565b6001600160a01b03811660009081526003602052604081208054600192906139cc908490614ec5565b909155505060008281526002602052604080822080546001600160a01b0319169055518391906001600160a01b03841690600080516020615d34833981519152908390a46120bb816000846143c6565b613a2682826143df565b6120bb57601160009054906101000a90046001600160a01b03166001600160a01b031663d0e30db0826040518263ffffffff1660e01b81526004016000604051808303818588803b158015613a7a57600080fd5b505af1158015613a8e573d6000803e3d6000fd5b505060115460405163a9059cbb60e01b81526001600160a01b03909116935063a9059cbb9250613ac591508590859060040161513c565b6020604051808303816000875af1158015613ae4573d6000803e3d6000fd5b505050506040513d601f19601f82011682018060405250810190610d0b9190614df9565b6000613b16612e2b8461436a565b6001600160a01b0316846001600160a01b03161415613b3757506001613085565b60405163e7dc956b60e01b81526001600160a01b0385169063e7dc956b90613b63908590600401614a4c565b602060405180830381865afa925050508015613b9c575060408051601f3d908101601f19168201909252613b9991810190615047565b60015b613bda573d808015613bca576040519150601f19603f3d011682016040523d82523d6000602084013e613bcf565b606091505b506000915050613085565b613be7612e2b858361445d565b6001600160a01b0316856001600160a01b03161415613c0a576001915050613085565b505060009392505050565b600060125442613c259190614f50565b8263ffffffff1611613c885760405162461bcd60e51b815260206004820152602660248201527f5f6d4f57562d6578706972657320736f6f6e6572207468616e206d696e2064756044820152653930ba34b7b760d11b6064820152608401610c6a565b6001600160a01b0385166000908152600e6020908152604080832063ffffffff881684529091529020548015613d2e576000818152600d6020526040902060030154600160a01b900460ff16613d2e5760405162461bcd60e51b815260206004820152602560248201527f5f6d4f57562d70726576696f7573206f7074696f6e206d7573742062652073656044820152641d1d1b195960da1b6064820152608401610c6a565b613d3c600a80546001019055565b6000613d47600a5490565b60408051610100810182526001600160a01b038b8116825263ffffffff88811660208085019182528c83168587019081528e8516606087019081526001600160801b038e811660808901908152600060a08a0181815260c08b0182815260e08c018381528e8452600d9098529b90912099518a5497519551908a166001600160c01b031990981697909717600160a01b95891686021763ffffffff60c01b1916600160c01b979098169690960296909617885590516001880180546001600160a01b03191691881691909117905593519251928416600160801b93909416929092029290921760028501559351600390930180549151939092166001600160a81b0319909116179115159092021790559050613e638882614490565b336001600160a01b03891614613e7d57613e7d338261372e565b6001600160a01b038781166000818152600e6020908152604080832063ffffffff8c8116808652918452938290208790558151958e1686529185019390935283830152606083018490526001600160801b0388166080840152861660a0830152517f1942da09a08718d22494497e4f9610b26572dd3de279f0793d826d170c5305989181900360c00190a1979650505050505050565b600281015481546003830154600160801b9092046001600160801b0316916001600160a01b0391821691161415613f5f576002820154613f5c906001600160801b031682614ec5565b90505b80156120bb5760038201546120bb906001600160a01b031682613a1c565b60408051602880825260608281019093526000919060208201818036833701905050905060005b60148110156140bd576000613fba826013614ec5565b613fc5906008614f07565b613fd0906002615276565b613fe3906001600160a01b038716614f3c565b60f81b9050600060108260f81c613ffa9190615282565b60f81b905060008160f81c601061401191906152a4565b8360f81c61401f91906152c5565b60f81b905061402d826144aa565b85614039866002614f07565b81518110614049576140496152e8565b60200101906001600160f81b031916908160001a905350614069816144aa565b85614075866002614f07565b614080906001614f50565b81518110614090576140906152e8565b60200101906001600160f81b031916908160001a90535050505080806140b5906152fe565b915050613fa4565b5092915050565b6060816140e85750506040805180820190915260018152600360fc1b602082015290565b8160005b811561411257806140fc816152fe565b915061410b9050600a83614f3c565b91506140ec565b6000816001600160401b0381111561412c5761412c614adb565b6040519080825280601f01601f191660200182016040528015614156576020820181803683370190505b5090505b84156137f35761416b600183614ec5565b9150614178600a86615319565b614183906030614f50565b60f81b818381518110614198576141986152e8565b60200101906001600160f81b031916908160001a9053506141ba600a86614f3c565b945061415a565b816001600160a01b0316836001600160a01b0316141561421f5760405162461bcd60e51b815260206004820152601960248201527822a9219b99189d1030b8383937bb32903a379031b0b63632b960391b6044820152606401610c6a565b6001600160a01b03838116600081815260056020908152604080832094871680845294825291829020805460ff191686151590811790915591519182527f17307eab39ab6107e8899845ad3d59bd9653f200f220920489ca2b5937696c31910160405180910390a3505050565b6142978484846137fb565b6142a3848484846144e0565b6120f15760405162461bcd60e51b8152600401610c6a9061532d565b60006142da6142cd83613023565b63162ff4f760e21b6145e5565b1561430657507f73ad2146b3d3a286642c794379d750360a2d53a3459a11b3e5d6cc900f55f44a919050565b60405162461bcd60e51b815260206004820152602e60248201527f5f756e6465726c79696e672d636c6173733a20556e737570706f72746564207560448201526d6e6465726c79696e67207479706560901b6064820152608401610c6a565b919050565b60008160405160200161437d91906148dc565b604051602081830303815290604052805190602001209050919050565b6001600160a01b03163b151590565b6000908152600260205260409020546001600160a01b0316151590565b6000908152600660205260409020805460010190555050565b6040805160008082526020820190925281906001600160a01b0385169061753090859060405161440f919061537f565b600060405180830381858888f193505050503d806000811461444d576040519150601f19603f3d011682016040523d82523d6000602084013e614452565b606091505b509095945050505050565b6000828260405160200161447292919061513c565b60405160208183030381529060405280519060200120905092915050565b6120bb828260405180602001604052806000815250614601565b6000600a60f883901c10156144d1576144c860f883901c603061539b565b60f81b92915050565b6144c860f883901c605761539b565b60006144f4846001600160a01b031661439a565b156145da57604051630a85bd0160e11b81526001600160a01b0385169063150b7a029061452b903390899088908890600401615155565b6020604051808303816000875af1925050508015614566575060408051601f3d908101601f19168201909252614563918101906153c0565b60015b6145c0573d808015614594576040519150601f19603f3d011682016040523d82523d6000602084013e614599565b606091505b5080516145b85760405162461bcd60e51b8152600401610c6a9061532d565b805181602001fd5b6001600160e01b031916630a85bd0160e11b1490506137f3565b506001949350505050565b60006145f083614634565b801561308557506130858383614667565b61460b83836146f0565b61461860008484846144e0565b610d0b5760405162461bcd60e51b8152600401610c6a9061532d565b6000614647826301ffc9a760e01b614667565b8015610ae65750614660826001600160e01b0319614667565b1592915050565b604080516001600160e01b03198316602480830191909152825180830390910181526044909101909152602080820180516001600160e01b03166301ffc9a760e01b178152825160009392849283928392918391908a617530fa92503d915060005190508280156146d9575060208210155b80156146e55750600081115b979650505050505050565b6001600160a01b0382166147465760405162461bcd60e51b815260206004820181905260248201527f4552433732313a206d696e7420746f20746865207a65726f20616464726573736044820152606401610c6a565b61474f816143a9565b1561479b5760405162461bcd60e51b815260206004820152601c60248201527b115490cdcc8c4e881d1bdad95b88185b1c9958591e481b5a5b9d195960221b6044820152606401610c6a565b6001600160a01b03821660009081526003602052604081208054600192906147c4908490614f50565b909155505060008181526002602052604080822080546001600160a01b0319166001600160a01b0386169081179091559051839290600080516020615d34833981519152908290a46120bb600083836143c6565b610936806153de83390190565b60006020828403121561483757600080fd5b5035919050565b6001600160e01b031981168114610f6f57600080fd5b60006020828403121561486657600080fd5b81356130858161483e565b60005b8381101561488c578181015183820152602001614874565b838111156120f15750506000910152565b600081518084526148b5816020860160208601614871565b601f01601f19169290920160200192915050565b602081526000613085602083018461489d565b6001600160a01b0391909116815260200190565b6001600160a01b0381168114610f6f57600080fd5b6000806040838503121561491857600080fd5b8235614923816148f0565b946020939093013593505050565b63ffffffff81168114610f6f57600080fd5b6000806040838503121561495657600080fd5b8235614961816148f0565b9150602083013561497181614931565b809150509250929050565b60008060006060848603121561499157600080fd5b833561499c816148f0565b925060208401356149ac816148f0565b929592945050506040919091013590565b80356001600160801b038116811461436557600080fd5b60008060008060008587036101008112156149ee57600080fd5b86356149f9816148f0565b95506020870135614a0981614931565b9450614a17604088016149bd565b93506060870135614a2781614931565b92506080607f1982011215614a3b57600080fd5b506080860190509295509295909350565b63ffffffff91909116815260200190565b600060208284031215614a6f57600080fd5b8135613085816148f0565b8015158114610f6f57600080fd5b60008060408385031215614a9b57600080fd5b82359150602083013561497181614a7a565b60008060408385031215614ac057600080fd5b8235614acb816148f0565b9150602083013561497181614a7a565b634e487b7160e01b600052604160045260246000fd5b604051601f8201601f191681016001600160401b0381118282101715614b1957614b19614adb565b604052919050565b60006001600160401b03821115614b3a57614b3a614adb565b50601f01601f191660200190565b60008060008060808587031215614b5e57600080fd5b8435614b69816148f0565b93506020850135614b79816148f0565b92506040850135915060608501356001600160401b03811115614b9b57600080fd5b8501601f81018713614bac57600080fd5b8035614bbf614bba82614b21565b614af1565b818152886020838501011115614bd457600080fd5b8160208401602083013760006020838301015280935050505092959194509250565b60008060008060808587031215614c0c57600080fd5b8435614c17816148f0565b93506020850135614c2781614931565b9250614c35604086016149bd565b91506060850135614c4581614931565b939692955090935050565b60008060008060808587031215614c6657600080fd5b8435614c71816148f0565b935060208501359250614c35604086016149bd565b60008060408385031215614c9957600080fd5b8235614ca4816148f0565b91506020830135614971816148f0565b600060208284031215614cc657600080fd5b813561308581614a7a565b60008060008060808587031215614ce757600080fd5b8435614cf2816148f0565b93506020850135614d02816148f0565b92506040850135614d12816148f0565b91506060850135614c45816148f0565b600181811c90821680614d3657607f821691505b60208210811415614d5757634e487b7160e01b600052602260045260246000fd5b50919050565b6020808252602e908201527f4552433732313a2063616c6c6572206973206e6f7420746f6b656e206f776e6560408201526d1c881b9bdc88185c1c1c9bdd995960921b606082015260800190565b6020808252601f908201527f5265656e7472616e637947756172643a207265656e7472616e742063616c6c00604082015260600190565b9182526001600160a01b0316602082015260400190565b600060208284031215614e0b57600080fd5b815161308581614a7a565b60208082526018908201527731b0b63632b9103732b2b2399026a0a925a2aa2fa1a7a72360411b604082015260600190565b6020808252600d908201526c1b585c9ad95d081c185d5cd959609a1b604082015260600190565b600060208284031215614e8157600080fd5b8151613085816148f0565b600060208284031215614e9e57600080fd5b813560ff8116811461308557600080fd5b634e487b7160e01b600052601160045260246000fd5b600082821015614ed757614ed7614eaf565b500390565b60006001600160801b03828116848216808303821115614efe57614efe614eaf565b01949350505050565b6000816000190483118215151615614f2157614f21614eaf565b500290565b634e487b7160e01b600052601260045260246000fd5b600082614f4b57614f4b614f26565b500490565b60008219821115614f6357614f63614eaf565b500190565b63ffffffff9290921682526001600160a01b0316602082015260400190565b602080825260189082015277115490cdcc8c4e881a5b9d985b1a59081d1bdad95b88125160421b604082015260600190565b60006001600160801b0383811690831681811015614fd957614fd9614eaf565b039392505050565b7f746f6b656e2e686f6f6b2e78797a2f6f7074696f6e2d636f6e74726163742f0081526000835161501981601f850160208801614871565b8083019050602f60f81b601f820152835161503b816020840160208801614871565b01602001949350505050565b60006020828403121561505957600080fd5b5051919050565b60006020828403121561507257600080fd5b81516001600160401b0381111561508857600080fd5b8201601f8101841361509957600080fd5b80516150a7614bba82614b21565b8181528560208385010111156150bc57600080fd5b6150cd826020830160208601614871565b95945050505050565b600080604083850312156150e957600080fd5b82516150f481614a7a565b6020840151909250614971816148f0565b60006020828403121561511757600080fd5b815161308581614931565b6001600160a01b0392831681529116602082015260400190565b6001600160a01b03929092168252602082015260400190565b6001600160a01b03858116825284166020820152604081018390526080606082018190526000906151889083018461489d565b9695505050505050565b600181815b808511156151cd5781600019048211156151b3576151b3614eaf565b808516156151c057918102915b93841c9390800290615197565b509250929050565b6000826151e457506001610ae6565b816151f157506000610ae6565b816001811461520757600281146152115761522d565b6001915050610ae6565b60ff84111561522257615222614eaf565b50506001821b610ae6565b5060208310610133831016604e8410600b8410161715615250575081810a610ae6565b61525a8383615192565b806000190482111561526e5761526e614eaf565b029392505050565b600061308583836151d5565b600060ff83168061529557615295614f26565b8060ff84160491505092915050565b600060ff821660ff84168160ff048111821515161561526e5761526e614eaf565b600060ff821660ff8416808210156152df576152df614eaf565b90039392505050565b634e487b7160e01b600052603260045260246000fd5b600060001982141561531257615312614eaf565b5060010190565b60008261532857615328614f26565b500690565b60208082526032908201527f4552433732313a207472616e7366657220746f206e6f6e20455243373231526560408201527131b2b4bb32b91034b6b83632b6b2b73a32b960711b606082015260800190565b60008251615391818460208701614871565b9190910192915050565b600060ff821660ff84168060ff038211156153b8576153b8614eaf565b019392505050565b6000602082840312156153d257600080fd5b81516130858161483e56fe608060405234801561001057600080fd5b50610916806100206000396000f3fe6080604052600436106100225760003560e01c80637fe8e72c1461003957610031565b366100315761002f610059565b005b61002f610059565b34801561004557600080fd5b5061002f61005436600461068c565b61006b565b61006961006461016f565b6101f6565b565b6000610077600161021a565b905080156100af57600161009f61009c8260008051602061087a83398151915261074f565b90565b805460ff19169115159190911790555b6100da60017fa3f0ad74e5423aebfd80d3ef4346578335a9a72aeaee59ff6cb3582b35133d5161074f565b60008051602061085a833981519152146100f6576100f6610774565b610102838360006102ee565b801561016a57600061012661009c600160008051602061087a83398151915261074f565b805460ff1916911515919091179055604051600181527f7f26b83ff96e1f2b6a682f133852f6798a09c465da95921460cefb38474024989060200160405180910390a15b505050565b600061019060008051602061085a833981519152546001600160a01b031690565b6001600160a01b0316635c60da1b6040518163ffffffff1660e01b8152600401602060405180830381865afa1580156101cd573d6000803e3d6000fd5b505050506040513d601f19601f820116820180604052508101906101f1919061078a565b905090565b3660008037600080366000845af43d6000803e808015610215573d6000f35b3d6000fd5b600061023861009c600160008051602061087a83398151915261074f565b5460ff1615610287578160ff16600114801561025a5750610258306103ae565b155b61027f5760405162461bcd60e51b8152600401610276906107a7565b60405180910390fd5b506000919050565b60ff82166102a761009c600160008051602061089a83398151915261074f565b54106102c55760405162461bcd60e51b8152600401610276906107a7565b60ff82166102e561009c600160008051602061089a83398151915261074f565b55506001919050565b6102f7836103bd565b6040516001600160a01b038416907f1cf3b03a6cf19fa2baba4df148e9dcabedea7f8a5c07840e207e5c089be95d3e90600090a26000825111806103385750805b1561016a576103a8836001600160a01b0316635c60da1b6040518163ffffffff1660e01b8152600401602060405180830381865afa15801561037e573d6000803e3d6000fd5b505050506040513d601f19601f820116820180604052508101906103a2919061078a565b8361051e565b50505050565b6001600160a01b03163b151590565b6103c6816103ae565b6104205760405162461bcd60e51b815260206004820152602560248201527f455243313936373a206e657720626561636f6e206973206e6f74206120636f6e6044820152641d1c9858dd60da1b6064820152608401610276565b61048a816001600160a01b0316635c60da1b6040518163ffffffff1660e01b8152600401602060405180830381865afa158015610461573d6000803e3d6000fd5b505050506040513d601f19601f82011682018060405250810190610485919061078a565b6103ae565b6104ef5760405162461bcd60e51b815260206004820152603060248201527f455243313936373a20626561636f6e20696d706c656d656e746174696f6e206960448201526f1cc81b9bdd08184818dbdb9d1c9858dd60821b6064820152608401610276565b60008051602061085a83398151915280546001600160a01b0319166001600160a01b0392909216919091179055565b606061054383836040518060600160405280602781526020016108ba6027913961054a565b9392505050565b6060610555846103ae565b6105b05760405162461bcd60e51b815260206004820152602660248201527f416464726573733a2064656c65676174652063616c6c20746f206e6f6e2d636f6044820152651b9d1c9858dd60d21b6064820152608401610276565b600080856001600160a01b0316856040516105cb919061080a565b600060405180830381855af49150503d8060008114610606576040519150601f19603f3d011682016040523d82523d6000602084013e61060b565b606091505b509150915061061b828286610625565b9695505050505050565b60608315610634575081610543565b8251156106445782518084602001fd5b8160405162461bcd60e51b81526004016102769190610826565b6001600160a01b038116811461067357600080fd5b50565b634e487b7160e01b600052604160045260246000fd5b6000806040838503121561069f57600080fd5b82356106aa8161065e565b915060208301356001600160401b03808211156106c657600080fd5b818501915085601f8301126106da57600080fd5b8135818111156106ec576106ec610676565b604051601f8201601f19908116603f0116810190838211818310171561071457610714610676565b8160405282815288602084870101111561072d57600080fd5b8260208601602083013760006020848301015280955050505050509250929050565b60008282101561076f57634e487b7160e01b600052601160045260246000fd5b500390565b634e487b7160e01b600052600160045260246000fd5b60006020828403121561079c57600080fd5b81516105438161065e565b6020808252601f908201527f636f6e747261637420697320616c726561647920696e697469616c697a656400604082015260600190565b60005b838110156107f95781810151838201526020016107e1565b838111156103a85750506000910152565b6000825161081c8184602087016107de565b9190910192915050565b60208152600082518060208401526108458160408501602087016107de565b601f01601f1916919091016040019291505056fea3f0ad74e5423aebfd80d3ef4346578335a9a72aeaee59ff6cb3582b35133d50ba701f97ffd09be973ab0487da5ef9921c2bd0aad55202b3c0b41745a8ecda29021cb2f443fd62c4cb6b5d341f5eb8cd045222fc4183f8753d3725ac19741805416464726573733a206c6f772d6c6576656c2064656c65676174652063616c6c206661696c6564a26469706673582212201902b2ab44cdf0715c6e3d610362589ccda73f8de411b662f588e9f6dea04ad464736f6c634300080a00338de11a8d956993287a5b6a74c069984045abc1b621d651081c4c77c05c3cb7afddf252ad1be2c89b69c2b068fc378daa952ba7f163c4a11628f55a4df523b3efa26469706673582212202506456192bf8a8b8ab8155cbb2ea0f22bd640e7b1875ef07165fb4b8dfe345e64736f6c634300080a0033",
  "libraries": {
    "TokenURI": "0xf28B0c5Ef44dd4b3e933ac0d2E8F9b4373Ce6a44"
  },
  "devdoc": {
    "author": "Jake Nyquist-j@hook.xyz",
    "custom:coauthor": "Regynald Augustin-regy@hook.xyz",
    "details": "In the context of a single call option, the role of the writer is non-transferrable.This contract is intended to be an implementation referenced by a proxy",
    "events": {
      "MarketPauseUpdated(bool)": {
        "details": "Emitted when the market is paused or unpaused",
        "params": {
          "paused": "true if paused false otherwise"
        }
      },
      "MinBidIncrementUpdated(uint256)": {
        "details": "Emitted when the bid increment is updated",
        "params": {
          "bidIncrementBips": "the new bid increment amount in bips"
        }
      },
      "MinOptionDurationUpdated(uint256)": {
        "details": "emitted when the minimum duration for an option is changed",
        "params": {
          "optionDuration": "new minimum length of an option in seconds."
        }
      },
      "SettlementAuctionStartOffsetUpdated(uint256)": {
        "details": "emitted when the settlement auction start offset is updated",
        "params": {
          "startOffset": "new number of seconds from expiration when the start offset begins"
        }
      }
    },
    "kind": "dev",
    "methods": {
      "approve(address,uint256)": {
        "details": "See {IERC721-approve}."
      },
      "balanceOf(address)": {
        "details": "See {IERC721-balanceOf}."
      },
      "bid(uint256)": {
        "details": "See {IHookCoveredCall-bid}."
      },
      "burn(uint256)": {
        "details": "Burns `tokenId`. See {ERC721-_burn}. Requirements: - The caller must own `tokenId` or be an approved operator."
      },
      "burnExpiredOption(uint256)": {
        "details": "See {IHookCoveredCall-burnExpiredOption}."
      },
      "claimOptionProceeds(uint256)": {
        "details": "See {IHookCoveredCall-claimOptionProceeds}"
      },
      "contractUri(uint256)": {
        "details": "this is the OpenSea compatible collection - level metadata URI."
      },
      "currentBid(uint256)": {
        "details": "See {IHookCoveredCall-currentBid}."
      },
      "currentBidder(uint256)": {
        "details": "See {IHookCoveredCall-currentBidder}."
      },
      "getApproved(uint256)": {
        "details": "See {IERC721-getApproved}."
      },
      "getAssetId(uint256)": {
        "details": "see {IHookCoveredCall-getAssetId}."
      },
      "getExpiration(uint256)": {
        "details": "see {IHookCoveredCall-getExpiration}."
      },
      "getOptionIdForAsset(address,uint32)": {
        "details": "see {IHookCoveredCall-getOptionIdForAsset}"
      },
      "getStrikePrice(uint256)": {
        "details": "see {IHookCoveredCall-getStrikePrice}."
      },
      "getTransferCount(uint256)": {
        "details": "this count can be used by overbooks to invalidate orders after a token has been transferred, preventing stale order execution by malicious parties"
      },
      "getVaultAddress(uint256)": {
        "details": "see {IHookCoveredCall-getVaultAddress}."
      },
      "initialize(address,address,address,address)": {
        "details": "Because the deployed contract is proxied, arguments unique to each deployment must be passed in an individual initializer. This function is like a constructor.",
        "params": {
          "hookVaultFactory": "the address of the ERC-721 vault registry",
          "nftContract": "the address for the ERC-721 contract that can serve as underlying instruments",
          "preApprovedMarketplace": "the address of the contract which will automatically approved to transfer option ERC721s owned by any account when they're minted",
          "protocol": "the address of the Hook protocol (which contains configurations)"
        }
      },
      "isApprovedForAll(address,address)": {
        "details": "See {IERC721-isApprovedForAll}. this extension ensures that any operator contract located at {_approvedMarketpace} is considered approved internally in the ERC721 contract"
      },
      "mintWithEntitledVault(address,uint32,uint128,uint32)": {
        "details": "See {IHookCoveredCall-mintWithEntitledVault}."
      },
      "mintWithErc721(address,uint256,uint128,uint32)": {
        "details": "See {IHookCoveredCall-mintWithErc721}."
      },
      "mintWithVault(address,uint32,uint128,uint32,(uint8,uint8,bytes32,bytes32))": {
        "details": "See {IHookCoveredCall-mintWithVault}."
      },
      "name()": {
        "details": "See {IERC721Metadata-name}."
      },
      "ownerOf(uint256)": {
        "details": "See {IERC721-ownerOf}."
      },
      "reclaimAsset(uint256,bool)": {
        "details": "See {IHookCoveredCall-reclaimAsset}."
      },
      "safeTransferFrom(address,address,uint256)": {
        "details": "See {IERC721-safeTransferFrom}."
      },
      "safeTransferFrom(address,address,uint256,bytes)": {
        "details": "See {IERC721-safeTransferFrom}."
      },
      "setApprovalForAll(address,bool)": {
        "details": "See {IERC721-setApprovalForAll}."
      },
      "setBidIncrement(uint256)": {
        "details": "set the minimum overage, in bips, for a new bid compared to the current bid.",
        "params": {
          "newBidIncrement": "the minimum bid increment in basis points (1/100th of 1%)"
        }
      },
      "setMarketPaused(bool)": {
        "details": "sets a paused / unpaused state for the market corresponding to this contract",
        "params": {
          "paused": "should the market be set to paused or unpaused"
        }
      },
      "setMinOptionDuration(uint256)": {
        "details": "configures the minimum duration for a newly minted option. Options must be at least this far away in the future.",
        "params": {
          "newMinDuration": "is the minimum option duration in seconds"
        }
      },
      "setSettlementAuctionStartOffset(uint256)": {
        "details": "set the settlement auction start offset. Settlement auctions begin at this time prior to expiration.",
        "params": {
          "newSettlementStartOffset": "in seconds (i.e. block.timestamp increments)"
        }
      },
      "settleOption(uint256)": {
        "details": "See {IHookCoveredCall-settleOption}."
      },
      "supportsInterface(bytes4)": {
        "details": "See {IERC165-supportsInterface}."
      },
      "symbol()": {
        "details": "See {IERC721Metadata-symbol}."
      },
      "tokenURI(uint256)": {
        "details": "See {IERC721-tokenURI}."
      },
      "transferFrom(address,address,uint256)": {
        "details": "See {IERC721-transferFrom}."
      }
    },
    "stateVariables": {
      "_erc721VaultFactory": {
        "details": "the address of the factory in the Hook protocol that can be used to generate ERC721 vaults"
      },
      "_optionIds": {
        "details": "holds the current ID for the last minted option. The optionId also serves as the tokenId for the associated option instrument NFT."
      },
      "_protocol": {
        "details": "the address of the deployed hook protocol contract, which has permissions and access controls"
      },
      "allowedUnderlyingAddress": {
        "details": "the address of the token contract permitted to serve as underlying assets for this instrument."
      },
      "assetOptions": {
        "details": "storage of current call active call option for a specific asset mapping(vaultAddress => mapping(assetId => CallOption))"
      },
      "marketPaused": {
        "details": "this is a flag that can be set to pause this particular instance of the call option contract. NOTE: settlement auctions are still enabled in this case because pausing the market should not change the financial situation for the holder of the options."
      },
      "minBidIncrementBips": {
        "details": "this is the minimum amount of the current bid that the new bid must exceed the current bid by in order to be considered valid. This amount is expressed in basis points (i.e. 1/100th of 1%)"
      },
      "minimumOptionDuration": {
        "details": "this is the minimum duration of an option created in this contract instance"
      },
      "optionClaims": {
        "details": "mapping to store the amount of eth in wei that may be claimed by the current ownerOf the option nft."
      },
      "optionParams": {
        "details": "storage of all existing options contracts."
      },
      "settlementAuctionStartOffset": {
        "details": "this is the amount of time before the expiration of the option that the settlement auction will begin."
      },
      "weth": {
        "details": "the address of WETH on the chain where this contract is deployed"
      }
    },
    "title": "HookCoveredCallImplV1 an implementation of covered calls on Hook",
    "version": 1
  },
  "userdoc": {
    "events": {
      "Bid(uint256,uint256,address)": {
        "notice": "emitted when a call option settlement auction gets and accepts a new bid"
      },
      "CallCreated(address,address,uint256,uint256,uint256,uint256)": {
        "notice": "emitted when a new call option is successfully minted with a specific underlying vault"
      },
      "CallProceedsDistributed(uint256,address,uint256)": {
        "notice": "emitted when an option owner claims their proceeds"
      },
      "CallReclaimed(uint256)": {
        "notice": "emitted when a call option is reclaimed"
      },
      "CallSettled(uint256,bool)": {
        "notice": "emitted when a call option is settled"
      },
      "ExpiredCallBurned(uint256)": {
        "notice": "emitted when a expired call option is burned"
      }
    },
    "kind": "user",
    "methods": {
      "ALLOWLISTER_ROLE()": {
        "notice": "the allowlister is able to enable and disable projects to mint instruments"
      },
      "CALL_UPGRADER()": {
        "notice": "the call upgrader role is able to upgrade the implementation of the covered call options"
      },
      "COLLECTION_CONF()": {
        "notice": "the collection configuration role allows the actor to make changes the collection configs on the protocol contract"
      },
      "MARKET_CONF()": {
        "notice": "the market configuration role allows the actor to make changes to how the market operates"
      },
      "PAUSER_ROLE()": {
        "notice": "the pauser is able to start and pause various components of the protocol"
      },
      "VAULT_UPGRADER()": {
        "notice": "the vault upgrader role is able to upgrade the implementation for all vaults"
      },
      "constructor": {
        "notice": "--- Constructor"
      },
      "getTransferCount(uint256)": {
        "notice": "the number of times the token has been transferred"
      },
      "initialize(address,address,address,address)": {
        "notice": "Initializes the specific instance of the instrument contract."
      }
    },
    "notice": "See {IHookCoveredCall}.",
    "version": 1
  },
  "storageLayout": {
    "storage": [
      {
        "astId": 1220,
        "contract": "src/HookCoveredCallImplV1.sol:HookCoveredCallImplV1",
        "label": "_name",
        "offset": 0,
        "slot": "0",
        "type": "t_string_storage"
      },
      {
        "astId": 1222,
        "contract": "src/HookCoveredCallImplV1.sol:HookCoveredCallImplV1",
        "label": "_symbol",
        "offset": 0,
        "slot": "1",
        "type": "t_string_storage"
      },
      {
        "astId": 1226,
        "contract": "src/HookCoveredCallImplV1.sol:HookCoveredCallImplV1",
        "label": "_owners",
        "offset": 0,
        "slot": "2",
        "type": "t_mapping(t_uint256,t_address)"
      },
      {
        "astId": 1230,
        "contract": "src/HookCoveredCallImplV1.sol:HookCoveredCallImplV1",
        "label": "_balances",
        "offset": 0,
        "slot": "3",
        "type": "t_mapping(t_address,t_uint256)"
      },
      {
        "astId": 1234,
        "contract": "src/HookCoveredCallImplV1.sol:HookCoveredCallImplV1",
        "label": "_tokenApprovals",
        "offset": 0,
        "slot": "4",
        "type": "t_mapping(t_uint256,t_address)"
      },
      {
        "astId": 1240,
        "contract": "src/HookCoveredCallImplV1.sol:HookCoveredCallImplV1",
        "label": "_operatorApprovals",
        "offset": 0,
        "slot": "5",
        "type": "t_mapping(t_address,t_mapping(t_address,t_bool))"
      },
      {
        "astId": 10337,
        "contract": "src/HookCoveredCallImplV1.sol:HookCoveredCallImplV1",
        "label": "_transfers",
        "offset": 0,
        "slot": "6",
        "type": "t_mapping(t_uint256,t_struct(Counter)2622_storage)"
      },
      {
        "astId": 10352,
        "contract": "src/HookCoveredCallImplV1.sol:HookCoveredCallImplV1",
        "label": "_preApprovedMarketplace",
        "offset": 0,
        "slot": "7",
        "type": "t_address"
      },
      {
        "astId": 1165,
        "contract": "src/HookCoveredCallImplV1.sol:HookCoveredCallImplV1",
        "label": "_status",
        "offset": 0,
        "slot": "8",
        "type": "t_uint256"
      },
      {
        "astId": 902,
        "contract": "src/HookCoveredCallImplV1.sol:HookCoveredCallImplV1",
        "label": "_initialized",
        "offset": 0,
        "slot": "9",
        "type": "t_uint8"
      },
      {
        "astId": 905,
        "contract": "src/HookCoveredCallImplV1.sol:HookCoveredCallImplV1",
        "label": "_initializing",
        "offset": 1,
        "slot": "9",
        "type": "t_bool"
      },
      {
        "astId": 3750,
        "contract": "src/HookCoveredCallImplV1.sol:HookCoveredCallImplV1",
        "label": "_optionIds",
        "offset": 0,
        "slot": "10",
        "type": "t_struct(Counter)2622_storage"
      },
      {
        "astId": 3754,
        "contract": "src/HookCoveredCallImplV1.sol:HookCoveredCallImplV1",
        "label": "_erc721VaultFactory",
        "offset": 0,
        "slot": "11",
        "type": "t_contract(IHookERC721VaultFactory)7905"
      },
      {
        "astId": 3758,
        "contract": "src/HookCoveredCallImplV1.sol:HookCoveredCallImplV1",
        "label": "_protocol",
        "offset": 0,
        "slot": "12",
        "type": "t_contract(IHookProtocol)7944"
      },
      {
        "astId": 3764,
        "contract": "src/HookCoveredCallImplV1.sol:HookCoveredCallImplV1",
        "label": "optionParams",
        "offset": 0,
        "slot": "13",
        "type": "t_mapping(t_uint256,t_struct(CallOption)3746_storage)"
      },
      {
        "astId": 3772,
        "contract": "src/HookCoveredCallImplV1.sol:HookCoveredCallImplV1",
        "label": "assetOptions",
        "offset": 0,
        "slot": "14",
        "type": "t_mapping(t_contract(IHookVault)8117,t_mapping(t_uint32,t_uint256))"
      },
      {
        "astId": 3777,
        "contract": "src/HookCoveredCallImplV1.sol:HookCoveredCallImplV1",
        "label": "optionClaims",
        "offset": 0,
        "slot": "15",
        "type": "t_mapping(t_uint256,t_uint256)"
      },
      {
        "astId": 3780,
        "contract": "src/HookCoveredCallImplV1.sol:HookCoveredCallImplV1",
        "label": "allowedUnderlyingAddress",
        "offset": 0,
        "slot": "16",
        "type": "t_address"
      },
      {
        "astId": 3783,
        "contract": "src/HookCoveredCallImplV1.sol:HookCoveredCallImplV1",
        "label": "weth",
        "offset": 0,
        "slot": "17",
        "type": "t_address"
      },
      {
        "astId": 3786,
        "contract": "src/HookCoveredCallImplV1.sol:HookCoveredCallImplV1",
        "label": "minimumOptionDuration",
        "offset": 0,
        "slot": "18",
        "type": "t_uint256"
      },
      {
        "astId": 3789,
        "contract": "src/HookCoveredCallImplV1.sol:HookCoveredCallImplV1",
        "label": "minBidIncrementBips",
        "offset": 0,
        "slot": "19",
        "type": "t_uint256"
      },
      {
        "astId": 3792,
        "contract": "src/HookCoveredCallImplV1.sol:HookCoveredCallImplV1",
        "label": "settlementAuctionStartOffset",
        "offset": 0,
        "slot": "20",
        "type": "t_uint256"
      },
      {
        "astId": 3795,
        "contract": "src/HookCoveredCallImplV1.sol:HookCoveredCallImplV1",
        "label": "marketPaused",
        "offset": 0,
        "slot": "21",
        "type": "t_bool"
      }
    ],
    "types": {
      "t_address": {
        "encoding": "inplace",
        "label": "address",
        "numberOfBytes": "20"
      },
      "t_bool": {
        "encoding": "inplace",
        "label": "bool",
        "numberOfBytes": "1"
      },
      "t_contract(IHookERC721VaultFactory)7905": {
        "encoding": "inplace",
        "label": "contract IHookERC721VaultFactory",
        "numberOfBytes": "20"
      },
      "t_contract(IHookProtocol)7944": {
        "encoding": "inplace",
        "label": "contract IHookProtocol",
        "numberOfBytes": "20"
      },
      "t_contract(IHookVault)8117": {
        "encoding": "inplace",
        "label": "contract IHookVault",
        "numberOfBytes": "20"
      },
      "t_mapping(t_address,t_bool)": {
        "encoding": "mapping",
        "key": "t_address",
        "label": "mapping(address => bool)",
        "numberOfBytes": "32",
        "value": "t_bool"
      },
      "t_mapping(t_address,t_mapping(t_address,t_bool))": {
        "encoding": "mapping",
        "key": "t_address",
        "label": "mapping(address => mapping(address => bool))",
        "numberOfBytes": "32",
        "value": "t_mapping(t_address,t_bool)"
      },
      "t_mapping(t_address,t_uint256)": {
        "encoding": "mapping",
        "key": "t_address",
        "label": "mapping(address => uint256)",
        "numberOfBytes": "32",
        "value": "t_uint256"
      },
      "t_mapping(t_contract(IHookVault)8117,t_mapping(t_uint32,t_uint256))": {
        "encoding": "mapping",
        "key": "t_contract(IHookVault)8117",
        "label": "mapping(contract IHookVault => mapping(uint32 => uint256))",
        "numberOfBytes": "32",
        "value": "t_mapping(t_uint32,t_uint256)"
      },
      "t_mapping(t_uint256,t_address)": {
        "encoding": "mapping",
        "key": "t_uint256",
        "label": "mapping(uint256 => address)",
        "numberOfBytes": "32",
        "value": "t_address"
      },
      "t_mapping(t_uint256,t_struct(CallOption)3746_storage)": {
        "encoding": "mapping",
        "key": "t_uint256",
        "label": "mapping(uint256 => struct HookCoveredCallImplV1.CallOption)",
        "numberOfBytes": "32",
        "value": "t_struct(CallOption)3746_storage"
      },
      "t_mapping(t_uint256,t_struct(Counter)2622_storage)": {
        "encoding": "mapping",
        "key": "t_uint256",
        "label": "mapping(uint256 => struct Counters.Counter)",
        "numberOfBytes": "32",
        "value": "t_struct(Counter)2622_storage"
      },
      "t_mapping(t_uint256,t_uint256)": {
        "encoding": "mapping",
        "key": "t_uint256",
        "label": "mapping(uint256 => uint256)",
        "numberOfBytes": "32",
        "value": "t_uint256"
      },
      "t_mapping(t_uint32,t_uint256)": {
        "encoding": "mapping",
        "key": "t_uint32",
        "label": "mapping(uint32 => uint256)",
        "numberOfBytes": "32",
        "value": "t_uint256"
      },
      "t_string_storage": {
        "encoding": "bytes",
        "label": "string",
        "numberOfBytes": "32"
      },
      "t_struct(CallOption)3746_storage": {
        "encoding": "inplace",
        "label": "struct HookCoveredCallImplV1.CallOption",
        "members": [
          {
            "astId": 3731,
            "contract": "src/HookCoveredCallImplV1.sol:HookCoveredCallImplV1",
            "label": "writer",
            "offset": 0,
            "slot": "0",
            "type": "t_address"
          },
          {
            "astId": 3733,
            "contract": "src/HookCoveredCallImplV1.sol:HookCoveredCallImplV1",
            "label": "expiration",
            "offset": 20,
            "slot": "0",
            "type": "t_uint32"
          },
          {
            "astId": 3735,
            "contract": "src/HookCoveredCallImplV1.sol:HookCoveredCallImplV1",
            "label": "assetId",
            "offset": 24,
            "slot": "0",
            "type": "t_uint32"
          },
          {
            "astId": 3737,
            "contract": "src/HookCoveredCallImplV1.sol:HookCoveredCallImplV1",
            "label": "vaultAddress",
            "offset": 0,
            "slot": "1",
            "type": "t_address"
          },
          {
            "astId": 3739,
            "contract": "src/HookCoveredCallImplV1.sol:HookCoveredCallImplV1",
            "label": "strike",
            "offset": 0,
            "slot": "2",
            "type": "t_uint128"
          },
          {
            "astId": 3741,
            "contract": "src/HookCoveredCallImplV1.sol:HookCoveredCallImplV1",
            "label": "bid",
            "offset": 16,
            "slot": "2",
            "type": "t_uint128"
          },
          {
            "astId": 3743,
            "contract": "src/HookCoveredCallImplV1.sol:HookCoveredCallImplV1",
            "label": "highBidder",
            "offset": 0,
            "slot": "3",
            "type": "t_address"
          },
          {
            "astId": 3745,
            "contract": "src/HookCoveredCallImplV1.sol:HookCoveredCallImplV1",
            "label": "settled",
            "offset": 20,
            "slot": "3",
            "type": "t_bool"
          }
        ],
        "numberOfBytes": "128"
      },
      "t_struct(Counter)2622_storage": {
        "encoding": "inplace",
        "label": "struct Counters.Counter",
        "members": [
          {
            "astId": 2621,
            "contract": "src/HookCoveredCallImplV1.sol:HookCoveredCallImplV1",
            "label": "_value",
            "offset": 0,
            "slot": "0",
            "type": "t_uint256"
          }
        ],
        "numberOfBytes": "32"
      },
      "t_uint128": {
        "encoding": "inplace",
        "label": "uint128",
        "numberOfBytes": "16"
      },
      "t_uint256": {
        "encoding": "inplace",
        "label": "uint256",
        "numberOfBytes": "32"
      },
      "t_uint32": {
        "encoding": "inplace",
        "label": "uint32",
        "numberOfBytes": "4"
      },
      "t_uint8": {
        "encoding": "inplace",
        "label": "uint8",
        "numberOfBytes": "1"
      }
    }
  }
}