{
  "address": "0x15a2Ba10F757E88061F4f930a35eB5121ca00cE6",
  "abi": [
    {
      "inputs": [
        {
          "internalType": "address",
          "name": "admin",
          "type": "address"
        },
        {
          "internalType": "address",
          "name": "weth",
          "type": "address"
        }
      ],
      "stateMutability": "nonpayable",
      "type": "constructor"
    },
    {
      "anonymous": false,
      "inputs": [
        {
          "indexed": false,
          "internalType": "address",
          "name": "account",
          "type": "address"
        }
      ],
      "name": "Paused",
      "type": "event"
    },
    {
      "anonymous": false,
      "inputs": [
        {
          "indexed": false,
          "internalType": "bool",
          "name": "paused",
          "type": "bool"
        }
      ],
      "name": "PausedUpdated",
      "type": "event"
    },
    {
      "anonymous": false,
      "inputs": [
        {
          "indexed": true,
          "internalType": "bytes32",
          "name": "role",
          "type": "bytes32"
        },
        {
          "indexed": true,
          "internalType": "bytes32",
          "name": "previousAdminRole",
          "type": "bytes32"
        },
        {
          "indexed": true,
          "internalType": "bytes32",
          "name": "newAdminRole",
          "type": "bytes32"
        }
      ],
      "name": "RoleAdminChanged",
      "type": "event"
    },
    {
      "anonymous": false,
      "inputs": [
        {
          "indexed": true,
          "internalType": "bytes32",
          "name": "role",
          "type": "bytes32"
        },
        {
          "indexed": true,
          "internalType": "address",
          "name": "account",
          "type": "address"
        },
        {
          "indexed": true,
          "internalType": "address",
          "name": "sender",
          "type": "address"
        }
      ],
      "name": "RoleGranted",
      "type": "event"
    },
    {
      "anonymous": false,
      "inputs": [
        {
          "indexed": true,
          "internalType": "bytes32",
          "name": "role",
          "type": "bytes32"
        },
        {
          "indexed": true,
          "internalType": "address",
          "name": "account",
          "type": "address"
        },
        {
          "indexed": true,
          "internalType": "address",
          "name": "sender",
          "type": "address"
        }
      ],
      "name": "RoleRevoked",
      "type": "event"
    },
    {
      "anonymous": false,
      "inputs": [
        {
          "indexed": false,
          "internalType": "address",
          "name": "account",
          "type": "address"
        }
      ],
      "name": "Unpaused",
      "type": "event"
    },
    {
      "inputs": [],
      "name": "ADMIN_ROLE",
      "outputs": [
        {
          "internalType": "bytes32",
          "name": "",
          "type": "bytes32"
        }
      ],
      "stateMutability": "view",
      "type": "function"
    },
    {
      "inputs": [],
      "name": "ALLOWLISTER_ROLE",
      "outputs": [
        {
          "internalType": "bytes32",
          "name": "",
          "type": "bytes32"
        }
      ],
      "stateMutability": "view",
      "type": "function"
    },
    {
      "inputs": [],
      "name": "CALL_UPGRADER",
      "outputs": [
        {
          "internalType": "bytes32",
          "name": "",
          "type": "bytes32"
        }
      ],
      "stateMutability": "view",
      "type": "function"
    },
    {
      "inputs": [],
      "name": "COLLECTION_CONF",
      "outputs": [
        {
          "internalType": "bytes32",
          "name": "",
          "type": "bytes32"
        }
      ],
      "stateMutability": "view",
      "type": "function"
    },
    {
      "inputs": [],
      "name": "DEFAULT_ADMIN_ROLE",
      "outputs": [
        {
          "internalType": "bytes32",
          "name": "",
          "type": "bytes32"
        }
      ],
      "stateMutability": "view",
      "type": "function"
    },
    {
      "inputs": [],
      "name": "MARKET_CONF",
      "outputs": [
        {
          "internalType": "bytes32",
          "name": "",
          "type": "bytes32"
        }
      ],
      "stateMutability": "view",
      "type": "function"
    },
    {
      "inputs": [],
      "name": "PAUSER_ROLE",
      "outputs": [
        {
          "internalType": "bytes32",
          "name": "",
          "type": "bytes32"
        }
      ],
      "stateMutability": "view",
      "type": "function"
    },
    {
      "inputs": [],
      "name": "VAULT_UPGRADER",
      "outputs": [
        {
          "internalType": "bytes32",
          "name": "",
          "type": "bytes32"
        }
      ],
      "stateMutability": "view",
      "type": "function"
    },
    {
      "inputs": [],
      "name": "coveredCallContract",
      "outputs": [
        {
          "internalType": "address",
          "name": "",
          "type": "address"
        }
      ],
      "stateMutability": "view",
      "type": "function"
    },
    {
      "inputs": [
        {
          "internalType": "address",
          "name": "collectionAddress",
          "type": "address"
        },
        {
          "internalType": "bytes32",
          "name": "conf",
          "type": "bytes32"
        }
      ],
      "name": "getCollectionConfig",
      "outputs": [
        {
          "internalType": "bool",
          "name": "value",
          "type": "bool"
        }
      ],
      "stateMutability": "view",
      "type": "function"
    },
    {
      "inputs": [
        {
          "internalType": "bytes32",
          "name": "role",
          "type": "bytes32"
        }
      ],
      "name": "getRoleAdmin",
      "outputs": [
        {
          "internalType": "bytes32",
          "name": "",
          "type": "bytes32"
        }
      ],
      "stateMutability": "view",
      "type": "function"
    },
    {
      "inputs": [],
      "name": "getWETHAddress",
      "outputs": [
        {
          "internalType": "address",
          "name": "",
          "type": "address"
        }
      ],
      "stateMutability": "view",
      "type": "function"
    },
    {
      "inputs": [
        {
          "internalType": "bytes32",
          "name": "role",
          "type": "bytes32"
        },
        {
          "internalType": "address",
          "name": "account",
          "type": "address"
        }
      ],
      "name": "grantRole",
      "outputs": [],
      "stateMutability": "nonpayable",
      "type": "function"
    },
    {
      "inputs": [
        {
          "internalType": "bytes32",
          "name": "role",
          "type": "bytes32"
        },
        {
          "internalType": "address",
          "name": "account",
          "type": "address"
        }
      ],
      "name": "hasRole",
      "outputs": [
        {
          "internalType": "bool",
          "name": "",
          "type": "bool"
        }
      ],
      "stateMutability": "view",
      "type": "function"
    },
    {
      "inputs": [],
      "name": "pause",
      "outputs": [],
      "stateMutability": "nonpayable",
      "type": "function"
    },
    {
      "inputs": [],
      "name": "paused",
      "outputs": [
        {
          "internalType": "bool",
          "name": "",
          "type": "bool"
        }
      ],
      "stateMutability": "view",
      "type": "function"
    },
    {
      "inputs": [
        {
          "internalType": "bytes32",
          "name": "role",
          "type": "bytes32"
        },
        {
          "internalType": "address",
          "name": "account",
          "type": "address"
        }
      ],
      "name": "renounceRole",
      "outputs": [],
      "stateMutability": "nonpayable",
      "type": "function"
    },
    {
      "inputs": [
        {
          "internalType": "bytes32",
          "name": "role",
          "type": "bytes32"
        },
        {
          "internalType": "address",
          "name": "account",
          "type": "address"
        }
      ],
      "name": "revokeRole",
      "outputs": [],
      "stateMutability": "nonpayable",
      "type": "function"
    },
    {
      "inputs": [
        {
          "internalType": "address",
          "name": "collectionAddress",
          "type": "address"
        },
        {
          "internalType": "bytes32",
          "name": "config",
          "type": "bytes32"
        },
        {
          "internalType": "bool",
          "name": "value",
          "type": "bool"
        }
      ],
      "name": "setCollectionConfig",
      "outputs": [],
      "stateMutability": "nonpayable",
      "type": "function"
    },
    {
      "inputs": [
        {
          "internalType": "address",
          "name": "coveredCallFactoryContract",
          "type": "address"
        }
      ],
      "name": "setCoveredCallFactory",
      "outputs": [],
      "stateMutability": "nonpayable",
      "type": "function"
    },
    {
      "inputs": [
        {
          "internalType": "address",
          "name": "vaultFactoryContract",
          "type": "address"
        }
      ],
      "name": "setVaultFactory",
      "outputs": [],
      "stateMutability": "nonpayable",
      "type": "function"
    },
    {
      "inputs": [
        {
          "internalType": "bytes4",
          "name": "interfaceId",
          "type": "bytes4"
        }
      ],
      "name": "supportsInterface",
      "outputs": [
        {
          "internalType": "bool",
          "name": "",
          "type": "bool"
        }
      ],
      "stateMutability": "view",
      "type": "function"
    },
    {
      "inputs": [],
      "name": "throwWhenPaused",
      "outputs": [],
      "stateMutability": "view",
      "type": "function"
    },
    {
      "inputs": [],
      "name": "unpause",
      "outputs": [],
      "stateMutability": "nonpayable",
      "type": "function"
    },
    {
      "inputs": [],
      "name": "vaultContract",
      "outputs": [
        {
          "internalType": "address",
          "name": "",
          "type": "address"
        }
      ],
      "stateMutability": "view",
      "type": "function"
    }
  ],
  "transactionHash": "0xb23c0509e975cdb8477aefa7a456b32f9a14c92f5a7dbe6a13bf8884dd0120db",
  "args": [
    "0xF9F6009a5f2511f0C859927e43fC12745dc4426a",
    "0xc778417E063141139Fce010982780140Aa0cD5Ab"
  ],
  "numDeployments": 1,
  "solcInputHash": "f9079719c55ec367359fccdad37d4c49",
  "bytecode": "0x60806040523480156200001157600080fd5b50604051620013a7380380620013a783398101604081905262000034916200030f565b6001805460ff19169055620000596000805160206200134783398151915283620001f7565b620000746000805160206200136783398151915283620001f7565b620000a07f945438d5e976f17e0d00cb2997cf8951c55e12977d86234d6738d1865abe006e83620001f7565b620000bb6000805160206200132783398151915283620001f7565b620000e77fa49807205ce4d355092ef5a8a18f56e8913cf4a201fbe287825b095693c2177583620001f7565b620001026000805160206200130783398151915283620001f7565b6200011d6000805160206200138783398151915283620001f7565b62000138600080516020620013478339815191528062000207565b62000153600080516020620013678339815191528062000207565b6200017f7f945438d5e976f17e0d00cb2997cf8951c55e12977d86234d6738d1865abe006e8062000207565b6200019a600080516020620013278339815191528062000207565b620001b5600080516020620013078339815191528062000207565b620001d0600080516020620013878339815191528062000207565b600380546001600160a01b0319166001600160a01b03929092169190911790555062000347565b62000203828262000252565b5050565b600082815260208190526040808220600101805490849055905190918391839186917fbd79b86ffe0ab8e8776151514217cd7cacd52c909f66475c3af44e129f0b00ff9190a4505050565b6000828152602081815260408083206001600160a01b038516845290915290205460ff1662000203576000828152602081815260408083206001600160a01b03851684529091529020805460ff19166001179055620002ae3390565b6001600160a01b0316816001600160a01b0316837f2f8788117e7eff1d82e926ec794901d17c78024a50270940304540a733656f0d60405160405180910390a45050565b80516001600160a01b03811681146200030a57600080fd5b919050565b600080604083850312156200032357600080fd5b6200032e83620002f2565b91506200033e60208401620002f2565b90509250929050565b610fb080620003576000396000f3fe608060405234801561001057600080fd5b50600436106101735760003560e01c80635c975abb116100de578063a34fd3fb11610097578063bb31173a11610071578063bb31173a1461039b578063d547741f146103c2578063e63ab1e9146103d5578063f23c19e8146103fc57600080fd5b8063a34fd3fb1461033a578063acca683814610361578063affa88171461038857600080fd5b80635c975abb146102cd578063624c7801146102d857806375b238fc146102f05780638456cb591461031757806391d148541461031f578063a217fddf1461033257600080fd5b80632f2ff15d116101305780632f2ff15d1461027157806336568abe146102845780633dce0322146102975780633ea7fbdb146102aa5780633f4ba83a146102bd5780635b67d9ab146102c557600080fd5b806301ffc9a7146101785780630d5e67ec146101a0578063194f6729146101d5578063209b6d751461020e5780632274346b14610223578063248a9ca31461024e575b600080fd5b61018b610186366004610ccd565b610423565b60405190151581526020015b60405180910390f35b6101c77f945438d5e976f17e0d00cb2997cf8951c55e12977d86234d6738d1865abe006e81565b604051908152602001610197565b61018b6101e3366004610d13565b6001600160a01b03919091166000908152600460209081526040808320938352929052205460ff1690565b61022161021c366004610d3d565b61045a565b005b600254610236906001600160a01b031681565b6040516001600160a01b039091168152602001610197565b6101c761025c366004610d58565b60009081526020819052604090206001015490565b61022161027f366004610d71565b61054e565b610221610292366004610d71565b610578565b6102216102a5366004610d9d565b6105f6565b6102216102b8366004610d3d565b610656565b61022161072f565b6102216107b4565b60015460ff1661018b565b6001546102369061010090046001600160a01b031681565b6101c77fa49807205ce4d355092ef5a8a18f56e8913cf4a201fbe287825b095693c2177581565b6102216107fc565b61018b61032d366004610d71565b61087b565b6101c7600081565b6101c77f657f307dfada290937bc821a25e2da10feb07809ba9560b816723e8b47fe379a81565b6101c77ffba4f6dd992a27a814ee807eb2f9332d6d01312041726966a540cf4a4a89155381565b600354610236906001600160a01b031681565b6101c77ff7e0191f3657a6da7569740b1cdeac8c3425bcbfd257d4fdc6d2241598f4de8b81565b6102216103d0366004610d71565b6108a4565b6101c77f65d7a28e3265b37a6474929f336521b332c1681b933f6cb9f3376673440d862a81565b6101c77f8de11a8d956993287a5b6a74c069984045abc1b621d651081c4c77c05c3cb7af81565b60006001600160e01b03198216637965db0b60e01b148061045457506301ffc9a760e01b6001600160e01b03198316145b92915050565b6104847fa49807205ce4d355092ef5a8a18f56e8913cf4a201fbe287825b095693c217753361087b565b6104a95760405162461bcd60e51b81526004016104a090610de2565b60405180910390fd5b6001600160a01b0381163b6105265760405162461bcd60e51b815260206004820152603760248201527f736574436f766572656443616c6c466163746f72793a20696d706c656d656e7460448201527f6174696f6e206973206e6f74206120636f6e747261637400000000000000000060648201526084016104a0565b600180546001600160a01b0390921661010002610100600160a81b0319909216919091179055565b600082815260208190526040902060010154610569816108c9565b61057383836108d6565b505050565b6001600160a01b03811633146105e85760405162461bcd60e51b815260206004820152602f60248201527f416363657373436f6e74726f6c3a2063616e206f6e6c792072656e6f756e636560448201526e103937b632b9903337b91039b2b63360891b60648201526084016104a0565b6105f2828261095a565b5050565b7ff7e0191f3657a6da7569740b1cdeac8c3425bcbfd257d4fdc6d2241598f4de8b610620816108c9565b506001600160a01b0392909216600090815260046020908152604080832093835292905220805460ff1916911515919091179055565b6106807fa49807205ce4d355092ef5a8a18f56e8913cf4a201fbe287825b095693c217753361087b565b61069c5760405162461bcd60e51b81526004016104a090610de2565b6001600160a01b0381163b61070d5760405162461bcd60e51b815260206004820152603160248201527f7365745661756c74466163746f72793a20696d706c656d656e746174696f6e206044820152701a5cc81b9bdd08184818dbdb9d1c9858dd607a1b60648201526084016104a0565b600280546001600160a01b0319166001600160a01b0392909216919091179055565b6107597f65d7a28e3265b37a6474929f336521b332c1681b933f6cb9f3376673440d862a3361087b565b6107755760405162461bcd60e51b81526004016104a090610de2565b61077d6109bf565b604051600081527f31311016d7204faff81880133e3db244ae8a8b9ce15e83e2432258226d15f942906020015b60405180910390a1565b60015460ff16156107fa5760405162461bcd60e51b815260206004820152601060248201526f14185d5cd8589b194e881c185d5cd95960821b60448201526064016104a0565b565b6108267f65d7a28e3265b37a6474929f336521b332c1681b933f6cb9f3376673440d862a3361087b565b6108425760405162461bcd60e51b81526004016104a090610de2565b61084a610a4d565b604051600181527f31311016d7204faff81880133e3db244ae8a8b9ce15e83e2432258226d15f942906020016107aa565b6000918252602082815260408084206001600160a01b0393909316845291905290205460ff1690565b6000828152602081905260409020600101546108bf816108c9565b610573838361095a565b6108d38133610ac6565b50565b6108e0828261087b565b6105f2576000828152602081815260408083206001600160a01b03851684529091529020805460ff191660011790556109163390565b6001600160a01b0316816001600160a01b0316837f2f8788117e7eff1d82e926ec794901d17c78024a50270940304540a733656f0d60405160405180910390a45050565b610964828261087b565b156105f2576000828152602081815260408083206001600160a01b0385168085529252808320805460ff1916905551339285917ff6391f5c32d9c69d2a47ea670b442974b53935d1edc7fd64eb21e047a839171b9190a45050565b60015460ff16610a085760405162461bcd60e51b815260206004820152601460248201527314185d5cd8589b194e881b9bdd081c185d5cd95960621b60448201526064016104a0565b6001805460ff191690557f5db9ee0a495bf2e6ff9c91a7834c1ba4fdd244a5e8aa4e537bd38aeae4b073aa335b6040516001600160a01b0390911681526020016107aa565b60015460ff1615610a935760405162461bcd60e51b815260206004820152601060248201526f14185d5cd8589b194e881c185d5cd95960821b60448201526064016104a0565b6001805460ff1916811790557f62e78cea01bee320cd4e420270b5ea74000d11b0c9f74754ebdbfc544b05a25833610a35565b610ad0828261087b565b6105f257610ae8816001600160a01b03166014610b2a565b610af3836020610b2a565b604051602001610b04929190610e42565b60408051601f198184030181529082905262461bcd60e51b82526104a091600401610eb7565b60606000610b39836002610f00565b610b44906002610f1f565b67ffffffffffffffff811115610b5c57610b5c610f37565b6040519080825280601f01601f191660200182016040528015610b86576020820181803683370190505b509050600360fc1b81600081518110610ba157610ba1610f4d565b60200101906001600160f81b031916908160001a905350600f60fb1b81600181518110610bd057610bd0610f4d565b60200101906001600160f81b031916908160001a9053506000610bf4846002610f00565b610bff906001610f1f565b90505b6001811115610c77576f181899199a1a9b1b9c1cb0b131b232b360811b85600f1660108110610c3357610c33610f4d565b1a60f81b828281518110610c4957610c49610f4d565b60200101906001600160f81b031916908160001a90535060049490941c93610c7081610f63565b9050610c02565b508315610cc65760405162461bcd60e51b815260206004820181905260248201527f537472696e67733a20686578206c656e67746820696e73756666696369656e7460448201526064016104a0565b9392505050565b600060208284031215610cdf57600080fd5b81356001600160e01b031981168114610cc657600080fd5b80356001600160a01b0381168114610d0e57600080fd5b919050565b60008060408385031215610d2657600080fd5b610d2f83610cf7565b946020939093013593505050565b600060208284031215610d4f57600080fd5b610cc682610cf7565b600060208284031215610d6a57600080fd5b5035919050565b60008060408385031215610d8457600080fd5b82359150610d9460208401610cf7565b90509250929050565b600080600060608486031215610db257600080fd5b610dbb84610cf7565b92506020840135915060408401358015158114610dd757600080fd5b809150509250925092565b60208082526016908201527521b0b63632b91034b9903737ba1030b71030b236b4b760511b604082015260600190565b60005b83811015610e2d578181015183820152602001610e15565b83811115610e3c576000848401525b50505050565b7f416363657373436f6e74726f6c3a206163636f756e7420000000000000000000815260008351610e7a816017850160208801610e12565b7001034b99036b4b9b9b4b733903937b6329607d1b6017918401918201528351610eab816028840160208801610e12565b01602801949350505050565b6020815260008251806020840152610ed6816040850160208701610e12565b601f01601f19169190910160400192915050565b634e487b7160e01b600052601160045260246000fd5b6000816000190483118215151615610f1a57610f1a610eea565b500290565b60008219821115610f3257610f32610eea565b500190565b634e487b7160e01b600052604160045260246000fd5b634e487b7160e01b600052603260045260246000fd5b600081610f7257610f72610eea565b50600019019056fea2646970667358221220719f3d5703ea539fffad1f7aa61a6bc07707289aa9a374c94e87adac025783e464736f6c634300080a00338de11a8d956993287a5b6a74c069984045abc1b621d651081c4c77c05c3cb7af657f307dfada290937bc821a25e2da10feb07809ba9560b816723e8b47fe379afba4f6dd992a27a814ee807eb2f9332d6d01312041726966a540cf4a4a89155365d7a28e3265b37a6474929f336521b332c1681b933f6cb9f3376673440d862af7e0191f3657a6da7569740b1cdeac8c3425bcbfd257d4fdc6d2241598f4de8b",
  "devdoc": {
    "details": "Other contracts in the protocol refer to this one to get configuration and pausing issues. to reduce attack surface area, this contract cannot be upgraded; however, additional roles can be added. This contract does not implement any specific timelocks or other safety measures. The roles are granted with the principal of least privilege. As the protocol matures, these additional measures can be layered by granting these roles to other contracts. In the extreme, the upgrade and other roles can be burned, which would effectively make the protocol static and non-upgradeable.",
    "kind": "dev",
    "methods": {
      "getCollectionConfig(address,bytes32)": {
        "details": "See {IHookProtocol-getCollectionConfig}."
      },
      "getRoleAdmin(bytes32)": {
        "details": "Returns the admin role that controls `role`. See {grantRole} and {revokeRole}. To change a role's admin, use {_setRoleAdmin}."
      },
      "grantRole(bytes32,address)": {
        "details": "Grants `role` to `account`. If `account` had not been already granted `role`, emits a {RoleGranted} event. Requirements: - the caller must have ``role``'s admin role."
      },
      "hasRole(bytes32,address)": {
        "details": "Returns `true` if `account` has been granted `role`."
      },
      "paused()": {
        "details": "Returns true if the contract is paused, and false otherwise."
      },
      "renounceRole(bytes32,address)": {
        "details": "Revokes `role` from the calling account. Roles are often managed via {grantRole} and {revokeRole}: this function's purpose is to provide a mechanism for accounts to lose their privileges if they are compromised (such as when a trusted device is misplaced). If the calling account had been revoked `role`, emits a {RoleRevoked} event. Requirements: - the caller must be `account`."
      },
      "revokeRole(bytes32,address)": {
        "details": "Revokes `role` from `account`. If `account` had been granted `role`, emits a {RoleRevoked} event. Requirements: - the caller must have ``role``'s admin role."
      },
      "setCoveredCallFactory(address)": {
        "details": "This address is used by other protocols searching for the registry of protocols.",
        "params": {
          "coveredCallFactoryContract": "the address of the deployed covered call contract"
        }
      },
      "setVaultFactory(address)": {
        "details": "allows all protocol components, including the call factory, to look up the vault factory.",
        "params": {
          "vaultFactoryContract": "the deployed vault factory"
        }
      },
      "supportsInterface(bytes4)": {
        "details": "See {IERC165-supportsInterface}."
      }
    },
    "stateVariables": {
      "getWETHAddress": {
        "details": "these are values for popular chains: mainnet: 0xc02aaa39b223fe8d0a0e5c4f27ead9083c756cc2 kovan: 0xd0a1e359811322d97991e03f863a0c30c2cf029c ropsten: 0xc778417e063141139fce010982780140aa0cd5ab rinkeby: 0xc778417e063141139fce010982780140aa0cd5ab"
      }
    },
    "version": 1
  },
  "userdoc": {
    "events": {
      "PausedUpdated(bool)": {
        "notice": "emitted when the protocol is paused or unpausedpaused true if paused false if unpaused"
      }
    },
    "kind": "user",
    "methods": {
      "ADMIN_ROLE()": {
        "notice": "----- ROLES --------The Hook protocol admin can make any changes to the protocol"
      },
      "ALLOWLISTER_ROLE()": {
        "notice": "the allowlister is able to enable and disable projects to mint instruments"
      },
      "CALL_UPGRADER()": {
        "notice": "the call upgrader role is able to upgrade the implementation of the covered call options"
      },
      "COLLECTION_CONF()": {
        "notice": "the collection configuration role allows the actor to make changes the collection configs on the protocol contract"
      },
      "MARKET_CONF()": {
        "notice": "the market configuration role allows the actor to make changes to how the market operates"
      },
      "PAUSER_ROLE()": {
        "notice": "the pauser is able to start and pause various components of the protocol"
      },
      "VAULT_UPGRADER()": {
        "notice": "the vault upgrader role is able to upgrade the implementation for all vaults"
      },
      "coveredCallContract()": {
        "notice": "the address of the deployed CoveredCallFactory used by the protocol"
      },
      "getWETHAddress()": {
        "notice": "the standard weth address on this chain"
      },
      "setCoveredCallFactory(address)": {
        "notice": "Allows an admin to set the address of the deployed covered call factory"
      },
      "setVaultFactory(address)": {
        "notice": "Allows an admin to set the address of the deployed vault factory"
      },
      "throwWhenPaused()": {
        "notice": "throws an exception when the protocol is paused"
      },
      "vaultContract()": {
        "notice": "the address of the deployed VaultFactory used by the protocol"
      }
    },
    "version": 1
  },
  "storageLayout": {
    "storage": [
      {
        "astId": 24,
        "contract": "src/HookProtocol.sol:HookProtocol",
        "label": "_roles",
        "offset": 0,
        "slot": "0",
        "type": "t_mapping(t_bytes32,t_struct(RoleData)19_storage)"
      },
      {
        "astId": 1047,
        "contract": "src/HookProtocol.sol:HookProtocol",
        "label": "_paused",
        "offset": 0,
        "slot": "1",
        "type": "t_bool"
      },
      {
        "astId": 6471,
        "contract": "src/HookProtocol.sol:HookProtocol",
        "label": "coveredCallContract",
        "offset": 1,
        "slot": "1",
        "type": "t_address"
      },
      {
        "astId": 6474,
        "contract": "src/HookProtocol.sol:HookProtocol",
        "label": "vaultContract",
        "offset": 0,
        "slot": "2",
        "type": "t_address"
      },
      {
        "astId": 6477,
        "contract": "src/HookProtocol.sol:HookProtocol",
        "label": "getWETHAddress",
        "offset": 0,
        "slot": "3",
        "type": "t_address"
      },
      {
        "astId": 6483,
        "contract": "src/HookProtocol.sol:HookProtocol",
        "label": "collectionConfigs",
        "offset": 0,
        "slot": "4",
        "type": "t_mapping(t_address,t_mapping(t_bytes32,t_bool))"
      }
    ],
    "types": {
      "t_address": {
        "encoding": "inplace",
        "label": "address",
        "numberOfBytes": "20"
      },
      "t_bool": {
        "encoding": "inplace",
        "label": "bool",
        "numberOfBytes": "1"
      },
      "t_bytes32": {
        "encoding": "inplace",
        "label": "bytes32",
        "numberOfBytes": "32"
      },
      "t_mapping(t_address,t_bool)": {
        "encoding": "mapping",
        "key": "t_address",
        "label": "mapping(address => bool)",
        "numberOfBytes": "32",
        "value": "t_bool"
      },
      "t_mapping(t_address,t_mapping(t_bytes32,t_bool))": {
        "encoding": "mapping",
        "key": "t_address",
        "label": "mapping(address => mapping(bytes32 => bool))",
        "numberOfBytes": "32",
        "value": "t_mapping(t_bytes32,t_bool)"
      },
      "t_mapping(t_bytes32,t_bool)": {
        "encoding": "mapping",
        "key": "t_bytes32",
        "label": "mapping(bytes32 => bool)",
        "numberOfBytes": "32",
        "value": "t_bool"
      },
      "t_mapping(t_bytes32,t_struct(RoleData)19_storage)": {
        "encoding": "mapping",
        "key": "t_bytes32",
        "label": "mapping(bytes32 => struct AccessControl.RoleData)",
        "numberOfBytes": "32",
        "value": "t_struct(RoleData)19_storage"
      },
      "t_struct(RoleData)19_storage": {
        "encoding": "inplace",
        "label": "struct AccessControl.RoleData",
        "members": [
          {
            "astId": 16,
            "contract": "src/HookProtocol.sol:HookProtocol",
            "label": "members",
            "offset": 0,
            "slot": "0",
            "type": "t_mapping(t_address,t_bool)"
          },
          {
            "astId": 18,
            "contract": "src/HookProtocol.sol:HookProtocol",
            "label": "adminRole",
            "offset": 0,
            "slot": "1",
            "type": "t_bytes32"
          }
        ],
        "numberOfBytes": "64"
      }
    }
  }
}