{
  "address": "0x7F1081351ba32681C79a7a93Dc425C1568735881",
  "abi": [
    {
      "inputs": [
        {
          "internalType": "address",
          "name": "hookProtocolAddress",
          "type": "address"
        },
        {
          "internalType": "address",
          "name": "beaconAddress",
          "type": "address"
        },
        {
          "internalType": "address",
          "name": "multiBeaconAddress",
          "type": "address"
        }
      ],
      "stateMutability": "nonpayable",
      "type": "constructor"
    },
    {
      "anonymous": false,
      "inputs": [
        {
          "indexed": false,
          "internalType": "address",
          "name": "nftAddress",
          "type": "address"
        },
        {
          "indexed": false,
          "internalType": "address",
          "name": "vaultAddress",
          "type": "address"
        }
      ],
      "name": "ERC721MultiVaultCreated",
      "type": "event"
    },
    {
      "anonymous": false,
      "inputs": [
        {
          "indexed": false,
          "internalType": "address",
          "name": "nftAddress",
          "type": "address"
        },
        {
          "indexed": false,
          "internalType": "uint256",
          "name": "tokenId",
          "type": "uint256"
        },
        {
          "indexed": false,
          "internalType": "address",
          "name": "vaultAddress",
          "type": "address"
        }
      ],
      "name": "ERC721VaultCreated",
      "type": "event"
    },
    {
      "inputs": [],
      "name": "ALLOWLISTER_ROLE",
      "outputs": [
        {
          "internalType": "bytes32",
          "name": "",
          "type": "bytes32"
        }
      ],
      "stateMutability": "view",
      "type": "function"
    },
    {
      "inputs": [],
      "name": "CALL_UPGRADER",
      "outputs": [
        {
          "internalType": "bytes32",
          "name": "",
          "type": "bytes32"
        }
      ],
      "stateMutability": "view",
      "type": "function"
    },
    {
      "inputs": [],
      "name": "COLLECTION_CONF",
      "outputs": [
        {
          "internalType": "bytes32",
          "name": "",
          "type": "bytes32"
        }
      ],
      "stateMutability": "view",
      "type": "function"
    },
    {
      "inputs": [],
      "name": "MARKET_CONF",
      "outputs": [
        {
          "internalType": "bytes32",
          "name": "",
          "type": "bytes32"
        }
      ],
      "stateMutability": "view",
      "type": "function"
    },
    {
      "inputs": [],
      "name": "PAUSER_ROLE",
      "outputs": [
        {
          "internalType": "bytes32",
          "name": "",
          "type": "bytes32"
        }
      ],
      "stateMutability": "view",
      "type": "function"
    },
    {
      "inputs": [],
      "name": "VAULT_UPGRADER",
      "outputs": [
        {
          "internalType": "bytes32",
          "name": "",
          "type": "bytes32"
        }
      ],
      "stateMutability": "view",
      "type": "function"
    },
    {
      "inputs": [
        {
          "internalType": "address",
          "name": "nftAddress",
          "type": "address"
        },
        {
          "internalType": "uint256",
          "name": "tokenId",
          "type": "uint256"
        }
      ],
      "name": "findOrCreateVault",
      "outputs": [
        {
          "internalType": "contract IHookERC721Vault",
          "name": "",
          "type": "address"
        }
      ],
      "stateMutability": "nonpayable",
      "type": "function"
    },
    {
      "inputs": [
        {
          "internalType": "address",
          "name": "",
          "type": "address"
        }
      ],
      "name": "getMultiVault",
      "outputs": [
        {
          "internalType": "contract IHookERC721Vault",
          "name": "",
          "type": "address"
        }
      ],
      "stateMutability": "view",
      "type": "function"
    },
    {
      "inputs": [
        {
          "internalType": "address",
          "name": "",
          "type": "address"
        },
        {
          "internalType": "uint256",
          "name": "",
          "type": "uint256"
        }
      ],
      "name": "getVault",
      "outputs": [
        {
          "internalType": "contract IHookERC721Vault",
          "name": "",
          "type": "address"
        }
      ],
      "stateMutability": "view",
      "type": "function"
    },
    {
      "inputs": [
        {
          "internalType": "address",
          "name": "nftAddress",
          "type": "address"
        }
      ],
      "name": "makeMultiVault",
      "outputs": [
        {
          "internalType": "contract IHookERC721Vault",
          "name": "",
          "type": "address"
        }
      ],
      "stateMutability": "nonpayable",
      "type": "function"
    },
    {
      "inputs": [
        {
          "internalType": "address",
          "name": "nftAddress",
          "type": "address"
        },
        {
          "internalType": "uint256",
          "name": "tokenId",
          "type": "uint256"
        }
      ],
      "name": "makeSoloVault",
      "outputs": [
        {
          "internalType": "contract IHookERC721Vault",
          "name": "",
          "type": "address"
        }
      ],
      "stateMutability": "nonpayable",
      "type": "function"
    }
  ],
  "transactionHash": "0x0761238d4301423d4dc31c14e63157a732dd78684041cd838eb454946b7614c7",
  "args": [
    "0x5E3d1e034a73AC2211C05D7b88c38774A4cDA316",
    "0x061eFd319E11ff6A9359Bf0fdd3517B109611e2A",
    "0xBb9fc65d36148c6360261712A483416c6E1a395c"
  ],
  "numDeployments": 2,
  "solcInputHash": "bce784fa557baf3b8bfd2d09431e04e2",
  "bytecode": "0x60e06040523480156200001157600080fd5b5060405162001752380380620017528339810160408190526200003491620001c8565b6200004a836200019c60201b620008cd1760201c565b6200009c5760405162461bcd60e51b815260206004820181905260248201527f686f6f6b2070726f746f636f6c206d757374206265206120636f6e747261637460448201526064015b60405180910390fd5b620000b2826200019c60201b620008cd1760201c565b6200010a5760405162461bcd60e51b815260206004820152602160248201527f626561636f6e2061646472657373206d757374206265206120636f6e747261636044820152601d60fa1b606482015260840162000093565b62000120816200019c60201b620008cd1760201c565b6200017e5760405162461bcd60e51b815260206004820152602760248201527f6d756c746920626561636f6e2061646472657373206d757374206265206120636044820152661bdb9d1c9858dd60ca1b606482015260840162000093565b6001600160a01b0392831660805290821660a0521660c05262000212565b6001600160a01b03163b151590565b80516001600160a01b0381168114620001c357600080fd5b919050565b600080600060608486031215620001de57600080fd5b620001e984620001ab565b9250620001f960208501620001ab565b91506200020960408501620001ab565b90509250925092565b60805160a05160c0516114fb6200025760003960006106e60152600061032b01526000818161034e0152818161049501528181610538015261070801526114fb6000f3fe608060405234801561001057600080fd5b50600436106100995760003560e01c80630bc0d3fa1461009e5780630d5e67ec146100c7578063435b51de146100fc5780636fe76da61461010f578063a34fd3fb14610138578063acca68381461015f578063b6f3fa3f14610174578063bb31173a14610187578063d99d13f5146101ae578063e63ab1e9146101df578063f23c19e814610206575b600080fd5b6100b16100ac366004610a3b565b61022d565b6040516100be9190610a65565b60405180910390f35b6100ee7f945438d5e976f17e0d00cb2997cf8951c55e12977d86234d6738d1865abe006e81565b6040519081526020016100be565b6100b161010a366004610a79565b61047b565b6100b161011d366004610a79565b6001602052600090815260409020546001600160a01b031681565b6100ee7f657f307dfada290937bc821a25e2da10feb07809ba9560b816723e8b47fe379a81565b6100ee6000805160206114a683398151915281565b6100b1610182366004610a3b565b610826565b6100ee7ff7e0191f3657a6da7569740b1cdeac8c3425bcbfd257d4fdc6d2241598f4de8b81565b6100b16101bc366004610a3b565b60006020818152928152604080822090935290815220546001600160a01b031681565b6100ee7f65d7a28e3265b37a6474929f336521b332c1681b933f6cb9f3376673440d862a81565b6100ee7f8de11a8d956993287a5b6a74c069984045abc1b621d651081c4c77c05c3cb7af81565b6001600160a01b03828116600090815260208181526040808320858452909152812054909116156102b45760405162461bcd60e51b815260206004820152602660248201527f6d616b655661756c742d61207661756c742063616e6e6f7420616c726561647960448201526508195e1a5cdd60d21b60648201526084015b60405180910390fd5b604080516001600160a01b038516602080830191909152818301859052825180830384018152606090920190925280519101206000906103189082905b60405161030060208201610a12565b601f1982820381018352601f909101166040526108dc565b9050806001600160a01b0316637fe8e72c7f000000000000000000000000000000000000000000000000000000000000000086867f000000000000000000000000000000000000000000000000000000000000000060405160240161037f93929190610a94565b60408051601f198184030181529181526020820180516001600160e01b031663c350a1b560e01b1790525160e084901b6001600160e01b03191681526103c9929190600401610ab7565b600060405180830381600087803b1580156103e357600080fd5b505af11580156103f7573d6000803e3d6000fd5b505050506001600160a01b038481166000908152602081815260408083208784529091529081902080546001600160a01b031916928416929092179091555181907fec1cb694178d064cbb440cc15ed37f43d60f55db3e5c1aa3b16f3da853812e579061046990879087908590610a94565b60405180910390a19150505b92915050565b604051632474521560e21b81526000906001600160a01b037f000000000000000000000000000000000000000000000000000000000000000016906391d14854906104da906000805160206114a6833981519152903390600401610b1c565b602060405180830381865afa1580156104f7573d6000803e3d6000fd5b505050506040513d601f19601f8201168201806040525081019061051b9190610b33565b806105bf5750604051632474521560e21b81526001600160a01b037f000000000000000000000000000000000000000000000000000000000000000016906391d148549061057e906000805160206114a683398151915290600090600401610b1c565b602060405180830381865afa15801561059b573d6000803e3d6000fd5b505050506040513d601f19601f820116820180604052508101906105bf9190610b33565b6106495760405162461bcd60e51b815260206004820152604f60248201527f6d616b654d756c74695661756c742d4f6e6c79206163636f756e74732077697460448201527f682074686520414c4c4f574c495354455220726f6c652063616e206d616b652060648201526e6e6577206d756c74695661756c747360881b608482015260a4016102ab565b6001600160a01b0382811660009081526001602052604090205416156106c35760405162461bcd60e51b815260206004820152602960248201527f6d616b654d756c74695661756c742d7661756c742063616e6e6f7420616c726560448201526818591e48195e1a5cdd60ba1b60648201526084016102ab565b60006106d360006102f1856109e2565b9050806001600160a01b0316637fe8e72c7f0000000000000000000000000000000000000000000000000000000000000000857f0000000000000000000000000000000000000000000000000000000000000000604051602401610738929190610b55565b60408051601f198184030181529181526020820180516001600160e01b031663485cc95560e01b1790525160e084901b6001600160e01b0319168152610782929190600401610ab7565b600060405180830381600087803b15801561079c57600080fd5b505af11580156107b0573d6000803e3d6000fd5b505050506001600160a01b038381166000908152600160205260409081902080546001600160a01b031916928416929092179091555181907f4576e6da87b352d9168729d519d6b20717c930bc4aca52cd876b1c797227acc7906108179086908490610b55565b60405180910390a19392505050565b6001600160a01b038281166000908152600160205260408120549091161561086957506001600160a01b0380831660009081526001602052604090205416610475565b6001600160a01b0383811660009081526020818152604080832086845290915290205416156108bc57506001600160a01b0380831660009081526020818152604080832085845290915290205416610475565b6108c6838361022d565b9392505050565b6001600160a01b03163b151590565b6000808447101561092f5760405162461bcd60e51b815260206004820152601d60248201527f437265617465323a20696e73756666696369656e742062616c616e636500000060448201526064016102ab565b825161097d5760405162461bcd60e51b815260206004820181905260248201527f437265617465323a2062797465636f6465206c656e677468206973207a65726f60448201526064016102ab565b8383516020850187f590506001600160a01b0381166109da5760405162461bcd60e51b8152602060048201526019602482015278437265617465323a204661696c6564206f6e206465706c6f7960381b60448201526064016102ab565b949350505050565b6000816040516020016109f59190610a65565b604051602081830303815290604052805190602001209050919050565b61093680610b7083390190565b80356001600160a01b0381168114610a3657600080fd5b919050565b60008060408385031215610a4e57600080fd5b610a5783610a1f565b946020939093013593505050565b6001600160a01b0391909116815260200190565b600060208284031215610a8b57600080fd5b6108c682610a1f565b6001600160a01b0393841681526020810192909252909116604082015260600190565b60018060a01b038316815260006020604081840152835180604085015260005b81811015610af357858101830151858201606001528201610ad7565b81811115610b05576000606083870101525b50601f01601f191692909201606001949350505050565b9182526001600160a01b0316602082015260400190565b600060208284031215610b4557600080fd5b815180151581146108c657600080fd5b6001600160a01b039283168152911660208201526040019056fe608060405234801561001057600080fd5b50610916806100206000396000f3fe6080604052600436106100225760003560e01c80637fe8e72c1461003957610031565b366100315761002f610059565b005b61002f610059565b34801561004557600080fd5b5061002f61005436600461068c565b61006b565b61006961006461016f565b6101f6565b565b6000610077600161021a565b905080156100af57600161009f61009c8260008051602061087a83398151915261074f565b90565b805460ff19169115159190911790555b6100da60017fa3f0ad74e5423aebfd80d3ef4346578335a9a72aeaee59ff6cb3582b35133d5161074f565b60008051602061085a833981519152146100f6576100f6610774565b610102838360006102ee565b801561016a57600061012661009c600160008051602061087a83398151915261074f565b805460ff1916911515919091179055604051600181527f7f26b83ff96e1f2b6a682f133852f6798a09c465da95921460cefb38474024989060200160405180910390a15b505050565b600061019060008051602061085a833981519152546001600160a01b031690565b6001600160a01b0316635c60da1b6040518163ffffffff1660e01b8152600401602060405180830381865afa1580156101cd573d6000803e3d6000fd5b505050506040513d601f19601f820116820180604052508101906101f1919061078a565b905090565b3660008037600080366000845af43d6000803e808015610215573d6000f35b3d6000fd5b600061023861009c600160008051602061087a83398151915261074f565b5460ff1615610287578160ff16600114801561025a5750610258306103ae565b155b61027f5760405162461bcd60e51b8152600401610276906107a7565b60405180910390fd5b506000919050565b60ff82166102a761009c600160008051602061089a83398151915261074f565b54106102c55760405162461bcd60e51b8152600401610276906107a7565b60ff82166102e561009c600160008051602061089a83398151915261074f565b55506001919050565b6102f7836103bd565b6040516001600160a01b038416907f1cf3b03a6cf19fa2baba4df148e9dcabedea7f8a5c07840e207e5c089be95d3e90600090a26000825111806103385750805b1561016a576103a8836001600160a01b0316635c60da1b6040518163ffffffff1660e01b8152600401602060405180830381865afa15801561037e573d6000803e3d6000fd5b505050506040513d601f19601f820116820180604052508101906103a2919061078a565b8361051e565b50505050565b6001600160a01b03163b151590565b6103c6816103ae565b6104205760405162461bcd60e51b815260206004820152602560248201527f455243313936373a206e657720626561636f6e206973206e6f74206120636f6e6044820152641d1c9858dd60da1b6064820152608401610276565b61048a816001600160a01b0316635c60da1b6040518163ffffffff1660e01b8152600401602060405180830381865afa158015610461573d6000803e3d6000fd5b505050506040513d601f19601f82011682018060405250810190610485919061078a565b6103ae565b6104ef5760405162461bcd60e51b815260206004820152603060248201527f455243313936373a20626561636f6e20696d706c656d656e746174696f6e206960448201526f1cc81b9bdd08184818dbdb9d1c9858dd60821b6064820152608401610276565b60008051602061085a83398151915280546001600160a01b0319166001600160a01b0392909216919091179055565b606061054383836040518060600160405280602781526020016108ba6027913961054a565b9392505050565b6060610555846103ae565b6105b05760405162461bcd60e51b815260206004820152602660248201527f416464726573733a2064656c65676174652063616c6c20746f206e6f6e2d636f6044820152651b9d1c9858dd60d21b6064820152608401610276565b600080856001600160a01b0316856040516105cb919061080a565b600060405180830381855af49150503d8060008114610606576040519150601f19603f3d011682016040523d82523d6000602084013e61060b565b606091505b509150915061061b828286610625565b9695505050505050565b60608315610634575081610543565b8251156106445782518084602001fd5b8160405162461bcd60e51b81526004016102769190610826565b6001600160a01b038116811461067357600080fd5b50565b634e487b7160e01b600052604160045260246000fd5b6000806040838503121561069f57600080fd5b82356106aa8161065e565b915060208301356001600160401b03808211156106c657600080fd5b818501915085601f8301126106da57600080fd5b8135818111156106ec576106ec610676565b604051601f8201601f19908116603f0116810190838211818310171561071457610714610676565b8160405282815288602084870101111561072d57600080fd5b8260208601602083013760006020848301015280955050505050509250929050565b60008282101561076f57634e487b7160e01b600052601160045260246000fd5b500390565b634e487b7160e01b600052600160045260246000fd5b60006020828403121561079c57600080fd5b81516105438161065e565b6020808252601f908201527f636f6e747261637420697320616c726561647920696e697469616c697a656400604082015260600190565b60005b838110156107f95781810151838201526020016107e1565b838111156103a85750506000910152565b6000825161081c8184602087016107de565b9190910192915050565b60208152600082518060208401526108458160408501602087016107de565b601f01601f1916919091016040019291505056fea3f0ad74e5423aebfd80d3ef4346578335a9a72aeaee59ff6cb3582b35133d50ba701f97ffd09be973ab0487da5ef9921c2bd0aad55202b3c0b41745a8ecda29021cb2f443fd62c4cb6b5d341f5eb8cd045222fc4183f8753d3725ac19741805416464726573733a206c6f772d6c6576656c2064656c65676174652063616c6c206661696c6564a26469706673582212201902b2ab44cdf0715c6e3d610362589ccda73f8de411b662f588e9f6dea04ad464736f6c634300080a0033fba4f6dd992a27a814ee807eb2f9332d6d01312041726966a540cf4a4a891553a2646970667358221220041326d953311f134314c2fc26094f28713f2663167c5f615e61c873d275d7aa64736f6c634300080a0033",
  "devdoc": {
    "author": "Jake Nyquist-j@hook.xyz",
    "details": "See {IHookERC721VaultFactory}.The factory itself is non-upgradeable; however, each vault is upgradeable (i.e. all vaults) created by this factory can be upgraded at one time via the beacon pattern.",
    "kind": "dev",
    "methods": {},
    "stateVariables": {
      "getVault": {
        "details": "From this view, we do not know if a vault is empty or full"
      }
    },
    "title": "Hook Vault Factory",
    "version": 1
  },
  "userdoc": {
    "events": {
      "ERC721MultiVaultCreated(address,address)": {
        "notice": "emitted when a new MultiVault is deployed by the protocol"
      }
    },
    "kind": "user",
    "methods": {
      "ALLOWLISTER_ROLE()": {
        "notice": "the allowlister is able to enable and disable projects to mint instruments"
      },
      "CALL_UPGRADER()": {
        "notice": "the call upgrader role is able to upgrade the implementation of the covered call options"
      },
      "COLLECTION_CONF()": {
        "notice": "the collection configuration role allows the actor to make changes the collection configs on the protocol contract"
      },
      "MARKET_CONF()": {
        "notice": "the market configuration role allows the actor to make changes to how the market operates"
      },
      "PAUSER_ROLE()": {
        "notice": "the pauser is able to start and pause various components of the protocol"
      },
      "VAULT_UPGRADER()": {
        "notice": "the vault upgrader role is able to upgrade the implementation for all vaults"
      },
      "findOrCreateVault(address,uint256)": {
        "notice": "See {IHookERC721VaultFactory-findOrCreateVault}."
      },
      "getMultiVault(address)": {
        "notice": "Registry of all of the active multi-vaults within the protocol"
      },
      "getVault(address,uint256)": {
        "notice": "Registry of all of the active vaults within the protocol, allowing users to find vaults by project address and tokenId;"
      },
      "makeMultiVault(address)": {
        "notice": "See {IHookERC721VaultFactory-makeMultiVault}."
      },
      "makeSoloVault(address,uint256)": {
        "notice": "See {IHookERC721VaultFactory-makeSoloVault}."
      }
    },
    "version": 1
  },
  "storageLayout": {
    "storage": [
      {
        "astId": 6470,
        "contract": "src/HookERC721VaultFactory.sol:HookERC721VaultFactory",
        "label": "getVault",
        "offset": 0,
        "slot": "0",
        "type": "t_mapping(t_address,t_mapping(t_uint256,t_contract(IHookERC721Vault)7834))"
      },
      {
        "astId": 6477,
        "contract": "src/HookERC721VaultFactory.sol:HookERC721VaultFactory",
        "label": "getMultiVault",
        "offset": 0,
        "slot": "1",
        "type": "t_mapping(t_address,t_contract(IHookERC721Vault)7834)"
      }
    ],
    "types": {
      "t_address": {
        "encoding": "inplace",
        "label": "address",
        "numberOfBytes": "20"
      },
      "t_contract(IHookERC721Vault)7834": {
        "encoding": "inplace",
        "label": "contract IHookERC721Vault",
        "numberOfBytes": "20"
      },
      "t_mapping(t_address,t_contract(IHookERC721Vault)7834)": {
        "encoding": "mapping",
        "key": "t_address",
        "label": "mapping(address => contract IHookERC721Vault)",
        "numberOfBytes": "32",
        "value": "t_contract(IHookERC721Vault)7834"
      },
      "t_mapping(t_address,t_mapping(t_uint256,t_contract(IHookERC721Vault)7834))": {
        "encoding": "mapping",
        "key": "t_address",
        "label": "mapping(address => mapping(uint256 => contract IHookERC721Vault))",
        "numberOfBytes": "32",
        "value": "t_mapping(t_uint256,t_contract(IHookERC721Vault)7834)"
      },
      "t_mapping(t_uint256,t_contract(IHookERC721Vault)7834)": {
        "encoding": "mapping",
        "key": "t_uint256",
        "label": "mapping(uint256 => contract IHookERC721Vault)",
        "numberOfBytes": "32",
        "value": "t_contract(IHookERC721Vault)7834"
      },
      "t_uint256": {
        "encoding": "inplace",
        "label": "uint256",
        "numberOfBytes": "32"
      }
    }
  }
}