{
  "abi": [
    {
      "inputs": [],
      "stateMutability": "nonpayable",
      "type": "constructor"
    },
    {
      "anonymous": false,
      "inputs": [
        {
          "indexed": true,
          "internalType": "address",
          "name": "owner",
          "type": "address"
        },
        {
          "indexed": true,
          "internalType": "address",
          "name": "approved",
          "type": "address"
        },
        {
          "indexed": true,
          "internalType": "uint256",
          "name": "tokenId",
          "type": "uint256"
        }
      ],
      "name": "Approval",
      "type": "event"
    },
    {
      "anonymous": false,
      "inputs": [
        {
          "indexed": true,
          "internalType": "address",
          "name": "owner",
          "type": "address"
        },
        {
          "indexed": true,
          "internalType": "address",
          "name": "operator",
          "type": "address"
        },
        {
          "indexed": false,
          "internalType": "bool",
          "name": "approved",
          "type": "bool"
        }
      ],
      "name": "ApprovalForAll",
      "type": "event"
    },
    {
      "anonymous": false,
      "inputs": [
        {
          "indexed": false,
          "internalType": "uint256",
          "name": "optionId",
          "type": "uint256"
        },
        {
          "indexed": false,
          "internalType": "uint256",
          "name": "bidAmount",
          "type": "uint256"
        },
        {
          "indexed": false,
          "internalType": "address",
          "name": "bidder",
          "type": "address"
        }
      ],
      "name": "Bid",
      "type": "event"
    },
    {
      "anonymous": false,
      "inputs": [
        {
          "indexed": false,
          "internalType": "address",
          "name": "writer",
          "type": "address"
        },
        {
          "indexed": false,
          "internalType": "address",
          "name": "tokenContract",
          "type": "address"
        },
        {
          "indexed": false,
          "internalType": "uint256",
          "name": "tokenId",
          "type": "uint256"
        },
        {
          "indexed": false,
          "internalType": "uint256",
          "name": "optionId",
          "type": "uint256"
        },
        {
          "indexed": false,
          "internalType": "uint256",
          "name": "strikePrice",
          "type": "uint256"
        },
        {
          "indexed": false,
          "internalType": "uint256",
          "name": "expiration",
          "type": "uint256"
        }
      ],
      "name": "CallCreated",
      "type": "event"
    },
    {
      "anonymous": false,
      "inputs": [
        {
          "indexed": false,
          "internalType": "uint256",
          "name": "optionId",
          "type": "uint256"
        }
      ],
      "name": "CallDestroyed",
      "type": "event"
    },
    {
      "anonymous": false,
      "inputs": [
        {
          "indexed": true,
          "internalType": "address",
          "name": "from",
          "type": "address"
        },
        {
          "indexed": true,
          "internalType": "address",
          "name": "to",
          "type": "address"
        },
        {
          "indexed": true,
          "internalType": "uint256",
          "name": "tokenId",
          "type": "uint256"
        }
      ],
      "name": "Transfer",
      "type": "event"
    },
    {
      "inputs": [],
      "name": "allowedNftContract",
      "outputs": [
        {
          "internalType": "address",
          "name": "",
          "type": "address"
        }
      ],
      "stateMutability": "view",
      "type": "function"
    },
    {
      "inputs": [
        {
          "internalType": "address",
          "name": "to",
          "type": "address"
        },
        {
          "internalType": "uint256",
          "name": "tokenId",
          "type": "uint256"
        }
      ],
      "name": "approve",
      "outputs": [],
      "stateMutability": "nonpayable",
      "type": "function"
    },
    {
      "inputs": [
        {
          "internalType": "address",
          "name": "owner",
          "type": "address"
        }
      ],
      "name": "balanceOf",
      "outputs": [
        {
          "internalType": "uint256",
          "name": "",
          "type": "uint256"
        }
      ],
      "stateMutability": "view",
      "type": "function"
    },
    {
      "inputs": [
        {
          "internalType": "uint256",
          "name": "optionId",
          "type": "uint256"
        }
      ],
      "name": "bid",
      "outputs": [],
      "stateMutability": "payable",
      "type": "function"
    },
    {
      "inputs": [
        {
          "internalType": "uint256",
          "name": "tokenId",
          "type": "uint256"
        }
      ],
      "name": "burn",
      "outputs": [],
      "stateMutability": "nonpayable",
      "type": "function"
    },
    {
      "inputs": [
        {
          "internalType": "uint256",
          "name": "optionId",
          "type": "uint256"
        }
      ],
      "name": "currentBid",
      "outputs": [
        {
          "internalType": "uint256",
          "name": "",
          "type": "uint256"
        }
      ],
      "stateMutability": "view",
      "type": "function"
    },
    {
      "inputs": [
        {
          "internalType": "uint256",
          "name": "optionId",
          "type": "uint256"
        }
      ],
      "name": "currentBidder",
      "outputs": [
        {
          "internalType": "address",
          "name": "",
          "type": "address"
        }
      ],
      "stateMutability": "view",
      "type": "function"
    },
    {
      "inputs": [
        {
          "internalType": "uint256",
          "name": "tokenId",
          "type": "uint256"
        }
      ],
      "name": "getApproved",
      "outputs": [
        {
          "internalType": "address",
          "name": "",
          "type": "address"
        }
      ],
      "stateMutability": "view",
      "type": "function"
    },
    {
      "inputs": [
        {
          "internalType": "address",
          "name": "protocol",
          "type": "address"
        },
        {
          "internalType": "address",
          "name": "_allowedNftContract",
          "type": "address"
        },
        {
          "internalType": "address",
          "name": "hookVaultFactory",
          "type": "address"
        }
      ],
      "name": "initialize",
      "outputs": [],
      "stateMutability": "nonpayable",
      "type": "function"
    },
    {
      "inputs": [
        {
          "internalType": "address",
          "name": "owner",
          "type": "address"
        },
        {
          "internalType": "address",
          "name": "operator",
          "type": "address"
        }
      ],
      "name": "isApprovedForAll",
      "outputs": [
        {
          "internalType": "bool",
          "name": "",
          "type": "bool"
        }
      ],
      "stateMutability": "view",
      "type": "function"
    },
    {
      "inputs": [
        {
          "internalType": "address",
          "name": "_tokenAddress",
          "type": "address"
        },
        {
          "internalType": "uint256",
          "name": "_tokenId",
          "type": "uint256"
        },
        {
          "internalType": "uint256",
          "name": "_strikePrice",
          "type": "uint256"
        },
        {
          "internalType": "uint256",
          "name": "_expirationTime",
          "type": "uint256"
        },
        {
          "components": [
            {
              "internalType": "enum Signatures.SignatureType",
              "name": "signatureType",
              "type": "uint8"
            },
            {
              "internalType": "uint8",
              "name": "v",
              "type": "uint8"
            },
            {
              "internalType": "bytes32",
              "name": "r",
              "type": "bytes32"
            },
            {
              "internalType": "bytes32",
              "name": "s",
              "type": "bytes32"
            }
          ],
          "internalType": "struct Signatures.Signature",
          "name": "signature",
          "type": "tuple"
        }
      ],
      "name": "mint",
      "outputs": [
        {
          "internalType": "uint256",
          "name": "",
          "type": "uint256"
        }
      ],
      "stateMutability": "nonpayable",
      "type": "function"
    },
    {
      "inputs": [
        {
          "internalType": "address",
          "name": "_vaultAddress",
          "type": "address"
        },
        {
          "internalType": "uint256",
          "name": "_strikePrice",
          "type": "uint256"
        },
        {
          "internalType": "uint256",
          "name": "_expirationTime",
          "type": "uint256"
        },
        {
          "components": [
            {
              "internalType": "enum Signatures.SignatureType",
              "name": "signatureType",
              "type": "uint8"
            },
            {
              "internalType": "uint8",
              "name": "v",
              "type": "uint8"
            },
            {
              "internalType": "bytes32",
              "name": "r",
              "type": "bytes32"
            },
            {
              "internalType": "bytes32",
              "name": "s",
              "type": "bytes32"
            }
          ],
          "internalType": "struct Signatures.Signature",
          "name": "signature",
          "type": "tuple"
        }
      ],
      "name": "mintWithVault",
      "outputs": [
        {
          "internalType": "uint256",
          "name": "",
          "type": "uint256"
        }
      ],
      "stateMutability": "nonpayable",
      "type": "function"
    },
    {
      "inputs": [],
      "name": "name",
      "outputs": [
        {
          "internalType": "string",
          "name": "",
          "type": "string"
        }
      ],
      "stateMutability": "view",
      "type": "function"
    },
    {
      "inputs": [
        {
          "internalType": "uint256",
          "name": "",
          "type": "uint256"
        }
      ],
      "name": "optionParams",
      "outputs": [
        {
          "internalType": "address",
          "name": "writer",
          "type": "address"
        },
        {
          "internalType": "address",
          "name": "tokenAddress",
          "type": "address"
        },
        {
          "internalType": "uint256",
          "name": "tokenId",
          "type": "uint256"
        },
        {
          "internalType": "address",
          "name": "vaultAddress",
          "type": "address"
        },
        {
          "internalType": "uint256",
          "name": "strike",
          "type": "uint256"
        },
        {
          "internalType": "uint256",
          "name": "expiration",
          "type": "uint256"
        },
        {
          "internalType": "uint256",
          "name": "bid",
          "type": "uint256"
        },
        {
          "internalType": "address",
          "name": "highBidder",
          "type": "address"
        },
        {
          "internalType": "bool",
          "name": "settled",
          "type": "bool"
        }
      ],
      "stateMutability": "view",
      "type": "function"
    },
    {
      "inputs": [
        {
          "internalType": "uint256",
          "name": "tokenId",
          "type": "uint256"
        }
      ],
      "name": "ownerOf",
      "outputs": [
        {
          "internalType": "address",
          "name": "",
          "type": "address"
        }
      ],
      "stateMutability": "view",
      "type": "function"
    },
    {
      "inputs": [
        {
          "internalType": "uint256",
          "name": "optionId",
          "type": "uint256"
        },
        {
          "internalType": "bool",
          "name": "returnNft",
          "type": "bool"
        }
      ],
      "name": "reclaimAsset",
      "outputs": [],
      "stateMutability": "nonpayable",
      "type": "function"
    },
    {
      "inputs": [
        {
          "internalType": "address",
          "name": "from",
          "type": "address"
        },
        {
          "internalType": "address",
          "name": "to",
          "type": "address"
        },
        {
          "internalType": "uint256",
          "name": "tokenId",
          "type": "uint256"
        }
      ],
      "name": "safeTransferFrom",
      "outputs": [],
      "stateMutability": "nonpayable",
      "type": "function"
    },
    {
      "inputs": [
        {
          "internalType": "address",
          "name": "from",
          "type": "address"
        },
        {
          "internalType": "address",
          "name": "to",
          "type": "address"
        },
        {
          "internalType": "uint256",
          "name": "tokenId",
          "type": "uint256"
        },
        {
          "internalType": "bytes",
          "name": "_data",
          "type": "bytes"
        }
      ],
      "name": "safeTransferFrom",
      "outputs": [],
      "stateMutability": "nonpayable",
      "type": "function"
    },
    {
      "inputs": [
        {
          "internalType": "address",
          "name": "operator",
          "type": "address"
        },
        {
          "internalType": "bool",
          "name": "approved",
          "type": "bool"
        }
      ],
      "name": "setApprovalForAll",
      "outputs": [],
      "stateMutability": "nonpayable",
      "type": "function"
    },
    {
      "inputs": [
        {
          "internalType": "uint256",
          "name": "optionId",
          "type": "uint256"
        },
        {
          "internalType": "bool",
          "name": "returnNft",
          "type": "bool"
        }
      ],
      "name": "settleOption",
      "outputs": [],
      "stateMutability": "nonpayable",
      "type": "function"
    },
    {
      "inputs": [
        {
          "internalType": "bytes4",
          "name": "interfaceId",
          "type": "bytes4"
        }
      ],
      "name": "supportsInterface",
      "outputs": [
        {
          "internalType": "bool",
          "name": "",
          "type": "bool"
        }
      ],
      "stateMutability": "view",
      "type": "function"
    },
    {
      "inputs": [],
      "name": "symbol",
      "outputs": [
        {
          "internalType": "string",
          "name": "",
          "type": "string"
        }
      ],
      "stateMutability": "view",
      "type": "function"
    },
    {
      "inputs": [
        {
          "internalType": "uint256",
          "name": "tokenId",
          "type": "uint256"
        }
      ],
      "name": "tokenURI",
      "outputs": [
        {
          "internalType": "string",
          "name": "",
          "type": "string"
        }
      ],
      "stateMutability": "view",
      "type": "function"
    },
    {
      "inputs": [
        {
          "internalType": "address",
          "name": "from",
          "type": "address"
        },
        {
          "internalType": "address",
          "name": "to",
          "type": "address"
        },
        {
          "internalType": "uint256",
          "name": "tokenId",
          "type": "uint256"
        }
      ],
      "name": "transferFrom",
      "outputs": [],
      "stateMutability": "nonpayable",
      "type": "function"
    }
  ],
  "bytecode": {
    "object": "0x60806040523480156200001157600080fd5b50604080518082018252600a81526921b0b63627b83a34b7b760b11b60208083019182528351808501909452600484526310d0531360e21b908401528151919291620000609160009162000084565b5080516200007690600190602084019062000084565b505060016006555062000167565b82805462000092906200012a565b90600052602060002090601f016020900481019282620000b6576000855562000101565b82601f10620000d157805160ff191683800117855562000101565b8280016001018555821562000101579182015b8281111562000101578251825591602001919060010190620000e4565b506200010f92915062000113565b5090565b5b808211156200010f576000815560010162000114565b600181811c908216806200013f57607f821691505b602082108114156200016157634e487b7160e01b600052602260045260246000fd5b50919050565b6138fb80620001776000396000f3fe60806040526004361061014b5760003560e01c80638a633a0c116100b6578063c87b56dd1161006f578063c87b56dd146103e0578063cd52d15114610400578063ce57ee64146104cc578063e6c4070e146104ec578063e985e9c51461050c578063fa9644791461052c57600080fd5b80638a633a0c1461031257806390f0252a1461033257806395d89b411461036b578063a22cb46514610380578063b88d4fde146103a0578063c0c53b8b146103c057600080fd5b806342842e0e1161010857806342842e0e1461025f57806342966c681461027f578063454a2ab31461029f5780636352211e146102b257806370a08231146102d25780637fb6afd4146102f257600080fd5b806301ffc9a71461015057806306fdde0314610185578063081812fc146101a7578063095ea7b3146101df57806323b872dd146102015780633c7cfe3414610221575b600080fd5b34801561015c57600080fd5b5061017061016b366004612ca0565b61054c565b60405190151581526020015b60405180910390f35b34801561019157600080fd5b5061019a61059e565b60405161017c9190612d1c565b3480156101b357600080fd5b506101c76101c2366004612d2f565b610630565b6040516001600160a01b03909116815260200161017c565b3480156101eb57600080fd5b506101ff6101fa366004612d5d565b6106ca565b005b34801561020d57600080fd5b506101ff61021c366004612d89565b6107e0565b34801561022d57600080fd5b5061025161023c366004612d2f565b6000908152600b602052604090206006015490565b60405190815260200161017c565b34801561026b57600080fd5b506101ff61027a366004612d89565b610812565b34801561028b57600080fd5b506101ff61029a366004612d2f565b61082d565b6101ff6102ad366004612d2f565b6108a7565b3480156102be57600080fd5b506101c76102cd366004612d2f565b610cf8565b3480156102de57600080fd5b506102516102ed366004612dca565b610d6f565b3480156102fe57600080fd5b506101ff61030d366004612df5565b610df6565b34801561031e57600080fd5b506101ff61032d366004612df5565b611328565b34801561033e57600080fd5b506101c761034d366004612d2f565b6000908152600b60205260409020600701546001600160a01b031690565b34801561037757600080fd5b5061019a6116db565b34801561038c57600080fd5b506101ff61039b366004612e25565b6116ea565b3480156103ac57600080fd5b506101ff6103bb366004612e9a565b6116f9565b3480156103cc57600080fd5b506101ff6103db366004612f5e565b611731565b3480156103ec57600080fd5b5061019a6103fb366004612d2f565b6117a9565b34801561040c57600080fd5b5061047961041b366004612d2f565b600b60205260009081526040902080546001820154600283015460038401546004850154600586015460068701546007909701546001600160a01b03968716979587169694959385169492939192811690600160a01b900460ff1689565b604080516001600160a01b039a8b168152988a1660208a01528801969096529387166060870152608086019290925260a085015260c084015290921660e08201529015156101008201526101200161017c565b3480156104d857600080fd5b506102516104e736600461302b565b611909565b3480156104f857600080fd5b50600c546101c7906001600160a01b031681565b34801561051857600080fd5b50610170610527366004613074565b611973565b34801561053857600080fd5b506102516105473660046130a2565b6119a1565b60006001600160e01b031982166380ac58cd60e01b148061057d57506001600160e01b03198216635b5e139f60e01b145b8061059857506301ffc9a760e01b6001600160e01b03198316145b92915050565b6060600080546105ad906130f6565b80601f01602080910402602001604051908101604052809291908181526020018280546105d9906130f6565b80156106265780601f106105fb57610100808354040283529160200191610626565b820191906000526020600020905b81548152906001019060200180831161060957829003601f168201915b5050505050905090565b6000818152600260205260408120546001600160a01b03166106ae5760405162461bcd60e51b815260206004820152602c60248201527f4552433732313a20617070726f76656420717565727920666f72206e6f6e657860448201526b34b9ba32b73a103a37b5b2b760a11b60648201526084015b60405180910390fd5b506000908152600460205260409020546001600160a01b031690565b60006106d582610cf8565b9050806001600160a01b0316836001600160a01b031614156107435760405162461bcd60e51b815260206004820152602160248201527f4552433732313a20617070726f76616c20746f2063757272656e74206f776e656044820152603960f91b60648201526084016106a5565b336001600160a01b038216148061075f575061075f8133611973565b6107d15760405162461bcd60e51b815260206004820152603860248201527f4552433732313a20617070726f76652063616c6c6572206973206e6f74206f7760448201527f6e6572206e6f7220617070726f76656420666f7220616c6c000000000000000060648201526084016106a5565b6107db8383612103565b505050565b6107eb335b82612171565b6108075760405162461bcd60e51b81526004016106a590613131565b6107db838383612247565b6107db838383604051806020016040528060008152506116f9565b610836336107e5565b61089b5760405162461bcd60e51b815260206004820152603060248201527f4552433732314275726e61626c653a2063616c6c6572206973206e6f74206f7760448201526f1b995c881b9bdc88185c1c1c9bdd995960821b60648201526084016106a5565b6108a4816123e3565b50565b600260065414156108ca5760405162461bcd60e51b81526004016106a590613182565b600260068181556000838152600b602090815260409182902082516101208101845281546001600160a01b0390811682526001830154811693820193909352948101549285019290925260038201548116606085015260048201546080850152600582015460a085018190529282015460c085015260079091015490811660e0840152600160a01b900460ff16151561010083015282919042106109c15760405162461bcd60e51b815260206004820152602860248201527f62696464696e67456e61626c6564202d2d206f7074696f6e20616c726561647960448201526708195e1c1a5c995960c21b60648201526084016106a5565b42620151808260a001516109d591906131cf565b1115610a385760405162461bcd60e51b815260206004820152602c60248201527f62696464696e67456e61626c6564202d2d2062696464696e672073746172747360448201526b206f6e206c6173742064617960a01b60648201526084016106a5565b61010081015115610ab15760405162461bcd60e51b815260206004820152603f60248201527f62696464696e67456e61626c6564202d2d20746865206f776e6572206861732060448201527f616c726561647920736574746c6564207468652063616c6c206f7074696f6e0060648201526084016106a5565b6000838152600b6020526040902060068101543491908211610b255760405162461bcd60e51b815260206004820152602760248201527f626964202d20626964206973206c6f776572207468616e207468652063757272604482015266195b9d08189a5960ca1b60648201526084016106a5565b80600401548211610b895760405162461bcd60e51b815260206004820152602860248201527f626964202d20626964206973206c6f776572207468616e2074686520737472696044820152676b6520707269636560c01b60648201526084016106a5565b600781015460068201546040516000926001600160a01b031691908381818185875af1925050503d8060008114610bdc576040519150601f19603f3d011682016040523d82523d6000602084013e610be1565b606091505b5050905080610c295760405162461bcd60e51b81526020600482015260146024820152732330b4b632b2103a379039b2b7321022ba3432b960611b60448201526064016106a5565b600682018390556007820180546001600160a01b031916339081179091556003830154604051635803b4c560e01b815260048101929092526001600160a01b031690635803b4c590602401600060405180830381600087803b158015610c8e57600080fd5b505af1158015610ca2573d6000803e3d6000fd5b5050604080518981526020810187905233918101919091527ffd7cfbd219ff1e7365436fb2930a026fa6704a1e0bb39ad104f0485c8c01124d925060600190505b60405180910390a15050600160065550505050565b6000818152600260205260408120546001600160a01b0316806105985760405162461bcd60e51b815260206004820152602960248201527f4552433732313a206f776e657220717565727920666f72206e6f6e657869737460448201526832b73a103a37b5b2b760b91b60648201526084016106a5565b60006001600160a01b038216610dda5760405162461bcd60e51b815260206004820152602a60248201527f4552433732313a2062616c616e636520717565727920666f7220746865207a65604482015269726f206164647265737360b01b60648201526084016106a5565b506001600160a01b031660009081526003602052604090205490565b60026006541415610e195760405162461bcd60e51b81526004016106a590613182565b60026006556000828152600b6020526040902080546001600160a01b03163314610eab5760405162461bcd60e51b815260206004820152603960248201527f7265636c61696d4173736574202d2d2061737365742063616e206f6e6c79206260448201527f65207265636c61696d656420627920746865207772697465720000000000000060648201526084016106a5565b6007810154600160a01b900460ff1615610f235760405162461bcd60e51b815260206004820152603360248201527f7265636c61696d4173736574202d2d20746865206f7074696f6e2068617320616044820152721b1c9958591e481899595b881cd95d1d1b1959606a1b60648201526084016106a5565b610f2c83610cf8565b81546001600160a01b039081169116146110515760078101546001600160a01b031615610fd85760405162461bcd60e51b815260206004820152604e60248201527f7265636c61696d4173736574202d2d2063616e6e6f74207265636c61696d206160448201527f20736f6c6420617373657420696620746865206f7074696f6e206973206e6f7460648201526d103bb934ba32b916b7bbb732b21760911b608482015260a4016106a5565b428160050154106110515760405162461bcd60e51b815260206004820152603b60248201527f7265636c61696d4173736574202d2d20746865206f7074696f6e206d7573742060448201527f6578706972656420756e6c657373207772697465722d6f776e6564000000000060648201526084016106a5565b428160050154116110cb5760078101546001600160a01b0316156110cb5760405162461bcd60e51b815260206004820152602b60248201527f7265636c61696d4173736574202d2d2063616e6e6f74207265636c61696d206160448201526a081cdbdb1908185cdcd95d60aa1b60648201526084016106a5565b60078101546001600160a01b0316156111e257600781015460068201546040516000926001600160a01b031691908381818185875af1925050503d8060008114611131576040519150601f19603f3d011682016040523d82523d6000602084013e611136565b606091505b505090508061117e5760405162461bcd60e51b81526020600482015260146024820152732330b4b632b2103a379039b2b7321022ba3432b960611b60448201526064016106a5565b60038201548254604051635803b4c560e01b81526001600160a01b039182166004820152911690635803b4c590602401600060405180830381600087803b1580156111c857600080fd5b505af11580156111dc573d6000803e3d6000fd5b50505050505b81156112c657428160050154111561125b576003810154815460405163734d30c360e11b81526001600160a01b03918216600482015291169063e69a618690602401600060405180830381600087803b15801561123e57600080fd5b505af1158015611252573d6000803e3d6000fd5b505050506112c6565b8060030160009054906101000a90046001600160a01b03166001600160a01b031663c7eecb336040518163ffffffff1660e01b8152600401600060405180830381600087803b1580156112ad57600080fd5b505af11580156112c1573d6000803e3d6000fd5b505050505b6112cf836123e3565b60078101805460ff60a01b1916600160a01b1790556040517f25e8e40c25ace4a8f2c1b60bf57942cbf302c4bec6fdcac33825e59005a9d1be906113169085815260200190565b60405180910390a15050600160065550565b6002600654141561134b5760405162461bcd60e51b81526004016106a590613182565b60026006556000828152600b6020526040902060078101546001600160a01b03166113c45760405162461bcd60e51b8152602060048201526024808201527f736574746c65202d2d20626964206d75737420626520776f6e20627920736f6d604482015263656f6e6560e01b60648201526084016106a5565b428160050154106114175760405162461bcd60e51b815260206004820181905260248201527f736574746c65202d2d206f7074696f6e206d757374206265206578706972656460448201526064016106a5565b6007810154600160a01b900460ff16156114885760405162461bcd60e51b815260206004820152602c60248201527f736574746c65202d2d207468652063616c6c2063616e6e6f7420616c7265616460448201526b1e481899481cd95d1d1b195960a21b60648201526084016106a5565b60008160040154826006015461149e91906131cf565b905060006114ab85610cf8565b6001600160a01b03168260405160006040518083038185875af1925050503d80600081146114f5576040519150601f19603f3d011682016040523d82523d6000602084013e6114fa565b606091505b50509050806115595760405162461bcd60e51b815260206004820152602560248201527f4661696c656420746f2073656e6420457468657220746f206f7074696f6e206860448201526437b63232b960d91b60648201526084016106a5565b825460048401546040516000926001600160a01b031691908381818185875af1925050503d80600081146115a9576040519150601f19603f3d011682016040523d82523d6000602084013e6115ae565b606091505b505090508061160d5760405162461bcd60e51b815260206004820152602560248201527f4661696c656420746f2073656e6420457468657220746f206f7074696f6e20776044820152643934ba32b960d91b60648201526084016106a5565b841561167e578360030160009054906101000a90046001600160a01b03166001600160a01b031663c7eecb336040518163ffffffff1660e01b8152600401600060405180830381600087803b15801561166557600080fd5b505af1158015611679573d6000803e3d6000fd5b505050505b611687866123e3565b6000868152600b602052604090819020600701805460ff60a01b1916600160a01b179055517f25e8e40c25ace4a8f2c1b60bf57942cbf302c4bec6fdcac33825e59005a9d1be90610ce39088815260200190565b6060600180546105ad906130f6565b6116f533838361247e565b5050565b6117033383612171565b61171f5760405162461bcd60e51b81526004016106a590613131565b61172b8484848461254d565b50505050565b600061173d6001612580565b90508015611755576007805461ff0019166101001790555b600a80546001600160a01b038087166001600160a01b03199283161790925560098054858416908316179055600c805492861692909116919091179055801561172b576007805461ff001916905550505050565b60606117b3612c63565b60405180610120016040528060fd815260200161376160fd913981526000838152600b60205260409020600101546117f3906001600160a01b031661260a565b816001602002018190525060405180606001604052806028815260200161389e602891396040808301919091526000848152600b602052206002015461183890612751565b60608201908152604080518082018252600d81526c1e17ba32bc3a1f1e17b9bb339f60991b602080830191909152608085018290528451818601518487015195519451600096611890969395929490939291016131fc565b604051602081830303815290604052905060006118dd6118af86612751565b6118b88461284f565b6040516020016118c9929190613267565b60405160208183030381529060405261284f565b9050806040516020016118f0919061334c565b60408051601f1981840301815291905295945050505050565b600a5460408051635b67d9ab60e01b815290516000926001600160a01b031691635b67d9ab916004808301928692919082900301818387803b15801561194e57600080fd5b505af1158015611962573d6000803e3d6000fd5b50505050600090505b949350505050565b6001600160a01b03918216600090815260056020908152604080832093909416825291909152205460ff1690565b600a5460408051635b67d9ab60e01b815290516000926001600160a01b031691635b67d9ab916004808301928692919082900301818387803b1580156119e657600080fd5b505af11580156119fa573d6000803e3d6000fd5b50506040516331a9108f60e11b815260048101889052600092506001600160a01b0389169150636352211e90602401602060405180830381865afa158015611a46573d6000803e3d6000fd5b505050506040513d601f19601f82011682018060405250810190611a6a9190613391565b600c549091506001600160a01b03888116911614611ae15760405162461bcd60e51b815260206004820152602e60248201527f6d696e74202d2d20746f6b656e206d757374206265206f6e207468652070726f60448201526d1a9958dd08185b1b1bdddb1a5cdd60921b60648201526084016106a5565b336001600160a01b0382161480611b63575060405163e985e9c560e01b81526001600160a01b03828116600483015233602483015288169063e985e9c590604401602060405180830381865afa158015611b3f573d6000803e3d6000fd5b505050506040513d601f19601f82011682018060405250810190611b6391906133ae565b611bc65760405162461bcd60e51b815260206004820152602e60248201527f6d696e74202d2d2063616c6c6572206d75737420626520746f6b656e206f776e60448201526d32b91037b91037b832b930ba37b960911b60648201526084016106a5565b60405163e985e9c560e01b81526001600160a01b03828116600483015230602483015288169063e985e9c590604401602060405180830381865afa158015611c12573d6000803e3d6000fd5b505050506040513d601f19601f82011682018060405250810190611c3691906133ae565b611c935760405162461bcd60e51b815260206004820152602860248201527f6d696e74202d2d20486f6f6b436f766572656443616c6c206d7573742062652060448201526737b832b930ba37b960c11b60648201526084016106a5565b611ca042620151806133cb565b8411611d225760405162461bcd60e51b8152602060048201526044602482018190527f6d696e74202d2d205f65787069726174696f6e54696d65206d75737420626520908201527f6d6f7265207468616e206f6e652064617920696e20746865206675747572652060648201526374696d6560e01b608482015260a4016106a5565b611d30600880546001019055565b60095460405163d99d13f560e01b81526001600160a01b03898116600483015260248201899052600092169063d99d13f590604401602060405180830381865afa158015611d82573d6000803e3d6000fd5b505050506040513d601f19601f82011682018060405250810190611da69190613391565b90506001600160a01b038116611e305760095460405163d79db53160e01b81526001600160a01b038a81166004830152602482018a90529091169063d79db531906044016020604051808303816000875af1158015611e09573d6000803e3d6000fd5b505050506040513d601f19601f82011682018060405250810190611e2d9190613391565b90505b6040805160a0810182526001600160a01b0380851682523060208301528a169181019190915260608101889052608081018690526000611e6f60085490565b9050604051806101200160405280856001600160a01b031681526020018b6001600160a01b031681526020018a8152602001846001600160a01b031681526020018981526020018881526020016000815260200160006001600160a01b0316815260200160001515815250600b600083815260200190815260200160002060008201518160000160006101000a8154816001600160a01b0302191690836001600160a01b0316021790555060208201518160010160006101000a8154816001600160a01b0302191690836001600160a01b031602179055506040820151816002015560608201518160030160006101000a8154816001600160a01b0302191690836001600160a01b031602179055506080820151816004015560a0820151816005015560c0820151816006015560e08201518160070160006101000a8154816001600160a01b0302191690836001600160a01b031602179055506101008201518160070160146101000a81548160ff021916908315150217905550905050896001600160a01b031663b88d4fde85858c868b6040516020016120129291906133e3565b6040516020818303038152906040526040518563ffffffff1660e01b81526004016120409493929190613473565b600060405180830381600087803b15801561205a57600080fd5b505af115801561206e573d6000803e3d6000fd5b5050505061207c84826129a3565b336001600160a01b03851614612096576120963382612103565b604080516001600160a01b0380871682528c1660208201529081018a9052606081018290526080810189905260a081018890527f1942da09a08718d22494497e4f9610b26572dd3de279f0793d826d170c5305989060c00160405180910390a19998505050505050505050565b600081815260046020526040902080546001600160a01b0319166001600160a01b038416908117909155819061213882610cf8565b6001600160a01b03167f8c5be1e5ebec7d5bd14f71427d1e84f3dd0314c0f7b2291e5b200ac8c7c3b92560405160405180910390a45050565b6000818152600260205260408120546001600160a01b03166121ea5760405162461bcd60e51b815260206004820152602c60248201527f4552433732313a206f70657261746f7220717565727920666f72206e6f6e657860448201526b34b9ba32b73a103a37b5b2b760a11b60648201526084016106a5565b60006121f583610cf8565b9050806001600160a01b0316846001600160a01b0316148061221c575061221c8185611973565b8061196b5750836001600160a01b031661223584610630565b6001600160a01b031614949350505050565b826001600160a01b031661225a82610cf8565b6001600160a01b0316146122be5760405162461bcd60e51b815260206004820152602560248201527f4552433732313a207472616e736665722066726f6d20696e636f72726563742060448201526437bbb732b960d91b60648201526084016106a5565b6001600160a01b0382166123205760405162461bcd60e51b8152602060048201526024808201527f4552433732313a207472616e7366657220746f20746865207a65726f206164646044820152637265737360e01b60648201526084016106a5565b61232b600082612103565b6001600160a01b03831660009081526003602052604081208054600192906123549084906131cf565b90915550506001600160a01b03821660009081526003602052604081208054600192906123829084906133cb565b909155505060008181526002602052604080822080546001600160a01b0319166001600160a01b0386811691821790925591518493918716917fddf252ad1be2c89b69c2b068fc378daa952ba7f163c4a11628f55a4df523b3ef91a4505050565b60006123ee82610cf8565b90506123fb600083612103565b6001600160a01b03811660009081526003602052604081208054600192906124249084906131cf565b909155505060008281526002602052604080822080546001600160a01b0319169055518391906001600160a01b038416907fddf252ad1be2c89b69c2b068fc378daa952ba7f163c4a11628f55a4df523b3ef908390a45050565b816001600160a01b0316836001600160a01b031614156124e05760405162461bcd60e51b815260206004820152601960248201527f4552433732313a20617070726f766520746f2063616c6c65720000000000000060448201526064016106a5565b6001600160a01b03838116600081815260056020908152604080832094871680845294825291829020805460ff191686151590811790915591519182527f17307eab39ab6107e8899845ad3d59bd9653f200f220920489ca2b5937696c31910160405180910390a3505050565b612558848484612247565b612564848484846129bd565b61172b5760405162461bcd60e51b81526004016106a5906134b0565b600754600090610100900460ff16156125c9578160ff1660011480156125a55750303b155b6125c15760405162461bcd60e51b81526004016106a590613502565b506000919050565b60075460ff8084169116106125f05760405162461bcd60e51b81526004016106a590613502565b506007805460ff191660ff92909216919091179055600190565b60408051602880825260608281019093526000919060208201818036833701905050905060005b601481101561274a5760006126478260136131cf565b612652906008613550565b61265d906002613653565b612670906001600160a01b038716613675565b60f81b9050600060108260f81c6126879190613689565b60f81b905060008160f81c601061269e91906136ab565b8360f81c6126ac91906136cc565b60f81b90506126ba82612ab8565b856126c6866002613550565b815181106126d6576126d66131e6565b60200101906001600160f81b031916908160001a9053506126f681612ab8565b85612702866002613550565b61270d9060016133cb565b8151811061271d5761271d6131e6565b60200101906001600160f81b031916908160001a9053505050508080612742906136ef565b915050612631565b5092915050565b6060816127755750506040805180820190915260018152600360fc1b602082015290565b8160005b811561279f5780612789816136ef565b91506127989050600a83613675565b9150612779565b60008167ffffffffffffffff8111156127ba576127ba612e53565b6040519080825280601f01601f1916602001820160405280156127e4576020820181803683370190505b5090505b841561196b576127f96001836131cf565b9150612806600a8661370a565b6128119060306133cb565b60f81b818381518110612826576128266131e6565b60200101906001600160f81b031916908160001a905350612848600a86613675565b94506127e8565b606081516000141561286f57505060408051602081019091526000815290565b600060405180606001604052806040815260200161385e604091399050600060038451600261289e91906133cb565b6128a89190613675565b6128b3906004613550565b67ffffffffffffffff8111156128cb576128cb612e53565b6040519080825280601f01601f1916602001820160405280156128f5576020820181803683370190505b509050600182016020820185865187015b80821015612961576003820191508151603f8160121c168501518453600184019350603f81600c1c168501518453600184019350603f8160061c168501518453600184019350603f8116850151845350600183019250612906565b505060038651066001811461297d576002811461299057612998565b603d6001830353603d6002830353612998565b603d60018303535b509195945050505050565b6116f5828260405180602001604052806000815250612aee565b60006001600160a01b0384163b15612ab057604051630a85bd0160e11b81526001600160a01b0385169063150b7a0290612a01903390899088908890600401613473565b6020604051808303816000875af1925050508015612a3c575060408051601f3d908101601f19168201909252612a399181019061371e565b60015b612a96573d808015612a6a576040519150601f19603f3d011682016040523d82523d6000602084013e612a6f565b606091505b508051612a8e5760405162461bcd60e51b81526004016106a5906134b0565b805181602001fd5b6001600160e01b031916630a85bd0160e11b14905061196b565b50600161196b565b6000600a60f883901c1015612adf57612ad660f883901c603061373b565b60f81b92915050565b612ad660f883901c605761373b565b612af88383612b21565b612b0560008484846129bd565b6107db5760405162461bcd60e51b81526004016106a5906134b0565b6001600160a01b038216612b775760405162461bcd60e51b815260206004820181905260248201527f4552433732313a206d696e7420746f20746865207a65726f206164647265737360448201526064016106a5565b6000818152600260205260409020546001600160a01b031615612bdc5760405162461bcd60e51b815260206004820152601c60248201527f4552433732313a20746f6b656e20616c7265616479206d696e7465640000000060448201526064016106a5565b6001600160a01b0382166000908152600360205260408120805460019290612c059084906133cb565b909155505060008181526002602052604080822080546001600160a01b0319166001600160a01b03861690811790915590518392907fddf252ad1be2c89b69c2b068fc378daa952ba7f163c4a11628f55a4df523b3ef908290a45050565b6040518060a001604052806005905b6060815260200190600190039081612c725790505090565b6001600160e01b0319811681146108a457600080fd5b600060208284031215612cb257600080fd5b8135612cbd81612c8a565b9392505050565b60005b83811015612cdf578181015183820152602001612cc7565b8381111561172b5750506000910152565b60008151808452612d08816020860160208601612cc4565b601f01601f19169290920160200192915050565b602081526000612cbd6020830184612cf0565b600060208284031215612d4157600080fd5b5035919050565b6001600160a01b03811681146108a457600080fd5b60008060408385031215612d7057600080fd5b8235612d7b81612d48565b946020939093013593505050565b600080600060608486031215612d9e57600080fd5b8335612da981612d48565b92506020840135612db981612d48565b929592945050506040919091013590565b600060208284031215612ddc57600080fd5b8135612cbd81612d48565b80151581146108a457600080fd5b60008060408385031215612e0857600080fd5b823591506020830135612e1a81612de7565b809150509250929050565b60008060408385031215612e3857600080fd5b8235612e4381612d48565b91506020830135612e1a81612de7565b634e487b7160e01b600052604160045260246000fd5b604051601f8201601f1916810167ffffffffffffffff81118282101715612e9257612e92612e53565b604052919050565b60008060008060808587031215612eb057600080fd5b8435612ebb81612d48565b9350602085810135612ecc81612d48565b935060408601359250606086013567ffffffffffffffff80821115612ef057600080fd5b818801915088601f830112612f0457600080fd5b813581811115612f1657612f16612e53565b612f28601f8201601f19168501612e69565b91508082528984828501011115612f3e57600080fd5b808484018584013760008482840101525080935050505092959194509250565b600080600060608486031215612f7357600080fd5b8335612f7e81612d48565b92506020840135612f8e81612d48565b91506040840135612f9e81612d48565b809150509250925092565b600060808284031215612fbb57600080fd5b6040516080810181811067ffffffffffffffff82111715612fde57612fde612e53565b604052905080823560028110612ff357600080fd5b8152602083013560ff8116811461300957600080fd5b8060208301525060408301356040820152606083013560608201525092915050565b60008060008060e0858703121561304157600080fd5b843561304c81612d48565b935060208501359250604085013591506130698660608701612fa9565b905092959194509250565b6000806040838503121561308757600080fd5b823561309281612d48565b91506020830135612e1a81612d48565b600080600080600061010086880312156130bb57600080fd5b85356130c681612d48565b94506020860135935060408601359250606086013591506130ea8760808801612fa9565b90509295509295909350565b600181811c9082168061310a57607f821691505b6020821081141561312b57634e487b7160e01b600052602260045260246000fd5b50919050565b60208082526031908201527f4552433732313a207472616e736665722063616c6c6572206973206e6f74206f6040820152701ddb995c881b9bdc88185c1c1c9bdd9959607a1b606082015260800190565b6020808252601f908201527f5265656e7472616e637947756172643a207265656e7472616e742063616c6c00604082015260600190565b634e487b7160e01b600052601160045260246000fd5b6000828210156131e1576131e16131b9565b500390565b634e487b7160e01b600052603260045260246000fd5b6000865161320e818460208b01612cc4565b865190830190613222818360208b01612cc4565b8651910190613235818360208a01612cc4565b8551910190613248818360208901612cc4565b845191019061325b818360208801612cc4565b01979650505050505050565b721ec89b985b59488e880893dc1d1a5bdb881259606a1b81528251600090613296816013850160208801612cc4565b7f222c20226465736372697074696f6e223a2022486f6f6b20706f7765727320666013918401918201527f756c6c79206f6e2d636861696e20636f76657265642063616c6c206f7074696f60338201527f6e73222c2022696d616765223a2022646174613a696d6167652f7376672b786d6053820152681b0ed8985cd94d8d0b60ba1b6073820152835161333181607c840160208801612cc4565b61227d60f01b607c9290910191820152607e01949350505050565b7f646174613a6170706c69636174696f6e2f6a736f6e3b6261736536342c00000081526000825161338481601d850160208701612cc4565b91909101601d0192915050565b6000602082840312156133a357600080fd5b8151612cbd81612d48565b6000602082840312156133c057600080fd5b8151612cbd81612de7565b600082198211156133de576133de6131b9565b500190565b82516001600160a01b03908116825260208085015182169083015260408085015190911690820152606080840151908201526080808401519082015281516101208201906002811061344557634e487b7160e01b600052602160045260246000fd5b60a0830152602083015160ff1660c0830152604083015160e083015260609092015161010090910152919050565b6001600160a01b03858116825284166020820152604081018390526080606082018190526000906134a690830184612cf0565b9695505050505050565b60208082526032908201527f4552433732313a207472616e7366657220746f206e6f6e20455243373231526560408201527131b2b4bb32b91034b6b83632b6b2b73a32b960711b606082015260800190565b6020808252602e908201527f496e697469616c697a61626c653a20636f6e747261637420697320616c72656160408201526d191e481a5b9a5d1a585b1a5e995960921b606082015260800190565b600081600019048311821515161561356a5761356a6131b9565b500290565b600181815b808511156135aa578160001904821115613590576135906131b9565b8085161561359d57918102915b93841c9390800290613574565b509250929050565b6000826135c157506001610598565b816135ce57506000610598565b81600181146135e457600281146135ee5761360a565b6001915050610598565b60ff8411156135ff576135ff6131b9565b50506001821b610598565b5060208310610133831016604e8410600b841016171561362d575081810a610598565b613637838361356f565b806000190482111561364b5761364b6131b9565b029392505050565b6000612cbd83836135b2565b634e487b7160e01b600052601260045260246000fd5b6000826136845761368461365f565b500490565b600060ff83168061369c5761369c61365f565b8060ff84160491505092915050565b600060ff821660ff84168160ff048111821515161561364b5761364b6131b9565b600060ff821660ff8416808210156136e6576136e66131b9565b90039392505050565b6000600019821415613703576137036131b9565b5060010190565b6000826137195761371961365f565b500690565b60006020828403121561373057600080fd5b8151612cbd81612c8a565b600060ff821660ff84168060ff03821115613758576137586131b9565b01939250505056fe3c73766720786d6c6e733d22687474703a2f2f7777772e77332e6f72672f323030302f73766722207072657365727665417370656374526174696f3d22784d696e594d696e206d656574222076696577426f783d223020302033353020333530223e3c7374796c653e2e62617365207b2066696c6c3a2077686974653b20666f6e742d66616d696c793a2073657269663b20666f6e742d73697a653a20313470783b207d3c2f7374796c653e3c726563742077696474683d223130302522206865696768743d2231303025222066696c6c3d22626c61636b22202f3e3c7465787420783d2231302220793d2232302220636c6173733d2262617365223e4142434445464748494a4b4c4d4e4f505152535455565758595a6162636465666768696a6b6c6d6e6f707172737475767778797a303132333435363738392b2f3c2f746578743e3c7465787420783d2231302220793d2234302220636c6173733d2262617365223ea2646970667358221220e021dc02ba6aa3a7dae8ae4bfdf4e8fc6c3a68065863e64983d27c27754fac2464736f6c634300080a0033",
    "linkReferences": {}
  }
}