{
  "abi": [
    {
      "inputs": [],
      "stateMutability": "nonpayable",
      "type": "constructor"
    },
    {
      "anonymous": false,
      "inputs": [
        {
          "indexed": true,
          "internalType": "address",
          "name": "owner",
          "type": "address"
        },
        {
          "indexed": true,
          "internalType": "address",
          "name": "approved",
          "type": "address"
        },
        {
          "indexed": true,
          "internalType": "uint256",
          "name": "tokenId",
          "type": "uint256"
        }
      ],
      "name": "Approval",
      "type": "event"
    },
    {
      "anonymous": false,
      "inputs": [
        {
          "indexed": true,
          "internalType": "address",
          "name": "owner",
          "type": "address"
        },
        {
          "indexed": true,
          "internalType": "address",
          "name": "operator",
          "type": "address"
        },
        {
          "indexed": false,
          "internalType": "bool",
          "name": "approved",
          "type": "bool"
        }
      ],
      "name": "ApprovalForAll",
      "type": "event"
    },
    {
      "anonymous": false,
      "inputs": [
        {
          "indexed": false,
          "internalType": "uint256",
          "name": "optionId",
          "type": "uint256"
        },
        {
          "indexed": false,
          "internalType": "uint256",
          "name": "bidAmount",
          "type": "uint256"
        },
        {
          "indexed": false,
          "internalType": "address",
          "name": "bidder",
          "type": "address"
        }
      ],
      "name": "Bid",
      "type": "event"
    },
    {
      "anonymous": false,
      "inputs": [
        {
          "indexed": false,
          "internalType": "address",
          "name": "writer",
          "type": "address"
        },
        {
          "indexed": false,
          "internalType": "address",
          "name": "tokenContract",
          "type": "address"
        },
        {
          "indexed": false,
          "internalType": "uint256",
          "name": "tokenId",
          "type": "uint256"
        },
        {
          "indexed": false,
          "internalType": "uint256",
          "name": "optionId",
          "type": "uint256"
        },
        {
          "indexed": false,
          "internalType": "uint256",
          "name": "strikePrice",
          "type": "uint256"
        },
        {
          "indexed": false,
          "internalType": "uint256",
          "name": "expiration",
          "type": "uint256"
        }
      ],
      "name": "CallCreated",
      "type": "event"
    },
    {
      "anonymous": false,
      "inputs": [
        {
          "indexed": false,
          "internalType": "uint256",
          "name": "optionId",
          "type": "uint256"
        }
      ],
      "name": "CallDestroyed",
      "type": "event"
    },
    {
      "anonymous": false,
      "inputs": [
        {
          "indexed": true,
          "internalType": "address",
          "name": "from",
          "type": "address"
        },
        {
          "indexed": true,
          "internalType": "address",
          "name": "to",
          "type": "address"
        },
        {
          "indexed": true,
          "internalType": "uint256",
          "name": "tokenId",
          "type": "uint256"
        }
      ],
      "name": "Transfer",
      "type": "event"
    },
    {
      "inputs": [],
      "name": "allowedNftContract",
      "outputs": [
        {
          "internalType": "address",
          "name": "",
          "type": "address"
        }
      ],
      "stateMutability": "view",
      "type": "function"
    },
    {
      "inputs": [
        {
          "internalType": "address",
          "name": "to",
          "type": "address"
        },
        {
          "internalType": "uint256",
          "name": "tokenId",
          "type": "uint256"
        }
      ],
      "name": "approve",
      "outputs": [],
      "stateMutability": "nonpayable",
      "type": "function"
    },
    {
      "inputs": [
        {
          "internalType": "address",
          "name": "owner",
          "type": "address"
        }
      ],
      "name": "balanceOf",
      "outputs": [
        {
          "internalType": "uint256",
          "name": "",
          "type": "uint256"
        }
      ],
      "stateMutability": "view",
      "type": "function"
    },
    {
      "inputs": [
        {
          "internalType": "uint256",
          "name": "optionId",
          "type": "uint256"
        }
      ],
      "name": "bid",
      "outputs": [],
      "stateMutability": "payable",
      "type": "function"
    },
    {
      "inputs": [
        {
          "internalType": "uint256",
          "name": "tokenId",
          "type": "uint256"
        }
      ],
      "name": "burn",
      "outputs": [],
      "stateMutability": "nonpayable",
      "type": "function"
    },
    {
      "inputs": [
        {
          "internalType": "uint256",
          "name": "optionId",
          "type": "uint256"
        }
      ],
      "name": "currentBid",
      "outputs": [
        {
          "internalType": "uint256",
          "name": "",
          "type": "uint256"
        }
      ],
      "stateMutability": "view",
      "type": "function"
    },
    {
      "inputs": [
        {
          "internalType": "uint256",
          "name": "optionId",
          "type": "uint256"
        }
      ],
      "name": "currentBidder",
      "outputs": [
        {
          "internalType": "address",
          "name": "",
          "type": "address"
        }
      ],
      "stateMutability": "view",
      "type": "function"
    },
    {
      "inputs": [
        {
          "internalType": "uint256",
          "name": "tokenId",
          "type": "uint256"
        }
      ],
      "name": "getApproved",
      "outputs": [
        {
          "internalType": "address",
          "name": "",
          "type": "address"
        }
      ],
      "stateMutability": "view",
      "type": "function"
    },
    {
      "inputs": [
        {
          "internalType": "address",
          "name": "protocol",
          "type": "address"
        },
        {
          "internalType": "address",
          "name": "_allowedNftContract",
          "type": "address"
        },
        {
          "internalType": "address",
          "name": "hookVaultFactory",
          "type": "address"
        }
      ],
      "name": "initialize",
      "outputs": [],
      "stateMutability": "nonpayable",
      "type": "function"
    },
    {
      "inputs": [
        {
          "internalType": "address",
          "name": "owner",
          "type": "address"
        },
        {
          "internalType": "address",
          "name": "operator",
          "type": "address"
        }
      ],
      "name": "isApprovedForAll",
      "outputs": [
        {
          "internalType": "bool",
          "name": "",
          "type": "bool"
        }
      ],
      "stateMutability": "view",
      "type": "function"
    },
    {
      "inputs": [
        {
          "internalType": "address",
          "name": "_tokenAddress",
          "type": "address"
        },
        {
          "internalType": "uint256",
          "name": "_tokenId",
          "type": "uint256"
        },
        {
          "internalType": "uint256",
          "name": "_strikePrice",
          "type": "uint256"
        },
        {
          "internalType": "uint256",
          "name": "_expirationTime",
          "type": "uint256"
        },
        {
          "components": [
            {
              "internalType": "enum Signatures.SignatureType",
              "name": "signatureType",
              "type": "uint8"
            },
            {
              "internalType": "uint8",
              "name": "v",
              "type": "uint8"
            },
            {
              "internalType": "bytes32",
              "name": "r",
              "type": "bytes32"
            },
            {
              "internalType": "bytes32",
              "name": "s",
              "type": "bytes32"
            }
          ],
          "internalType": "struct Signatures.Signature",
          "name": "signature",
          "type": "tuple"
        }
      ],
      "name": "mint",
      "outputs": [
        {
          "internalType": "uint256",
          "name": "",
          "type": "uint256"
        }
      ],
      "stateMutability": "nonpayable",
      "type": "function"
    },
    {
      "inputs": [
        {
          "internalType": "address",
          "name": "_vaultAddress",
          "type": "address"
        },
        {
          "internalType": "uint256",
          "name": "_strikePrice",
          "type": "uint256"
        },
        {
          "internalType": "uint256",
          "name": "_expirationTime",
          "type": "uint256"
        },
        {
          "components": [
            {
              "internalType": "enum Signatures.SignatureType",
              "name": "signatureType",
              "type": "uint8"
            },
            {
              "internalType": "uint8",
              "name": "v",
              "type": "uint8"
            },
            {
              "internalType": "bytes32",
              "name": "r",
              "type": "bytes32"
            },
            {
              "internalType": "bytes32",
              "name": "s",
              "type": "bytes32"
            }
          ],
          "internalType": "struct Signatures.Signature",
          "name": "signature",
          "type": "tuple"
        }
      ],
      "name": "mintWithVault",
      "outputs": [
        {
          "internalType": "uint256",
          "name": "",
          "type": "uint256"
        }
      ],
      "stateMutability": "nonpayable",
      "type": "function"
    },
    {
      "inputs": [],
      "name": "name",
      "outputs": [
        {
          "internalType": "string",
          "name": "",
          "type": "string"
        }
      ],
      "stateMutability": "view",
      "type": "function"
    },
    {
      "inputs": [
        {
          "internalType": "uint256",
          "name": "",
          "type": "uint256"
        }
      ],
      "name": "optionParams",
      "outputs": [
        {
          "internalType": "address",
          "name": "writer",
          "type": "address"
        },
        {
          "internalType": "address",
          "name": "tokenAddress",
          "type": "address"
        },
        {
          "internalType": "uint256",
          "name": "tokenId",
          "type": "uint256"
        },
        {
          "internalType": "address",
          "name": "vaultAddress",
          "type": "address"
        },
        {
          "internalType": "uint256",
          "name": "strike",
          "type": "uint256"
        },
        {
          "internalType": "uint256",
          "name": "expiration",
          "type": "uint256"
        },
        {
          "internalType": "uint256",
          "name": "bid",
          "type": "uint256"
        },
        {
          "internalType": "address",
          "name": "highBidder",
          "type": "address"
        },
        {
          "internalType": "bool",
          "name": "settled",
          "type": "bool"
        }
      ],
      "stateMutability": "view",
      "type": "function"
    },
    {
      "inputs": [
        {
          "internalType": "uint256",
          "name": "tokenId",
          "type": "uint256"
        }
      ],
      "name": "ownerOf",
      "outputs": [
        {
          "internalType": "address",
          "name": "",
          "type": "address"
        }
      ],
      "stateMutability": "view",
      "type": "function"
    },
    {
      "inputs": [
        {
          "internalType": "uint256",
          "name": "optionId",
          "type": "uint256"
        },
        {
          "internalType": "bool",
          "name": "returnNft",
          "type": "bool"
        }
      ],
      "name": "reclaimAsset",
      "outputs": [],
      "stateMutability": "nonpayable",
      "type": "function"
    },
    {
      "inputs": [
        {
          "internalType": "address",
          "name": "from",
          "type": "address"
        },
        {
          "internalType": "address",
          "name": "to",
          "type": "address"
        },
        {
          "internalType": "uint256",
          "name": "tokenId",
          "type": "uint256"
        }
      ],
      "name": "safeTransferFrom",
      "outputs": [],
      "stateMutability": "nonpayable",
      "type": "function"
    },
    {
      "inputs": [
        {
          "internalType": "address",
          "name": "from",
          "type": "address"
        },
        {
          "internalType": "address",
          "name": "to",
          "type": "address"
        },
        {
          "internalType": "uint256",
          "name": "tokenId",
          "type": "uint256"
        },
        {
          "internalType": "bytes",
          "name": "_data",
          "type": "bytes"
        }
      ],
      "name": "safeTransferFrom",
      "outputs": [],
      "stateMutability": "nonpayable",
      "type": "function"
    },
    {
      "inputs": [
        {
          "internalType": "address",
          "name": "operator",
          "type": "address"
        },
        {
          "internalType": "bool",
          "name": "approved",
          "type": "bool"
        }
      ],
      "name": "setApprovalForAll",
      "outputs": [],
      "stateMutability": "nonpayable",
      "type": "function"
    },
    {
      "inputs": [
        {
          "internalType": "uint256",
          "name": "optionId",
          "type": "uint256"
        },
        {
          "internalType": "bool",
          "name": "returnNft",
          "type": "bool"
        }
      ],
      "name": "settleOption",
      "outputs": [],
      "stateMutability": "nonpayable",
      "type": "function"
    },
    {
      "inputs": [
        {
          "internalType": "bytes4",
          "name": "interfaceId",
          "type": "bytes4"
        }
      ],
      "name": "supportsInterface",
      "outputs": [
        {
          "internalType": "bool",
          "name": "",
          "type": "bool"
        }
      ],
      "stateMutability": "view",
      "type": "function"
    },
    {
      "inputs": [],
      "name": "symbol",
      "outputs": [
        {
          "internalType": "string",
          "name": "",
          "type": "string"
        }
      ],
      "stateMutability": "view",
      "type": "function"
    },
    {
      "inputs": [
        {
          "internalType": "uint256",
          "name": "tokenId",
          "type": "uint256"
        }
      ],
      "name": "tokenURI",
      "outputs": [
        {
          "internalType": "string",
          "name": "",
          "type": "string"
        }
      ],
      "stateMutability": "view",
      "type": "function"
    },
    {
      "inputs": [
        {
          "internalType": "address",
          "name": "from",
          "type": "address"
        },
        {
          "internalType": "address",
          "name": "to",
          "type": "address"
        },
        {
          "internalType": "uint256",
          "name": "tokenId",
          "type": "uint256"
        }
      ],
      "name": "transferFrom",
      "outputs": [],
      "stateMutability": "nonpayable",
      "type": "function"
    },
    {
      "inputs": [],
      "name": "weth",
      "outputs": [
        {
          "internalType": "address",
          "name": "",
          "type": "address"
        }
      ],
      "stateMutability": "view",
      "type": "function"
    }
  ],
  "bytecode": {
    "object": "0x60806040523480156200001157600080fd5b50604080518082018252600a81526921b0b63627b83a34b7b760b11b60208083019182528351808501909452600484526310d0531360e21b908401528151919291620000609160009162000084565b5080516200007690600190602084019062000084565b505060016006555062000167565b82805462000092906200012a565b90600052602060002090601f016020900481019282620000b6576000855562000101565b82601f10620000d157805160ff191683800117855562000101565b8280016001018555821562000101579182015b8281111562000101578251825591602001919060010190620000e4565b506200010f92915062000113565b5090565b5b808211156200010f576000815560010162000114565b600181811c908216806200013f57607f821691505b602082108114156200016157634e487b7160e01b600052602260045260246000fd5b50919050565b61390380620001776000396000f3fe6080604052600436106101665760003560e01c80637fb6afd4116100d1578063c0c53b8b1161008a578063ce57ee6411610064578063ce57ee6414610507578063e6c4070e14610527578063e985e9c514610547578063fa9644791461056757600080fd5b8063c0c53b8b146103fb578063c87b56dd1461041b578063cd52d1511461043b57600080fd5b80637fb6afd41461032d5780638a633a0c1461034d57806390f0252a1461036d57806395d89b41146103a6578063a22cb465146103bb578063b88d4fde146103db57600080fd5b80633fc8cef3116101235780633fc8cef31461027a57806342842e0e1461029a57806342966c68146102ba578063454a2ab3146102da5780636352211e146102ed57806370a082311461030d57600080fd5b806301ffc9a71461016b57806306fdde03146101a0578063081812fc146101c2578063095ea7b3146101fa57806323b872dd1461021c5780633c7cfe341461023c575b600080fd5b34801561017757600080fd5b5061018b610186366004612c8c565b610587565b60405190151581526020015b60405180910390f35b3480156101ac57600080fd5b506101b56105d9565b6040516101979190612d08565b3480156101ce57600080fd5b506101e26101dd366004612d1b565b61066b565b6040516001600160a01b039091168152602001610197565b34801561020657600080fd5b5061021a610215366004612d49565b610705565b005b34801561022857600080fd5b5061021a610237366004612d75565b61081b565b34801561024857600080fd5b5061026c610257366004612d1b565b6000908152600b602052604090206006015490565b604051908152602001610197565b34801561028657600080fd5b50600d546101e2906001600160a01b031681565b3480156102a657600080fd5b5061021a6102b5366004612d75565b61084d565b3480156102c657600080fd5b5061021a6102d5366004612d1b565b610868565b61021a6102e8366004612d1b565b6108e2565b3480156102f957600080fd5b506101e2610308366004612d1b565b610caa565b34801561031957600080fd5b5061026c610328366004612db6565b610d21565b34801561033957600080fd5b5061021a610348366004612de1565b610da8565b34801561035957600080fd5b5061021a610368366004612de1565b611256565b34801561037957600080fd5b506101e2610388366004612d1b565b6000908152600b60205260409020600701546001600160a01b031690565b3480156103b257600080fd5b506101b56114db565b3480156103c757600080fd5b5061021a6103d6366004612e11565b6114ea565b3480156103e757600080fd5b5061021a6103f6366004612e86565b6114f9565b34801561040757600080fd5b5061021a610416366004612f4a565b611531565b34801561042757600080fd5b506101b5610436366004612d1b565b611628565b34801561044757600080fd5b506104b4610456366004612d1b565b600b60205260009081526040902080546001820154600283015460038401546004850154600586015460068701546007909701546001600160a01b03968716979587169694959385169492939192811690600160a01b900460ff1689565b604080516001600160a01b039a8b168152988a1660208a01528801969096529387166060870152608086019290925260a085015260c084015290921660e082015290151561010082015261012001610197565b34801561051357600080fd5b5061026c610522366004613017565b611788565b34801561053357600080fd5b50600c546101e2906001600160a01b031681565b34801561055357600080fd5b5061018b610562366004613060565b6117f2565b34801561057357600080fd5b5061026c61058236600461308e565b611820565b60006001600160e01b031982166380ac58cd60e01b14806105b857506001600160e01b03198216635b5e139f60e01b145b806105d357506301ffc9a760e01b6001600160e01b03198316145b92915050565b6060600080546105e8906130e2565b80601f0160208091040260200160405190810160405280929190818152602001828054610614906130e2565b80156106615780601f1061063657610100808354040283529160200191610661565b820191906000526020600020905b81548152906001019060200180831161064457829003601f168201915b5050505050905090565b6000818152600260205260408120546001600160a01b03166106e95760405162461bcd60e51b815260206004820152602c60248201527f4552433732313a20617070726f76656420717565727920666f72206e6f6e657860448201526b34b9ba32b73a103a37b5b2b760a11b60648201526084015b60405180910390fd5b506000908152600460205260409020546001600160a01b031690565b600061071082610caa565b9050806001600160a01b0316836001600160a01b0316141561077e5760405162461bcd60e51b815260206004820152602160248201527f4552433732313a20617070726f76616c20746f2063757272656e74206f776e656044820152603960f91b60648201526084016106e0565b336001600160a01b038216148061079a575061079a81336117f2565b61080c5760405162461bcd60e51b815260206004820152603860248201527f4552433732313a20617070726f76652063616c6c6572206973206e6f74206f7760448201527f6e6572206e6f7220617070726f76656420666f7220616c6c000000000000000060648201526084016106e0565b6108168383611f82565b505050565b610826335b82611ff0565b6108425760405162461bcd60e51b81526004016106e09061311d565b6108168383836120c6565b610816838383604051806020016040528060008152506114f9565b61087133610820565b6108d65760405162461bcd60e51b815260206004820152603060248201527f4552433732314275726e61626c653a2063616c6c6572206973206e6f74206f7760448201526f1b995c881b9bdc88185c1c1c9bdd995960821b60648201526084016106e0565b6108df81612262565b50565b600260065414156109055760405162461bcd60e51b81526004016106e09061316e565b600260068181556000838152600b602090815260409182902082516101208101845281546001600160a01b0390811682526001830154811693820193909352948101549285019290925260038201548116606085015260048201546080850152600582015460a085018190529282015460c085015260079091015490811660e0840152600160a01b900460ff16151561010083015282919042106109fc5760405162461bcd60e51b815260206004820152602860248201527f62696464696e67456e61626c6564202d2d206f7074696f6e20616c726561647960448201526708195e1c1a5c995960c21b60648201526084016106e0565b42620151808260a00151610a1091906131bb565b1115610a735760405162461bcd60e51b815260206004820152602c60248201527f62696464696e67456e61626c6564202d2d2062696464696e672073746172747360448201526b206f6e206c6173742064617960a01b60648201526084016106e0565b61010081015115610aec5760405162461bcd60e51b815260206004820152603f60248201527f62696464696e67456e61626c6564202d2d20746865206f776e6572206861732060448201527f616c726561647920736574746c6564207468652063616c6c206f7074696f6e0060648201526084016106e0565b6000838152600b6020526040902060068101543491908211610b605760405162461bcd60e51b815260206004820152602760248201527f626964202d20626964206973206c6f776572207468616e207468652063757272604482015266195b9d08189a5960ca1b60648201526084016106e0565b80600401548211610bc45760405162461bcd60e51b815260206004820152602860248201527f626964202d20626964206973206c6f776572207468616e2074686520737472696044820152676b6520707269636560c01b60648201526084016106e0565b60078101546006820154610be1916001600160a01b0316906122fd565b600681018290556007810180546001600160a01b031916339081179091556003820154604051635803b4c560e01b815260048101929092526001600160a01b031690635803b4c590602401600060405180830381600087803b158015610c4657600080fd5b505af1158015610c5a573d6000803e3d6000fd5b50506040805188815260208101869052338183015290517ffd7cfbd219ff1e7365436fb2930a026fa6704a1e0bb39ad104f0485c8c01124d9350908190036060019150a150506001600655505050565b6000818152600260205260408120546001600160a01b0316806105d35760405162461bcd60e51b815260206004820152602960248201527f4552433732313a206f776e657220717565727920666f72206e6f6e657869737460448201526832b73a103a37b5b2b760b91b60648201526084016106e0565b60006001600160a01b038216610d8c5760405162461bcd60e51b815260206004820152602a60248201527f4552433732313a2062616c616e636520717565727920666f7220746865207a65604482015269726f206164647265737360b01b60648201526084016106e0565b506001600160a01b031660009081526003602052604090205490565b60026006541415610dcb5760405162461bcd60e51b81526004016106e09061316e565b60026006556000828152600b6020526040902080546001600160a01b03163314610e5d5760405162461bcd60e51b815260206004820152603960248201527f7265636c61696d4173736574202d2d2061737365742063616e206f6e6c79206260448201527f65207265636c61696d656420627920746865207772697465720000000000000060648201526084016106e0565b6007810154600160a01b900460ff1615610ed55760405162461bcd60e51b815260206004820152603360248201527f7265636c61696d4173736574202d2d20746865206f7074696f6e2068617320616044820152721b1c9958591e481899595b881cd95d1d1b1959606a1b60648201526084016106e0565b610ede83610caa565b81546001600160a01b039081169116146110035760078101546001600160a01b031615610f8a5760405162461bcd60e51b815260206004820152604e60248201527f7265636c61696d4173736574202d2d2063616e6e6f74207265636c61696d206160448201527f20736f6c6420617373657420696620746865206f7074696f6e206973206e6f7460648201526d103bb934ba32b916b7bbb732b21760911b608482015260a4016106e0565b428160050154106110035760405162461bcd60e51b815260206004820152603b60248201527f7265636c61696d4173736574202d2d20746865206f7074696f6e206d7573742060448201527f6578706972656420756e6c657373207772697465722d6f776e6564000000000060648201526084016106e0565b4281600501541161107d5760078101546001600160a01b03161561107d5760405162461bcd60e51b815260206004820152602b60248201527f7265636c61696d4173736574202d2d2063616e6e6f74207265636c61696d206160448201526a081cdbdb1908185cdcd95d60aa1b60648201526084016106e0565b60078101546001600160a01b03161561111057600781015460068201546110ad916001600160a01b0316906122fd565b60038101548154604051635803b4c560e01b81526001600160a01b039182166004820152911690635803b4c590602401600060405180830381600087803b1580156110f757600080fd5b505af115801561110b573d6000803e3d6000fd5b505050505b81156111f4574281600501541115611189576003810154815460405163734d30c360e11b81526001600160a01b03918216600482015291169063e69a618690602401600060405180830381600087803b15801561116c57600080fd5b505af1158015611180573d6000803e3d6000fd5b505050506111f4565b8060030160009054906101000a90046001600160a01b03166001600160a01b031663c7eecb336040518163ffffffff1660e01b8152600401600060405180830381600087803b1580156111db57600080fd5b505af11580156111ef573d6000803e3d6000fd5b505050505b6111fd83612262565b60078101805460ff60a01b1916600160a01b1790556040517f25e8e40c25ace4a8f2c1b60bf57942cbf302c4bec6fdcac33825e59005a9d1be906112449085815260200190565b60405180910390a15050600160065550565b600260065414156112795760405162461bcd60e51b81526004016106e09061316e565b60026006556000828152600b6020526040902060078101546001600160a01b03166112f25760405162461bcd60e51b8152602060048201526024808201527f736574746c65202d2d20626964206d75737420626520776f6e20627920736f6d604482015263656f6e6560e01b60648201526084016106e0565b428160050154106113455760405162461bcd60e51b815260206004820181905260248201527f736574746c65202d2d206f7074696f6e206d757374206265206578706972656460448201526064016106e0565b6007810154600160a01b900460ff16156113b65760405162461bcd60e51b815260206004820152602c60248201527f736574746c65202d2d207468652063616c6c2063616e6e6f7420616c7265616460448201526b1e481899481cd95d1d1b195960a21b60648201526084016106e0565b6000816004015482600601546113cc91906131bb565b90506113e06113da85610caa565b826122fd565b815460048301546113fa916001600160a01b0316906122fd565b821561146b578160030160009054906101000a90046001600160a01b03166001600160a01b031663c7eecb336040518163ffffffff1660e01b8152600401600060405180830381600087803b15801561145257600080fd5b505af1158015611466573d6000803e3d6000fd5b505050505b61147484612262565b6000848152600b602052604090819020600701805460ff60a01b1916600160a01b179055517f25e8e40c25ace4a8f2c1b60bf57942cbf302c4bec6fdcac33825e59005a9d1be906114c89086815260200190565b60405180910390a1505060016006555050565b6060600180546105e8906130e2565b6114f53383836123ec565b5050565b6115033383611ff0565b61151f5760405162461bcd60e51b81526004016106e09061311d565b61152b848484846124bb565b50505050565b600061153d60016124ee565b90508015611555576007805461ff0019166101001790555b600a80546001600160a01b038087166001600160a01b0319928316811790935560098054918616919092161790556040805163affa881760e01b8152905163affa8817916004808201926020929091908290030181865afa1580156115be573d6000803e3d6000fd5b505050506040513d601f19601f820116820180604052508101906115e291906131d2565b600d80546001600160a01b03199081166001600160a01b0393841617909155600c8054909116918516919091179055801561152b576007805461ff001916905550505050565b6060611632612c4f565b60405180610120016040528060fd815260200161376960fd913981526000838152600b6020526040902060010154611672906001600160a01b0316612578565b81600160200201819052506040518060600160405280602881526020016138a6602891396040808301919091526000848152600b60205220600201546116b7906126bf565b60608201908152604080518082018252600d81526c1e17ba32bc3a1f1e17b9bb339f60991b60208083019190915260808501829052845181860151848701519551945160009661170f96939592949093929101613205565b6040516020818303038152906040529050600061175c61172e866126bf565b611737846127bd565b604051602001611748929190613270565b6040516020818303038152906040526127bd565b90508060405160200161176f9190613355565b60408051601f1981840301815291905295945050505050565b600a5460408051635b67d9ab60e01b815290516000926001600160a01b031691635b67d9ab916004808301928692919082900301818387803b1580156117cd57600080fd5b505af11580156117e1573d6000803e3d6000fd5b50505050600090505b949350505050565b6001600160a01b03918216600090815260056020908152604080832093909416825291909152205460ff1690565b600a5460408051635b67d9ab60e01b815290516000926001600160a01b031691635b67d9ab916004808301928692919082900301818387803b15801561186557600080fd5b505af1158015611879573d6000803e3d6000fd5b50506040516331a9108f60e11b815260048101889052600092506001600160a01b0389169150636352211e90602401602060405180830381865afa1580156118c5573d6000803e3d6000fd5b505050506040513d601f19601f820116820180604052508101906118e991906131d2565b600c549091506001600160a01b038881169116146119605760405162461bcd60e51b815260206004820152602e60248201527f6d696e74202d2d20746f6b656e206d757374206265206f6e207468652070726f60448201526d1a9958dd08185b1b1bdddb1a5cdd60921b60648201526084016106e0565b336001600160a01b03821614806119e2575060405163e985e9c560e01b81526001600160a01b03828116600483015233602483015288169063e985e9c590604401602060405180830381865afa1580156119be573d6000803e3d6000fd5b505050506040513d601f19601f820116820180604052508101906119e2919061339a565b611a455760405162461bcd60e51b815260206004820152602e60248201527f6d696e74202d2d2063616c6c6572206d75737420626520746f6b656e206f776e60448201526d32b91037b91037b832b930ba37b960911b60648201526084016106e0565b60405163e985e9c560e01b81526001600160a01b03828116600483015230602483015288169063e985e9c590604401602060405180830381865afa158015611a91573d6000803e3d6000fd5b505050506040513d601f19601f82011682018060405250810190611ab5919061339a565b611b125760405162461bcd60e51b815260206004820152602860248201527f6d696e74202d2d20486f6f6b436f766572656443616c6c206d7573742062652060448201526737b832b930ba37b960c11b60648201526084016106e0565b611b1f42620151806133b7565b8411611ba15760405162461bcd60e51b8152602060048201526044602482018190527f6d696e74202d2d205f65787069726174696f6e54696d65206d75737420626520908201527f6d6f7265207468616e206f6e652064617920696e20746865206675747572652060648201526374696d6560e01b608482015260a4016106e0565b611baf600880546001019055565b60095460405163d99d13f560e01b81526001600160a01b03898116600483015260248201899052600092169063d99d13f590604401602060405180830381865afa158015611c01573d6000803e3d6000fd5b505050506040513d601f19601f82011682018060405250810190611c2591906131d2565b90506001600160a01b038116611caf5760095460405163d79db53160e01b81526001600160a01b038a81166004830152602482018a90529091169063d79db531906044016020604051808303816000875af1158015611c88573d6000803e3d6000fd5b505050506040513d601f19601f82011682018060405250810190611cac91906131d2565b90505b6040805160a0810182526001600160a01b0380851682523060208301528a169181019190915260608101889052608081018690526000611cee60085490565b9050604051806101200160405280856001600160a01b031681526020018b6001600160a01b031681526020018a8152602001846001600160a01b031681526020018981526020018881526020016000815260200160006001600160a01b0316815260200160001515815250600b600083815260200190815260200160002060008201518160000160006101000a8154816001600160a01b0302191690836001600160a01b0316021790555060208201518160010160006101000a8154816001600160a01b0302191690836001600160a01b031602179055506040820151816002015560608201518160030160006101000a8154816001600160a01b0302191690836001600160a01b031602179055506080820151816004015560a0820151816005015560c0820151816006015560e08201518160070160006101000a8154816001600160a01b0302191690836001600160a01b031602179055506101008201518160070160146101000a81548160ff021916908315150217905550905050896001600160a01b031663b88d4fde85858c868b604051602001611e919291906133cf565b6040516020818303038152906040526040518563ffffffff1660e01b8152600401611ebf949392919061345f565b600060405180830381600087803b158015611ed957600080fd5b505af1158015611eed573d6000803e3d6000fd5b50505050611efb8482612911565b336001600160a01b03851614611f1557611f153382611f82565b604080516001600160a01b0380871682528c1660208201529081018a9052606081018290526080810189905260a081018890527f1942da09a08718d22494497e4f9610b26572dd3de279f0793d826d170c5305989060c00160405180910390a19998505050505050505050565b600081815260046020526040902080546001600160a01b0319166001600160a01b0384169081179091558190611fb782610caa565b6001600160a01b03167f8c5be1e5ebec7d5bd14f71427d1e84f3dd0314c0f7b2291e5b200ac8c7c3b92560405160405180910390a45050565b6000818152600260205260408120546001600160a01b03166120695760405162461bcd60e51b815260206004820152602c60248201527f4552433732313a206f70657261746f7220717565727920666f72206e6f6e657860448201526b34b9ba32b73a103a37b5b2b760a11b60648201526084016106e0565b600061207483610caa565b9050806001600160a01b0316846001600160a01b0316148061209b575061209b81856117f2565b806117ea5750836001600160a01b03166120b48461066b565b6001600160a01b031614949350505050565b826001600160a01b03166120d982610caa565b6001600160a01b03161461213d5760405162461bcd60e51b815260206004820152602560248201527f4552433732313a207472616e736665722066726f6d20696e636f72726563742060448201526437bbb732b960d91b60648201526084016106e0565b6001600160a01b03821661219f5760405162461bcd60e51b8152602060048201526024808201527f4552433732313a207472616e7366657220746f20746865207a65726f206164646044820152637265737360e01b60648201526084016106e0565b6121aa600082611f82565b6001600160a01b03831660009081526003602052604081208054600192906121d39084906131bb565b90915550506001600160a01b03821660009081526003602052604081208054600192906122019084906133b7565b909155505060008181526002602052604080822080546001600160a01b0319166001600160a01b0386811691821790925591518493918716917fddf252ad1be2c89b69c2b068fc378daa952ba7f163c4a11628f55a4df523b3ef91a4505050565b600061226d82610caa565b905061227a600083611f82565b6001600160a01b03811660009081526003602052604081208054600192906122a39084906131bb565b909155505060008281526002602052604080822080546001600160a01b0319169055518391906001600160a01b038416907fddf252ad1be2c89b69c2b068fc378daa952ba7f163c4a11628f55a4df523b3ef908390a45050565b612307828261292b565b6114f557600d60009054906101000a90046001600160a01b03166001600160a01b031663d0e30db0826040518263ffffffff1660e01b81526004016000604051808303818588803b15801561235b57600080fd5b505af115801561236f573d6000803e3d6000fd5b5050600d5460405163a9059cbb60e01b81526001600160a01b03878116600483015260248201879052909116935063a9059cbb925060440190506020604051808303816000875af11580156123c8573d6000803e3d6000fd5b505050506040513d601f19601f82011682018060405250810190610816919061339a565b816001600160a01b0316836001600160a01b0316141561244e5760405162461bcd60e51b815260206004820152601960248201527f4552433732313a20617070726f766520746f2063616c6c65720000000000000060448201526064016106e0565b6001600160a01b03838116600081815260056020908152604080832094871680845294825291829020805460ff191686151590811790915591519182527f17307eab39ab6107e8899845ad3d59bd9653f200f220920489ca2b5937696c31910160405180910390a3505050565b6124c68484846120c6565b6124d2848484846129a9565b61152b5760405162461bcd60e51b81526004016106e09061349c565b600754600090610100900460ff1615612537578160ff1660011480156125135750303b155b61252f5760405162461bcd60e51b81526004016106e0906134ee565b506000919050565b60075460ff80841691161061255e5760405162461bcd60e51b81526004016106e0906134ee565b506007805460ff191660ff92909216919091179055600190565b60408051602880825260608281019093526000919060208201818036833701905050905060005b60148110156126b85760006125b58260136131bb565b6125c090600861353c565b6125cb90600261363f565b6125de906001600160a01b038716613661565b60f81b9050600060108260f81c6125f59190613675565b60f81b905060008160f81c601061260c9190613697565b8360f81c61261a91906136b8565b60f81b905061262882612aa4565b8561263486600261353c565b81518110612644576126446131ef565b60200101906001600160f81b031916908160001a90535061266481612aa4565b8561267086600261353c565b61267b9060016133b7565b8151811061268b5761268b6131ef565b60200101906001600160f81b031916908160001a90535050505080806126b0906136db565b91505061259f565b5092915050565b6060816126e35750506040805180820190915260018152600360fc1b602082015290565b8160005b811561270d57806126f7816136db565b91506127069050600a83613661565b91506126e7565b60008167ffffffffffffffff81111561272857612728612e3f565b6040519080825280601f01601f191660200182016040528015612752576020820181803683370190505b5090505b84156117ea576127676001836131bb565b9150612774600a866136f6565b61277f9060306133b7565b60f81b818381518110612794576127946131ef565b60200101906001600160f81b031916908160001a9053506127b6600a86613661565b9450612756565b60608151600014156127dd57505060408051602081019091526000815290565b6000604051806060016040528060408152602001613866604091399050600060038451600261280c91906133b7565b6128169190613661565b61282190600461353c565b67ffffffffffffffff81111561283957612839612e3f565b6040519080825280601f01601f191660200182016040528015612863576020820181803683370190505b509050600182016020820185865187015b808210156128cf576003820191508151603f8160121c168501518453600184019350603f81600c1c168501518453600184019350603f8160061c168501518453600184019350603f8116850151845350600183019250612874565b50506003865106600181146128eb57600281146128fe57612906565b603d6001830353603d6002830353612906565b603d60018303535b509195945050505050565b6114f5828260405180602001604052806000815250612ada565b6040805160008082526020820190925281906001600160a01b0385169061753090859060405161295b919061370a565b600060405180830381858888f193505050503d8060008114612999576040519150601f19603f3d011682016040523d82523d6000602084013e61299e565b606091505b509095945050505050565b60006001600160a01b0384163b15612a9c57604051630a85bd0160e11b81526001600160a01b0385169063150b7a02906129ed90339089908890889060040161345f565b6020604051808303816000875af1925050508015612a28575060408051601f3d908101601f19168201909252612a2591810190613726565b60015b612a82573d808015612a56576040519150601f19603f3d011682016040523d82523d6000602084013e612a5b565b606091505b508051612a7a5760405162461bcd60e51b81526004016106e09061349c565b805181602001fd5b6001600160e01b031916630a85bd0160e11b1490506117ea565b5060016117ea565b6000600a60f883901c1015612acb57612ac260f883901c6030613743565b60f81b92915050565b612ac260f883901c6057613743565b612ae48383612b0d565b612af160008484846129a9565b6108165760405162461bcd60e51b81526004016106e09061349c565b6001600160a01b038216612b635760405162461bcd60e51b815260206004820181905260248201527f4552433732313a206d696e7420746f20746865207a65726f206164647265737360448201526064016106e0565b6000818152600260205260409020546001600160a01b031615612bc85760405162461bcd60e51b815260206004820152601c60248201527f4552433732313a20746f6b656e20616c7265616479206d696e7465640000000060448201526064016106e0565b6001600160a01b0382166000908152600360205260408120805460019290612bf19084906133b7565b909155505060008181526002602052604080822080546001600160a01b0319166001600160a01b03861690811790915590518392907fddf252ad1be2c89b69c2b068fc378daa952ba7f163c4a11628f55a4df523b3ef908290a45050565b6040518060a001604052806005905b6060815260200190600190039081612c5e5790505090565b6001600160e01b0319811681146108df57600080fd5b600060208284031215612c9e57600080fd5b8135612ca981612c76565b9392505050565b60005b83811015612ccb578181015183820152602001612cb3565b8381111561152b5750506000910152565b60008151808452612cf4816020860160208601612cb0565b601f01601f19169290920160200192915050565b602081526000612ca96020830184612cdc565b600060208284031215612d2d57600080fd5b5035919050565b6001600160a01b03811681146108df57600080fd5b60008060408385031215612d5c57600080fd5b8235612d6781612d34565b946020939093013593505050565b600080600060608486031215612d8a57600080fd5b8335612d9581612d34565b92506020840135612da581612d34565b929592945050506040919091013590565b600060208284031215612dc857600080fd5b8135612ca981612d34565b80151581146108df57600080fd5b60008060408385031215612df457600080fd5b823591506020830135612e0681612dd3565b809150509250929050565b60008060408385031215612e2457600080fd5b8235612e2f81612d34565b91506020830135612e0681612dd3565b634e487b7160e01b600052604160045260246000fd5b604051601f8201601f1916810167ffffffffffffffff81118282101715612e7e57612e7e612e3f565b604052919050565b60008060008060808587031215612e9c57600080fd5b8435612ea781612d34565b9350602085810135612eb881612d34565b935060408601359250606086013567ffffffffffffffff80821115612edc57600080fd5b818801915088601f830112612ef057600080fd5b813581811115612f0257612f02612e3f565b612f14601f8201601f19168501612e55565b91508082528984828501011115612f2a57600080fd5b808484018584013760008482840101525080935050505092959194509250565b600080600060608486031215612f5f57600080fd5b8335612f6a81612d34565b92506020840135612f7a81612d34565b91506040840135612f8a81612d34565b809150509250925092565b600060808284031215612fa757600080fd5b6040516080810181811067ffffffffffffffff82111715612fca57612fca612e3f565b604052905080823560028110612fdf57600080fd5b8152602083013560ff81168114612ff557600080fd5b8060208301525060408301356040820152606083013560608201525092915050565b60008060008060e0858703121561302d57600080fd5b843561303881612d34565b935060208501359250604085013591506130558660608701612f95565b905092959194509250565b6000806040838503121561307357600080fd5b823561307e81612d34565b91506020830135612e0681612d34565b600080600080600061010086880312156130a757600080fd5b85356130b281612d34565b94506020860135935060408601359250606086013591506130d68760808801612f95565b90509295509295909350565b600181811c908216806130f657607f821691505b6020821081141561311757634e487b7160e01b600052602260045260246000fd5b50919050565b60208082526031908201527f4552433732313a207472616e736665722063616c6c6572206973206e6f74206f6040820152701ddb995c881b9bdc88185c1c1c9bdd9959607a1b606082015260800190565b6020808252601f908201527f5265656e7472616e637947756172643a207265656e7472616e742063616c6c00604082015260600190565b634e487b7160e01b600052601160045260246000fd5b6000828210156131cd576131cd6131a5565b500390565b6000602082840312156131e457600080fd5b8151612ca981612d34565b634e487b7160e01b600052603260045260246000fd5b60008651613217818460208b01612cb0565b86519083019061322b818360208b01612cb0565b865191019061323e818360208a01612cb0565b8551910190613251818360208901612cb0565b8451910190613264818360208801612cb0565b01979650505050505050565b721ec89b985b59488e880893dc1d1a5bdb881259606a1b8152825160009061329f816013850160208801612cb0565b7f222c20226465736372697074696f6e223a2022486f6f6b20706f7765727320666013918401918201527f756c6c79206f6e2d636861696e20636f76657265642063616c6c206f7074696f60338201527f6e73222c2022696d616765223a2022646174613a696d6167652f7376672b786d6053820152681b0ed8985cd94d8d0b60ba1b6073820152835161333a81607c840160208801612cb0565b61227d60f01b607c9290910191820152607e01949350505050565b7f646174613a6170706c69636174696f6e2f6a736f6e3b6261736536342c00000081526000825161338d81601d850160208701612cb0565b91909101601d0192915050565b6000602082840312156133ac57600080fd5b8151612ca981612dd3565b600082198211156133ca576133ca6131a5565b500190565b82516001600160a01b03908116825260208085015182169083015260408085015190911690820152606080840151908201526080808401519082015281516101208201906002811061343157634e487b7160e01b600052602160045260246000fd5b60a0830152602083015160ff1660c0830152604083015160e083015260609092015161010090910152919050565b6001600160a01b038581168252841660208201526040810183905260806060820181905260009061349290830184612cdc565b9695505050505050565b60208082526032908201527f4552433732313a207472616e7366657220746f206e6f6e20455243373231526560408201527131b2b4bb32b91034b6b83632b6b2b73a32b960711b606082015260800190565b6020808252602e908201527f496e697469616c697a61626c653a20636f6e747261637420697320616c72656160408201526d191e481a5b9a5d1a585b1a5e995960921b606082015260800190565b6000816000190483118215151615613556576135566131a5565b500290565b600181815b8085111561359657816000190482111561357c5761357c6131a5565b8085161561358957918102915b93841c9390800290613560565b509250929050565b6000826135ad575060016105d3565b816135ba575060006105d3565b81600181146135d057600281146135da576135f6565b60019150506105d3565b60ff8411156135eb576135eb6131a5565b50506001821b6105d3565b5060208310610133831016604e8410600b8410161715613619575081810a6105d3565b613623838361355b565b8060001904821115613637576136376131a5565b029392505050565b6000612ca9838361359e565b634e487b7160e01b600052601260045260246000fd5b6000826136705761367061364b565b500490565b600060ff8316806136885761368861364b565b8060ff84160491505092915050565b600060ff821660ff84168160ff0481118215151615613637576136376131a5565b600060ff821660ff8416808210156136d2576136d26131a5565b90039392505050565b60006000198214156136ef576136ef6131a5565b5060010190565b6000826137055761370561364b565b500690565b6000825161371c818460208701612cb0565b9190910192915050565b60006020828403121561373857600080fd5b8151612ca981612c76565b600060ff821660ff84168060ff03821115613760576137606131a5565b01939250505056fe3c73766720786d6c6e733d22687474703a2f2f7777772e77332e6f72672f323030302f73766722207072657365727665417370656374526174696f3d22784d696e594d696e206d656574222076696577426f783d223020302033353020333530223e3c7374796c653e2e62617365207b2066696c6c3a2077686974653b20666f6e742d66616d696c793a2073657269663b20666f6e742d73697a653a20313470783b207d3c2f7374796c653e3c726563742077696474683d223130302522206865696768743d2231303025222066696c6c3d22626c61636b22202f3e3c7465787420783d2231302220793d2232302220636c6173733d2262617365223e4142434445464748494a4b4c4d4e4f505152535455565758595a6162636465666768696a6b6c6d6e6f707172737475767778797a303132333435363738392b2f3c2f746578743e3c7465787420783d2231302220793d2234302220636c6173733d2262617365223ea26469706673582212202df2212b6b34399f01369d07e1d03838352214fca6bd6a815ba2ade9640c5e4f64736f6c634300080a0033",
    "linkReferences": {}
  }
}