{
  "abi": [
    {
      "inputs": [
        {
          "internalType": "address",
          "name": "hookProtocolAddress",
          "type": "address"
        },
        {
          "internalType": "address",
          "name": "beaconAddress",
          "type": "address"
        }
      ],
      "stateMutability": "nonpayable",
      "type": "constructor"
    },
    {
      "inputs": [
        {
          "internalType": "address",
          "name": "",
          "type": "address"
        },
        {
          "internalType": "uint256",
          "name": "",
          "type": "uint256"
        }
      ],
      "name": "getVault",
      "outputs": [
        {
          "internalType": "address",
          "name": "",
          "type": "address"
        }
      ],
      "stateMutability": "view",
      "type": "function"
    },
    {
      "inputs": [
        {
          "internalType": "address",
          "name": "nftAddress",
          "type": "address"
        },
        {
          "internalType": "uint256",
          "name": "tokenId",
          "type": "uint256"
        }
      ],
      "name": "makeVault",
      "outputs": [
        {
          "internalType": "address",
          "name": "vault",
          "type": "address"
        }
      ],
      "stateMutability": "nonpayable",
      "type": "function"
    }
  ],
  "bytecode": {
    "object": "0x608060405234801561001057600080fd5b50604051610c8e380380610c8e83398101604081905261002f9161007c565b600180546001600160a01b039384166001600160a01b031991821617909155600280549290931691161790556100af565b80516001600160a01b038116811461007757600080fd5b919050565b6000806040838503121561008f57600080fd5b61009883610060565b91506100a660208401610060565b90509250929050565b610bd0806100be6000396000f3fe608060405234801561001057600080fd5b50600436106100365760003560e01c8063d79db5311461003b578063d99d13f51461006a575b600080fd5b61004e610049366004610200565b61009b565b6040516001600160a01b03909116815260200160405180910390f35b61004e610078366004610200565b60006020818152928152604080822090935290815220546001600160a01b031681565b6001600160a01b03828116600090815260208181526040808320858452909152812054909116156101125760405162461bcd60e51b815260206004820152601c60248201527f61207661756c742063616e6e6f7420616c726561647920657869737400000000604482015260640160405180910390fd5b604080516001600160a01b038516602082015290810183905260600160408051601f1981840301815290829052805160209091012060025460015491926001600160a01b03918216928792879291169061016b906101f3565b6001600160a01b0394851681529284166020840152604083019190915290911660608201526080018190604051809103906000f59050801580156101b3573d6000803e3d6000fd5b506001600160a01b039384166000908152602081815260408083209583529490529290922080546001600160a01b03191693831693909317909255919050565b6109628061023983390190565b6000806040838503121561021357600080fd5b82356001600160a01b038116811461022a57600080fd5b94602093909301359350505056fe608060405234801561001057600080fd5b5060405161096238038061096283398101604081905261002f916104aa565b6040516001600160a01b0380851660248301526044820184905282166064820152849060840160408051601f198184030181529190526020810180516001600160e01b031663c350a1b560e01b1790526100aa60017fa3f0ad74e5423aebfd80d3ef4346578335a9a72aeaee59ff6cb3582b35133d516104f7565b60008051602061091b833981519152146100c6576100c661051c565b6100d2828260006100dd565b5050505050506105c8565b6100e6836101a8565b6040516001600160a01b038416907f1cf3b03a6cf19fa2baba4df148e9dcabedea7f8a5c07840e207e5c089be95d3e90600090a26000825111806101275750805b156101a3576101a1836001600160a01b0316635c60da1b6040518163ffffffff1660e01b8152600401602060405180830381865afa15801561016d573d6000803e3d6000fd5b505050506040513d601f19601f820116820180604052508101906101919190610532565b8361033960201b6100291760201c565b505b505050565b6101bb8161036560201b6100551760201c565b61021a5760405162461bcd60e51b815260206004820152602560248201527f455243313936373a206e657720626561636f6e206973206e6f74206120636f6e6044820152641d1c9858dd60da1b60648201526084015b60405180910390fd5b61028e816001600160a01b0316635c60da1b6040518163ffffffff1660e01b8152600401602060405180830381865afa15801561025b573d6000803e3d6000fd5b505050506040513d601f19601f8201168201806040525081019061027f9190610532565b61036560201b6100551760201c565b6102f35760405162461bcd60e51b815260206004820152603060248201527f455243313936373a20626561636f6e20696d706c656d656e746174696f6e206960448201526f1cc81b9bdd08184818dbdb9d1c9858dd60821b6064820152608401610211565b8061031860008051602061091b83398151915260001b61037460201b6100641760201c565b80546001600160a01b0319166001600160a01b039290921691909117905550565b606061035e838360405180606001604052806027815260200161093b60279139610377565b9392505050565b6001600160a01b03163b151590565b90565b60606001600160a01b0384163b6103df5760405162461bcd60e51b815260206004820152602660248201527f416464726573733a2064656c65676174652063616c6c20746f206e6f6e2d636f6044820152651b9d1c9858dd60d21b6064820152608401610211565b600080856001600160a01b0316856040516103fa9190610579565b600060405180830381855af49150503d8060008114610435576040519150601f19603f3d011682016040523d82523d6000602084013e61043a565b606091505b50909250905061044b828286610455565b9695505050505050565b6060831561046457508161035e565b8251156104745782518084602001fd5b8160405162461bcd60e51b81526004016102119190610595565b80516001600160a01b03811681146104a557600080fd5b919050565b600080600080608085870312156104c057600080fd5b6104c98561048e565b93506104d76020860161048e565b9250604085015191506104ec6060860161048e565b905092959194509250565b60008282101561051757634e487b7160e01b600052601160045260246000fd5b500390565b634e487b7160e01b600052600160045260246000fd5b60006020828403121561054457600080fd5b61035e8261048e565b60005b83811015610568578181015183820152602001610550565b838111156101a15750506000910152565b6000825161058b81846020870161054d565b9190910192915050565b60208152600082518060208401526105b481604085016020870161054d565b601f01601f19169190910160400192915050565b610344806105d76000396000f3fe60806040523661001357610011610017565b005b6100115b610027610022610067565b610100565b565b606061004e83836040518060600160405280602781526020016102e860279139610124565b9392505050565b6001600160a01b03163b151590565b90565b600061009a7fa3f0ad74e5423aebfd80d3ef4346578335a9a72aeaee59ff6cb3582b35133d50546001600160a01b031690565b6001600160a01b0316635c60da1b6040518163ffffffff1660e01b8152600401602060405180830381865afa1580156100d7573d6000803e3d6000fd5b505050506040513d601f19601f820116820180604052508101906100fb919061023f565b905090565b3660008037600080366000845af43d6000803e80801561011f573d6000f35b3d6000fd5b60606001600160a01b0384163b6101915760405162461bcd60e51b815260206004820152602660248201527f416464726573733a2064656c65676174652063616c6c20746f206e6f6e2d636f6044820152651b9d1c9858dd60d21b60648201526084015b60405180910390fd5b600080856001600160a01b0316856040516101ac9190610298565b600060405180830381855af49150503d80600081146101e7576040519150601f19603f3d011682016040523d82523d6000602084013e6101ec565b606091505b50915091506101fc828286610206565b9695505050505050565b6060831561021557508161004e565b8251156102255782518084602001fd5b8160405162461bcd60e51b815260040161018891906102b4565b60006020828403121561025157600080fd5b81516001600160a01b038116811461004e57600080fd5b60005b8381101561028357818101518382015260200161026b565b83811115610292576000848401525b50505050565b600082516102aa818460208701610268565b9190910192915050565b60208152600082518060208401526102d3816040850160208701610268565b601f01601f1916919091016040019291505056fe416464726573733a206c6f772d6c6576656c2064656c65676174652063616c6c206661696c6564a2646970667358221220fe4c9538cb6792e8c5cd27d6f70f13167416eec56317f6ec4abaddbf241d3c6f64736f6c634300080a0033a3f0ad74e5423aebfd80d3ef4346578335a9a72aeaee59ff6cb3582b35133d50416464726573733a206c6f772d6c6576656c2064656c65676174652063616c6c206661696c6564a264697066735822122065348a5b54bed361a50abfa2ad6486dff799f3668d47e7dfcc9cb6d0394c812d64736f6c634300080a0033",
    "linkReferences": {}
  }
}