{
  "abi": [
    {
      "inputs": [
        {
          "internalType": "address",
          "name": "admin",
          "type": "address"
        },
        {
          "internalType": "address",
          "name": "weth",
          "type": "address"
        }
      ],
      "stateMutability": "nonpayable",
      "type": "constructor"
    },
    {
      "anonymous": false,
      "inputs": [
        {
          "indexed": false,
          "internalType": "address",
          "name": "account",
          "type": "address"
        }
      ],
      "name": "Paused",
      "type": "event"
    },
    {
      "anonymous": false,
      "inputs": [
        {
          "indexed": true,
          "internalType": "bytes32",
          "name": "role",
          "type": "bytes32"
        },
        {
          "indexed": true,
          "internalType": "bytes32",
          "name": "previousAdminRole",
          "type": "bytes32"
        },
        {
          "indexed": true,
          "internalType": "bytes32",
          "name": "newAdminRole",
          "type": "bytes32"
        }
      ],
      "name": "RoleAdminChanged",
      "type": "event"
    },
    {
      "anonymous": false,
      "inputs": [
        {
          "indexed": true,
          "internalType": "bytes32",
          "name": "role",
          "type": "bytes32"
        },
        {
          "indexed": true,
          "internalType": "address",
          "name": "account",
          "type": "address"
        },
        {
          "indexed": true,
          "internalType": "address",
          "name": "sender",
          "type": "address"
        }
      ],
      "name": "RoleGranted",
      "type": "event"
    },
    {
      "anonymous": false,
      "inputs": [
        {
          "indexed": true,
          "internalType": "bytes32",
          "name": "role",
          "type": "bytes32"
        },
        {
          "indexed": true,
          "internalType": "address",
          "name": "account",
          "type": "address"
        },
        {
          "indexed": true,
          "internalType": "address",
          "name": "sender",
          "type": "address"
        }
      ],
      "name": "RoleRevoked",
      "type": "event"
    },
    {
      "anonymous": false,
      "inputs": [
        {
          "indexed": false,
          "internalType": "address",
          "name": "account",
          "type": "address"
        }
      ],
      "name": "Unpaused",
      "type": "event"
    },
    {
      "inputs": [],
      "name": "ADMIN_ROLE",
      "outputs": [
        {
          "internalType": "bytes32",
          "name": "",
          "type": "bytes32"
        }
      ],
      "stateMutability": "view",
      "type": "function"
    },
    {
      "inputs": [],
      "name": "ALLOWLISTER_ROLE",
      "outputs": [
        {
          "internalType": "bytes32",
          "name": "",
          "type": "bytes32"
        }
      ],
      "stateMutability": "view",
      "type": "function"
    },
    {
      "inputs": [],
      "name": "DEFAULT_ADMIN_ROLE",
      "outputs": [
        {
          "internalType": "bytes32",
          "name": "",
          "type": "bytes32"
        }
      ],
      "stateMutability": "view",
      "type": "function"
    },
    {
      "inputs": [],
      "name": "PAUSER_ROLE",
      "outputs": [
        {
          "internalType": "bytes32",
          "name": "",
          "type": "bytes32"
        }
      ],
      "stateMutability": "view",
      "type": "function"
    },
    {
      "inputs": [],
      "name": "VAULT_UPGRADER",
      "outputs": [
        {
          "internalType": "bytes32",
          "name": "",
          "type": "bytes32"
        }
      ],
      "stateMutability": "view",
      "type": "function"
    },
    {
      "inputs": [],
      "name": "coveredCallContract",
      "outputs": [
        {
          "internalType": "address",
          "name": "",
          "type": "address"
        }
      ],
      "stateMutability": "view",
      "type": "function"
    },
    {
      "inputs": [
        {
          "internalType": "bytes32",
          "name": "role",
          "type": "bytes32"
        }
      ],
      "name": "getRoleAdmin",
      "outputs": [
        {
          "internalType": "bytes32",
          "name": "",
          "type": "bytes32"
        }
      ],
      "stateMutability": "view",
      "type": "function"
    },
    {
      "inputs": [],
      "name": "getWETHAddress",
      "outputs": [
        {
          "internalType": "address",
          "name": "",
          "type": "address"
        }
      ],
      "stateMutability": "view",
      "type": "function"
    },
    {
      "inputs": [
        {
          "internalType": "bytes32",
          "name": "role",
          "type": "bytes32"
        },
        {
          "internalType": "address",
          "name": "account",
          "type": "address"
        }
      ],
      "name": "grantRole",
      "outputs": [],
      "stateMutability": "nonpayable",
      "type": "function"
    },
    {
      "inputs": [
        {
          "internalType": "bytes32",
          "name": "role",
          "type": "bytes32"
        },
        {
          "internalType": "address",
          "name": "account",
          "type": "address"
        }
      ],
      "name": "hasRole",
      "outputs": [
        {
          "internalType": "bool",
          "name": "",
          "type": "bool"
        }
      ],
      "stateMutability": "view",
      "type": "function"
    },
    {
      "inputs": [],
      "name": "pause",
      "outputs": [],
      "stateMutability": "nonpayable",
      "type": "function"
    },
    {
      "inputs": [],
      "name": "paused",
      "outputs": [
        {
          "internalType": "bool",
          "name": "",
          "type": "bool"
        }
      ],
      "stateMutability": "view",
      "type": "function"
    },
    {
      "inputs": [
        {
          "internalType": "bytes32",
          "name": "role",
          "type": "bytes32"
        },
        {
          "internalType": "address",
          "name": "account",
          "type": "address"
        }
      ],
      "name": "renounceRole",
      "outputs": [],
      "stateMutability": "nonpayable",
      "type": "function"
    },
    {
      "inputs": [
        {
          "internalType": "bytes32",
          "name": "role",
          "type": "bytes32"
        },
        {
          "internalType": "address",
          "name": "account",
          "type": "address"
        }
      ],
      "name": "revokeRole",
      "outputs": [],
      "stateMutability": "nonpayable",
      "type": "function"
    },
    {
      "inputs": [
        {
          "internalType": "address",
          "name": "_coveredCallContract",
          "type": "address"
        }
      ],
      "name": "setCoveredCallFactory",
      "outputs": [],
      "stateMutability": "nonpayable",
      "type": "function"
    },
    {
      "inputs": [
        {
          "internalType": "address",
          "name": "_vaultFactoryContract",
          "type": "address"
        }
      ],
      "name": "setVaultFactory",
      "outputs": [],
      "stateMutability": "nonpayable",
      "type": "function"
    },
    {
      "inputs": [
        {
          "internalType": "bytes4",
          "name": "interfaceId",
          "type": "bytes4"
        }
      ],
      "name": "supportsInterface",
      "outputs": [
        {
          "internalType": "bool",
          "name": "",
          "type": "bool"
        }
      ],
      "stateMutability": "view",
      "type": "function"
    },
    {
      "inputs": [],
      "name": "throwWhenPaused",
      "outputs": [],
      "stateMutability": "view",
      "type": "function"
    },
    {
      "inputs": [],
      "name": "unpause",
      "outputs": [],
      "stateMutability": "nonpayable",
      "type": "function"
    },
    {
      "inputs": [],
      "name": "vaultContract",
      "outputs": [
        {
          "internalType": "address",
          "name": "",
          "type": "address"
        }
      ],
      "stateMutability": "view",
      "type": "function"
    }
  ],
  "bytecode": {
    "object": "0x60806040523480156200001157600080fd5b5060405162000fb938038062000fb9833981016040819052620000349162000289565b6001805460ff191690556200005960008051602062000f598339815191528362000171565b6200007460008051602062000f798339815191528362000171565b620000a07f945438d5e976f17e0d00cb2997cf8951c55e12977d86234d6738d1865abe006e8362000171565b620000bb60008051602062000f998339815191528362000171565b620000e560008051602062000f5983398151915260008051602062000f9983398151915262000181565b6200010f60008051602062000f7983398151915260008051602062000f9983398151915262000181565b6200014a7f945438d5e976f17e0d00cb2997cf8951c55e12977d86234d6738d1865abe006e60008051602062000f9983398151915262000181565b600380546001600160a01b0319166001600160a01b039290921691909117905550620002c1565b6200017d8282620001cc565b5050565b600082815260208190526040808220600101805490849055905190918391839186917fbd79b86ffe0ab8e8776151514217cd7cacd52c909f66475c3af44e129f0b00ff9190a4505050565b6000828152602081815260408083206001600160a01b038516845290915290205460ff166200017d576000828152602081815260408083206001600160a01b03851684529091529020805460ff19166001179055620002283390565b6001600160a01b0316816001600160a01b0316837f2f8788117e7eff1d82e926ec794901d17c78024a50270940304540a733656f0d60405160405180910390a45050565b80516001600160a01b03811681146200028457600080fd5b919050565b600080604083850312156200029d57600080fd5b620002a8836200026c565b9150620002b8602084016200026c565b90509250929050565b610c8880620002d16000396000f3fe608060405234801561001057600080fd5b506004361061012c5760003560e01c80635c975abb116100ad578063a217fddf11610071578063a217fddf1461029f578063acca6838146102a7578063affa8817146102ce578063d547741f146102e1578063e63ab1e9146102f457600080fd5b80635c975abb1461023a578063624c78011461024557806375b238fc1461025d5780638456cb591461028457806391d148541461028c57600080fd5b80632f2ff15d116100f45780632f2ff15d146101f157806336568abe146102045780633ea7fbdb146102175780633f4ba83a1461022a5780635b67d9ab1461023257600080fd5b806301ffc9a7146101315780630d5e67ec14610159578063209b6d751461018e5780632274346b146101a3578063248a9ca3146101ce575b600080fd5b61014461013f366004610a14565b61031b565b60405190151581526020015b60405180910390f35b6101807f945438d5e976f17e0d00cb2997cf8951c55e12977d86234d6738d1865abe006e81565b604051908152602001610150565b6101a161019c366004610a5a565b610352565b005b6002546101b6906001600160a01b031681565b6040516001600160a01b039091168152602001610150565b6101806101dc366004610a75565b60009081526020819052604090206001015490565b6101a16101ff366004610a8e565b6103c9565b6101a1610212366004610a8e565b6103f3565b6101a1610225366004610a5a565b610471565b6101a16104d9565b6101a1610529565b60015460ff16610144565b6001546101b69061010090046001600160a01b031681565b6101807fa49807205ce4d355092ef5a8a18f56e8913cf4a201fbe287825b095693c2177581565b6101a161056f565b61014461029a366004610a8e565b6105bd565b610180600081565b6101807ffba4f6dd992a27a814ee807eb2f9332d6d01312041726966a540cf4a4a89155381565b6003546101b6906001600160a01b031681565b6101a16102ef366004610a8e565b6105e6565b6101807f65d7a28e3265b37a6474929f336521b332c1681b933f6cb9f3376673440d862a81565b60006001600160e01b03198216637965db0b60e01b148061034c57506301ffc9a760e01b6001600160e01b03198316145b92915050565b61037c7fa49807205ce4d355092ef5a8a18f56e8913cf4a201fbe287825b095693c21775336105bd565b6103a15760405162461bcd60e51b815260040161039890610aba565b60405180910390fd5b600180546001600160a01b0390921661010002610100600160a81b0319909216919091179055565b6000828152602081905260409020600101546103e48161060b565b6103ee8383610618565b505050565b6001600160a01b03811633146104635760405162461bcd60e51b815260206004820152602f60248201527f416363657373436f6e74726f6c3a2063616e206f6e6c792072656e6f756e636560448201526e103937b632b9903337b91039b2b63360891b6064820152608401610398565b61046d828261069c565b5050565b61049b7fa49807205ce4d355092ef5a8a18f56e8913cf4a201fbe287825b095693c21775336105bd565b6104b75760405162461bcd60e51b815260040161039890610aba565b600280546001600160a01b0319166001600160a01b0392909216919091179055565b6105037f65d7a28e3265b37a6474929f336521b332c1681b933f6cb9f3376673440d862a336105bd565b61051f5760405162461bcd60e51b815260040161039890610aba565b610527610701565b565b60015460ff16156105275760405162461bcd60e51b815260206004820152601060248201526f14185d5cd8589b194e881c185d5cd95960821b6044820152606401610398565b6105997f65d7a28e3265b37a6474929f336521b332c1681b933f6cb9f3376673440d862a336105bd565b6105b55760405162461bcd60e51b815260040161039890610aba565b610527610794565b6000918252602082815260408084206001600160a01b0393909316845291905290205460ff1690565b6000828152602081905260409020600101546106018161060b565b6103ee838361069c565b610615813361080d565b50565b61062282826105bd565b61046d576000828152602081815260408083206001600160a01b03851684529091529020805460ff191660011790556106583390565b6001600160a01b0316816001600160a01b0316837f2f8788117e7eff1d82e926ec794901d17c78024a50270940304540a733656f0d60405160405180910390a45050565b6106a682826105bd565b1561046d576000828152602081815260408083206001600160a01b0385168085529252808320805460ff1916905551339285917ff6391f5c32d9c69d2a47ea670b442974b53935d1edc7fd64eb21e047a839171b9190a45050565b60015460ff1661074a5760405162461bcd60e51b815260206004820152601460248201527314185d5cd8589b194e881b9bdd081c185d5cd95960621b6044820152606401610398565b6001805460ff191690557f5db9ee0a495bf2e6ff9c91a7834c1ba4fdd244a5e8aa4e537bd38aeae4b073aa335b6040516001600160a01b03909116815260200160405180910390a1565b60015460ff16156107da5760405162461bcd60e51b815260206004820152601060248201526f14185d5cd8589b194e881c185d5cd95960821b6044820152606401610398565b6001805460ff1916811790557f62e78cea01bee320cd4e420270b5ea74000d11b0c9f74754ebdbfc544b05a25833610777565b61081782826105bd565b61046d5761082f816001600160a01b03166014610871565b61083a836020610871565b60405160200161084b929190610b1a565b60408051601f198184030181529082905262461bcd60e51b825261039891600401610b8f565b60606000610880836002610bd8565b61088b906002610bf7565b67ffffffffffffffff8111156108a3576108a3610c0f565b6040519080825280601f01601f1916602001820160405280156108cd576020820181803683370190505b509050600360fc1b816000815181106108e8576108e8610c25565b60200101906001600160f81b031916908160001a905350600f60fb1b8160018151811061091757610917610c25565b60200101906001600160f81b031916908160001a905350600061093b846002610bd8565b610946906001610bf7565b90505b60018111156109be576f181899199a1a9b1b9c1cb0b131b232b360811b85600f166010811061097a5761097a610c25565b1a60f81b82828151811061099057610990610c25565b60200101906001600160f81b031916908160001a90535060049490941c936109b781610c3b565b9050610949565b508315610a0d5760405162461bcd60e51b815260206004820181905260248201527f537472696e67733a20686578206c656e67746820696e73756666696369656e746044820152606401610398565b9392505050565b600060208284031215610a2657600080fd5b81356001600160e01b031981168114610a0d57600080fd5b80356001600160a01b0381168114610a5557600080fd5b919050565b600060208284031215610a6c57600080fd5b610a0d82610a3e565b600060208284031215610a8757600080fd5b5035919050565b60008060408385031215610aa157600080fd5b82359150610ab160208401610a3e565b90509250929050565b60208082526016908201527521b0b63632b91034b9903737ba1030b71030b236b4b760511b604082015260600190565b60005b83811015610b05578181015183820152602001610aed565b83811115610b14576000848401525b50505050565b7f416363657373436f6e74726f6c3a206163636f756e7420000000000000000000815260008351610b52816017850160208801610aea565b7001034b99036b4b9b9b4b733903937b6329607d1b6017918401918201528351610b83816028840160208801610aea565b01602801949350505050565b6020815260008251806020840152610bae816040850160208701610aea565b601f01601f19169190910160400192915050565b634e487b7160e01b600052601160045260246000fd5b6000816000190483118215151615610bf257610bf2610bc2565b500290565b60008219821115610c0a57610c0a610bc2565b500190565b634e487b7160e01b600052604160045260246000fd5b634e487b7160e01b600052603260045260246000fd5b600081610c4a57610c4a610bc2565b50600019019056fea2646970667358221220e147154473de1b41d6226f06b436e3a52c830f53d52379733e147ee693882df364736f6c634300080a0033fba4f6dd992a27a814ee807eb2f9332d6d01312041726966a540cf4a4a89155365d7a28e3265b37a6474929f336521b332c1681b933f6cb9f3376673440d862aa49807205ce4d355092ef5a8a18f56e8913cf4a201fbe287825b095693c21775",
    "linkReferences": {}
  }
}