{
  "abi": [
    {
      "inputs": [
        {
          "internalType": "address",
          "name": "admin",
          "type": "address"
        }
      ],
      "stateMutability": "nonpayable",
      "type": "constructor"
    },
    {
      "anonymous": false,
      "inputs": [
        {
          "indexed": false,
          "internalType": "address",
          "name": "account",
          "type": "address"
        }
      ],
      "name": "Paused",
      "type": "event"
    },
    {
      "anonymous": false,
      "inputs": [
        {
          "indexed": true,
          "internalType": "bytes32",
          "name": "role",
          "type": "bytes32"
        },
        {
          "indexed": true,
          "internalType": "bytes32",
          "name": "previousAdminRole",
          "type": "bytes32"
        },
        {
          "indexed": true,
          "internalType": "bytes32",
          "name": "newAdminRole",
          "type": "bytes32"
        }
      ],
      "name": "RoleAdminChanged",
      "type": "event"
    },
    {
      "anonymous": false,
      "inputs": [
        {
          "indexed": true,
          "internalType": "bytes32",
          "name": "role",
          "type": "bytes32"
        },
        {
          "indexed": true,
          "internalType": "address",
          "name": "account",
          "type": "address"
        },
        {
          "indexed": true,
          "internalType": "address",
          "name": "sender",
          "type": "address"
        }
      ],
      "name": "RoleGranted",
      "type": "event"
    },
    {
      "anonymous": false,
      "inputs": [
        {
          "indexed": true,
          "internalType": "bytes32",
          "name": "role",
          "type": "bytes32"
        },
        {
          "indexed": true,
          "internalType": "address",
          "name": "account",
          "type": "address"
        },
        {
          "indexed": true,
          "internalType": "address",
          "name": "sender",
          "type": "address"
        }
      ],
      "name": "RoleRevoked",
      "type": "event"
    },
    {
      "anonymous": false,
      "inputs": [
        {
          "indexed": false,
          "internalType": "address",
          "name": "account",
          "type": "address"
        }
      ],
      "name": "Unpaused",
      "type": "event"
    },
    {
      "inputs": [],
      "name": "ADMIN_ROLE",
      "outputs": [
        {
          "internalType": "bytes32",
          "name": "",
          "type": "bytes32"
        }
      ],
      "stateMutability": "view",
      "type": "function"
    },
    {
      "inputs": [],
      "name": "ALLOWLISTER_ROLE",
      "outputs": [
        {
          "internalType": "bytes32",
          "name": "",
          "type": "bytes32"
        }
      ],
      "stateMutability": "view",
      "type": "function"
    },
    {
      "inputs": [],
      "name": "DEFAULT_ADMIN_ROLE",
      "outputs": [
        {
          "internalType": "bytes32",
          "name": "",
          "type": "bytes32"
        }
      ],
      "stateMutability": "view",
      "type": "function"
    },
    {
      "inputs": [],
      "name": "PAUSER_ROLE",
      "outputs": [
        {
          "internalType": "bytes32",
          "name": "",
          "type": "bytes32"
        }
      ],
      "stateMutability": "view",
      "type": "function"
    },
    {
      "inputs": [],
      "name": "VAULT_UPGRADER",
      "outputs": [
        {
          "internalType": "bytes32",
          "name": "",
          "type": "bytes32"
        }
      ],
      "stateMutability": "view",
      "type": "function"
    },
    {
      "inputs": [],
      "name": "coveredCallContract",
      "outputs": [
        {
          "internalType": "address",
          "name": "",
          "type": "address"
        }
      ],
      "stateMutability": "view",
      "type": "function"
    },
    {
      "inputs": [
        {
          "internalType": "bytes32",
          "name": "role",
          "type": "bytes32"
        }
      ],
      "name": "getRoleAdmin",
      "outputs": [
        {
          "internalType": "bytes32",
          "name": "",
          "type": "bytes32"
        }
      ],
      "stateMutability": "view",
      "type": "function"
    },
    {
      "inputs": [
        {
          "internalType": "bytes32",
          "name": "role",
          "type": "bytes32"
        },
        {
          "internalType": "address",
          "name": "account",
          "type": "address"
        }
      ],
      "name": "grantRole",
      "outputs": [],
      "stateMutability": "nonpayable",
      "type": "function"
    },
    {
      "inputs": [
        {
          "internalType": "bytes32",
          "name": "role",
          "type": "bytes32"
        },
        {
          "internalType": "address",
          "name": "account",
          "type": "address"
        }
      ],
      "name": "hasRole",
      "outputs": [
        {
          "internalType": "bool",
          "name": "",
          "type": "bool"
        }
      ],
      "stateMutability": "view",
      "type": "function"
    },
    {
      "inputs": [],
      "name": "pause",
      "outputs": [],
      "stateMutability": "nonpayable",
      "type": "function"
    },
    {
      "inputs": [],
      "name": "paused",
      "outputs": [
        {
          "internalType": "bool",
          "name": "",
          "type": "bool"
        }
      ],
      "stateMutability": "view",
      "type": "function"
    },
    {
      "inputs": [
        {
          "internalType": "bytes32",
          "name": "role",
          "type": "bytes32"
        },
        {
          "internalType": "address",
          "name": "account",
          "type": "address"
        }
      ],
      "name": "renounceRole",
      "outputs": [],
      "stateMutability": "nonpayable",
      "type": "function"
    },
    {
      "inputs": [
        {
          "internalType": "bytes32",
          "name": "role",
          "type": "bytes32"
        },
        {
          "internalType": "address",
          "name": "account",
          "type": "address"
        }
      ],
      "name": "revokeRole",
      "outputs": [],
      "stateMutability": "nonpayable",
      "type": "function"
    },
    {
      "inputs": [
        {
          "internalType": "address",
          "name": "_coveredCallContract",
          "type": "address"
        }
      ],
      "name": "setCoveredCallFactory",
      "outputs": [],
      "stateMutability": "nonpayable",
      "type": "function"
    },
    {
      "inputs": [
        {
          "internalType": "address",
          "name": "_vaultFactoryContract",
          "type": "address"
        }
      ],
      "name": "setVaultFactory",
      "outputs": [],
      "stateMutability": "nonpayable",
      "type": "function"
    },
    {
      "inputs": [
        {
          "internalType": "bytes4",
          "name": "interfaceId",
          "type": "bytes4"
        }
      ],
      "name": "supportsInterface",
      "outputs": [
        {
          "internalType": "bool",
          "name": "",
          "type": "bool"
        }
      ],
      "stateMutability": "view",
      "type": "function"
    },
    {
      "inputs": [],
      "name": "throwWhenPaused",
      "outputs": [],
      "stateMutability": "view",
      "type": "function"
    },
    {
      "inputs": [],
      "name": "unpause",
      "outputs": [],
      "stateMutability": "nonpayable",
      "type": "function"
    },
    {
      "inputs": [],
      "name": "vaultContract",
      "outputs": [
        {
          "internalType": "address",
          "name": "",
          "type": "address"
        }
      ],
      "stateMutability": "view",
      "type": "function"
    }
  ],
  "bytecode": {
    "object": "0x60806040523480156200001157600080fd5b5060405162000f5838038062000f5883398101604081905262000034916200024c565b6001805460ff191690556200005960008051602062000ef88339815191528262000151565b6200007460008051602062000f188339815191528262000151565b620000a07f945438d5e976f17e0d00cb2997cf8951c55e12977d86234d6738d1865abe006e8262000151565b620000bb60008051602062000f388339815191528262000151565b620000e560008051602062000ef883398151915260008051602062000f3883398151915262000161565b6200010f60008051602062000f1883398151915260008051602062000f3883398151915262000161565b6200014a7f945438d5e976f17e0d00cb2997cf8951c55e12977d86234d6738d1865abe006e60008051602062000f3883398151915262000161565b506200027e565b6200015d8282620001ac565b5050565b600082815260208190526040808220600101805490849055905190918391839186917fbd79b86ffe0ab8e8776151514217cd7cacd52c909f66475c3af44e129f0b00ff9190a4505050565b6000828152602081815260408083206001600160a01b038516845290915290205460ff166200015d576000828152602081815260408083206001600160a01b03851684529091529020805460ff19166001179055620002083390565b6001600160a01b0316816001600160a01b0316837f2f8788117e7eff1d82e926ec794901d17c78024a50270940304540a733656f0d60405160405180910390a45050565b6000602082840312156200025f57600080fd5b81516001600160a01b03811681146200027757600080fd5b9392505050565b610c6a806200028e6000396000f3fe608060405234801561001057600080fd5b50600436106101215760003560e01c80635b67d9ab116100ad57806391d148541161007157806391d1485414610281578063a217fddf14610294578063acca68381461029c578063d547741f146102c3578063e63ab1e9146102d657600080fd5b80635b67d9ab146102275780635c975abb1461022f578063624c78011461023a57806375b238fc146102525780638456cb591461027957600080fd5b8063248a9ca3116100f4578063248a9ca3146101c35780632f2ff15d146101e657806336568abe146101f95780633ea7fbdb1461020c5780633f4ba83a1461021f57600080fd5b806301ffc9a7146101265780630d5e67ec1461014e578063209b6d75146101835780632274346b14610198575b600080fd5b6101396101343660046109f6565b6102fd565b60405190151581526020015b60405180910390f35b6101757f945438d5e976f17e0d00cb2997cf8951c55e12977d86234d6738d1865abe006e81565b604051908152602001610145565b610196610191366004610a3c565b610334565b005b6002546101ab906001600160a01b031681565b6040516001600160a01b039091168152602001610145565b6101756101d1366004610a57565b60009081526020819052604090206001015490565b6101966101f4366004610a70565b6103ab565b610196610207366004610a70565b6103d5565b61019661021a366004610a3c565b610453565b6101966104bb565b61019661050b565b60015460ff16610139565b6001546101ab9061010090046001600160a01b031681565b6101757fa49807205ce4d355092ef5a8a18f56e8913cf4a201fbe287825b095693c2177581565b610196610551565b61013961028f366004610a70565b61059f565b610175600081565b6101757ffba4f6dd992a27a814ee807eb2f9332d6d01312041726966a540cf4a4a89155381565b6101966102d1366004610a70565b6105c8565b6101757f65d7a28e3265b37a6474929f336521b332c1681b933f6cb9f3376673440d862a81565b60006001600160e01b03198216637965db0b60e01b148061032e57506301ffc9a760e01b6001600160e01b03198316145b92915050565b61035e7fa49807205ce4d355092ef5a8a18f56e8913cf4a201fbe287825b095693c217753361059f565b6103835760405162461bcd60e51b815260040161037a90610a9c565b60405180910390fd5b600180546001600160a01b0390921661010002610100600160a81b0319909216919091179055565b6000828152602081905260409020600101546103c6816105ed565b6103d083836105fa565b505050565b6001600160a01b03811633146104455760405162461bcd60e51b815260206004820152602f60248201527f416363657373436f6e74726f6c3a2063616e206f6e6c792072656e6f756e636560448201526e103937b632b9903337b91039b2b63360891b606482015260840161037a565b61044f828261067e565b5050565b61047d7fa49807205ce4d355092ef5a8a18f56e8913cf4a201fbe287825b095693c217753361059f565b6104995760405162461bcd60e51b815260040161037a90610a9c565b600280546001600160a01b0319166001600160a01b0392909216919091179055565b6104e57f65d7a28e3265b37a6474929f336521b332c1681b933f6cb9f3376673440d862a3361059f565b6105015760405162461bcd60e51b815260040161037a90610a9c565b6105096106e3565b565b60015460ff16156105095760405162461bcd60e51b815260206004820152601060248201526f14185d5cd8589b194e881c185d5cd95960821b604482015260640161037a565b61057b7f65d7a28e3265b37a6474929f336521b332c1681b933f6cb9f3376673440d862a3361059f565b6105975760405162461bcd60e51b815260040161037a90610a9c565b610509610776565b6000918252602082815260408084206001600160a01b0393909316845291905290205460ff1690565b6000828152602081905260409020600101546105e3816105ed565b6103d0838361067e565b6105f781336107ef565b50565b610604828261059f565b61044f576000828152602081815260408083206001600160a01b03851684529091529020805460ff1916600117905561063a3390565b6001600160a01b0316816001600160a01b0316837f2f8788117e7eff1d82e926ec794901d17c78024a50270940304540a733656f0d60405160405180910390a45050565b610688828261059f565b1561044f576000828152602081815260408083206001600160a01b0385168085529252808320805460ff1916905551339285917ff6391f5c32d9c69d2a47ea670b442974b53935d1edc7fd64eb21e047a839171b9190a45050565b60015460ff1661072c5760405162461bcd60e51b815260206004820152601460248201527314185d5cd8589b194e881b9bdd081c185d5cd95960621b604482015260640161037a565b6001805460ff191690557f5db9ee0a495bf2e6ff9c91a7834c1ba4fdd244a5e8aa4e537bd38aeae4b073aa335b6040516001600160a01b03909116815260200160405180910390a1565b60015460ff16156107bc5760405162461bcd60e51b815260206004820152601060248201526f14185d5cd8589b194e881c185d5cd95960821b604482015260640161037a565b6001805460ff1916811790557f62e78cea01bee320cd4e420270b5ea74000d11b0c9f74754ebdbfc544b05a25833610759565b6107f9828261059f565b61044f57610811816001600160a01b03166014610853565b61081c836020610853565b60405160200161082d929190610afc565b60408051601f198184030181529082905262461bcd60e51b825261037a91600401610b71565b60606000610862836002610bba565b61086d906002610bd9565b67ffffffffffffffff81111561088557610885610bf1565b6040519080825280601f01601f1916602001820160405280156108af576020820181803683370190505b509050600360fc1b816000815181106108ca576108ca610c07565b60200101906001600160f81b031916908160001a905350600f60fb1b816001815181106108f9576108f9610c07565b60200101906001600160f81b031916908160001a905350600061091d846002610bba565b610928906001610bd9565b90505b60018111156109a0576f181899199a1a9b1b9c1cb0b131b232b360811b85600f166010811061095c5761095c610c07565b1a60f81b82828151811061097257610972610c07565b60200101906001600160f81b031916908160001a90535060049490941c9361099981610c1d565b905061092b565b5083156109ef5760405162461bcd60e51b815260206004820181905260248201527f537472696e67733a20686578206c656e67746820696e73756666696369656e74604482015260640161037a565b9392505050565b600060208284031215610a0857600080fd5b81356001600160e01b0319811681146109ef57600080fd5b80356001600160a01b0381168114610a3757600080fd5b919050565b600060208284031215610a4e57600080fd5b6109ef82610a20565b600060208284031215610a6957600080fd5b5035919050565b60008060408385031215610a8357600080fd5b82359150610a9360208401610a20565b90509250929050565b60208082526016908201527521b0b63632b91034b9903737ba1030b71030b236b4b760511b604082015260600190565b60005b83811015610ae7578181015183820152602001610acf565b83811115610af6576000848401525b50505050565b7f416363657373436f6e74726f6c3a206163636f756e7420000000000000000000815260008351610b34816017850160208801610acc565b7001034b99036b4b9b9b4b733903937b6329607d1b6017918401918201528351610b65816028840160208801610acc565b01602801949350505050565b6020815260008251806020840152610b90816040850160208701610acc565b601f01601f19169190910160400192915050565b634e487b7160e01b600052601160045260246000fd5b6000816000190483118215151615610bd457610bd4610ba4565b500290565b60008219821115610bec57610bec610ba4565b500190565b634e487b7160e01b600052604160045260246000fd5b634e487b7160e01b600052603260045260246000fd5b600081610c2c57610c2c610ba4565b50600019019056fea2646970667358221220c7e25449bd2be2ebc42e704de0bf5c5195a680129847ecb871d448337f6852d664736f6c634300080a0033fba4f6dd992a27a814ee807eb2f9332d6d01312041726966a540cf4a4a89155365d7a28e3265b37a6474929f336521b332c1681b933f6cb9f3376673440d862aa49807205ce4d355092ef5a8a18f56e8913cf4a201fbe287825b095693c21775",
    "linkReferences": {}
  }
}