{
  "abi": [
    {
      "inputs": [
        {
          "internalType": "address",
          "name": "hookProtocolAddress",
          "type": "address"
        },
        {
          "internalType": "address",
          "name": "beaconAddress",
          "type": "address"
        }
      ],
      "stateMutability": "nonpayable",
      "type": "constructor"
    },
    {
      "inputs": [],
      "name": "ADMIN_ROLE",
      "outputs": [
        {
          "internalType": "bytes32",
          "name": "",
          "type": "bytes32"
        }
      ],
      "stateMutability": "view",
      "type": "function"
    },
    {
      "inputs": [],
      "name": "ALLOWLISTER_ROLE",
      "outputs": [
        {
          "internalType": "bytes32",
          "name": "",
          "type": "bytes32"
        }
      ],
      "stateMutability": "view",
      "type": "function"
    },
    {
      "inputs": [],
      "name": "PAUSER_ROLE",
      "outputs": [
        {
          "internalType": "bytes32",
          "name": "",
          "type": "bytes32"
        }
      ],
      "stateMutability": "view",
      "type": "function"
    },
    {
      "inputs": [],
      "name": "VAULT_UPGRADER",
      "outputs": [
        {
          "internalType": "bytes32",
          "name": "",
          "type": "bytes32"
        }
      ],
      "stateMutability": "view",
      "type": "function"
    },
    {
      "inputs": [
        {
          "internalType": "address",
          "name": "",
          "type": "address"
        }
      ],
      "name": "getCallInsturment",
      "outputs": [
        {
          "internalType": "address",
          "name": "",
          "type": "address"
        }
      ],
      "stateMutability": "view",
      "type": "function"
    },
    {
      "inputs": [
        {
          "internalType": "address",
          "name": "assetAddress",
          "type": "address"
        }
      ],
      "name": "makeCallInsturment",
      "outputs": [
        {
          "internalType": "address",
          "name": "calls",
          "type": "address"
        }
      ],
      "stateMutability": "nonpayable",
      "type": "function"
    }
  ],
  "bytecode": {
    "object": "0x608060405234801561001057600080fd5b50604051610ec6380380610ec683398101604081905261002f9161007f565b600180546001600160a01b039283166001600160a01b031991821617909155600280549390921692169190911790556100b2565b80516001600160a01b038116811461007a57600080fd5b919050565b6000806040838503121561009257600080fd5b61009b83610063565b91506100a960208401610063565b90509250929050565b610e05806100c16000396000f3fe608060405234801561001057600080fd5b50600436106100625760003560e01c80630d5e67ec146100675780634d237b33146100a157806375b238fc146100e25780637aefc20314610109578063acca68381461011c578063e63ab1e914610143575b600080fd5b61008e7f945438d5e976f17e0d00cb2997cf8951c55e12977d86234d6738d1865abe006e81565b6040519081526020015b60405180910390f35b6100ca6100af366004610402565b6000602081905290815260409020546001600160a01b031681565b6040516001600160a01b039091168152602001610098565b61008e7fa49807205ce4d355092ef5a8a18f56e8913cf4a201fbe287825b095693c2177581565b6100ca610117366004610402565b61016a565b61008e7ffba4f6dd992a27a814ee807eb2f9332d6d01312041726966a540cf4a4a89155381565b61008e7f65d7a28e3265b37a6474929f336521b332c1681b933f6cb9f3376673440d862a81565b6001600160a01b03818116600090815260208190526040812054909116156101d95760405162461bcd60e51b815260206004820181905260248201527f612063616c6c20696e737475726d656e7420616c72656164792065786973747360448201526064015b60405180910390fd5b600254604051632474521560e21b81527ffba4f6dd992a27a814ee807eb2f9332d6d01312041726966a540cf4a4a89155360048201523360248201526001600160a01b03909116906391d1485490604401602060405180830381865afa158015610247573d6000803e3d6000fd5b505050506040513d601f19601f8201168201806040525081019061026b9190610426565b6102b75760405162461bcd60e51b815260206004820181905260248201527f4f6e6c792061646d696e732063616e206d616b6520696e737475726d656e747360448201526064016101d0565b604080516001600160a01b03841660208201520160408051601f198184030181528282528051602091820120600154600254632274346b60e01b8652935191946001600160a01b039182169488949216928392632274346b92600480820193918290030181865afa158015610330573d6000803e3d6000fd5b505050506040513d601f19601f820116820180604052508101906103549190610448565b604051610360906103dc565b6001600160a01b0394851681529284166020840152908316604083015290911660608201526080018190604051809103906000f59050801580156103a8573d6000803e3d6000fd5b506001600160a01b03928316600090815260208190526040902080546001600160a01b031916938216939093179092555090565b61096a806200046683390190565b6001600160a01b03811681146103ff57600080fd5b50565b60006020828403121561041457600080fd5b813561041f816103ea565b9392505050565b60006020828403121561043857600080fd5b8151801515811461041f57600080fd5b60006020828403121561045a57600080fd5b815161041f816103ea56fe608060405234801561001057600080fd5b5060405161096a38038061096a83398101604081905261002f916104ab565b6040516001600160a01b038084166024830152808516604483015282166064820152849060840160408051601f198184030181529190526020810180516001600160e01b031663c0c53b8b60e01b1790526100ab60017fa3f0ad74e5423aebfd80d3ef4346578335a9a72aeaee59ff6cb3582b35133d516104ff565b600080516020610923833981519152146100c7576100c7610524565b6100d3828260006100de565b5050505050506105d0565b6100e7836101a9565b6040516001600160a01b038416907f1cf3b03a6cf19fa2baba4df148e9dcabedea7f8a5c07840e207e5c089be95d3e90600090a26000825111806101285750805b156101a4576101a2836001600160a01b0316635c60da1b6040518163ffffffff1660e01b8152600401602060405180830381865afa15801561016e573d6000803e3d6000fd5b505050506040513d601f19601f82011682018060405250810190610192919061053a565b8361033a60201b6100291760201c565b505b505050565b6101bc8161036660201b6100551760201c565b61021b5760405162461bcd60e51b815260206004820152602560248201527f455243313936373a206e657720626561636f6e206973206e6f74206120636f6e6044820152641d1c9858dd60da1b60648201526084015b60405180910390fd5b61028f816001600160a01b0316635c60da1b6040518163ffffffff1660e01b8152600401602060405180830381865afa15801561025c573d6000803e3d6000fd5b505050506040513d601f19601f82011682018060405250810190610280919061053a565b61036660201b6100551760201c565b6102f45760405162461bcd60e51b815260206004820152603060248201527f455243313936373a20626561636f6e20696d706c656d656e746174696f6e206960448201526f1cc81b9bdd08184818dbdb9d1c9858dd60821b6064820152608401610212565b8061031960008051602061092383398151915260001b61037560201b6100641760201c565b80546001600160a01b0319166001600160a01b039290921691909117905550565b606061035f838360405180606001604052806027815260200161094360279139610378565b9392505050565b6001600160a01b03163b151590565b90565b60606001600160a01b0384163b6103e05760405162461bcd60e51b815260206004820152602660248201527f416464726573733a2064656c65676174652063616c6c20746f206e6f6e2d636f6044820152651b9d1c9858dd60d21b6064820152608401610212565b600080856001600160a01b0316856040516103fb9190610581565b600060405180830381855af49150503d8060008114610436576040519150601f19603f3d011682016040523d82523d6000602084013e61043b565b606091505b50909250905061044c828286610456565b9695505050505050565b6060831561046557508161035f565b8251156104755782518084602001fd5b8160405162461bcd60e51b8152600401610212919061059d565b80516001600160a01b03811681146104a657600080fd5b919050565b600080600080608085870312156104c157600080fd5b6104ca8561048f565b93506104d86020860161048f565b92506104e66040860161048f565b91506104f46060860161048f565b905092959194509250565b60008282101561051f57634e487b7160e01b600052601160045260246000fd5b500390565b634e487b7160e01b600052600160045260246000fd5b60006020828403121561054c57600080fd5b61035f8261048f565b60005b83811015610570578181015183820152602001610558565b838111156101a25750506000910152565b60008251610593818460208701610555565b9190910192915050565b60208152600082518060208401526105bc816040850160208701610555565b601f01601f19169190910160400192915050565b610344806105df6000396000f3fe60806040523661001357610011610017565b005b6100115b610027610022610067565b610100565b565b606061004e83836040518060600160405280602781526020016102e860279139610124565b9392505050565b6001600160a01b03163b151590565b90565b600061009a7fa3f0ad74e5423aebfd80d3ef4346578335a9a72aeaee59ff6cb3582b35133d50546001600160a01b031690565b6001600160a01b0316635c60da1b6040518163ffffffff1660e01b8152600401602060405180830381865afa1580156100d7573d6000803e3d6000fd5b505050506040513d601f19601f820116820180604052508101906100fb919061023f565b905090565b3660008037600080366000845af43d6000803e80801561011f573d6000f35b3d6000fd5b60606001600160a01b0384163b6101915760405162461bcd60e51b815260206004820152602660248201527f416464726573733a2064656c65676174652063616c6c20746f206e6f6e2d636f6044820152651b9d1c9858dd60d21b60648201526084015b60405180910390fd5b600080856001600160a01b0316856040516101ac9190610298565b600060405180830381855af49150503d80600081146101e7576040519150601f19603f3d011682016040523d82523d6000602084013e6101ec565b606091505b50915091506101fc828286610206565b9695505050505050565b6060831561021557508161004e565b8251156102255782518084602001fd5b8160405162461bcd60e51b815260040161018891906102b4565b60006020828403121561025157600080fd5b81516001600160a01b038116811461004e57600080fd5b60005b8381101561028357818101518382015260200161026b565b83811115610292576000848401525b50505050565b600082516102aa818460208701610268565b9190910192915050565b60208152600082518060208401526102d3816040850160208701610268565b601f01601f1916919091016040019291505056fe416464726573733a206c6f772d6c6576656c2064656c65676174652063616c6c206661696c6564a2646970667358221220c935558e3ac541eff84ee18dc80176727ee0410f741171d3e4c574c6fe54b6cf64736f6c634300080a0033a3f0ad74e5423aebfd80d3ef4346578335a9a72aeaee59ff6cb3582b35133d50416464726573733a206c6f772d6c6576656c2064656c65676174652063616c6c206661696c6564a2646970667358221220bb4b1ed8ff521d7c574ae771e0d9b1cfda387292342d39afe4f21955a6b9e1ac64736f6c634300080a0033",
    "linkReferences": {}
  }
}