{
  "abi": [
    {
      "inputs": [],
      "stateMutability": "nonpayable",
      "type": "constructor"
    },
    {
      "anonymous": false,
      "inputs": [
        {
          "indexed": false,
          "internalType": "address",
          "name": "owner",
          "type": "address"
        },
        {
          "indexed": false,
          "internalType": "address",
          "name": "sender",
          "type": "address"
        },
        {
          "indexed": false,
          "internalType": "address",
          "name": "contractAddress",
          "type": "address"
        },
        {
          "indexed": false,
          "internalType": "uint256",
          "name": "tokenId",
          "type": "uint256"
        }
      ],
      "name": "assetReceived",
      "type": "event"
    },
    {
      "anonymous": false,
      "inputs": [
        {
          "indexed": false,
          "internalType": "address",
          "name": "caller",
          "type": "address"
        },
        {
          "indexed": false,
          "internalType": "address",
          "name": "assetReceiver",
          "type": "address"
        }
      ],
      "name": "assetWithdrawn",
      "type": "event"
    },
    {
      "anonymous": false,
      "inputs": [
        {
          "indexed": false,
          "internalType": "address",
          "name": "beneficialOwner",
          "type": "address"
        },
        {
          "indexed": false,
          "internalType": "address",
          "name": "setBy",
          "type": "address"
        }
      ],
      "name": "beneficialOwnerSet",
      "type": "event"
    },
    {
      "anonymous": false,
      "inputs": [
        {
          "indexed": false,
          "internalType": "address",
          "name": "beneficialOwner",
          "type": "address"
        }
      ],
      "name": "entitlementCleared",
      "type": "event"
    },
    {
      "anonymous": false,
      "inputs": [
        {
          "indexed": false,
          "internalType": "address",
          "name": "entitledAccout",
          "type": "address"
        },
        {
          "indexed": false,
          "internalType": "uint256",
          "name": "expiry",
          "type": "uint256"
        },
        {
          "indexed": false,
          "internalType": "address",
          "name": "beneficialOwner",
          "type": "address"
        }
      ],
      "name": "entitlementImposed",
      "type": "event"
    },
    {
      "inputs": [],
      "name": "EIP712_DOMAIN_SEPARATOR",
      "outputs": [
        {
          "internalType": "bytes32",
          "name": "",
          "type": "bytes32"
        }
      ],
      "stateMutability": "view",
      "type": "function"
    },
    {
      "inputs": [],
      "name": "clearEntitlement",
      "outputs": [],
      "stateMutability": "nonpayable",
      "type": "function"
    },
    {
      "inputs": [
        {
          "internalType": "address",
          "name": "reciever",
          "type": "address"
        }
      ],
      "name": "clearEntitlementAndDistribute",
      "outputs": [],
      "stateMutability": "nonpayable",
      "type": "function"
    },
    {
      "inputs": [],
      "name": "entitledOperatorContract",
      "outputs": [
        {
          "internalType": "address",
          "name": "operator",
          "type": "address"
        }
      ],
      "stateMutability": "view",
      "type": "function"
    },
    {
      "inputs": [],
      "name": "entitlementExpiration",
      "outputs": [
        {
          "internalType": "uint256",
          "name": "expiry",
          "type": "uint256"
        }
      ],
      "stateMutability": "view",
      "type": "function"
    },
    {
      "inputs": [
        {
          "internalType": "address",
          "name": "to",
          "type": "address"
        },
        {
          "internalType": "bytes",
          "name": "data",
          "type": "bytes"
        }
      ],
      "name": "execTransaction",
      "outputs": [
        {
          "internalType": "bool",
          "name": "success",
          "type": "bool"
        }
      ],
      "stateMutability": "payable",
      "type": "function"
    },
    {
      "inputs": [],
      "name": "getBeneficialOwner",
      "outputs": [
        {
          "internalType": "address",
          "name": "",
          "type": "address"
        }
      ],
      "stateMutability": "view",
      "type": "function"
    },
    {
      "inputs": [
        {
          "components": [
            {
              "internalType": "address",
              "name": "beneficialOwner",
              "type": "address"
            },
            {
              "internalType": "address",
              "name": "operator",
              "type": "address"
            },
            {
              "internalType": "address",
              "name": "nftContract",
              "type": "address"
            },
            {
              "internalType": "uint256",
              "name": "nftTokenId",
              "type": "uint256"
            },
            {
              "internalType": "uint256",
              "name": "expiry",
              "type": "uint256"
            }
          ],
          "internalType": "struct Entitlements.Entitlement",
          "name": "entitlement",
          "type": "tuple"
        }
      ],
      "name": "getEntitlementHash",
      "outputs": [
        {
          "internalType": "bytes32",
          "name": "entitlementHash",
          "type": "bytes32"
        }
      ],
      "stateMutability": "view",
      "type": "function"
    },
    {
      "inputs": [],
      "name": "hasActiveEntitlement",
      "outputs": [
        {
          "internalType": "bool",
          "name": "",
          "type": "bool"
        }
      ],
      "stateMutability": "view",
      "type": "function"
    },
    {
      "inputs": [],
      "name": "holdsAsset",
      "outputs": [
        {
          "internalType": "bool",
          "name": "holdsAsset",
          "type": "bool"
        }
      ],
      "stateMutability": "view",
      "type": "function"
    },
    {
      "inputs": [
        {
          "components": [
            {
              "internalType": "address",
              "name": "beneficialOwner",
              "type": "address"
            },
            {
              "internalType": "address",
              "name": "operator",
              "type": "address"
            },
            {
              "internalType": "address",
              "name": "nftContract",
              "type": "address"
            },
            {
              "internalType": "uint256",
              "name": "nftTokenId",
              "type": "uint256"
            },
            {
              "internalType": "uint256",
              "name": "expiry",
              "type": "uint256"
            }
          ],
          "internalType": "struct Entitlements.Entitlement",
          "name": "entitlement",
          "type": "tuple"
        },
        {
          "components": [
            {
              "internalType": "enum Signatures.SignatureType",
              "name": "signatureType",
              "type": "uint8"
            },
            {
              "internalType": "uint8",
              "name": "v",
              "type": "uint8"
            },
            {
              "internalType": "bytes32",
              "name": "r",
              "type": "bytes32"
            },
            {
              "internalType": "bytes32",
              "name": "s",
              "type": "bytes32"
            }
          ],
          "internalType": "struct Signatures.Signature",
          "name": "signature",
          "type": "tuple"
        }
      ],
      "name": "imposeEntitlement",
      "outputs": [],
      "stateMutability": "nonpayable",
      "type": "function"
    },
    {
      "inputs": [
        {
          "internalType": "address",
          "name": "nftContract",
          "type": "address"
        },
        {
          "internalType": "uint256",
          "name": "tokenId",
          "type": "uint256"
        },
        {
          "internalType": "address",
          "name": "hookAddress",
          "type": "address"
        }
      ],
      "name": "initialize",
      "outputs": [],
      "stateMutability": "nonpayable",
      "type": "function"
    },
    {
      "inputs": [
        {
          "internalType": "address",
          "name": "operator",
          "type": "address"
        },
        {
          "internalType": "address",
          "name": "from",
          "type": "address"
        },
        {
          "internalType": "uint256",
          "name": "tokenId",
          "type": "uint256"
        },
        {
          "internalType": "bytes",
          "name": "data",
          "type": "bytes"
        }
      ],
      "name": "onERC721Received",
      "outputs": [
        {
          "internalType": "bytes4",
          "name": "",
          "type": "bytes4"
        }
      ],
      "stateMutability": "nonpayable",
      "type": "function"
    },
    {
      "inputs": [
        {
          "internalType": "address",
          "name": "_newBeneficialOwner",
          "type": "address"
        }
      ],
      "name": "setBeneficialOwner",
      "outputs": [],
      "stateMutability": "nonpayable",
      "type": "function"
    },
    {
      "inputs": [
        {
          "components": [
            {
              "internalType": "address",
              "name": "beneficialOwner",
              "type": "address"
            },
            {
              "internalType": "address",
              "name": "operator",
              "type": "address"
            },
            {
              "internalType": "address",
              "name": "nftContract",
              "type": "address"
            },
            {
              "internalType": "uint256",
              "name": "nftTokenId",
              "type": "uint256"
            },
            {
              "internalType": "uint256",
              "name": "expiry",
              "type": "uint256"
            }
          ],
          "internalType": "struct Entitlements.Entitlement",
          "name": "entitlement",
          "type": "tuple"
        },
        {
          "components": [
            {
              "internalType": "enum Signatures.SignatureType",
              "name": "signatureType",
              "type": "uint8"
            },
            {
              "internalType": "uint8",
              "name": "v",
              "type": "uint8"
            },
            {
              "internalType": "bytes32",
              "name": "r",
              "type": "bytes32"
            },
            {
              "internalType": "bytes32",
              "name": "s",
              "type": "bytes32"
            }
          ],
          "internalType": "struct Signatures.Signature",
          "name": "signature",
          "type": "tuple"
        }
      ],
      "name": "validateEntitlementSignature",
      "outputs": [],
      "stateMutability": "view",
      "type": "function"
    },
    {
      "inputs": [],
      "name": "withdrawalAsset",
      "outputs": [],
      "stateMutability": "nonpayable",
      "type": "function"
    }
  ],
  "bytecode": {
    "object": "0x608060405234801561001057600080fd5b506001600255611b39806100256000396000f3fe6080604052600436106100f35760003560e01c8063b705b73a1161008a578063dab400f311610059578063dab400f314610294578063dc563133146102aa578063e69a6186146102bf578063eb2cc036146102df57600080fd5b8063b705b73a1461022a578063c350a1b51461024a578063c7eecb331461026a578063cb2aa7881461027f57600080fd5b8063697eb4f9116100c6578063697eb4f9146101a65780637ae7cfb5146101bb5780638eb7374c146101de5780639ba9690c146101f357600080fd5b8063150b7a02146100f857806319d5c65c146101365780634168b620146101645780635803b4c514610186575b600080fd5b34801561010457600080fd5b506101186101133660046116dd565b6102f4565b6040516001600160e01b031990911681526020015b60405180910390f35b34801561014257600080fd5b50610156610151366004611877565b610451565b60405190815260200161012d565b34801561017057600080fd5b5061018461017f36600461189a565b61046a565b005b34801561019257600080fd5b506101846101a1366004611920565b610516565b3480156101b257600080fd5b50610156610680565b6101ce6101c936600461193d565b610697565b604051901515815260200161012d565b3480156101ea57600080fd5b506101ce6108a3565b3480156101ff57600080fd5b5060055461010090046001600160a01b03165b6040516001600160a01b03909116815260200161012d565b34801561023657600080fd5b5061018461024536600461189a565b610925565b34801561025657600080fd5b506101846102653660046119e5565b6109df565b34801561027657600080fd5b50610184610af0565b34801561028b57600080fd5b506101ce610c42565b3480156102a057600080fd5b5061015660005481565b3480156102b657600080fd5b50610212610680565b3480156102cb57600080fd5b506101846102da366004611920565b610c62565b3480156102eb57600080fd5b50610184610e26565b6003546000906001600160a01b031633148015610312575060045484145b156103615761032085610f31565b811561035c576000806103358486018661189a565b915091506103598282600560019054906101000a90046001600160a01b0316610f92565b50505b6103ef565b60055460ff166103ef5760405162461bcd60e51b815260206004820152604860248201527f6f6e4552433732315265636569766564202d2d206e6f6e2d657363726f77206160448201527f737365742072657475726e6564207768656e2061697264726f70732061726520606482015267191a5cd8589b195960c21b608482015260a4015b60405180910390fd5b604080516001600160a01b0387811682528816602082015233818301526060810186905290517fb0befe834834a41d0c9ec973b95d5699fa1881b23300cd244f799f33660306839181900360800190a150630a85bd0160e11b95945050505050565b600061046461045f83611296565b6113d2565b92915050565b600061047583610451565b9050600061048382846113fb565b905083600001516001600160a01b0316816001600160a01b0316146105105760405162461bcd60e51b815260206004820152603e60248201527f76616c6964617465456e7469746c656d656e745369676e6174757265202d2d2d60448201527f206e6f74207369676e65642062792062656e6566696369616c4f776e6572000060648201526084016103e6565b50505050565b61051e610c42565b156105da576007546001600160a01b031633146105d55760405162461bcd60e51b815260206004820152606360248201527f73657442656e6566696369616c4f776e6572202d2d206f6e6c7920746865206360448201527f6f6e74726163742077697468207468652061637469766520656e7469746c656d60648201527f656e742063616e20757064617465207468652062656e6566696369616c206f776084820152623732b960e91b60a482015260c4016103e6565b610674565b60055461010090046001600160a01b031633146106745760405162461bcd60e51b815260206004820152604c60248201527f73657442656e6566696369616c4f776e6572202d2d206f6e6c7920746865206360448201527f757272656e74206f776e65722063616e20757064617465207468652062656e6560648201526b3334b1b4b0b61037bbb732b960a11b608482015260a4016103e6565b61067d81610f31565b50565b600061068a610c42565b6106945750600090565b90565b60055460009061010090046001600160a01b0316331461072d5760405162461bcd60e51b8152602060048201526044602482018190527f657865635472616e73616374696f6e202d2d206f6e6c79207468652062656e65908201527f66696369616c206f776e65722063616e2075736520746865207472616e7361636064820152633a34b7b760e11b608482015260a4016103e6565b6003546001600160a01b03848116911614156107c05760405162461bcd60e51b815260206004820152604660248201527f657865635472616e73616374696f6e202d2d2063616e6e6f742073656e64207460448201527f72616e73616374696f6e7320746f20746865204e465420636f6e74726163742060648201526534ba39b2b63360d11b608482015260a4016103e6565b826001600160a01b031634836040516107d99190611a27565b60006040518083038185875af1925050503d8060008114610816576040519150601f19603f3d011682016040523d82523d6000602084013e61081b565b606091505b5050600354600480546040516331a9108f60e11b81529182015291925030916001600160a01b0390911690636352211e90602401602060405180830381865afa15801561086c573d6000803e3d6000fd5b505050506040513d601f19601f820116820180604052508101906108909190611a62565b6001600160a01b03161461046457600080fd5b600354600480546040516331a9108f60e11b81529182015260009130916001600160a01b0390911690636352211e90602401602060405180830381865afa1580156108f2573d6000803e3d6000fd5b505050506040513d601f19601f820116820180604052508101906109169190611a62565b6001600160a01b031614905090565b60055461010090046001600160a01b03166109bb5760405162461bcd60e51b815260206004820152604a60248201527f696d706f7365456e7469746c656d656e74202d2d2062656e6566696369616c2060448201527f6f776e6572206d7573742062652073657420746f20696d706f736520616e20656064820152691b9d1a5d1b195b595b9d60b21b608482015260a4016103e6565b6109db8282600560019054906101000a90046001600160a01b0316610f92565b5050565b60006109eb60016115a0565b90508015610a03576001805461ff0019166101001790555b604080517f8b73c3c69bb8fe3d512ecc4cf759cc79239f7b179b0ffacaa9a75d522b39400f6020808301919091527fbefac456e8d3c7dcbe25358dd865ef756e23bdcd0f4f36a6e915a0f24b6849e9828401527f06c015bd22b4c69690933c1058878ebdfef31f9aaae40bbe86d8a09fe1b2972c60608301524660808301526001600160a01b03851660a0808401919091528351808403909101815260c090920190925280519101206000556004839055600380546001600160a01b0319166001600160a01b038616179055600b805460ff191690558015610510576001805461ff001916905550505050565b610af8610c42565b15610b7e5760405162461bcd60e51b815260206004820152604a60248201527f7769746864726177616c4173736574202d2d207468652061737365742063616e60448201527f6f742062652077697468647261776e207769746820616e2061637469766520656064820152691b9d1a5d1b195b595b9d60b21b608482015260a4016103e6565b60035460055460048054604051632142170760e11b815230928101929092526001600160a01b036101009093048316602483015260448201529116906342842e0e90606401600060405180830381600087803b158015610bdd57600080fd5b505af1158015610bf1573d6000803e3d6000fd5b5050600554604080513381526101009092046001600160a01b031660208301527fcca02d0f45ac5246b424ed432b0b961af861b796286899114e58f0549e8d3b3a93500190505b60405180910390a1565b600a5460009042108015610c5d5750600b5460ff1615156001145b905090565b600280541415610cb45760405162461bcd60e51b815260206004820152601f60248201527f5265656e7472616e637947756172643a207265656e7472616e742063616c6c0060448201526064016103e6565b600280556005546001600160a01b038281166101009092041614610d595760405162461bcd60e51b815260206004820152605060248201527f636c656172456e7469746c656d656e74416e6444697374726962757465202d2d60448201527f204f6e6c79207468652062656e6566696369616c206f776e65722063616e207260648201526f1958da595d99481d1a1948185cdcd95d60821b608482015260a4016103e6565b610d61610e26565b60035460048054604051632142170760e11b815230928101929092526001600160a01b0384811660248401526044830191909152909116906342842e0e90606401600060405180830381600087803b158015610dbc57600080fd5b505af1158015610dd0573d6000803e3d6000fd5b5050600554604080513381526101009092046001600160a01b031660208301527fcca02d0f45ac5246b424ed432b0b961af861b796286899114e58f0549e8d3b3a935001905060405180910390a1506001600255565b610e2e610c42565b610e975760405162461bcd60e51b815260206004820152603460248201527f636c656172456e7469746c656d656e74202d2d20616e2061637469766520656e6044820152731d1a5d1b195b595b9d081b5d5cdd08195e1a5cdd60621b60648201526084016103e6565b6007546001600160a01b03163314610f275760405162461bcd60e51b815260206004820152604760248201527f636c656172456e7469746c656d656e74202d2d206f6e6c792074686520656e7460448201527f69746c656420616464726573732063616e20636c6561722074686520656e74696064820152661d1b195b595b9d60ca1b608482015260a4016103e6565b610f2f611628565b565b60058054610100600160a81b0319166101006001600160a01b03841690810291909117909155604080519182523360208301527f875c0f15d07338312843593a28e4e3087fa829f274e566e24e435070fb5ecc2c910160405180910390a150565b610f9c838361046a565b610fa4610c42565b156110365760405162461bcd60e51b81526020600482015260626024820152600080516020611ae483398151915260448201527f206578697374696e6720656e7469746c656d656e74206d75737420626520636c60648201527f6561726564206265666f7265207265676973746572696e672061206e6577206f6084820152616e6560f01b60a482015260c4016103e6565b806001600160a01b031683600001516001600160a01b0316146110c75760405162461bcd60e51b815260206004820152604f6024820152600080516020611ae483398151915260448201527f2062656e6566696369616c4f776e657220646f6573206e6f74206d617463682060648201526e1d1a1948195b9d1a5d1b195b595b9d608a1b608482015260a4016103e6565b60035460408401516001600160a01b0390811691161461115a5760405162461bcd60e51b81526020600482015260546024820152600080516020611ae483398151915260448201527f2074686520656e7469746c656420636f6e7472616374206d757374206d6174636064820152731a081d1a19481d985d5b1d0818dbdb9d1c9858dd60621b608482015260a4016103e6565b6004548360600151146111e15760405162461bcd60e51b81526020600482015260556024820152600080516020611ae483398151915260448201527f2074686520656e7469746c656d656e7420746f6b656e4964206d757374206d616064820152741d18da081d1a19481d985d5b1d081d1bdad95b9259605a1b608482015260a4016103e6565b8251600680546001600160a01b03199081166001600160a01b0393841617909155602080860151600780548416918516918217905560408088015160088054909516908616179093556060808801516009556080880151600a819055600b805460ff19166001179055600554855193845293830152610100909204909316918301919091527f5e52636652e3250a8c9ceba697c4580e4c400d01d1a4564bb05d7f31ff5d6467910160405180910390a1505050565b6040516b08adce8d2e8d8cadacadce8560a31b60208201527f616464726573732062656e6566696369616c4f776e65722c0000000000000000602c820152701859191c995cdcc81bdc195c985d1bdc8b607a1b6044820152731859191c995cdcc81b999d10dbdb9d1c9858dd0b60621b6055820152721d5a5b9d0c8d4d881b999d151bdad95b92590b606a1b60698201526d75696e743235362065787069727960901b607c820152602960f81b608a820152600090608b0160408051601f198184030181528282528051602091820120855186830151878501516060808a01516080808c0151978a01969096526001600160a01b039485169789019790975291831691870191909152169084015260a083019190915260c082015260e0015b604051602081830303815290604052805190602001209050919050565b6000805460405161190160f01b60208201526022810191909152604281018390526062016113b5565b6000808251600181111561141157611411611a7f565b14156114865760208083015160408085015160608087015183516000815295860180855289905260ff9094169285019290925290830152608082015260019060a0016020604051602081039080840390855afa158015611475573d6000803e3d6000fd5b50505060206040510351905061154a565b60018251600181111561149b5761149b611a7f565b141561154a5760007f19457468657265756d205369676e6564204d6573736167653a0a33320000000060005283601c52603c60002090506001818460200151856040015186606001516040516000815260200160405260405161151a949392919093845260ff9290921660208401526040830152606082015260800190565b6020604051602081039080840390855afa15801561153c573d6000803e3d6000fd5b505050602060405103519150505b6001600160a01b0381166104645760405162461bcd60e51b815260206004820152601960248201527f7265636f76657265642061646472657373206973206e756c6c0000000000000060448201526064016103e6565b600154600090610100900460ff16156115e9578160ff1660011480156115c55750303b155b6115e15760405162461bcd60e51b81526004016103e690611a95565b506000919050565b60015460ff8084169116106116105760405162461bcd60e51b81526004016103e690611a95565b506001805460ff191660ff9290921691909117815590565b6040805160a08101825260008082526020808301829052828401829052606083018290526080909201819052600680546001600160a01b031990811690915560078054821690556008805490911690556009819055600a55600b805460ff1916905560055491516101009092046001600160a01b031682527f4cb228ea15e9641fd4b54bdf756b33408ee446202532bd5780caafb471183ccd9101610c38565b6001600160a01b038116811461067d57600080fd5b6000806000806000608086880312156116f557600080fd5b8535611700816116c8565b94506020860135611710816116c8565b935060408601359250606086013567ffffffffffffffff8082111561173457600080fd5b818801915088601f83011261174857600080fd5b81358181111561175757600080fd5b89602082850101111561176957600080fd5b9699959850939650602001949392505050565b634e487b7160e01b600052604160045260246000fd5b6040516080810167ffffffffffffffff811182821017156117b5576117b561177c565b60405290565b604051601f8201601f1916810167ffffffffffffffff811182821017156117e4576117e461177c565b604052919050565b600060a082840312156117fe57600080fd5b60405160a0810181811067ffffffffffffffff821117156118215761182161177c565b6040529050808235611832816116c8565b81526020830135611842816116c8565b60208201526040830135611855816116c8565b8060408301525060608301356060820152608083013560808201525092915050565b600060a0828403121561188957600080fd5b61189383836117ec565b9392505050565b6000808284036101208112156118af57600080fd5b6118b985856117ec565b92506080609f19820112156118cd57600080fd5b506118d6611792565b60a0840135600281106118e857600080fd5b815260c084013560ff811681146118fe57600080fd5b602082015260e084013560408201526101009093013560608401525092909150565b60006020828403121561193257600080fd5b8135611893816116c8565b6000806040838503121561195057600080fd5b823561195b816116c8565b915060208381013567ffffffffffffffff8082111561197957600080fd5b818601915086601f83011261198d57600080fd5b81358181111561199f5761199f61177c565b6119b1601f8201601f191685016117bb565b915080825287848285010111156119c757600080fd5b80848401858401376000848284010152508093505050509250929050565b6000806000606084860312156119fa57600080fd5b8335611a05816116c8565b9250602084013591506040840135611a1c816116c8565b809150509250925092565b6000825160005b81811015611a485760208186018101518583015201611a2e565b81811115611a57576000828501525b509190910192915050565b600060208284031215611a7457600080fd5b8151611893816116c8565b634e487b7160e01b600052602160045260246000fd5b6020808252602e908201527f496e697469616c697a61626c653a20636f6e747261637420697320616c72656160408201526d191e481a5b9a5d1a585b1a5e995960921b60608201526080019056fe5f766572696679416e645265676973746572456e7469746c656d656e74202d2da2646970667358221220bd50fa597d04fe6ad03316082f825a4196f1965796de846dda49394cc6c6fc6a64736f6c634300080a0033",
    "linkReferences": {}
  }
}