{
  "address": "0xbDBb56Be41dA9D54b50CDb32073a65e69426cB13",
  "abi": [
    {
      "inputs": [
        {
          "internalType": "address",
          "name": "hookProtocolAddress",
          "type": "address"
        },
        {
          "internalType": "address",
          "name": "beaconAddress",
          "type": "address"
        },
        {
          "internalType": "address",
          "name": "multiBeaconAddress",
          "type": "address"
        }
      ],
      "stateMutability": "nonpayable",
      "type": "constructor"
    },
    {
      "anonymous": false,
      "inputs": [
        {
          "indexed": false,
          "internalType": "address",
          "name": "nftAddress",
          "type": "address"
        },
        {
          "indexed": false,
          "internalType": "address",
          "name": "vaultAddress",
          "type": "address"
        }
      ],
      "name": "ERC721MultiVaultCreated",
      "type": "event"
    },
    {
      "anonymous": false,
      "inputs": [
        {
          "indexed": false,
          "internalType": "address",
          "name": "nftAddress",
          "type": "address"
        },
        {
          "indexed": false,
          "internalType": "uint256",
          "name": "tokenId",
          "type": "uint256"
        },
        {
          "indexed": false,
          "internalType": "address",
          "name": "vaultAddress",
          "type": "address"
        }
      ],
      "name": "ERC721VaultCreated",
      "type": "event"
    },
    {
      "inputs": [],
      "name": "ADMIN_ROLE",
      "outputs": [
        {
          "internalType": "bytes32",
          "name": "",
          "type": "bytes32"
        }
      ],
      "stateMutability": "view",
      "type": "function"
    },
    {
      "inputs": [],
      "name": "ALLOWLISTER_ROLE",
      "outputs": [
        {
          "internalType": "bytes32",
          "name": "",
          "type": "bytes32"
        }
      ],
      "stateMutability": "view",
      "type": "function"
    },
    {
      "inputs": [],
      "name": "CALL_UPGRADER",
      "outputs": [
        {
          "internalType": "bytes32",
          "name": "",
          "type": "bytes32"
        }
      ],
      "stateMutability": "view",
      "type": "function"
    },
    {
      "inputs": [],
      "name": "COLLECTION_CONF",
      "outputs": [
        {
          "internalType": "bytes32",
          "name": "",
          "type": "bytes32"
        }
      ],
      "stateMutability": "view",
      "type": "function"
    },
    {
      "inputs": [],
      "name": "MARKET_CONF",
      "outputs": [
        {
          "internalType": "bytes32",
          "name": "",
          "type": "bytes32"
        }
      ],
      "stateMutability": "view",
      "type": "function"
    },
    {
      "inputs": [],
      "name": "PAUSER_ROLE",
      "outputs": [
        {
          "internalType": "bytes32",
          "name": "",
          "type": "bytes32"
        }
      ],
      "stateMutability": "view",
      "type": "function"
    },
    {
      "inputs": [],
      "name": "VAULT_UPGRADER",
      "outputs": [
        {
          "internalType": "bytes32",
          "name": "",
          "type": "bytes32"
        }
      ],
      "stateMutability": "view",
      "type": "function"
    },
    {
      "inputs": [
        {
          "internalType": "address",
          "name": "nftAddress",
          "type": "address"
        },
        {
          "internalType": "uint256",
          "name": "tokenId",
          "type": "uint256"
        }
      ],
      "name": "findOrCreateVault",
      "outputs": [
        {
          "internalType": "contract IHookERC721Vault",
          "name": "vault",
          "type": "address"
        }
      ],
      "stateMutability": "nonpayable",
      "type": "function"
    },
    {
      "inputs": [
        {
          "internalType": "address",
          "name": "",
          "type": "address"
        }
      ],
      "name": "getMultiVault",
      "outputs": [
        {
          "internalType": "contract IHookERC721Vault",
          "name": "",
          "type": "address"
        }
      ],
      "stateMutability": "view",
      "type": "function"
    },
    {
      "inputs": [
        {
          "internalType": "address",
          "name": "",
          "type": "address"
        },
        {
          "internalType": "uint256",
          "name": "",
          "type": "uint256"
        }
      ],
      "name": "getVault",
      "outputs": [
        {
          "internalType": "contract IHookERC721Vault",
          "name": "",
          "type": "address"
        }
      ],
      "stateMutability": "view",
      "type": "function"
    },
    {
      "inputs": [
        {
          "internalType": "address",
          "name": "nftAddress",
          "type": "address"
        }
      ],
      "name": "makeMultiVault",
      "outputs": [
        {
          "internalType": "contract IHookERC721Vault",
          "name": "vault",
          "type": "address"
        }
      ],
      "stateMutability": "nonpayable",
      "type": "function"
    },
    {
      "inputs": [
        {
          "internalType": "address",
          "name": "nftAddress",
          "type": "address"
        },
        {
          "internalType": "uint256",
          "name": "tokenId",
          "type": "uint256"
        }
      ],
      "name": "makeSoloVault",
      "outputs": [
        {
          "internalType": "contract IHookERC721Vault",
          "name": "vault",
          "type": "address"
        }
      ],
      "stateMutability": "nonpayable",
      "type": "function"
    }
  ],
  "transactionHash": "0x08fec281948bace161d02331b886cee1c38cf9e1f539f1d0b4096f9540e40604",
  "args": [
    "0x15a2Ba10F757E88061F4f930a35eB5121ca00cE6",
    "0xa21c19BCEF553d0D2278EAca12970e483a29E201",
    "0x73B5A6fC67f4B8b75Ecfd1bf32B90775f7B6A663"
  ],
  "numDeployments": 2,
  "solcInputHash": "f9079719c55ec367359fccdad37d4c49",
  "bytecode": "0x608060405234801561001057600080fd5b5060405161136a38038061136a83398101604081905261002f9161008d565b600280546001600160a01b039485166001600160a01b0319918216179091556003805493851693821693909317909255600480549190931691161790556100d0565b80516001600160a01b038116811461008857600080fd5b919050565b6000806000606084860312156100a257600080fd5b6100ab84610071565b92506100b960208501610071565b91506100c760408501610071565b90509250925092565b61128b806100df6000396000f3fe608060405234801561001057600080fd5b50600436106100b45760003560e01c8063acca683811610071578063acca6838146101a8578063b6f3fa3f146101cf578063bb31173a146101e2578063d99d13f514610209578063e63ab1e91461023a578063f23c19e81461026157600080fd5b80630bc0d3fa146100b95780630d5e67ec146100e9578063435b51de1461011e5780636fe76da61461013157806375b238fc1461015a578063a34fd3fb14610181575b600080fd5b6100cc6100c7366004610a24565b610288565b6040516001600160a01b0390911681526020015b60405180910390f35b6101107f945438d5e976f17e0d00cb2997cf8951c55e12977d86234d6738d1865abe006e81565b6040519081526020016100e0565b6100cc61012c366004610a4e565b6104af565b6100cc61013f366004610a4e565b6001602052600090815260409020546001600160a01b031681565b6101107fa49807205ce4d355092ef5a8a18f56e8913cf4a201fbe287825b095693c2177581565b6101107f657f307dfada290937bc821a25e2da10feb07809ba9560b816723e8b47fe379a81565b6101107ffba4f6dd992a27a814ee807eb2f9332d6d01312041726966a540cf4a4a89155381565b6100cc6101dd366004610a24565b610848565b6101107ff7e0191f3657a6da7569740b1cdeac8c3425bcbfd257d4fdc6d2241598f4de8b81565b6100cc610217366004610a24565b60006020818152928152604080822090935290815220546001600160a01b031681565b6101107f65d7a28e3265b37a6474929f336521b332c1681b933f6cb9f3376673440d862a81565b6101107f8de11a8d956993287a5b6a74c069984045abc1b621d651081c4c77c05c3cb7af81565b6001600160a01b03828116600090815260208181526040808320858452909152812054909116156103125760405162461bcd60e51b815260206004820152602960248201527f6d616b655661756c74202d2d2061207661756c742063616e6e6f7420616c726560448201526818591e48195e1a5cdd60ba1b60648201526084015b60405180910390fd5b604080516001600160a01b038516602080830191909152818301859052825180830384018152606090920190925280519101206000906103769082905b60405161035e602082016109fb565b601f1982820381018352601f909101166040526108f1565b6003546002546040516001600160a01b03888116602483015260448201889052918216606482015292935080841692637fe8e72c92919091169060840160408051601f198184030181529181526020820180516001600160e01b031663c350a1b560e01b1790525160e084901b6001600160e01b03191681526103fd929190600401610a69565b600060405180830381600087803b15801561041757600080fd5b505af115801561042b573d6000803e3d6000fd5b505050506001600160a01b0384811660008181526020818152604080832088845282529182902080546001600160a01b03191694861694851790558151928352820186905281019190915290915081907fec1cb694178d064cbb440cc15ed37f43d60f55db3e5c1aa3b16f3da853812e579060600160405180910390a15092915050565b600254604051632474521560e21b81527ffba4f6dd992a27a814ee807eb2f9332d6d01312041726966a540cf4a4a89155360048201523360248201526000916001600160a01b0316906391d1485490604401602060405180830381865afa15801561051e573d6000803e3d6000fd5b505050506040513d601f19601f820116820180604052508101906105429190610ace565b806105db5750600254604051632474521560e21b81527ffba4f6dd992a27a814ee807eb2f9332d6d01312041726966a540cf4a4a8915536004820152600060248201526001600160a01b03909116906391d1485490604401602060405180830381865afa1580156105b7573d6000803e3d6000fd5b505050506040513d601f19601f820116820180604052508101906105db9190610ace565b6106685760405162461bcd60e51b815260206004820152605260248201527f6d616b654d756c74695661756c74202d2d204f6e6c79206163636f756e74732060448201527f776974682074686520414c4c4f574c495354455220726f6c652063616e206d616064820152716b65206e6577206d756c74695661756c747360701b608482015260a401610309565b6001600160a01b0382811660009081526001602052604090205416156106e55760405162461bcd60e51b815260206004820152602c60248201527f6d616b654d756c74695661756c74202d2d207661756c742063616e6e6f74206160448201526b1b1c9958591e48195e1a5cdd60a21b6064820152608401610309565b6000610724600061034f85604080516001600160a01b038316602082015260009101604051602081830303815290604052805190602001209050919050565b6004546002546040516001600160a01b038781166024830152918216604482015292935080841692637fe8e72c92919091169060640160408051601f198184030181529181526020820180516001600160e01b031663485cc95560e01b1790525160e084901b6001600160e01b03191681526107a4929190600401610a69565b600060405180830381600087803b1580156107be57600080fd5b505af11580156107d2573d6000803e3d6000fd5b505050506001600160a01b0383811660008181526001602090815260409182902080546001600160a01b0319169486169485179055815192835282019290925291925082917f4576e6da87b352d9168729d519d6b20717c930bc4aca52cd876b1c797227acc7910160405180910390a150919050565b6001600160a01b038281166000908152600160205260408120549091161561088b57506001600160a01b03808316600090815260016020526040902054166108eb565b6001600160a01b0383811660009081526020818152604080832086845290915290205416156108de57506001600160a01b03808316600090815260208181526040808320858452909152902054166108eb565b6108e88383610288565b90505b92915050565b600080844710156109445760405162461bcd60e51b815260206004820152601d60248201527f437265617465323a20696e73756666696369656e742062616c616e63650000006044820152606401610309565b82516109925760405162461bcd60e51b815260206004820181905260248201527f437265617465323a2062797465636f6465206c656e677468206973207a65726f6044820152606401610309565b8383516020850187f590506001600160a01b0381166109f35760405162461bcd60e51b815260206004820152601960248201527f437265617465323a204661696c6564206f6e206465706c6f79000000000000006044820152606401610309565b949350505050565b61075e80610af883390190565b80356001600160a01b0381168114610a1f57600080fd5b919050565b60008060408385031215610a3757600080fd5b610a4083610a08565b946020939093013593505050565b600060208284031215610a6057600080fd5b6108e882610a08565b60018060a01b038316815260006020604081840152835180604085015260005b81811015610aa557858101830151858201606001528201610a89565b81811115610ab7576000606083870101525b50601f01601f191692909201606001949350505050565b600060208284031215610ae057600080fd5b81518015158114610af057600080fd5b939250505056fe608060405234801561001057600080fd5b5061073e806100206000396000f3fe6080604052600436106100225760003560e01c80637fe8e72c1461003957610031565b366100315761002f610059565b005b61002f610059565b34801561004557600080fd5b5061002f61005436600461054a565b61006b565b6100696100646100d4565b61016d565b565b61009660017fa3f0ad74e5423aebfd80d3ef4346578335a9a72aeaee59ff6cb3582b35133d5161060e565b7fa3f0ad74e5423aebfd80d3ef4346578335a9a72aeaee59ff6cb3582b35133d50146100c4576100c4610633565b6100d082826000610196565b5050565b60006101077fa3f0ad74e5423aebfd80d3ef4346578335a9a72aeaee59ff6cb3582b35133d50546001600160a01b031690565b6001600160a01b0316635c60da1b6040518163ffffffff1660e01b8152600401602060405180830381865afa158015610144573d6000803e3d6000fd5b505050506040513d601f19601f820116820180604052508101906101689190610649565b905090565b3660008037600080366000845af43d6000803e80801561018c573d6000f35b3d6000fd5b505050565b61019f83610256565b6040516001600160a01b038416907f1cf3b03a6cf19fa2baba4df148e9dcabedea7f8a5c07840e207e5c089be95d3e90600090a26000825111806101e05750805b1561019157610250836001600160a01b0316635c60da1b6040518163ffffffff1660e01b8152600401602060405180830381865afa158015610226573d6000803e3d6000fd5b505050506040513d601f19601f8201168201806040525081019061024a9190610649565b836103da565b50505050565b6001600160a01b0381163b6102c05760405162461bcd60e51b815260206004820152602560248201527f455243313936373a206e657720626561636f6e206973206e6f74206120636f6e6044820152641d1c9858dd60da1b60648201526084015b60405180910390fd5b610334816001600160a01b0316635c60da1b6040518163ffffffff1660e01b8152600401602060405180830381865afa158015610301573d6000803e3d6000fd5b505050506040513d601f19601f820116820180604052508101906103259190610649565b6001600160a01b03163b151590565b6103995760405162461bcd60e51b815260206004820152603060248201527f455243313936373a20626561636f6e20696d706c656d656e746174696f6e206960448201526f1cc81b9bdd08184818dbdb9d1c9858dd60821b60648201526084016102b7565b7fa3f0ad74e5423aebfd80d3ef4346578335a9a72aeaee59ff6cb3582b35133d5080546001600160a01b0319166001600160a01b0392909216919091179055565b60606103ff83836040518060600160405280602781526020016106e260279139610406565b9392505050565b60606001600160a01b0384163b61046e5760405162461bcd60e51b815260206004820152602660248201527f416464726573733a2064656c65676174652063616c6c20746f206e6f6e2d636f6044820152651b9d1c9858dd60d21b60648201526084016102b7565b600080856001600160a01b0316856040516104899190610692565b600060405180830381855af49150503d80600081146104c4576040519150601f19603f3d011682016040523d82523d6000602084013e6104c9565b606091505b50915091506104d98282866104e3565b9695505050505050565b606083156104f25750816103ff565b8251156105025782518084602001fd5b8160405162461bcd60e51b81526004016102b791906106ae565b6001600160a01b038116811461053157600080fd5b50565b634e487b7160e01b600052604160045260246000fd5b6000806040838503121561055d57600080fd5b82356105688161051c565b9150602083013567ffffffffffffffff8082111561058557600080fd5b818501915085601f83011261059957600080fd5b8135818111156105ab576105ab610534565b604051601f8201601f19908116603f011681019083821181831017156105d3576105d3610534565b816040528281528860208487010111156105ec57600080fd5b8260208601602083013760006020848301015280955050505050509250929050565b60008282101561062e57634e487b7160e01b600052601160045260246000fd5b500390565b634e487b7160e01b600052600160045260246000fd5b60006020828403121561065b57600080fd5b81516103ff8161051c565b60005b83811015610681578181015183820152602001610669565b838111156102505750506000910152565b600082516106a4818460208701610666565b9190910192915050565b60208152600082518060208401526106cd816040850160208701610666565b601f01601f1916919091016040019291505056fe416464726573733a206c6f772d6c6576656c2064656c65676174652063616c6c206661696c6564a26469706673582212205e0b70f8fb442042d60d04b6fc28a561ca3692d97dfd09ab5c7c59ad70129e0e64736f6c634300080a0033a264697066735822122068d01b9a45e4e0af3184ce86da014440d10650036e8b7bbdbb68da308e495c5c64736f6c634300080a0033",
  "devdoc": {
    "details": "The factory itself is non-upgradeable; however, each vault is upgradeable (i.e. all vaults) created by this factory can be upgraded at one time via the beacon pattern.",
    "kind": "dev",
    "methods": {},
    "stateVariables": {
      "getVault": {
        "details": "From this view, we do not know if a vault is empty or full"
      }
    },
    "version": 1
  },
  "userdoc": {
    "kind": "user",
    "methods": {
      "ADMIN_ROLE()": {
        "notice": "----- ROLES --------The Hook protocol admin can make any changes to the protocol"
      },
      "ALLOWLISTER_ROLE()": {
        "notice": "the allowlister is able to enable and disable projects to mint instruments"
      },
      "CALL_UPGRADER()": {
        "notice": "the call upgrader role is able to upgrade the implementation of the covered call options"
      },
      "COLLECTION_CONF()": {
        "notice": "the collection configuration role allows the actor to make changes the collection configs on the protocol contract"
      },
      "MARKET_CONF()": {
        "notice": "the market configuration role allows the actor to make changes to how the market operates"
      },
      "PAUSER_ROLE()": {
        "notice": "the pauser is able to start and pause various components of the protocol"
      },
      "VAULT_UPGRADER()": {
        "notice": "the vault upgrader role is able to upgrade the implementation for all vaults"
      },
      "findOrCreateVault(address,uint256)": {
        "notice": "creates a vault for a specific tokenId. If there is a multi-vault in existence which supports that address the address for that vault is returned as a new one does not need to be made."
      },
      "getMultiVault(address)": {
        "notice": "Registry of all of the active multi-vaults within the protocol"
      },
      "getVault(address,uint256)": {
        "notice": "Registry of all of the active vaults within the protocol, allowing users to find vaults by project address and tokenId;"
      },
      "makeMultiVault(address)": {
        "notice": "create a new vault that can support multiple ERC-721s within the same instance"
      },
      "makeSoloVault(address,uint256)": {
        "notice": "make a new vault that can contain a single asset only"
      }
    },
    "version": 1
  },
  "storageLayout": {
    "storage": [
      {
        "astId": 5850,
        "contract": "src/HookERC721VaultFactory.sol:HookERC721VaultFactory",
        "label": "getVault",
        "offset": 0,
        "slot": "0",
        "type": "t_mapping(t_address,t_mapping(t_uint256,t_contract(IHookERC721Vault)7039))"
      },
      {
        "astId": 5857,
        "contract": "src/HookERC721VaultFactory.sol:HookERC721VaultFactory",
        "label": "getMultiVault",
        "offset": 0,
        "slot": "1",
        "type": "t_mapping(t_address,t_contract(IHookERC721Vault)7039)"
      },
      {
        "astId": 5859,
        "contract": "src/HookERC721VaultFactory.sol:HookERC721VaultFactory",
        "label": "_hookProtocol",
        "offset": 0,
        "slot": "2",
        "type": "t_address"
      },
      {
        "astId": 5861,
        "contract": "src/HookERC721VaultFactory.sol:HookERC721VaultFactory",
        "label": "_beacon",
        "offset": 0,
        "slot": "3",
        "type": "t_address"
      },
      {
        "astId": 5863,
        "contract": "src/HookERC721VaultFactory.sol:HookERC721VaultFactory",
        "label": "_multiBeacon",
        "offset": 0,
        "slot": "4",
        "type": "t_address"
      }
    ],
    "types": {
      "t_address": {
        "encoding": "inplace",
        "label": "address",
        "numberOfBytes": "20"
      },
      "t_contract(IHookERC721Vault)7039": {
        "encoding": "inplace",
        "label": "contract IHookERC721Vault",
        "numberOfBytes": "20"
      },
      "t_mapping(t_address,t_contract(IHookERC721Vault)7039)": {
        "encoding": "mapping",
        "key": "t_address",
        "label": "mapping(address => contract IHookERC721Vault)",
        "numberOfBytes": "32",
        "value": "t_contract(IHookERC721Vault)7039"
      },
      "t_mapping(t_address,t_mapping(t_uint256,t_contract(IHookERC721Vault)7039))": {
        "encoding": "mapping",
        "key": "t_address",
        "label": "mapping(address => mapping(uint256 => contract IHookERC721Vault))",
        "numberOfBytes": "32",
        "value": "t_mapping(t_uint256,t_contract(IHookERC721Vault)7039)"
      },
      "t_mapping(t_uint256,t_contract(IHookERC721Vault)7039)": {
        "encoding": "mapping",
        "key": "t_uint256",
        "label": "mapping(uint256 => contract IHookERC721Vault)",
        "numberOfBytes": "32",
        "value": "t_contract(IHookERC721Vault)7039"
      },
      "t_uint256": {
        "encoding": "inplace",
        "label": "uint256",
        "numberOfBytes": "32"
      }
    }
  }
}