{
  "address": "0xe3d6c82701028755aC9e90BDc7D9CC0f3c5F16e8",
  "abi": [
    {
      "inputs": [],
      "name": "font",
      "outputs": [
        {
          "internalType": "bytes",
          "name": "",
          "type": "bytes"
        }
      ],
      "stateMutability": "pure",
      "type": "function"
    }
  ],
  "transactionHash": "0xefa96d102789716c9844b87b504148223e537f371ec0a0b1b2246b4dee8c0586",
  "args": [],
  "numDeployments": 1,
  "solcInputHash": "27cdac36318da08ab52a4db662ee1263",
  "bytecode": "0x61265261003a600b82828239805160001a60731461002d57634e487b7160e01b600052600060045260246000fd5b30600052607381538281f3fe73000000000000000000000000000000000000000030146080604052600436106100355760003560e01c80639d37bc7c1461003a575b600080fd5b610042610058565b60405161004f919061007b565b60405180910390f35b606060405180612580016040528061254c81526020016100d161254c9139905090565b600060208083528351808285015260005b818110156100a85785810183015185820160400152820161008c565b818111156100ba576000604083870101525b50601f01601f191692909201604001939250505056fe6e4b6b6643735274576d496f534c4e46666d42644f4a4a565443505671537051476c697959594776385a446a69594d6356487a5a315a6954633436674d58746248507a6e6b4c7070393634416a6136704d6c526e336148547467315967743069744e48634277726c6d79506d657a47536f5965696e466844554b4e4f33715861576145664e7a4b734f42345452564a4269434a686a674d3848366c5063466570506a3139646e755a494177666c4c51346b43534a7043524f4b646b48553678374571754c78584833706437796a5457356d35464965635238764c3039746a42416d6b5038733730314946622f53457677352b7758324335532f3131537078682f5161453165703853494c4e4871764e615767675169496b464b7a5a74416d3652336c323241364d6d6f78313479764b4a65684f5a714475466172384a776f41696f4a7a6b494b734b752b764c567464713243434266652b6968512b376458486b5845384a30734a4b4a434e7a72794f5255506235725a616c556c62584968737855625271425668384d6970456f343045642f625a76653961724e666769544163355858587a6463664d4361785778696a2b39626d31645952646b35626e7a7a5a7671457572494f47756f713654384d496c666659784e4145447165515a76463577696454642f46787970437945686e724a537269735955526b7a7a4b4754413046326b702b594f656349715038746b324d2b4a754c5432616d63676138456e4a47496e37565775696f726a67446d7a45765849776e56384e546a6c564d6a766243386156385a4474436b62553779716948656867794c726d566264356376394f794a6f68716a2b4a3068486d59434b6746486c495955665154316150392f6a734871735934794d644b47627453625a2b6b4b5576485465766a5161345a4f50356e5a6b4335484149356b674e45452f486a36496d373675525556516a58424e33585758494c6772536a33656b4c2b6c3439694232754e4d6351336569456963393466386c78527a6652514b376e734e5a4b56583249706c7079514671614d4648546b445665366c774f42464f47506b464972436e594546594645516a384733732b75734246466548684479315045506c4c744b304b4f386e5047434c5545753030426643362f687842734d38756f385536786c5748432f523131522f327834394c3164597749587373483341775647336b6f38735556646d575732782f756355787a314a50484b596d397059434c4c76565a6a516d722f37687956674e2b76426953416c3761535836526d56564d5468454766757758327a6445613445476b574554554950565537664336417749382f347939416e50513156624641387357425431346d6c47337158685a77575051456c424b58573746414d5559574e4e6545516c63496457752f357249684a746275304f6563414543762b70444a6b4e446d57554a61572f6f78727a5a5777545a5761795259655778526b5137352f35774b466f6a6871397967426b355464784252775073534b657349426d4e5430435639354d5470776e463479786543456f646e506a70575233626d3246316f725a2b394c334d684846595253566c467a6f6a534c71704f507569547441517833554436616f6766644b437977726241585377583145506f2b7642474d667468746d67325a4a36634d51763831614c453276673851634e313631686b3837693636433468454571744146574c73524256733435704770624671313536725a796243314454704e6f646653645a41467a4c486674375353454a6f4e3557712f4650543743366946627a57467a2f71707949536a79306c7a7239342f4a625469345a43666d685575484753736a4e6c574176505462496b327730727376695346575249684e326330642b7171646944706d6f67456b774c753554584272694741653961366461356532795041316c49596e5679586d2b7332336569356b4e43445347762f62747870676e716b44564f4963627154334d56594a474a6a696c794e682b4546654f67576474694168304b3150734346733062323449784a682f5a6748426d65565a3657397241314931586c504e2f5679564b70725945723538484553466f717757576a6261776c796f5869715a6472493272704e716d6e4733714e646a55553067466655594e614c7967465043315a417353306653455775426e447071634c7139525132357342384a6e7045366c63732b386949634e3775724a547737794b4953564a6345534648626b33796966725a3867527a704139306e69763244314e423641796471413768736f4c537875534c565a5331744d556435364975396867444557704f792f4555614e633866754b50454c4b77717a442b5535754e627365583131495742686b47484367686538747632304d7741715678723243466d6649666a63722b4671616f74385375347134587152554379737a4e50395271585a2b416679394f61425451554b4753574f5a4c745a3359434948697a627761596f73356f78374a496a6e526b59574576716d6445747934614667793534334d685a53586e7a65635566316a536965346b3871676a4d626e6b697562562b435178336b53757851776e384a304b626c2b507844313032317a4c546c564269782b68326d436c4d344b6c506166462b59644841507a6f2f73594331506c62796756646c444a4a325a47694c737143624f5656723475446c73523544634753725a55437456424a716a316a483572567237374f532f714e482f4a33657956574a2f745436547558475338785950616b453777505a5a3962747959474d643336316d4a416b53773176774f766a3668614b454f465756517368626d77505841453067645a662f57515a664e537735397559562f6f67516e4442766d327a6d6a726a526d6658463266707759434e6f34667859366154446a584355346a68336a575335496b442b77316b4b567a6a316b745463304b54345a505a41716676684a6147504c5567355030356b374a486538784c694f3775457437627454306b555765443343313231475230446a79516b4f393042512f7677714d6f754f4555454d51654d716e676d6b6a4b6e69717a4c373635496f576564542b4f3051654a31672f6a4a6d4637414c30784a365064622f72396e79692b394c2b45654250665737692f45634b63764145796f387166344d502f785a37436f73356a635765786d42504e547836375a6d426177375a7458376a5476374a5663613930717632476a6339634e55326d534b387555655858624f336c45392f66374c7076623855624e53677552676a784e6532397668396d78317254476a704b4b42424134395a426662632b632f666f766f3835366b2f375a6a42756d4c5752705147713462333267575046374a4575642b656368486f5966707433397943642f55584c3266433638365847626f656f38586f3648534d5871504830476e74655444365849334f653357714658626b7478414d78766a7443417a2b45566142324b392f48377234462b6c43467248746d4f3159557a31312f4a7a764a64562f58773339676942644c464c57557167412f4a4f644c6e78694f576a387745507564474c6a34656566376c6b39634637526551356a5a566b34302b64505a6331536749734a742f35472f346d5577616c4d336f754c565530316f374c7577474b764d6d4f3761344f646e646a342f623137717a4f645971336f68375870313046673145536d6a2b37553434474c6a317653362b6e4d6a66524e366b3062614c594e6446766156305a72476b58576e7a6c744f333361656e707a677a4e6b7a78367861673873566d75615031303630495144564974363054384c3744553337454447435350792b6d6b45526349675261556c7861525a4b536d7130675570776b4a4c48546e6167527854615a635175493268566e2f57763373316b76352f31717975793962395a35333950332b306534665738316a57782f7a3354594b34337176526543516433333133373738713071736b614f5757666b4b4153335439364d5779362b337770776c574870585a2f73505a44352f6c4643307849363249483853727056515832342b64664f326f4538507136734b7176444974337934574752564c34474c304630694d633073664d63416a7551437846384e757343474f3450514e532f6e4f6256355a6b34794a74337a6f5156744872713752626e764a5042317a786c373251546c6d2b6c5571696c68653746324b6f5442777761455334346365544f46772f765932664b4f61716e445747745a595041575531323366306a67756b6c534a612b49785363352f2f41522f5652485054774c6b5243394c314f6a4e58374a614f5163362b6130776169653952585133736f6e6552555069756e42444f314934624e754f49527a2b3036454e6930735a6c544a547a77725064594e7a505264642f2f467750784f644c4544535971796c3642746f614a5844674b6972373038446f46533042724b2b31696875415667453538382b484d394a476b687930526875636f4245484268515939447165565a4347334c306b322b724779344b65443831564e2f2b354643526c4e4e64577141414c6e794b702b4c672f306a4a496b73336e624d5776455274385069326b39755544793633394d36596e7378752b516e6e32466e71507658764671766e7036616d4b4650574b655356785370382b4f395062636a31373959696b463963364a61614463743844546a62535165657854546a4169676a6a55442b57596d656e39347956385a2b512f2b7a697a2b596657655263784f2f4f637a63595041716471655475345257773972366f4a5062623143695138682f434d7946413351396a6f7762656d496a6e596d314c7a666747493258527135593244636a622b4562684945574d53316f4147494569614b6e33752f694468726c6c4a54656c4b49444456486f567633354b4552326b3655464e6c6c376b313434632f637a396957386178555a7179515444623574626e6f3738686b685a78504a454d3738794c5a685969674e6d552f5856584630646e303933767952487950344c3266526f4650786554714e2f746a764e5544384c3674426f5254762b7454364a4e67324c497a46684e7474746f624151437a32764f5532645138746f425948586f71646e2f6e4a576c73765454434d4a6c70534b6b5638445a4a67534f757474542f4e6e4e2f776b6a6751754b69774f4a7835303757446e32675262625a59556b7a78466e61392b595950614b63613962536f524a49426f353566454b414c7867396e44706155482b5756387237504251367177356b6e533842482f77622b565954462f542b366967366962356e4d385850627a42717a38323459684d31454e55414c6141723937666b527a75505246512b492f65464d6d4c6d644763364767653141324a6b622f6d79592f414d34596f627678356e5a4954536a35477874375a6e2f584b52376f5355697647326671616275426163726c4133782b4e7a565475664276713336797766753941656d3679356b386c634b6f353573694c626f39314b30634e61393468794e666f677a5764645156762b45575a4a67474d7a30684652435478724d43595a4545732b584a53565365714a776e4348325737654a346a485264717531412f4859585769316268664653434157512b4d7a767034507637522b6163594c3179304e5a3238496d776b2f453178424a6f61643743657671316c48376b2b7978552b41572f676c6f6d594d7447356476564574753935446b667562314d7a753972333948667652507259712f7a4a3834637766624273796a744c5832304a7846376843505643753071724433343070477235416f42484b5275614e654c436f435865486143674d4e3879665575436f4d6f6b4f376b71516f6b51587974344b4d7458684e487474634b6241675539694e49545152325a575056664c6157694163707078446c5167366d6a4147793634454f47624b7a384e5641632b37517879303242356b6d6f7730644b71432b487053434c703866524445706b4f5831445230675a5469727173494c503146753958587249685978504d66586e364866664c6d65684439446635726e715948723046334a4863696c522b53396473465865394b362b6c504e567a417a6d48314250714b782f74756935395439705639566839534944657842774d2f4336664739385a794a666c765370664d71786b725452637772342f73622f46534d475563517157764e6b5a7671494459347234415a705352776f4c424830586c4c6f416a53384f63375a616651732b36395977703835472b66677154456d68784b4b7248314d6f50372f4f2f746e764b37716b394a5a503331504d61327268614a706f51424d4444666762696266534e44714b3247326c684457365670715936554971576657613479474957794b6c2f6a3137383779592f5a7371645573676f616c36745a4c6c516f70564a50716857774665387272326f30567545516b4a4c5570746d4371566875726c466c524b2f456a4f69597650455a676d536b646730357054566a6a72456c4a782b4d386c45566a72316d78644d356d327035505535634f392b4670666e6d5761424746735934583232666339355775756e2b653434546337765a34635a364f4d4d505a454c6343516a67585a496c345452616b6868515438486c616c706f6e434577565a593162664277704b53436c767776447179442b2b2b46384b47515a632b596c4d6d6239694273695576532f6553446a52473735784e35334e30434a7a6b615a476e706571414178386a4c367a526c312f7a376c754e594b4467484d5269456f344171726462704b586c3331575356322b4c59617268566f647330587568316e315076703267616a7732503339543057763348696c392f596e395458396573664e374471543379664c324762324d6c4d3478774879566370595a72624d45765865732f45764d622b316b537579696641736e31684d42314376315a6f61756234687835382b713070686e394f4762395a714b53326c4c567074446c452b5757696e2f6e3056426f773270727a364e39576d4967455951497a766d4d30597a4e5268464a34316a78586d534c5862524e366578545449776c655056655a6574666e424a416150746e3351644b616d697467303753714666574f734265542f7467422b4c77726f4b333177636b44512b61652b6968374259377876364b464175634973774f36372f6857466476753770364f2b55544b5256493547736462597133344654474c79733557713869673046392b3762546d31776b452b577a74394f3066746f2f6d73682b6e6c75645057425a3872703269755276324a4d444735506f70696d5a474870746d713158556f4c3733547762446d2f586e79354272666773683366786f6b36314a72557059546678362f716d4e64683672454d7a33346330756d496f575848376d383473312f4c74315a33544839345054797933636533335a702f63427378302f7a4e317050725432354e714a2f545542566f794d492b7734747570567150794437646d4a55614e42395239435149515949575558385869637736475547466956472b5a495a75586b7a7976794347715777444e78677873367a772b41542f4c496f3951746d56497377763778417049564d4c7a446f7669657147706470434e2f7068412b586538714d39714568622f51696e4666304c7a32624d797a662b7736476a6a594e575845736c705777476d4d723968557a6c33786a513330464f71517776307a634a54777a38526e6544416738317a31793377675a4356552f5a5539366f32652f6a62653972765a5337642f457a776a654d622f5441353961643270574d47756537653179777974674d4369382b6f44424b6d5a676542694d41447357516b346359656a514b70535754732b48547131444d2f42487679727673467a5a516b53396d6d4e44384e55364558484c5a5573483971756a336a625a696b614876584746544259426835324162426e4d6e7566736861513638335a784c4337655a724777705668387539687359584867346b76304a4b34622b2b6138794c6872446a7533487842354b4b5053716b7250354b4a534b465162436c324655616d336b46397a3545696b6e50733145696678383072346d6c5234382f766272326a42365966766e513546374b2f424d477561636e6b2b5157312b4c66456a556f326164684e5a2b5a6f592f372f3732397574774d37426a46727562584b4b74522b75312b7733412f3168654639352b3936617439756d4d752f51694d495a517461636b2b4939764766586e703144706578656948664b344f36646b5570476a486e476d776e4364567659514f586d64556737685a4d59634e595735496764424362574d6d68434d786a39304d5a7857687137776633594c345866784c5936724f32536838446e4f706b346437384c673348326533414e546754714f69514567794d576a385458386b674f466b58774a64714c3445333861744d7269516167515158376678784a7674357668785639304c7a744659697a6a696655634c422b306d4b6e46636b5565326b726634673153435242574e3771675a7a48586a2f75626e51306666416c433578392f2b6b6e6e366f4c4e72313672625033455167705753657a53705566373155366a385977746b59424a617a56775244456c3643514a6771484b667a7132343236765a716f5955564c7a56716e4f5876336a325356584763646966777659566d72684d513258393753533273723742446f36536e643635316f5770526138324858432f4d4d394e443145795478652f542f6a71684a307539422f346a3633384744416456482b615838372f4f42673673507a394f6456437834326161722b5a6b5531576969556f6b694a6c5a5070712f77675565716f4731786a4e2b796935334e3463774c7972593341704249756b564539717045596454356b7a4e51543969385030346b787664764a745472316c7a366f546563686a7969716a6730396e5070584848743864727930314f4b693374676a636671354756543031556f326d452f66497a49413542374441732b7371504b55346362313044624b63582f73554a694b4333634e49724c31354b32512f4948766c4f7163536364336c3552365a4976414b6f4c7667756c732f692b3733377054615a634363596d703447667a41512b347770375533486a474e6872714f58546b6f503566545859557a6747784a594d4e71466d6e374c6c6170776f6c464f54753731562b5a657743717a57483763654c385539644342785878554a616e764a674c676434784f726e4b7057356e716a6b2b57437178765a7975386e2f2f59597372595554753459304b4f634f2b4e52352f394a7a46615679756d37382b55554b33736f496130712b7466367351414356674b6e626c376a75416346712f426a4a305a49705a4a537a6845473477686e58594130636d4b732b75436b2f5744435944477a387543656a64566a4c7a75424a623963586d796d76686e7675434b4e586c6e577159512f397847693470785977316a7330437553445a43435077494f43757a75775a6c3533373976774b7369454f6954787855584f356c592b4155513477436341626f576e6a736b44736b53573943506f4e4750346c6a317449637154386257504553726b6b47756c4f4366554f462f705649784752393763686e595530474c4971644f6b576f67656d704d686b546443414943506a387a423437676e4a717642666c683063382f2f4477465067526f314a7253355642572f32763738776b72474c536a76714e6e3341432b577a49326c62432f4265796a444d5a52746f51304d6a565758527a3357352f794753786f4a65534f5157375a656d504e38675775542b6934786e476256453062386358787538435859315777314d6561465641687a777844754134355879377047652b776a6f4e7a4c7850786a6e467064487735713761344d75303451766c2f774548746e59307a383247516d4e42616472695976772b77566e7955394f6b746c64624633322f69724e354b6479774f452b36536b6e706b564f66536c5349712b7a706669494750764f2f52764f7342743466654e6278624771694266486867386f6259367a3861314352516c37647a4365654a556268326b4b51363442343035643471355a70326a516a4c65633972577a7a4a2b39795466654d65314f6e65716b47494c4263434a6958356e6b46456a35364d33467637747a50694d4d343757562f525854496631394e3267452b344a305864677a357a627a58756d6e5a474f4d36776a73704b656a74695173523647694c574652416972442b49332b396365324a5a2b2b47324e51392b634d7741462f66657245794d79356c2f713231687336486b316e636859756b43674a556d6531646f2b6553447743545a59325951306348396f6f6a6c337a683971756e696541616279576e3978424f7844414841796f534c65357756446a6378466a2b657a4a62535756386945557353414661307a4661496c594b7351665263536156363753457475376231444a6f6e39374448584675464b504d4735664f716b766c7970616e6548765a6332397a6254624b6f7a41494a7241664a746455313459787559705067354b31303274354a34526a722b6c47796877624c486a58547470316f5574702f524873365249697a6347702b4a78393562634b6750547255794e764377316441542b4141595a4f5977396e726e4e397a5a592b4e654d2b673138484341342f514d3245553974425139307835483635744c4737594d57526443525a2b59434b7768464b45593631686946695263472b427437664b51734c6545344e6f31784e38727a3330674f6d5a636854324e746d2b484b3570496337337551654864473931777a58436b67706a2f5546574a376c47524b617446747273365a3851374f6c42734b66567a712b3147783939727076646e643652487a4f533938457859626d614251732f71487532555838494c4b41714e70545a53694d583039357342756b513245694d56514a58733674587350436a376b31646a6e2b6978493962692f48524f38626d5774675577376d6a69386e4f7a7a374850633532656b734b476439662b416e6d614c522f386d4876322b2f46347247304b5243525358456b78474b746c537844354e7934714c6c7a6b4438564e4c4531765148556d483569514c41356670726f484f4e50426535324366746d434459326e397943396b5171657747675146696c6169476b55736741574c374342396e6d7930347879322b4e6f382f355265597046394637637651317632517a2f6a5145617247344343424e5a73374844444a3246396e64654b304e6871327278704b4247764d6a484d6e3246574c5a756c6b7079464a4a48797a7243625a5a5a73636c743468496a616b32424b656c6763306b6e2f4b57386a45777163676867453252415a5033304b32496c7a766c4c576f5353414e73416a645a75727754686f484e4d6667466d4a7a386e4334684d746d6b536674665341744e6565536e583333484152757471714e4e4d6e72586b554d666e305438642f2b66627a39765a2b53644e4338723577734164596f48656b59774774546e59344b46535747724d447a596c324939736a2f717567724934564154434a4f4e687a734350704b6d623265645777585a50795a6241446c75444c4f422b7143794a6c6766355968484f7870676d426868557234714e437a573169685a4d7138517764704d4a69524d4a672f54674871534c6c366f6b794c584c51674c7769736c4d324d484a4447797576774868676f316b4c4351504e4e50412b395132547a49316933314779444c4d5971395a52375557504b4b6f446b36587432437343436230686d784d6e482b4d78484d48325243776b4c79444c615a777841436d2b6b4a47304e79756c684839516351646d6b7965566746314a752b7366576756376e47656e6651644a556d2b2b634b746c794c526c4549597041716348514836704c725075716c384474357163656351336145466c3841506a754732774c5a6c644b6847744e74592f76743469654f72525a613561466c47513168773146526f382b6d384d375454717a6d31533170464254773467436f6a63516d67474a42616d78796a576d4a537a742b5239705636774844486f6a68686b6e59634c6d4975556e4843416a312b43414559716f4561684d6e7a6152556c704832636f3170556b697a4c346e62366c436c564a594a6a4264444549524a2f3743454e4d776d79614270684f52304c6c4262664152684d746577316d6c5730774a5a71474e31576a59594e414c733261763264576a2f6470456c6d7a496c476d4b3173485841454c64556f4d6149484b367864444b363161394e586c6e5a5074676a3356494c58522b686d362f4939752f2b42626d3955764638537776476944586a422b59547a4f334d305231756c506832797677702f63674663724732487333536e5039476b4b7a3450574f794b62694858764d7457354139756950533744342f79696454353567464d5a494a4c666d5a6b4379537537704964466c6459795062794b754d73487366615651576775786d7049634d694d5172436458434171672f367859562f58347a6c422f397a533038436e496a4d546d6631693232462b4c4f69486461522f31484d4365797237495365536150315857322f742b6a55675a4f746e557467647053437a77797678384d76506c336f503045675076332f32494643376141784f6a50392f466f57527462416861313642576f6856665155716e4b3872627374563934734c4a7956726a78535169487638662b2b6e664e56305659513659344b7668532f45696643455a426a4c56544f724a594a7455554a7076704b5a42676e64506a30324866635459773476582b4b2b6662306f632b35742b654953725a4d77436f6559704e693968343161753154393276486b454c6234777873464166564c675854676c304f4e746f722f62766951395938727853583161303557694b4262416d3969546b50517677374c2f79314e476f5646524f764d6f70414636397458636139764a4f5a4a45626250657772704f727372427544374147457458587564676944516b3844487357794459306c6f7378335a6868756172483150734c444f357a2b5a724177576b4a4f694f2fa2646970667358221220fe3150c16989a436951efbddb2d3cf4acbcb11f5af9d62a3131f736642e48a5f64736f6c634300080a0033",
  "devdoc": {
    "kind": "dev",
    "methods": {},
    "version": 1
  },
  "userdoc": {
    "kind": "user",
    "methods": {},
    "version": 1
  },
  "storageLayout": {
    "storage": [],
    "types": null
  }
}