{
  "address": "0xB8e98bc92abd016bdc70F4ff36Ede0BF16a3D461",
  "abi": [
    {
      "inputs": [
        {
          "internalType": "address",
          "name": "hookProtocolAddress",
          "type": "address"
        },
        {
          "internalType": "address",
          "name": "beaconAddress",
          "type": "address"
        },
        {
          "internalType": "address",
          "name": "preApprovedMarketplace",
          "type": "address"
        }
      ],
      "stateMutability": "nonpayable",
      "type": "constructor"
    },
    {
      "anonymous": false,
      "inputs": [
        {
          "indexed": false,
          "internalType": "address",
          "name": "assetAddress",
          "type": "address"
        },
        {
          "indexed": false,
          "internalType": "address",
          "name": "instrumentAddress",
          "type": "address"
        }
      ],
      "name": "CoveredCallInstrumentCreated",
      "type": "event"
    },
    {
      "inputs": [],
      "name": "ALLOWLISTER_ROLE",
      "outputs": [
        {
          "internalType": "bytes32",
          "name": "",
          "type": "bytes32"
        }
      ],
      "stateMutability": "view",
      "type": "function"
    },
    {
      "inputs": [],
      "name": "CALL_UPGRADER",
      "outputs": [
        {
          "internalType": "bytes32",
          "name": "",
          "type": "bytes32"
        }
      ],
      "stateMutability": "view",
      "type": "function"
    },
    {
      "inputs": [],
      "name": "COLLECTION_CONF",
      "outputs": [
        {
          "internalType": "bytes32",
          "name": "",
          "type": "bytes32"
        }
      ],
      "stateMutability": "view",
      "type": "function"
    },
    {
      "inputs": [],
      "name": "MARKET_CONF",
      "outputs": [
        {
          "internalType": "bytes32",
          "name": "",
          "type": "bytes32"
        }
      ],
      "stateMutability": "view",
      "type": "function"
    },
    {
      "inputs": [],
      "name": "PAUSER_ROLE",
      "outputs": [
        {
          "internalType": "bytes32",
          "name": "",
          "type": "bytes32"
        }
      ],
      "stateMutability": "view",
      "type": "function"
    },
    {
      "inputs": [],
      "name": "VAULT_UPGRADER",
      "outputs": [
        {
          "internalType": "bytes32",
          "name": "",
          "type": "bytes32"
        }
      ],
      "stateMutability": "view",
      "type": "function"
    },
    {
      "inputs": [
        {
          "internalType": "address",
          "name": "",
          "type": "address"
        }
      ],
      "name": "getCallInstrument",
      "outputs": [
        {
          "internalType": "address",
          "name": "",
          "type": "address"
        }
      ],
      "stateMutability": "view",
      "type": "function"
    },
    {
      "inputs": [
        {
          "internalType": "address",
          "name": "assetAddress",
          "type": "address"
        }
      ],
      "name": "makeCallInstrument",
      "outputs": [
        {
          "internalType": "address",
          "name": "",
          "type": "address"
        }
      ],
      "stateMutability": "nonpayable",
      "type": "function"
    }
  ],
  "transactionHash": "0x894ea5903d3c4a394b83a2273b6e6c2047638672c779ab2472a3c9562a0310f4",
  "args": [
    "0xE11CCED3E6555A1BcbA2E19b9Cf161f040186069",
    "0x7130A0aD4E94B8643a3F878918D4292c571521db",
    "0xDef1C0ded9bec7F1a1670819833240f027b25EfF"
  ],
  "numDeployments": 1,
  "solcInputHash": "27cdac36318da08ab52a4db662ee1263",
  "bytecode": "0x60e060405234801561001057600080fd5b5060405161144e38038061144e83398101604081905261002f916101b7565b6100428361018c60201b6106271760201c565b6100935760405162461bcd60e51b815260206004820181905260248201527f686f6f6b2070726f746f636f6c206d757374206265206120636f6e747261637460448201526064015b60405180910390fd5b6100a68261018c60201b6106271760201c565b6100fc5760405162461bcd60e51b815260206004820152602160248201527f626561636f6e2061646472657373206d757374206265206120636f6e747261636044820152601d60fa1b606482015260840161008a565b61010f8161018c60201b6106271760201c565b61016f5760405162461bcd60e51b815260206004820152602b60248201527f7072652d617070726f766564206d61726b6574706c616365206d75737420626560448201526a08184818dbdb9d1c9858dd60aa1b606482015260840161008a565b6001600160a01b0391821660805291811660a0521660c0526101fa565b6001600160a01b03163b151590565b80516001600160a01b03811681146101b257600080fd5b919050565b6000806000606084860312156101cc57600080fd5b6101d58461019b565b92506101e36020850161019b565b91506101f16040850161019b565b90509250925092565b60805160a05160c05161121061023e6000396000610516015260008181610253015281816102f60152818161045001526104720152600061042f01526112106000f3fe608060405234801561001057600080fd5b50600436106100785760003560e01c80630d5e67ec1461007d578063a34fd3fb146100b7578063acca6838146100de578063bb31173a146100f3578063c01222241461011a578063e2fcf3151461013a578063e63ab1e914610163578063f23c19e81461018a575b600080fd5b6100a47f945438d5e976f17e0d00cb2997cf8951c55e12977d86234d6738d1865abe006e81565b6040519081526020015b60405180910390f35b6100a47f657f307dfada290937bc821a25e2da10feb07809ba9560b816723e8b47fe379a81565b6100a46000805160206111bb83398151915281565b6100a47ff7e0191f3657a6da7569740b1cdeac8c3425bcbfd257d4fdc6d2241598f4de8b81565b61012d610128366004610791565b6101b1565b6040516100ae91906107b5565b61012d610148366004610791565b6000602081905290815260409020546001600160a01b031681565b6100a47f65d7a28e3265b37a6474929f336521b332c1681b933f6cb9f3376673440d862a81565b6100a47f8de11a8d956993287a5b6a74c069984045abc1b621d651081c4c77c05c3cb7af81565b6001600160a01b038181166000908152602081905260408120549091161561023c5760405162461bcd60e51b815260206004820152603360248201527f6d616b6543616c6c496e737472756d656e742d612063616c6c20696e737472756044820152726d656e7420616c72656164792065786973747360681b60648201526084015b60405180910390fd5b604051632474521560e21b81526001600160a01b037f000000000000000000000000000000000000000000000000000000000000000016906391d1485490610298906000805160206111bb8339815191529033906004016107c9565b602060405180830381865afa1580156102b5573d6000803e3d6000fd5b505050506040513d601f19601f820116820180604052508101906102d991906107e0565b8061037d5750604051632474521560e21b81526001600160a01b037f000000000000000000000000000000000000000000000000000000000000000016906391d148549061033c906000805160206111bb833981519152906000906004016107c9565b602060405180830381865afa158015610359573d6000803e3d6000fd5b505050506040513d601f19601f8201168201806040525081019061037d91906107e0565b6103e55760405162461bcd60e51b815260206004820152603360248201527f6d616b6543616c6c496e737472756d656e742d4f6e6c792061646d696e732063604482015272616e206d616b6520696e737472756d656e747360681b6064820152608401610233565b600061041c60006103f585610636565b6040516104046020820161076c565b601f1982820381018352601f90910116604052610666565b9050806001600160a01b0316637fe8e72c7f00000000000000000000000000000000000000000000000000000000000000007f0000000000000000000000000000000000000000000000000000000000000000867f00000000000000000000000000000000000000000000000000000000000000006001600160a01b0316632274346b6040518163ffffffff1660e01b8152600401602060405180830381865afa1580156104ce573d6000803e3d6000fd5b505050506040513d601f19601f820116820180604052508101906104f29190610802565b6040516001600160a01b0393841660248201529183166044830152821660648201527f0000000000000000000000000000000000000000000000000000000000000000909116608482015260a40160408051601f198184030181529181526020820180516001600160e01b0316637c643b2f60e11b1790525160e084901b6001600160e01b031916815261058a92919060040161081f565b600060405180830381600087803b1580156105a457600080fd5b505af11580156105b8573d6000803e3d6000fd5b505050506001600160a01b038381166000818152602081815260409182902080546001600160a01b031916948616948517905581519283528201929092527f3a65d7f5e9cd8add56b06a0cad687ab063ce48787f57221089d3b484144b9b5f910160405180910390a192915050565b6001600160a01b03163b151590565b60008160405160200161064991906107b5565b604051602081830303815290604052805190602001209050919050565b600080844710156106b95760405162461bcd60e51b815260206004820152601d60248201527f437265617465323a20696e73756666696369656e742062616c616e63650000006044820152606401610233565b82516107075760405162461bcd60e51b815260206004820181905260248201527f437265617465323a2062797465636f6465206c656e677468206973207a65726f6044820152606401610233565b8383516020850187f590506001600160a01b0381166107645760405162461bcd60e51b8152602060048201526019602482015278437265617465323a204661696c6564206f6e206465706c6f7960381b6044820152606401610233565b949350505050565b6109368061088583390190565b6001600160a01b038116811461078e57600080fd5b50565b6000602082840312156107a357600080fd5b81356107ae81610779565b9392505050565b6001600160a01b0391909116815260200190565b9182526001600160a01b0316602082015260400190565b6000602082840312156107f257600080fd5b815180151581146107ae57600080fd5b60006020828403121561081457600080fd5b81516107ae81610779565b60018060a01b038316815260006020604081840152835180604085015260005b8181101561085b5785810183015185820160600152820161083f565b8181111561086d576000606083870101525b50601f01601f19169290920160600194935050505056fe608060405234801561001057600080fd5b50610916806100206000396000f3fe6080604052600436106100225760003560e01c80637fe8e72c1461003957610031565b366100315761002f610059565b005b61002f610059565b34801561004557600080fd5b5061002f61005436600461068c565b61006b565b61006961006461016f565b6101f6565b565b6000610077600161021a565b905080156100af57600161009f61009c8260008051602061087a83398151915261074f565b90565b805460ff19169115159190911790555b6100da60017fa3f0ad74e5423aebfd80d3ef4346578335a9a72aeaee59ff6cb3582b35133d5161074f565b60008051602061085a833981519152146100f6576100f6610774565b610102838360006102ee565b801561016a57600061012661009c600160008051602061087a83398151915261074f565b805460ff1916911515919091179055604051600181527f7f26b83ff96e1f2b6a682f133852f6798a09c465da95921460cefb38474024989060200160405180910390a15b505050565b600061019060008051602061085a833981519152546001600160a01b031690565b6001600160a01b0316635c60da1b6040518163ffffffff1660e01b8152600401602060405180830381865afa1580156101cd573d6000803e3d6000fd5b505050506040513d601f19601f820116820180604052508101906101f1919061078a565b905090565b3660008037600080366000845af43d6000803e808015610215573d6000f35b3d6000fd5b600061023861009c600160008051602061087a83398151915261074f565b5460ff1615610287578160ff16600114801561025a5750610258306103ae565b155b61027f5760405162461bcd60e51b8152600401610276906107a7565b60405180910390fd5b506000919050565b60ff82166102a761009c600160008051602061089a83398151915261074f565b54106102c55760405162461bcd60e51b8152600401610276906107a7565b60ff82166102e561009c600160008051602061089a83398151915261074f565b55506001919050565b6102f7836103bd565b6040516001600160a01b038416907f1cf3b03a6cf19fa2baba4df148e9dcabedea7f8a5c07840e207e5c089be95d3e90600090a26000825111806103385750805b1561016a576103a8836001600160a01b0316635c60da1b6040518163ffffffff1660e01b8152600401602060405180830381865afa15801561037e573d6000803e3d6000fd5b505050506040513d601f19601f820116820180604052508101906103a2919061078a565b8361051e565b50505050565b6001600160a01b03163b151590565b6103c6816103ae565b6104205760405162461bcd60e51b815260206004820152602560248201527f455243313936373a206e657720626561636f6e206973206e6f74206120636f6e6044820152641d1c9858dd60da1b6064820152608401610276565b61048a816001600160a01b0316635c60da1b6040518163ffffffff1660e01b8152600401602060405180830381865afa158015610461573d6000803e3d6000fd5b505050506040513d601f19601f82011682018060405250810190610485919061078a565b6103ae565b6104ef5760405162461bcd60e51b815260206004820152603060248201527f455243313936373a20626561636f6e20696d706c656d656e746174696f6e206960448201526f1cc81b9bdd08184818dbdb9d1c9858dd60821b6064820152608401610276565b60008051602061085a83398151915280546001600160a01b0319166001600160a01b0392909216919091179055565b606061054383836040518060600160405280602781526020016108ba6027913961054a565b9392505050565b6060610555846103ae565b6105b05760405162461bcd60e51b815260206004820152602660248201527f416464726573733a2064656c65676174652063616c6c20746f206e6f6e2d636f6044820152651b9d1c9858dd60d21b6064820152608401610276565b600080856001600160a01b0316856040516105cb919061080a565b600060405180830381855af49150503d8060008114610606576040519150601f19603f3d011682016040523d82523d6000602084013e61060b565b606091505b509150915061061b828286610625565b9695505050505050565b60608315610634575081610543565b8251156106445782518084602001fd5b8160405162461bcd60e51b81526004016102769190610826565b6001600160a01b038116811461067357600080fd5b50565b634e487b7160e01b600052604160045260246000fd5b6000806040838503121561069f57600080fd5b82356106aa8161065e565b915060208301356001600160401b03808211156106c657600080fd5b818501915085601f8301126106da57600080fd5b8135818111156106ec576106ec610676565b604051601f8201601f19908116603f0116810190838211818310171561071457610714610676565b8160405282815288602084870101111561072d57600080fd5b8260208601602083013760006020848301015280955050505050509250929050565b60008282101561076f57634e487b7160e01b600052601160045260246000fd5b500390565b634e487b7160e01b600052600160045260246000fd5b60006020828403121561079c57600080fd5b81516105438161065e565b6020808252601f908201527f636f6e747261637420697320616c726561647920696e697469616c697a656400604082015260600190565b60005b838110156107f95781810151838201526020016107e1565b838111156103a85750506000910152565b6000825161081c8184602087016107de565b9190910192915050565b60208152600082518060208401526108458160408501602087016107de565b601f01601f1916919091016040019291505056fea3f0ad74e5423aebfd80d3ef4346578335a9a72aeaee59ff6cb3582b35133d50ba701f97ffd09be973ab0487da5ef9921c2bd0aad55202b3c0b41745a8ecda29021cb2f443fd62c4cb6b5d341f5eb8cd045222fc4183f8753d3725ac19741805416464726573733a206c6f772d6c6576656c2064656c65676174652063616c6c206661696c6564a2646970667358221220b9160d7d2c1102ca8191ecd78f04d42a9f497feb44eb9ea5596cee55560cbe9964736f6c634300080a0033fba4f6dd992a27a814ee807eb2f9332d6d01312041726966a540cf4a4a891553a264697066735822122059457f93dcf9b72f1e9371cf49a4e58d5b4c48c7769605871e7c314dadeb235664736f6c634300080a0033",
  "devdoc": {
    "author": "Jake Nyquist-j@hook.xyz",
    "details": "See {IHookCoveredCallFactory}.The factory looks up certain roles by calling the {IHookProtocol} to verify",
    "kind": "dev",
    "methods": {
      "constructor": {
        "params": {
          "beaconAddress": "the address of the deployed beacon pointing to the current covered call implementation",
          "hookProtocolAddress": "the address of the deployed {IHookProtocol} contract on this chain",
          "preApprovedMarketplace": "the address of an account approved to transfer instrument NFTs without owner approval"
        }
      },
      "makeCallInstrument(address)": {
        "details": "See {IHookCoveredCallFactory-makeCallInstrument}.Only holders of the ALLOWLISTER_ROLE on the {IHookProtocol} can create these addresses."
      }
    },
    "title": "Hook Covered Call Factory",
    "version": 1
  },
  "userdoc": {
    "kind": "user",
    "methods": {
      "ALLOWLISTER_ROLE()": {
        "notice": "the allowlister is able to enable and disable projects to mint instruments"
      },
      "CALL_UPGRADER()": {
        "notice": "the call upgrader role is able to upgrade the implementation of the covered call options"
      },
      "COLLECTION_CONF()": {
        "notice": "the collection configuration role allows the actor to make changes the collection configs on the protocol contract"
      },
      "MARKET_CONF()": {
        "notice": "the market configuration role allows the actor to make changes to how the market operates"
      },
      "PAUSER_ROLE()": {
        "notice": "the pauser is able to start and pause various components of the protocol"
      },
      "VAULT_UPGRADER()": {
        "notice": "the vault upgrader role is able to upgrade the implementation for all vaults"
      },
      "getCallInstrument(address)": {
        "notice": "Registry of all of the active markets projects with supported call instruments"
      }
    },
    "version": 1
  },
  "storageLayout": {
    "storage": [
      {
        "astId": 3477,
        "contract": "src/HookCoveredCallFactory.sol:HookCoveredCallFactory",
        "label": "getCallInstrument",
        "offset": 0,
        "slot": "0",
        "type": "t_mapping(t_address,t_address)"
      }
    ],
    "types": {
      "t_address": {
        "encoding": "inplace",
        "label": "address",
        "numberOfBytes": "20"
      },
      "t_mapping(t_address,t_address)": {
        "encoding": "mapping",
        "key": "t_address",
        "label": "mapping(address => address)",
        "numberOfBytes": "32",
        "value": "t_address"
      }
    }
  }
}