{
  "address": "0xE11CCED3E6555A1BcbA2E19b9Cf161f040186069",
  "abi": [
    {
      "inputs": [
        {
          "internalType": "address",
          "name": "allowlister",
          "type": "address"
        },
        {
          "internalType": "address",
          "name": "pauser",
          "type": "address"
        },
        {
          "internalType": "address",
          "name": "vaultUpgrader",
          "type": "address"
        },
        {
          "internalType": "address",
          "name": "callUpgrader",
          "type": "address"
        },
        {
          "internalType": "address",
          "name": "marketConf",
          "type": "address"
        },
        {
          "internalType": "address",
          "name": "collectionConf",
          "type": "address"
        },
        {
          "internalType": "address",
          "name": "weth",
          "type": "address"
        }
      ],
      "stateMutability": "nonpayable",
      "type": "constructor"
    },
    {
      "anonymous": false,
      "inputs": [
        {
          "indexed": false,
          "internalType": "address",
          "name": "account",
          "type": "address"
        }
      ],
      "name": "Paused",
      "type": "event"
    },
    {
      "anonymous": false,
      "inputs": [
        {
          "indexed": true,
          "internalType": "bytes32",
          "name": "role",
          "type": "bytes32"
        },
        {
          "indexed": true,
          "internalType": "bytes32",
          "name": "previousAdminRole",
          "type": "bytes32"
        },
        {
          "indexed": true,
          "internalType": "bytes32",
          "name": "newAdminRole",
          "type": "bytes32"
        }
      ],
      "name": "RoleAdminChanged",
      "type": "event"
    },
    {
      "anonymous": false,
      "inputs": [
        {
          "indexed": true,
          "internalType": "bytes32",
          "name": "role",
          "type": "bytes32"
        },
        {
          "indexed": true,
          "internalType": "address",
          "name": "account",
          "type": "address"
        },
        {
          "indexed": true,
          "internalType": "address",
          "name": "sender",
          "type": "address"
        }
      ],
      "name": "RoleGranted",
      "type": "event"
    },
    {
      "anonymous": false,
      "inputs": [
        {
          "indexed": true,
          "internalType": "bytes32",
          "name": "role",
          "type": "bytes32"
        },
        {
          "indexed": true,
          "internalType": "address",
          "name": "account",
          "type": "address"
        },
        {
          "indexed": true,
          "internalType": "address",
          "name": "sender",
          "type": "address"
        }
      ],
      "name": "RoleRevoked",
      "type": "event"
    },
    {
      "anonymous": false,
      "inputs": [
        {
          "indexed": false,
          "internalType": "address",
          "name": "account",
          "type": "address"
        }
      ],
      "name": "Unpaused",
      "type": "event"
    },
    {
      "inputs": [],
      "name": "ALLOWLISTER_ROLE",
      "outputs": [
        {
          "internalType": "bytes32",
          "name": "",
          "type": "bytes32"
        }
      ],
      "stateMutability": "view",
      "type": "function"
    },
    {
      "inputs": [],
      "name": "CALL_UPGRADER",
      "outputs": [
        {
          "internalType": "bytes32",
          "name": "",
          "type": "bytes32"
        }
      ],
      "stateMutability": "view",
      "type": "function"
    },
    {
      "inputs": [],
      "name": "COLLECTION_CONF",
      "outputs": [
        {
          "internalType": "bytes32",
          "name": "",
          "type": "bytes32"
        }
      ],
      "stateMutability": "view",
      "type": "function"
    },
    {
      "inputs": [],
      "name": "DEFAULT_ADMIN_ROLE",
      "outputs": [
        {
          "internalType": "bytes32",
          "name": "",
          "type": "bytes32"
        }
      ],
      "stateMutability": "view",
      "type": "function"
    },
    {
      "inputs": [],
      "name": "MARKET_CONF",
      "outputs": [
        {
          "internalType": "bytes32",
          "name": "",
          "type": "bytes32"
        }
      ],
      "stateMutability": "view",
      "type": "function"
    },
    {
      "inputs": [],
      "name": "PAUSER_ROLE",
      "outputs": [
        {
          "internalType": "bytes32",
          "name": "",
          "type": "bytes32"
        }
      ],
      "stateMutability": "view",
      "type": "function"
    },
    {
      "inputs": [],
      "name": "VAULT_UPGRADER",
      "outputs": [
        {
          "internalType": "bytes32",
          "name": "",
          "type": "bytes32"
        }
      ],
      "stateMutability": "view",
      "type": "function"
    },
    {
      "inputs": [],
      "name": "coveredCallContract",
      "outputs": [
        {
          "internalType": "address",
          "name": "",
          "type": "address"
        }
      ],
      "stateMutability": "view",
      "type": "function"
    },
    {
      "inputs": [
        {
          "internalType": "address",
          "name": "collectionAddress",
          "type": "address"
        },
        {
          "internalType": "bytes32",
          "name": "conf",
          "type": "bytes32"
        }
      ],
      "name": "getCollectionConfig",
      "outputs": [
        {
          "internalType": "bool",
          "name": "",
          "type": "bool"
        }
      ],
      "stateMutability": "view",
      "type": "function"
    },
    {
      "inputs": [
        {
          "internalType": "bytes32",
          "name": "role",
          "type": "bytes32"
        }
      ],
      "name": "getRoleAdmin",
      "outputs": [
        {
          "internalType": "bytes32",
          "name": "",
          "type": "bytes32"
        }
      ],
      "stateMutability": "view",
      "type": "function"
    },
    {
      "inputs": [],
      "name": "getWETHAddress",
      "outputs": [
        {
          "internalType": "address",
          "name": "",
          "type": "address"
        }
      ],
      "stateMutability": "view",
      "type": "function"
    },
    {
      "inputs": [
        {
          "internalType": "bytes32",
          "name": "role",
          "type": "bytes32"
        },
        {
          "internalType": "address",
          "name": "account",
          "type": "address"
        }
      ],
      "name": "grantRole",
      "outputs": [],
      "stateMutability": "nonpayable",
      "type": "function"
    },
    {
      "inputs": [
        {
          "internalType": "bytes32",
          "name": "role",
          "type": "bytes32"
        },
        {
          "internalType": "address",
          "name": "account",
          "type": "address"
        }
      ],
      "name": "hasRole",
      "outputs": [
        {
          "internalType": "bool",
          "name": "",
          "type": "bool"
        }
      ],
      "stateMutability": "view",
      "type": "function"
    },
    {
      "inputs": [],
      "name": "pause",
      "outputs": [],
      "stateMutability": "nonpayable",
      "type": "function"
    },
    {
      "inputs": [],
      "name": "paused",
      "outputs": [
        {
          "internalType": "bool",
          "name": "",
          "type": "bool"
        }
      ],
      "stateMutability": "view",
      "type": "function"
    },
    {
      "inputs": [
        {
          "internalType": "bytes32",
          "name": "role",
          "type": "bytes32"
        },
        {
          "internalType": "address",
          "name": "account",
          "type": "address"
        }
      ],
      "name": "renounceRole",
      "outputs": [],
      "stateMutability": "nonpayable",
      "type": "function"
    },
    {
      "inputs": [
        {
          "internalType": "bytes32",
          "name": "role",
          "type": "bytes32"
        },
        {
          "internalType": "address",
          "name": "account",
          "type": "address"
        }
      ],
      "name": "revokeRole",
      "outputs": [],
      "stateMutability": "nonpayable",
      "type": "function"
    },
    {
      "inputs": [
        {
          "internalType": "address",
          "name": "collectionAddress",
          "type": "address"
        },
        {
          "internalType": "bytes32",
          "name": "config",
          "type": "bytes32"
        },
        {
          "internalType": "bool",
          "name": "value",
          "type": "bool"
        }
      ],
      "name": "setCollectionConfig",
      "outputs": [],
      "stateMutability": "nonpayable",
      "type": "function"
    },
    {
      "inputs": [
        {
          "internalType": "address",
          "name": "coveredCallFactoryContract",
          "type": "address"
        }
      ],
      "name": "setCoveredCallFactory",
      "outputs": [],
      "stateMutability": "nonpayable",
      "type": "function"
    },
    {
      "inputs": [
        {
          "internalType": "address",
          "name": "vaultFactoryContract",
          "type": "address"
        }
      ],
      "name": "setVaultFactory",
      "outputs": [],
      "stateMutability": "nonpayable",
      "type": "function"
    },
    {
      "inputs": [
        {
          "internalType": "bytes4",
          "name": "interfaceId",
          "type": "bytes4"
        }
      ],
      "name": "supportsInterface",
      "outputs": [
        {
          "internalType": "bool",
          "name": "",
          "type": "bool"
        }
      ],
      "stateMutability": "view",
      "type": "function"
    },
    {
      "inputs": [],
      "name": "throwWhenPaused",
      "outputs": [],
      "stateMutability": "view",
      "type": "function"
    },
    {
      "inputs": [],
      "name": "unpause",
      "outputs": [],
      "stateMutability": "nonpayable",
      "type": "function"
    },
    {
      "inputs": [],
      "name": "vaultContract",
      "outputs": [
        {
          "internalType": "address",
          "name": "",
          "type": "address"
        }
      ],
      "stateMutability": "view",
      "type": "function"
    }
  ],
  "transactionHash": "0xddba14dfb60c1a87ada9f91cce908dc0e880763a3a33623bcf856cf4852f7745",
  "args": [
    "0xC8Cd2c5e18e55D1986bF66B72411C6f83D2Ad4cF",
    "0xD8fA171C70c9fb9e0EB643DC83A93AC6eDf4133C",
    "0xAB95dc5c7FA403052aBcD9d0573d4DC87c40A22E",
    "0xD244358eC796216166836477b627b2CdA9B14cb8",
    "0xeB046b544da37b81b8079149320C1a19f7dbEDc4",
    "0xF549bc26b3626dEFB5a6F3942b17c257b32515e9",
    "0xC02aaA39b223FE8D0A0e5C4F27eAD9083C756Cc2"
  ],
  "numDeployments": 1,
  "solcInputHash": "27cdac36318da08ab52a4db662ee1263",
  "bytecode": "0x60a06040523480156200001157600080fd5b506040516200171b3803806200171b833981016040819052620000349162000626565b6001805460ff191690556200005581620004ff602090811b6200081717901c565b620000a75760405162461bcd60e51b815260206004820152601760248201527f77657468206d757374206265206120636f6e747261637400000000000000000060448201526064015b60405180910390fd5b6001600160a01b038716620001255760405162461bcd60e51b815260206004820152603560248201527f616c6c6f776c697374657220616464726573732063616e6e6f7420626520736560448201527f7420746f20746865207a65726f2061646472657373000000000000000000000060648201526084016200009e565b6001600160a01b038616620001965760405162461bcd60e51b815260206004820152603060248201527f70617573657220616464726573732063616e6e6f742062652073657420746f2060448201526f746865207a65726f206164647265737360801b60648201526084016200009e565b6001600160a01b038516620002065760405162461bcd60e51b815260206004820152602f60248201527f61646d696e20616464726573732063616e6e6f742062652073657420746f207460448201526e6865207a65726f206164647265737360881b60648201526084016200009e565b6001600160a01b038416620002845760405162461bcd60e51b815260206004820152603660248201527f63616c6c557067726164657220616464726573732063616e6e6f74206265207360448201527f657420746f20746865207a65726f20616464726573730000000000000000000060648201526084016200009e565b6001600160a01b038316620003025760405162461bcd60e51b815260206004820152603460248201527f6d61726b6574436f6e6620616464726573732063616e6e6f742062652073657460448201527f20746f20746865207a65726f206164647265737300000000000000000000000060648201526084016200009e565b6001600160a01b038216620003805760405162461bcd60e51b815260206004820152603860248201527f636f6c6c656374696f6e436f6e6620616464726573732063616e6e6f7420626560448201527f2073657420746f20746865207a65726f2061646472657373000000000000000060648201526084016200009e565b6200039b600080516020620016bb833981519152886200050e565b620003b6600080516020620016db833981519152876200050e565b620003e27f945438d5e976f17e0d00cb2997cf8951c55e12977d86234d6738d1865abe006e866200050e565b620003fd6000805160206200169b833981519152856200050e565b620004186000805160206200167b833981519152846200050e565b62000433600080516020620016fb833981519152836200050e565b6200044e600080516020620016bb833981519152806200051e565b62000469600080516020620016db833981519152806200051e565b620004957f945438d5e976f17e0d00cb2997cf8951c55e12977d86234d6738d1865abe006e806200051e565b620004b06000805160206200169b833981519152806200051e565b620004cb6000805160206200167b833981519152806200051e565b620004e6600080516020620016fb833981519152806200051e565b6001600160a01b031660805250620006bb945050505050565b6001600160a01b03163b151590565b6200051a828262000569565b5050565b600082815260208190526040808220600101805490849055905190918391839186917fbd79b86ffe0ab8e8776151514217cd7cacd52c909f66475c3af44e129f0b00ff9190a4505050565b6000828152602081815260408083206001600160a01b038516845290915290205460ff166200051a576000828152602081815260408083206001600160a01b03851684529091529020805460ff19166001179055620005c53390565b6001600160a01b0316816001600160a01b0316837f2f8788117e7eff1d82e926ec794901d17c78024a50270940304540a733656f0d60405160405180910390a45050565b80516001600160a01b03811681146200062157600080fd5b919050565b600080600080600080600060e0888a0312156200064257600080fd5b6200064d8862000609565b96506200065d6020890162000609565b95506200066d6040890162000609565b94506200067d6060890162000609565b93506200068d6080890162000609565b92506200069d60a0890162000609565b9150620006ad60c0890162000609565b905092959891949750929550565b608051610fa4620006d760003960006102dc0152610fa46000f3fe608060405234801561001057600080fd5b50600436106101285760003560e01c806301ffc9a71461012d5780630d5e67ec14610155578063194f672914610178578063209b6d75146101b15780632274346b146101c6578063248a9ca3146101e65780632f2ff15d146101f957806336568abe1461020c5780633dce03221461021f5780633ea7fbdb146102325780633f4ba83a146102455780635b67d9ab1461024d5780635c975abb14610255578063624c7801146102605780638456cb591461027857806391d1485414610280578063a217fddf14610293578063a34fd3fb1461029b578063acca6838146102b0578063affa8817146102d7578063bb31173a146102fe578063d547741f14610313578063e63ab1e914610326578063f23c19e81461033b575b600080fd5b61014061013b366004610c05565b610362565b60405190151581526020015b60405180910390f35b61016a600080516020610f0f83398151915281565b60405190815260200161014c565b610140610186366004610c4b565b6001600160a01b03919091166000908152600360209081526040808320938352929052205460ff1690565b6101c46101bf366004610c75565b610399565b005b6002546101d9906001600160a01b031681565b60405161014c9190610c90565b61016a6101f4366004610ca4565b61049f565b6101c4610207366004610cbd565b6104b4565b6101c461021a366004610cbd565b6104d5565b6101c461022d366004610ce9565b610553565b6101c4610240366004610c75565b6105a1565b6101c4610696565b6101c4610725565b60015460ff16610140565b6001546101d99061010090046001600160a01b031681565b6101c4610748565b61014061028e366004610cbd565b6107d2565b61016a600081565b61016a600080516020610eef83398151915281565b61016a7ffba4f6dd992a27a814ee807eb2f9332d6d01312041726966a540cf4a4a89155381565b6101d97f000000000000000000000000000000000000000000000000000000000000000081565b61016a600080516020610f4f83398151915281565b6101c4610321366004610cbd565b6107fb565b61016a600080516020610f2f83398151915281565b61016a7f8de11a8d956993287a5b6a74c069984045abc1b621d651081c4c77c05c3cb7af81565b60006001600160e01b03198216637965db0b60e01b148061039357506301ffc9a760e01b6001600160e01b03198316145b92915050565b6103b1600080516020610eef833981519152336107d2565b6104025760405162461bcd60e51b815260206004820152601d60248201527f43616c6c6572206973206e6f7420612063616c6c20757067726164657200000060448201526064015b60405180910390fd5b61040b81610817565b6104775760405162461bcd60e51b815260206004820152603760248201527f736574436f766572656443616c6c466163746f72793a20696d706c656d656e74604482015276185d1a5bdb881a5cc81b9bdd08184818dbdb9d1c9858dd604a1b60648201526084016103f9565b600180546001600160a01b0390921661010002610100600160a81b0319909216919091179055565b60009081526020819052604090206001015490565b6104bd8261049f565b6104c681610826565b6104d08383610833565b505050565b6001600160a01b03811633146105455760405162461bcd60e51b815260206004820152602f60248201527f416363657373436f6e74726f6c3a2063616e206f6e6c792072656e6f756e636560448201526e103937b632b9903337b91039b2b63360891b60648201526084016103f9565b61054f82826108b7565b5050565b600080516020610f4f83398151915261056b81610826565b506001600160a01b0392909216600090815260036020908152604080832093835292905220805460ff1916911515919091179055565b6105b9600080516020610f0f833981519152336107d2565b6106055760405162461bcd60e51b815260206004820152601e60248201527f43616c6c6572206973206e6f742061207661756c74207570677261646572000060448201526064016103f9565b61060e81610817565b6106745760405162461bcd60e51b815260206004820152603160248201527f7365745661756c74466163746f72793a20696d706c656d656e746174696f6e206044820152701a5cc81b9bdd08184818dbdb9d1c9858dd607a1b60648201526084016103f9565b600280546001600160a01b0319166001600160a01b0392909216919091179055565b6106ae600080516020610f2f833981519152336107d2565b6106f45760405162461bcd60e51b815260206004820152601760248201527621b0b63632b91034b9903737ba1030b7103830bab9b2b960491b60448201526064016103f9565b60015460ff16151560011461071b5760405162461bcd60e51b81526004016103f990610d2e565b61072361091c565b565b60015460ff16156107235760405162461bcd60e51b81526004016103f990610d62565b610760600080516020610f2f833981519152336107d2565b6107a75760405162461bcd60e51b8152602060048201526018602482015277021b0b63632b91034b9903737ba1030b7103830bab9b2b9360451b60448201526064016103f9565b60015460ff16156107ca5760405162461bcd60e51b81526004016103f990610d2e565b6107236109a9565b6000918252602082815260408084206001600160a01b0393909316845291905290205460ff1690565b6108048261049f565b61080d81610826565b6104d083836108b7565b6001600160a01b03163b151590565b61083081336109ff565b50565b61083d82826107d2565b61054f576000828152602081815260408083206001600160a01b03851684529091529020805460ff191660011790556108733390565b6001600160a01b0316816001600160a01b0316837f2f8788117e7eff1d82e926ec794901d17c78024a50270940304540a733656f0d60405160405180910390a45050565b6108c182826107d2565b1561054f576000828152602081815260408083206001600160a01b0385168085529252808320805460ff1916905551339285917ff6391f5c32d9c69d2a47ea670b442974b53935d1edc7fd64eb21e047a839171b9190a45050565b60015460ff166109655760405162461bcd60e51b815260206004820152601460248201527314185d5cd8589b194e881b9bdd081c185d5cd95960621b60448201526064016103f9565b6001805460ff191690557f5db9ee0a495bf2e6ff9c91a7834c1ba4fdd244a5e8aa4e537bd38aeae4b073aa335b60405161099f9190610c90565b60405180910390a1565b60015460ff16156109cc5760405162461bcd60e51b81526004016103f990610d62565b6001805460ff1916811790557f62e78cea01bee320cd4e420270b5ea74000d11b0c9f74754ebdbfc544b05a25833610992565b610a0982826107d2565b61054f57610a21816001600160a01b03166014610a63565b610a2c836020610a63565b604051602001610a3d929190610dbc565b60408051601f198184030181529082905262461bcd60e51b82526103f991600401610e2b565b60606000610a72836002610e74565b610a7d906002610e93565b6001600160401b03811115610a9457610a94610eab565b6040519080825280601f01601f191660200182016040528015610abe576020820181803683370190505b509050600360fc1b81600081518110610ad957610ad9610ec1565b60200101906001600160f81b031916908160001a905350600f60fb1b81600181518110610b0857610b08610ec1565b60200101906001600160f81b031916908160001a9053506000610b2c846002610e74565b610b37906001610e93565b90505b6001811115610baf576f181899199a1a9b1b9c1cb0b131b232b360811b85600f1660108110610b6b57610b6b610ec1565b1a60f81b828281518110610b8157610b81610ec1565b60200101906001600160f81b031916908160001a90535060049490941c93610ba881610ed7565b9050610b3a565b508315610bfe5760405162461bcd60e51b815260206004820181905260248201527f537472696e67733a20686578206c656e67746820696e73756666696369656e7460448201526064016103f9565b9392505050565b600060208284031215610c1757600080fd5b81356001600160e01b031981168114610bfe57600080fd5b80356001600160a01b0381168114610c4657600080fd5b919050565b60008060408385031215610c5e57600080fd5b610c6783610c2f565b946020939093013593505050565b600060208284031215610c8757600080fd5b610bfe82610c2f565b6001600160a01b0391909116815260200190565b600060208284031215610cb657600080fd5b5035919050565b60008060408385031215610cd057600080fd5b82359150610ce060208401610c2f565b90509250929050565b600080600060608486031215610cfe57600080fd5b610d0784610c2f565b92506020840135915060408401358015158114610d2357600080fd5b809150509250925092565b6020808252601a9082015279141c9bdd1bd8dbdb081a5cc8185b1c9958591e481c185d5cd95960321b604082015260600190565b60208082526010908201526f14185d5cd8589b194e881c185d5cd95960821b604082015260600190565b60005b83811015610da7578181015183820152602001610d8f565b83811115610db6576000848401525b50505050565b76020b1b1b2b9b9a1b7b73a3937b61d1030b1b1b7bab73a1604d1b815260008351610dee816017850160208801610d8c565b7001034b99036b4b9b9b4b733903937b6329607d1b6017918401918201528351610e1f816028840160208801610d8c565b01602801949350505050565b6020815260008251806020840152610e4a816040850160208701610d8c565b601f01601f19169190910160400192915050565b634e487b7160e01b600052601160045260246000fd5b6000816000190483118215151615610e8e57610e8e610e5e565b500290565b60008219821115610ea657610ea6610e5e565b500190565b634e487b7160e01b600052604160045260246000fd5b634e487b7160e01b600052603260045260246000fd5b600081610ee657610ee6610e5e565b50600019019056fe657f307dfada290937bc821a25e2da10feb07809ba9560b816723e8b47fe379a945438d5e976f17e0d00cb2997cf8951c55e12977d86234d6738d1865abe006e65d7a28e3265b37a6474929f336521b332c1681b933f6cb9f3376673440d862af7e0191f3657a6da7569740b1cdeac8c3425bcbfd257d4fdc6d2241598f4de8ba2646970667358221220545256688ec22bc1144bdcfe983d6a37e6530e7c33924a188f7b5af5111fc7e664736f6c634300080a00338de11a8d956993287a5b6a74c069984045abc1b621d651081c4c77c05c3cb7af657f307dfada290937bc821a25e2da10feb07809ba9560b816723e8b47fe379afba4f6dd992a27a814ee807eb2f9332d6d01312041726966a540cf4a4a89155365d7a28e3265b37a6474929f336521b332c1681b933f6cb9f3376673440d862af7e0191f3657a6da7569740b1cdeac8c3425bcbfd257d4fdc6d2241598f4de8b",
  "devdoc": {
    "details": "Other contracts in the protocol refer to this one to get configuration and pausing issues. to reduce attack surface area, this contract cannot be upgraded; however, additional roles can be added. This contract does not implement any specific timelocks or other safety measures. The roles are granted with the principal of least privilege. As the protocol matures, these additional measures can be layered by granting these roles to other contracts. In the extreme, the upgrade and other roles can be burned, which would effectively make the protocol static and non-upgradeable.",
    "kind": "dev",
    "methods": {
      "getCollectionConfig(address,bytes32)": {
        "details": "See {IHookProtocol-getCollectionConfig}."
      },
      "getRoleAdmin(bytes32)": {
        "details": "Returns the admin role that controls `role`. See {grantRole} and {revokeRole}. To change a role's admin, use {_setRoleAdmin}."
      },
      "grantRole(bytes32,address)": {
        "details": "Grants `role` to `account`. If `account` had not been already granted `role`, emits a {RoleGranted} event. Requirements: - the caller must have ``role``'s admin role."
      },
      "hasRole(bytes32,address)": {
        "details": "Returns `true` if `account` has been granted `role`."
      },
      "paused()": {
        "details": "Returns true if the contract is paused, and false otherwise."
      },
      "renounceRole(bytes32,address)": {
        "details": "Revokes `role` from the calling account. Roles are often managed via {grantRole} and {revokeRole}: this function's purpose is to provide a mechanism for accounts to lose their privileges if they are compromised (such as when a trusted device is misplaced). If the calling account had been revoked `role`, emits a {RoleRevoked} event. Requirements: - the caller must be `account`."
      },
      "revokeRole(bytes32,address)": {
        "details": "Revokes `role` from `account`. If `account` had been granted `role`, emits a {RoleRevoked} event. Requirements: - the caller must have ``role``'s admin role."
      },
      "setCollectionConfig(address,bytes32,bool)": {
        "details": "the conf value can be read with getCollectionConfig",
        "params": {
          "collectionAddress": "the address for the collection",
          "config": "the configuration field to set",
          "value": "the value to set for the configuration"
        }
      },
      "setCoveredCallFactory(address)": {
        "details": "This address is used by other protocols searching for the registry of protocols.",
        "params": {
          "coveredCallFactoryContract": "the address of the deployed covered call contract"
        }
      },
      "setVaultFactory(address)": {
        "details": "allows all protocol components, including the call factory, to look up the vault factory.",
        "params": {
          "vaultFactoryContract": "the deployed vault factory"
        }
      },
      "supportsInterface(bytes4)": {
        "details": "See {IERC165-supportsInterface}."
      }
    },
    "stateVariables": {
      "getWETHAddress": {
        "details": "these are values for popular chains: mainnet: 0xc02aaa39b223fe8d0a0e5c4f27ead9083c756cc2 kovan: 0xd0a1e359811322d97991e03f863a0c30c2cf029c ropsten: 0xc778417e063141139fce010982780140aa0cd5ab rinkeby: 0xc778417e063141139fce010982780140aa0cd5ab",
        "return": "the weth address",
        "returns": {
          "_0": "the weth address"
        }
      }
    },
    "version": 1
  },
  "userdoc": {
    "kind": "user",
    "methods": {
      "ALLOWLISTER_ROLE()": {
        "notice": "the allowlister is able to enable and disable projects to mint instruments"
      },
      "CALL_UPGRADER()": {
        "notice": "the call upgrader role is able to upgrade the implementation of the covered call options"
      },
      "COLLECTION_CONF()": {
        "notice": "the collection configuration role allows the actor to make changes the collection configs on the protocol contract"
      },
      "MARKET_CONF()": {
        "notice": "the market configuration role allows the actor to make changes to how the market operates"
      },
      "PAUSER_ROLE()": {
        "notice": "the pauser is able to start and pause various components of the protocol"
      },
      "VAULT_UPGRADER()": {
        "notice": "the vault upgrader role is able to upgrade the implementation for all vaults"
      },
      "coveredCallContract()": {
        "notice": "the address of the deployed CoveredCallFactory used by the protocol"
      },
      "getWETHAddress()": {
        "notice": "the standard weth address on this chain"
      },
      "pause()": {
        "notice": "pauses the protocol if the protocol is currently unpaused"
      },
      "setCollectionConfig(address,bytes32,bool)": {
        "notice": "allows an account with the COLLECTION_CONF role to set a boolean config value for a collection"
      },
      "setCoveredCallFactory(address)": {
        "notice": "Allows an admin to set the address of the deployed covered call factory"
      },
      "setVaultFactory(address)": {
        "notice": "Allows an admin to set the address of the deployed vault factory"
      },
      "throwWhenPaused()": {
        "notice": "throws an exception when the protocol is paused"
      },
      "unpause()": {
        "notice": "unpauses the protocol if the protocol is already paused"
      },
      "vaultContract()": {
        "notice": "the address of the deployed VaultFactory used by the protocol"
      }
    },
    "version": 1
  },
  "storageLayout": {
    "storage": [
      {
        "astId": 24,
        "contract": "src/HookProtocol.sol:HookProtocol",
        "label": "_roles",
        "offset": 0,
        "slot": "0",
        "type": "t_mapping(t_bytes32,t_struct(RoleData)19_storage)"
      },
      {
        "astId": 1047,
        "contract": "src/HookProtocol.sol:HookProtocol",
        "label": "_paused",
        "offset": 0,
        "slot": "1",
        "type": "t_bool"
      },
      {
        "astId": 7076,
        "contract": "src/HookProtocol.sol:HookProtocol",
        "label": "coveredCallContract",
        "offset": 1,
        "slot": "1",
        "type": "t_address"
      },
      {
        "astId": 7079,
        "contract": "src/HookProtocol.sol:HookProtocol",
        "label": "vaultContract",
        "offset": 0,
        "slot": "2",
        "type": "t_address"
      },
      {
        "astId": 7088,
        "contract": "src/HookProtocol.sol:HookProtocol",
        "label": "collectionConfigs",
        "offset": 0,
        "slot": "3",
        "type": "t_mapping(t_address,t_mapping(t_bytes32,t_bool))"
      }
    ],
    "types": {
      "t_address": {
        "encoding": "inplace",
        "label": "address",
        "numberOfBytes": "20"
      },
      "t_bool": {
        "encoding": "inplace",
        "label": "bool",
        "numberOfBytes": "1"
      },
      "t_bytes32": {
        "encoding": "inplace",
        "label": "bytes32",
        "numberOfBytes": "32"
      },
      "t_mapping(t_address,t_bool)": {
        "encoding": "mapping",
        "key": "t_address",
        "label": "mapping(address => bool)",
        "numberOfBytes": "32",
        "value": "t_bool"
      },
      "t_mapping(t_address,t_mapping(t_bytes32,t_bool))": {
        "encoding": "mapping",
        "key": "t_address",
        "label": "mapping(address => mapping(bytes32 => bool))",
        "numberOfBytes": "32",
        "value": "t_mapping(t_bytes32,t_bool)"
      },
      "t_mapping(t_bytes32,t_bool)": {
        "encoding": "mapping",
        "key": "t_bytes32",
        "label": "mapping(bytes32 => bool)",
        "numberOfBytes": "32",
        "value": "t_bool"
      },
      "t_mapping(t_bytes32,t_struct(RoleData)19_storage)": {
        "encoding": "mapping",
        "key": "t_bytes32",
        "label": "mapping(bytes32 => struct AccessControl.RoleData)",
        "numberOfBytes": "32",
        "value": "t_struct(RoleData)19_storage"
      },
      "t_struct(RoleData)19_storage": {
        "encoding": "inplace",
        "label": "struct AccessControl.RoleData",
        "members": [
          {
            "astId": 16,
            "contract": "src/HookProtocol.sol:HookProtocol",
            "label": "members",
            "offset": 0,
            "slot": "0",
            "type": "t_mapping(t_address,t_bool)"
          },
          {
            "astId": 18,
            "contract": "src/HookProtocol.sol:HookProtocol",
            "label": "adminRole",
            "offset": 0,
            "slot": "1",
            "type": "t_bytes32"
          }
        ],
        "numberOfBytes": "64"
      }
    }
  }
}