{
  "address": "0x1F6E5215D3DE35Dbaa2Fe0Ff61B7f8843b53b678",
  "abi": [
    {
      "inputs": [],
      "stateMutability": "nonpayable",
      "type": "constructor"
    },
    {
      "anonymous": false,
      "inputs": [
        {
          "indexed": true,
          "internalType": "address",
          "name": "beneficialOwner",
          "type": "address"
        },
        {
          "indexed": true,
          "internalType": "address",
          "name": "approved",
          "type": "address"
        },
        {
          "indexed": true,
          "internalType": "uint32",
          "name": "assetId",
          "type": "uint32"
        }
      ],
      "name": "Approval",
      "type": "event"
    },
    {
      "anonymous": false,
      "inputs": [
        {
          "indexed": false,
          "internalType": "address",
          "name": "owner",
          "type": "address"
        },
        {
          "indexed": false,
          "internalType": "uint256",
          "name": "tokenId",
          "type": "uint256"
        },
        {
          "indexed": false,
          "internalType": "address",
          "name": "flashLoanImpl",
          "type": "address"
        }
      ],
      "name": "AssetFlashLoaned",
      "type": "event"
    },
    {
      "anonymous": false,
      "inputs": [
        {
          "indexed": false,
          "internalType": "address",
          "name": "owner",
          "type": "address"
        },
        {
          "indexed": false,
          "internalType": "address",
          "name": "sender",
          "type": "address"
        },
        {
          "indexed": false,
          "internalType": "address",
          "name": "contractAddress",
          "type": "address"
        },
        {
          "indexed": false,
          "internalType": "uint32",
          "name": "assetId",
          "type": "uint32"
        }
      ],
      "name": "AssetReceived",
      "type": "event"
    },
    {
      "anonymous": false,
      "inputs": [
        {
          "indexed": false,
          "internalType": "uint32",
          "name": "assetId",
          "type": "uint32"
        },
        {
          "indexed": false,
          "internalType": "address",
          "name": "to",
          "type": "address"
        },
        {
          "indexed": false,
          "internalType": "address",
          "name": "beneficialOwner",
          "type": "address"
        }
      ],
      "name": "AssetWithdrawn",
      "type": "event"
    },
    {
      "anonymous": false,
      "inputs": [
        {
          "indexed": false,
          "internalType": "uint32",
          "name": "assetId",
          "type": "uint32"
        },
        {
          "indexed": false,
          "internalType": "address",
          "name": "beneficialOwner",
          "type": "address"
        },
        {
          "indexed": false,
          "internalType": "address",
          "name": "setBy",
          "type": "address"
        }
      ],
      "name": "BeneficialOwnerSet",
      "type": "event"
    },
    {
      "anonymous": false,
      "inputs": [
        {
          "indexed": false,
          "internalType": "uint256",
          "name": "assetId",
          "type": "uint256"
        },
        {
          "indexed": false,
          "internalType": "address",
          "name": "beneficialOwner",
          "type": "address"
        }
      ],
      "name": "EntitlementCleared",
      "type": "event"
    },
    {
      "anonymous": false,
      "inputs": [
        {
          "indexed": false,
          "internalType": "uint32",
          "name": "assetId",
          "type": "uint32"
        },
        {
          "indexed": false,
          "internalType": "address",
          "name": "entitledAccount",
          "type": "address"
        },
        {
          "indexed": false,
          "internalType": "uint32",
          "name": "expiry",
          "type": "uint32"
        },
        {
          "indexed": false,
          "internalType": "address",
          "name": "beneficialOwner",
          "type": "address"
        }
      ],
      "name": "EntitlementImposed",
      "type": "event"
    },
    {
      "anonymous": false,
      "inputs": [
        {
          "indexed": false,
          "internalType": "uint8",
          "name": "version",
          "type": "uint8"
        }
      ],
      "name": "Initialized",
      "type": "event"
    },
    {
      "inputs": [],
      "name": "EIP712_DOMAIN_SEPARATOR",
      "outputs": [
        {
          "internalType": "bytes32",
          "name": "",
          "type": "bytes32"
        }
      ],
      "stateMutability": "view",
      "type": "function"
    },
    {
      "inputs": [
        {
          "internalType": "address",
          "name": "to",
          "type": "address"
        },
        {
          "internalType": "uint32",
          "name": "assetId",
          "type": "uint32"
        }
      ],
      "name": "approveOperator",
      "outputs": [],
      "stateMutability": "nonpayable",
      "type": "function"
    },
    {
      "inputs": [
        {
          "internalType": "uint32",
          "name": "",
          "type": "uint32"
        }
      ],
      "name": "assetAddress",
      "outputs": [
        {
          "internalType": "address",
          "name": "",
          "type": "address"
        }
      ],
      "stateMutability": "view",
      "type": "function"
    },
    {
      "inputs": [
        {
          "internalType": "uint32",
          "name": "assetId",
          "type": "uint32"
        }
      ],
      "name": "assetTokenId",
      "outputs": [
        {
          "internalType": "uint256",
          "name": "",
          "type": "uint256"
        }
      ],
      "stateMutability": "view",
      "type": "function"
    },
    {
      "inputs": [
        {
          "internalType": "uint32",
          "name": "assetId",
          "type": "uint32"
        }
      ],
      "name": "clearEntitlement",
      "outputs": [],
      "stateMutability": "nonpayable",
      "type": "function"
    },
    {
      "inputs": [
        {
          "internalType": "uint32",
          "name": "assetId",
          "type": "uint32"
        },
        {
          "internalType": "address",
          "name": "receiver",
          "type": "address"
        }
      ],
      "name": "clearEntitlementAndDistribute",
      "outputs": [],
      "stateMutability": "nonpayable",
      "type": "function"
    },
    {
      "inputs": [
        {
          "internalType": "uint32",
          "name": "assetId",
          "type": "uint32"
        }
      ],
      "name": "entitlementExpiration",
      "outputs": [
        {
          "internalType": "uint32",
          "name": "",
          "type": "uint32"
        }
      ],
      "stateMutability": "view",
      "type": "function"
    },
    {
      "inputs": [
        {
          "internalType": "uint32",
          "name": "assetId",
          "type": "uint32"
        },
        {
          "internalType": "address",
          "name": "receiverAddress",
          "type": "address"
        },
        {
          "internalType": "bytes",
          "name": "params",
          "type": "bytes"
        }
      ],
      "name": "flashLoan",
      "outputs": [],
      "stateMutability": "nonpayable",
      "type": "function"
    },
    {
      "inputs": [
        {
          "internalType": "uint32",
          "name": "assetId",
          "type": "uint32"
        }
      ],
      "name": "getApprovedOperator",
      "outputs": [
        {
          "internalType": "address",
          "name": "",
          "type": "address"
        }
      ],
      "stateMutability": "view",
      "type": "function"
    },
    {
      "inputs": [
        {
          "internalType": "uint32",
          "name": "assetId",
          "type": "uint32"
        }
      ],
      "name": "getBeneficialOwner",
      "outputs": [
        {
          "internalType": "address",
          "name": "",
          "type": "address"
        }
      ],
      "stateMutability": "view",
      "type": "function"
    },
    {
      "inputs": [
        {
          "internalType": "uint32",
          "name": "assetId",
          "type": "uint32"
        }
      ],
      "name": "getCurrentEntitlementOperator",
      "outputs": [
        {
          "internalType": "bool",
          "name": "",
          "type": "bool"
        },
        {
          "internalType": "address",
          "name": "",
          "type": "address"
        }
      ],
      "stateMutability": "view",
      "type": "function"
    },
    {
      "inputs": [
        {
          "internalType": "uint32",
          "name": "assetId",
          "type": "uint32"
        }
      ],
      "name": "getHoldsAsset",
      "outputs": [
        {
          "internalType": "bool",
          "name": "",
          "type": "bool"
        }
      ],
      "stateMutability": "view",
      "type": "function"
    },
    {
      "inputs": [
        {
          "components": [
            {
              "internalType": "address",
              "name": "beneficialOwner",
              "type": "address"
            },
            {
              "internalType": "address",
              "name": "operator",
              "type": "address"
            },
            {
              "internalType": "address",
              "name": "vaultAddress",
              "type": "address"
            },
            {
              "internalType": "uint32",
              "name": "assetId",
              "type": "uint32"
            },
            {
              "internalType": "uint32",
              "name": "expiry",
              "type": "uint32"
            }
          ],
          "internalType": "struct Entitlements.Entitlement",
          "name": "entitlement",
          "type": "tuple"
        }
      ],
      "name": "grantEntitlement",
      "outputs": [],
      "stateMutability": "nonpayable",
      "type": "function"
    },
    {
      "inputs": [
        {
          "internalType": "uint32",
          "name": "assetId",
          "type": "uint32"
        }
      ],
      "name": "hasActiveEntitlement",
      "outputs": [
        {
          "internalType": "bool",
          "name": "",
          "type": "bool"
        }
      ],
      "stateMutability": "view",
      "type": "function"
    },
    {
      "inputs": [
        {
          "internalType": "address",
          "name": "operator",
          "type": "address"
        },
        {
          "internalType": "uint32",
          "name": "expiry",
          "type": "uint32"
        },
        {
          "internalType": "uint32",
          "name": "assetId",
          "type": "uint32"
        },
        {
          "internalType": "uint8",
          "name": "v",
          "type": "uint8"
        },
        {
          "internalType": "bytes32",
          "name": "r",
          "type": "bytes32"
        },
        {
          "internalType": "bytes32",
          "name": "s",
          "type": "bytes32"
        }
      ],
      "name": "imposeEntitlement",
      "outputs": [],
      "stateMutability": "nonpayable",
      "type": "function"
    },
    {
      "inputs": [
        {
          "internalType": "address",
          "name": "nftContract",
          "type": "address"
        },
        {
          "internalType": "address",
          "name": "hookAddress",
          "type": "address"
        }
      ],
      "name": "initialize",
      "outputs": [],
      "stateMutability": "nonpayable",
      "type": "function"
    },
    {
      "inputs": [
        {
          "internalType": "address",
          "name": "operator",
          "type": "address"
        },
        {
          "internalType": "address",
          "name": "from",
          "type": "address"
        },
        {
          "internalType": "uint256",
          "name": "tokenId",
          "type": "uint256"
        },
        {
          "internalType": "bytes",
          "name": "data",
          "type": "bytes"
        }
      ],
      "name": "onERC721Received",
      "outputs": [
        {
          "internalType": "bytes4",
          "name": "",
          "type": "bytes4"
        }
      ],
      "stateMutability": "nonpayable",
      "type": "function"
    },
    {
      "inputs": [
        {
          "internalType": "uint32",
          "name": "assetId",
          "type": "uint32"
        },
        {
          "internalType": "address",
          "name": "newBeneficialOwner",
          "type": "address"
        }
      ],
      "name": "setBeneficialOwner",
      "outputs": [],
      "stateMutability": "nonpayable",
      "type": "function"
    },
    {
      "inputs": [
        {
          "internalType": "bytes4",
          "name": "interfaceId",
          "type": "bytes4"
        }
      ],
      "name": "supportsInterface",
      "outputs": [
        {
          "internalType": "bool",
          "name": "",
          "type": "bool"
        }
      ],
      "stateMutability": "view",
      "type": "function"
    },
    {
      "inputs": [
        {
          "internalType": "address",
          "name": "operator",
          "type": "address"
        },
        {
          "internalType": "uint32",
          "name": "expiry",
          "type": "uint32"
        },
        {
          "internalType": "uint32",
          "name": "assetId",
          "type": "uint32"
        },
        {
          "internalType": "uint8",
          "name": "v",
          "type": "uint8"
        },
        {
          "internalType": "bytes32",
          "name": "r",
          "type": "bytes32"
        },
        {
          "internalType": "bytes32",
          "name": "s",
          "type": "bytes32"
        }
      ],
      "name": "validateEntitlementSignature",
      "outputs": [],
      "stateMutability": "view",
      "type": "function"
    },
    {
      "inputs": [
        {
          "internalType": "uint32",
          "name": "assetId",
          "type": "uint32"
        }
      ],
      "name": "withdrawalAsset",
      "outputs": [],
      "stateMutability": "nonpayable",
      "type": "function"
    }
  ],
  "transactionHash": "0x82f57fc3ebaf009e9f0fc59bcc3406757ae5f8cecff175e1300442a0468bbcbb",
  "args": [],
  "numDeployments": 1,
  "solcInputHash": "27cdac36318da08ab52a4db662ee1263",
  "bytecode": "0x608060405234801561001057600080fd5b506001600255612585806100256000396000f3fe608060405234801561001057600080fd5b50600436106101075760003560e01c806301ffc9a71461010c57806303e7158b14610134578063150b7a02146101495780631f48f6ab1461017557806325a23982146101ab5780632ec14d3f146101be578063485cc955146101d15780634eeeaa32146101e457806360bbf4a4146101f7578063774a76271461020a578063942811b514610232578063af024ae614610245578063ba02481b14610274578063bf6346b714610287578063c72bed151461029a578063dab400f3146102cc578063dbd74309146102e3578063e7dc956b146102f6578063eaf8b32314610309578063ebc5eb071461031c578063ecb2c20b1461032f575b600080fd5b61011f61011a366004612014565b61035e565b60405190151581526020015b60405180910390f35b61014761014236600461206e565b610395565b005b61015c610157366004612126565b610451565b6040516001600160e01b0319909116815260200161012b565b610193610183366004612198565b506003546001600160a01b031690565b6040516001600160a01b03909116815260200161012b565b6101476101b93660046121b3565b610730565b6101476101cc3660046121b3565b61094f565b6101476101df3660046121ea565b610ad1565b6101476101f2366004612198565b610c1b565b610147610205366004612208565b610e47565b61021d610218366004612198565b610f89565b60405163ffffffff909116815260200161012b565b61011f610240366004612198565b610fcb565b610193610253366004612198565b63ffffffff166000908152600560205260409020546001600160a01b031690565b61011f610282366004612198565b611020565b610147610295366004612220565b61103c565b6102ad6102a8366004612198565b6115c2565b6040805192151583526001600160a01b0390911660208301520161012b565b6102d560005481565b60405190815260200161012b565b6101476102f136600461206e565b6115fe565b6102d5610304366004612198565b6117b0565b610147610317366004612198565b6117be565b61014761032a366004612282565b6118da565b61019361033d366004612198565b63ffffffff166000908152600460205260409020546001600160a01b031690565b60006001600160e01b0319821663162ff4f760e21b148061038f57506001600160e01b031982166301ffc9a760e01b145b92915050565b63ffffffff84166000908152600460205260409020546001600160a01b031661043b5760405162461bcd60e51b815260206004820152604760248201527f696d706f7365456e7469746c656d656e742d62656e6566696369616c206f776e60448201527f6572206d7573742062652073657420746f20696d706f736520616e20656e74696064820152661d1b195b595b9d60ca1b608482015260a4015b60405180910390fd5b6104498686868686866119e2565b505050505050565b600063ffffffff8411156104b85760405162461bcd60e51b815260206004820152602860248201527f6f6e45524337323152656365697665642d746f6b656e4964206973206f7574206044820152676f662072616e676560c01b6064820152608401610432565b6003546001600160a01b031633141561060757811561053c57606082141561050457600080806104ea858701876122b7565b9250925092506104fc87838386611a1a565b505050610546565b6000808080610515868801886122fe565b935093509350935061052988848487611a1a565b6105338189611bf7565b50505050610546565b6105468486611c64565b60405163ecb2c20b60e01b815263ffffffff851660048201527f7897fd58abdfc815ef9370ad67929a217fbaa4b692c4b1086930ae97e4a7fe2d90309063ecb2c20b90602401602060405180830381865afa1580156105a9573d6000803e3d6000fd5b505050506040513d601f19601f820116820180604052508101906105cd9190612358565b604080516001600160a01b0392831681529189166020830152339082015263ffffffff8616606082015260800160405180910390a161071e565b60065460035460405163194f672960e01b81526001600160a01b039283169263194f67299261065d929116907f0c6296a577719ee1835d23ea2ac4f93808edda4f265df0440caeecc95a06857590600401612375565b602060405180830381865afa15801561067a573d6000803e3d6000fd5b505050506040513d601f19601f8201168201806040525081019061069e919061238e565b61071e5760405162461bcd60e51b815260206004820152604560248201527f6f6e45524337323152656365697665642d6e6f6e2d657363726f77206173736560448201527f742072657475726e6564207768656e2061697264726f7073206172652064697360648201526418589b195960da1b608482015260a401610432565b50630a85bd0160e11b95945050505050565b6002805414156107525760405162461bcd60e51b8152600401610432906123b0565b6002805563ffffffff82166000908152600460205260409020546001600160a01b038281169116146108025760405162461bcd60e51b815260206004820152604d60248201527f636c656172456e7469746c656d656e74416e64446973747269627574652d4f6e60448201527f6c79207468652062656e6566696369616c206f776e65722063616e207265636560648201526c1a5d99481d1a1948185cdcd95d609a1b608482015260a401610432565b6001600160a01b03811661088a5760405162461bcd60e51b815260206004820152604360248201527f636c656172456e7469746c656d656e74416e64446973747269627574652d617360448201527f736574732063616e6e6f742062652073656e7420746f206e756c6c206164647260648201526265737360e81b608482015260a401610432565b610893826117be565b6003546001600160a01b03166342842e0e308363ffffffff86166040518463ffffffff1660e01b81526004016108cb939291906123e7565b600060405180830381600087803b1580156108e557600080fd5b505af11580156108f9573d6000803e3d6000fd5b50505063ffffffff831660009081526004602052604090819020549051600080516020612530833981519152925061093e91859185916001600160a01b03169061240b565b60405180910390a150506001600255565b61095882610fcb565b15610a1e5763ffffffff82166000908152600460205260409020600101546001600160a01b03163314610a195760405162461bcd60e51b815260206004820152606060248201527f73657442656e6566696369616c4f776e65722d6f6e6c792074686520636f6e7460448201527f726163742077697468207468652061637469766520656e7469746c656d656e7460648201527f2063616e20757064617465207468652062656e6566696369616c206f776e6572608482015260a401610432565b610ac3565b63ffffffff82166000908152600460205260409020546001600160a01b03163314610ac35760405162461bcd60e51b815260206004820152604960248201527f73657442656e6566696369616c4f776e65722d6f6e6c7920746865206375727260448201527f656e74206f776e65722063616e20757064617465207468652062656e6566696360648201526834b0b61037bbb732b960b91b608482015260a401610432565b610acd8282611c64565b5050565b6000610add6001611d4b565b90508015610af5576001805461ff0019166101001790555b604080517f8b73c3c69bb8fe3d512ecc4cf759cc79239f7b179b0ffacaa9a75d522b39400f6020808301919091527fbefac456e8d3c7dcbe25358dd865ef756e23bdcd0f4f36a6e915a0f24b6849e9828401527f06c015bd22b4c69690933c1058878ebdfef31f9aaae40bbe86d8a09fe1b2972c60608301524660808301526001600160a01b03851660a0808401919091528351808403909101815260c09092019092528051910120600055600380546001600160a01b038086166001600160a01b03199283161790925560068054928516929091169190911790558015610c16576001805461ff00191681556040519081527f7f26b83ff96e1f2b6a682f133852f6798a09c465da95921460cefb38474024989060200160405180910390a15b505050565b600280541415610c3d5760405162461bcd60e51b8152600401610432906123b0565b60028055610c4a81610fcb565b15610cce5760405162461bcd60e51b815260206004820152604860248201527f7769746864726177616c41737365742d7468652061737365742063616e6e6f7460448201527f2062652077697468647261776e207769746820616e2061637469766520656e746064820152671a5d1b195b595b9d60c21b608482015260a401610432565b63ffffffff81166000908152600460205260409020546001600160a01b03163314610d6b5760405162461bcd60e51b815260206004820152604160248201527f7769746864726177616c41737365742d6f6e6c79207468652062656e6566696360448201527f69616c206f776e65722063616e207769746864726177616c20616e20617373656064820152601d60fa1b608482015260a401610432565b60035463ffffffff82166000908152600460205260409020546001600160a01b03918216916342842e0e91309116610da68563ffffffff1690565b6040518463ffffffff1660e01b8152600401610dc4939291906123e7565b600060405180830381600087803b158015610dde57600080fd5b505af1158015610df2573d6000803e3d6000fd5b50505063ffffffff8216600090815260046020526040908190205490516000805160206125308339815191529250610e3791849133916001600160a01b03169061240b565b60405180910390a1506001600255565b3360046000610e5c6080850160608601612198565b63ffffffff1681526020810191909152604001600020546001600160a01b03161480610eba57503360056000610e986080850160608601612198565b63ffffffff1681526020810191909152604001600020546001600160a01b0316145b610f4d5760405162461bcd60e51b815260206004820152605860248201527f6772616e74456e7469746c656d656e742d6f6e6c79207468652062656e65666960448201527f6369616c206f776e6572206f7220617070726f766564206f70657261746f722060648201527718d85b8819dc985b9d08185b88195b9d1a5d1b195b595b9d60421b608482015260a401610432565b610f86610f606080830160608401612198565b610f706040840160208501612432565b610f8060a0850160808601612198565b33611a1a565b50565b6000610f9482610fcb565b610fa057506000919050565b5063ffffffff908116600090815260046020526040902060010154600160a01b90041690565b919050565b63ffffffff8082166000908152600460205260408120600101549091600160a01b909104164210801561038f57505063ffffffff166000908152600460205260409020600101546001600160a01b0316151590565b60003061102c83611dd3565b6001600160a01b03161492915050565b60028054141561105e5760405162461bcd60e51b8152600401610432906123b0565b60028055826001600160a01b0381166110b25760405162461bcd60e51b8152602060048201526016602482015275666c6173684c6f616e2d7a65726f206164647265737360501b6044820152606401610432565b306110bc86611dd3565b6001600160a01b0316146111115760405162461bcd60e51b815260206004820152601c60248201527b199b185cda131bd85b8b585cdcd95d081b9bdd081a5b881d985d5b1d60221b6044820152606401610432565b63ffffffff85166000908152600460205260409020546001600160a01b0316331461118e5760405162461bcd60e51b815260206004820152602760248201527f666c6173684c6f616e2d6e6f742063616c6c65642062792074686520617373656044820152663a1037bbb732b960c91b6064820152608401610432565b60065460035460405163194f672960e01b81526001600160a01b039283169263194f6729926111e4929116907f7b2ae2881a80edd04dac29e0424a8afcb85d139d6204e45ea854215cb864990b90600401612375565b602060405180830381865afa158015611201573d6000803e3d6000fd5b505050506040513d601f19601f82011682018060405250810190611225919061238e565b156112915760405162461bcd60e51b815260206004820152603660248201527f666c6173684c6f616e2d666c6173684c6f616e20666561747572652064697361604482015275189b195908199bdc881d1a1a5cc818dbdb9d1c9858dd60521b6064820152608401610432565b63ffffffff8516600090815260046020908152604080832090516112b5920161244f565b60408051601f19818403018152908290528051602090910120600354632142170760e11b83529092506001600160a01b0316906342842e0e90611306903090899063ffffffff8c16906004016123e7565b600060405180830381600087803b15801561132057600080fd5b505af1158015611334573d6000803e3d6000fd5b505060035460405163817dc5e560e01b81526001600160a01b03868116945063817dc5e5935061137892169063ffffffff8b1690339030908b908b90600401612484565b6020604051808303816000875af1158015611397573d6000803e3d6000fd5b505050506040513d601f19601f820116820180604052508101906113bb919061238e565b6114225760405162461bcd60e51b815260206004820152603260248201527f666c6173684c6f616e2d74686520666c617368206c6f616e20636f6e7472616360448201527174206d7573742072657475726e207472756560701b6064820152608401610432565b6003546001600160a01b03166323b872dd863063ffffffff8a166040518463ffffffff1660e01b815260040161145a939291906123e7565b600060405180830381600087803b15801561147457600080fd5b505af1158015611488573d6000803e3d6000fd5b50505050306001600160a01b031661149f87611dd3565b6001600160a01b0316146114b257600080fd5b63ffffffff861660009081526004602090815260409182902091516114d892910161244f565b6040516020818303038152906040528051906020012081146115535760405162461bcd60e51b815260206004820152602e60248201527f666c6173684c6f616e2d656e7469746c656d656e742073746174652063616e6e60448201526d1bdd081899481b5bd91a599a595960921b6064820152608401610432565b63ffffffff86166000818152600460209081526040918290205482516001600160a01b0391821681529182019390935291871682820152517fb9a0fd57b76d147a2f98aed604908c2285d360c4349bf8c59e89365e39b2f9e29181900360600190a15050600160025550505050565b60008060006115d084610fcb565b63ffffffff90941660009081526004602052604090206001015493946001600160a01b039094169392505050565b6040805160a08101825263ffffffff808716600081815260046020908152858220546001600160a01b0390811686528c169085015230948401949094526060830152871660808201526116599061165490611e46565b611f7f565b6040805160008082526020820180845284905260ff88169282019290925260608101869052608081018590529192509060019060a0016020604051602081039080840390855afa1580156116b1573d6000803e3d6000fd5b5050604051601f1901519150506001600160a01b0381166117105760405162461bcd60e51b81526020600482015260196024820152781c9958dbdd995c9959081859191c995cdcc81a5cc81b9d5b1b603a1b6044820152606401610432565b63ffffffff86166000908152600460205260409020546001600160a01b038281169116146117a65760405162461bcd60e51b815260206004820152603e60248201527f76616c6964617465456e7469746c656d656e745369676e6174757265202d2d2d60448201527f206e6f74207369676e65642062792062656e6566696369616c4f776e657200006064820152608401610432565b5050505050505050565b600063ffffffff821661038f565b6117c781610fcb565b61182d5760405162461bcd60e51b815260206004820152603160248201527f636c656172456e7469746c656d656e742d616e2061637469766520656e7469746044820152701b195b595b9d081b5d5cdd08195e1a5cdd607a1b6064820152608401610432565b63ffffffff81166000908152600460205260409020600101546001600160a01b031633146118d15760405162461bcd60e51b8152602060048201526044602482018190527f636c656172456e7469746c656d656e742d6f6e6c792074686520656e7469746c908201527f656420616464726573732063616e20636c6561722074686520656e7469746c656064820152631b595b9d60e21b608482015260a401610432565b610f8681611fa8565b63ffffffff81166000908152600460205260409020546001600160a01b039081169083168114156119615760405162461bcd60e51b815260206004820152602b60248201527f617070726f76652d617070726f76616c20746f2063757272656e742062656e6560448201526a3334b1b4b0b627bbb732b960a91b6064820152608401610432565b336001600160a01b038216146119d85760405162461bcd60e51b815260206004820152603660248201527f617070726f76652d617070726f76652063616c6c6572206973206e6f74206375604482015275393932b73a103132b732b334b1b4b0b61037bbb732b960511b6064820152608401610432565b610c168383611bf7565b6119f08686868686866115fe565b63ffffffff8416600090815260046020526040902054610449908590889088906001600160a01b03165b611a2384610fcb565b15611ab55760405162461bcd60e51b815260206004820152605660248201527f5f7265676973746572456e7469746c656d656e742d6578697374696e6720656e60448201527f7469746c656d656e74206d75737420626520636c6561726564206265666f7265606482015275207265676973746572696e672061206e6577206f6e6560501b608482015260a401610432565b428263ffffffff1611611b2d5760405162461bcd60e51b815260206004820152603a60248201527f5f7265676973746572456e7469746c656d656e742d656e7469746c656d656e74604482015279206d7573742065787069726520696e207468652066757475726560301b6064820152608401610432565b60408051606080820183526001600160a01b03848116808452878216602080860182815263ffffffff8a8116888a018181528e83166000818152600487528c90209a518b546001600160a01b031916908a16178b5593516001909a01805491519a9098166001600160c01b031990911617600160a01b9990921698909802179094558651938452830152938101929092528101919091527f595e586d44ea8c92723ac9fdd4897e8a5ee6d55e2bad6d386fe7ccbff5912b239060800160405180910390a150505050565b63ffffffff8116600081815260056020908152604080832080546001600160a01b0319166001600160a01b03888116918217909255600490935281842054915192939116917fe26b9b29b95cb706aaebdd86a3524de879b8590b0ba7e61b104f54196bab20319190a45050565b6001600160a01b038116611cd45760405162461bcd60e51b815260206004820152603160248201527f5f73657442656e6566696369616c4f776e65722d6e6577206f776e657220697360448201527020746865207a65726f206164647265737360781b6064820152608401610432565b63ffffffff8216600090815260046020526040812080546001600160a01b0319166001600160a01b038416179055611d0c9083611bf7565b7f183944454934706f9df1285ff0207d23600c244528512cdc01c94f5ec8f601b4828233604051611d3f9392919061240b565b60405180910390a15050565b600154600090610100900460ff1615611d94578160ff166001148015611d705750303b155b611d8c5760405162461bcd60e51b8152600401610432906124e1565b506000919050565b60015460ff808416911610611dbb5760405162461bcd60e51b8152600401610432906124e1565b506001805460ff191660ff9290921691909117815590565b6003546040516331a9108f60e11b815263ffffffff831660048201526000916001600160a01b031690636352211e90602401602060405180830381865afa158015611e22573d6000803e3d6000fd5b505050506040513d601f19601f8201168201806040525081019061038f9190612358565b6040516b08adce8d2e8d8cadacadce8560a31b6020820152771859191c995cdcc818995b99599a58da585b13dddb995c8b60421b602c820152701859191c995cdcc81bdc195c985d1bdc8b607a1b6044820152741859191c995cdcc81d985d5b1d1059191c995cdccb605a1b60558201526e1d5a5b9d0ccc88185cdcd95d12590b608a1b606a8201526c75696e7433322065787069727960981b6079820152602960f81b608682015260009060870160408051601f198184030181528282528051602091820120855186830151878501516060808a01516080808c0151978a01969096526001600160a01b039485169789019790975291831691870191909152169084015263ffffffff91821660a08401521660c082015260e0015b604051602081830303815290604052805190602001209050919050565b6000805460405161190160f01b6020820152602281019190915260428101839052606201611f62565b63ffffffff81166000818152600460209081526040918290206001810180546001600160c01b03191690555482519384526001600160a01b0316908301527fd7aa6a9fe8ec62f38eafaf1c43d6816defbf427c414d3b0e865cb5cdd52a647c910160405180910390a150565b60006020828403121561202657600080fd5b81356001600160e01b03198116811461203e57600080fd5b9392505050565b6001600160a01b0381168114610f8657600080fd5b803563ffffffff81168114610fc657600080fd5b60008060008060008060c0878903121561208757600080fd5b863561209281612045565b95506120a06020880161205a565b94506120ae6040880161205a565b9350606087013560ff811681146120c457600080fd5b9598949750929560808101359460a0909101359350915050565b60008083601f8401126120f057600080fd5b5081356001600160401b0381111561210757600080fd5b60208301915083602082850101111561211f57600080fd5b9250929050565b60008060008060006080868803121561213e57600080fd5b853561214981612045565b9450602086013561215981612045565b93506040860135925060608601356001600160401b0381111561217b57600080fd5b612187888289016120de565b969995985093965092949392505050565b6000602082840312156121aa57600080fd5b61203e8261205a565b600080604083850312156121c657600080fd5b6121cf8361205a565b915060208301356121df81612045565b809150509250929050565b600080604083850312156121fd57600080fd5b82356121cf81612045565b600060a0828403121561221a57600080fd5b50919050565b6000806000806060858703121561223657600080fd5b61223f8561205a565b9350602085013561224f81612045565b925060408501356001600160401b0381111561226a57600080fd5b612276878288016120de565b95989497509550505050565b6000806040838503121561229557600080fd5b82356122a081612045565b91506122ae6020840161205a565b90509250929050565b6000806000606084860312156122cc57600080fd5b83356122d781612045565b925060208401356122e781612045565b91506122f56040850161205a565b90509250925092565b6000806000806080858703121561231457600080fd5b843561231f81612045565b9350602085013561232f81612045565b925061233d6040860161205a565b9150606085013561234d81612045565b939692955090935050565b60006020828403121561236a57600080fd5b815161203e81612045565b6001600160a01b03929092168252602082015260400190565b6000602082840312156123a057600080fd5b8151801515811461203e57600080fd5b6020808252601f908201527f5265656e7472616e637947756172643a207265656e7472616e742063616c6c00604082015260600190565b6001600160a01b039384168152919092166020820152604081019190915260600190565b63ffffffff9390931683526001600160a01b03918216602084015216604082015260600190565b60006020828403121561244457600080fd5b813561203e81612045565b81546001600160a01b03908116825260019290920154918216602082015260a09190911c63ffffffff16604082015260600190565b6001600160a01b0387811682526020820187905285811660408301528416606082015260a06080820181905281018290526000828460c0840137600060c0848401015260c0601f19601f8501168301019050979650505050505050565b6020808252602e908201527f496e697469616c697a61626c653a20636f6e747261637420697320616c72656160408201526d191e481a5b9a5d1a585b1a5e995960921b60608201526080019056fe79ab5c29ad5c9805473ba77c80b4472dd5721aae58e97158a7bbc53205ee7180a264697066735822122019cacf6d4877c733e20ae34489bd7bd1259ca90a435356574a311b65270f156264736f6c634300080a0033",
  "devdoc": {
    "author": "Jake Nyquist - j@hook.xyz",
    "custom:coauthor": "Regynald Augustin-regy@hook.xyz",
    "details": "This contract implements ERC721Receiver This contract views the tokenId for the asset on the ERC721 contract as the corresponding assetId for that asset when deposited into the vault",
    "kind": "dev",
    "methods": {
      "approveOperator(address,uint32)": {
        "details": "See {IHookVault-approveOperator}."
      },
      "assetTokenId(uint32)": {
        "details": "returns the underlying token ID for a given asset. In this case the tokenId == the assetId"
      },
      "clearEntitlement(uint32)": {
        "details": "See {IHookERC721Vault-clearEntitlement}.This can only be called if an entitlement currently exists, otherwise it would be a no-op"
      },
      "clearEntitlementAndDistribute(uint32,address)": {
        "details": "See {IHookERC721Vault-clearEntitlementAndDistribute}.The entitlement must be exist, and must be called by the {operator}. The operator can specify a intended receiver, which should match the beneficialOwner. The function will throw if the receiver and owner do not match.",
        "params": {
          "assetId": "the id of the specific vaulted asset",
          "receiver": "the intended receiver of the asset"
        }
      },
      "entitlementExpiration(uint32)": {
        "details": "See {IHookVault-entitlementExpiration}."
      },
      "flashLoan(uint32,address,bytes)": {
        "details": "See {IHookERC721Vault-flashLoan}."
      },
      "getApprovedOperator(uint32)": {
        "details": "See {IHookVault-getApprovedOperator}."
      },
      "getBeneficialOwner(uint32)": {
        "details": "See {IHookERC721Vault-getBeneficialOwner}."
      },
      "getCurrentEntitlementOperator(uint32)": {
        "params": {
          "assetId": "the id of the underlying asset"
        }
      },
      "getHoldsAsset(uint32)": {
        "details": "See {IHookERC721Vault-getHoldsAsset}."
      },
      "grantEntitlement((address,address,address,uint32,uint32))": {
        "details": "See {IHookERC721Vault-grantEntitlement}.The entitlement must be sent by the current beneficial owner"
      },
      "imposeEntitlement(address,uint32,uint32,uint8,bytes32,bytes32)": {
        "details": "See {IHookERC721Vault-imposeEntitlement}.The entitlement must be signed by the current beneficial owner of the contract. Anyone can submit the entitlement"
      },
      "onERC721Received(address,address,uint256,bytes)": {
        "details": "See {IERC721Receiver-onERC721Received}. Always returns `IERC721Receiver.onERC721Received.selector`."
      },
      "setBeneficialOwner(uint32,address)": {
        "details": "See {IHookERC721Vault-setBeneficialOwner}. setBeneficialOwner can only be called by the entitlementContract if there is an activeEntitlement."
      },
      "supportsInterface(bytes4)": {
        "details": "See {IERC165-supportsInterface}."
      },
      "validateEntitlementSignature(address,uint32,uint32,uint8,bytes32,bytes32)": {
        "details": "Validates that a specific signature is actually the entitlement EIP-712 signed by the beneficial owner specified in the entitlement."
      },
      "withdrawalAsset(uint32)": {
        "details": "See {IHookERC721Vault-withdrawalAsset}.withdrawals can only be performed to the beneficial owner if there are no entitlements"
      }
    },
    "stateVariables": {
      "_nftContract": {
        "details": "these are the NFT contract address and tokenId the vault is covering"
      },
      "assets": {
        "details": "the current entitlement applied to each asset, which includes the beneficialOwner for the asset if the entitled operator field is non-null, it means an unreleased entitlement has been applied; however, that entitlement could still be expired (if block.timestamp > entitlement.expiry)"
      }
    },
    "title": "HookMultiVault-implementation of a Vault for multiple assets within a NFT collection, with entitlements.",
    "version": 1
  },
  "userdoc": {
    "events": {
      "Approval(address,address,uint32)": {
        "notice": "Emitted when `beneficialOwner` enables `approved` to manage the `assetId` asset."
      },
      "AssetFlashLoaned(address,uint256,address)": {
        "notice": "emitted after an asset is flash loaned by its beneficial owner."
      },
      "AssetReceived(address,address,address,uint32)": {
        "notice": "emitted when an asset is added into the vault"
      },
      "AssetWithdrawn(uint32,address,address)": {
        "notice": "emitted when an asset is withdrawn from the vault"
      },
      "BeneficialOwnerSet(uint32,address,address)": {
        "notice": "emitted when the beneficial owner of an asset changes"
      },
      "EntitlementCleared(uint256,address)": {
        "notice": "emitted when an entitlement is cleared from an asset"
      },
      "EntitlementImposed(uint32,address,uint32,address)": {
        "notice": "emitted when an entitlement is placed on an asset"
      }
    },
    "kind": "user",
    "methods": {
      "constructor": {
        "notice": "Upgradeable Implementations cannot have a constructor, so we call the initialize instead;"
      },
      "getCurrentEntitlementOperator(uint32)": {
        "notice": "looks up the current operator of an entitlement on an asset"
      },
      "initialize(address,address)": {
        "notice": "-constructor"
      }
    },
    "notice": "HookVault holds a multiple NFT asset in escrow on behalf of multiple beneficial owners. Other contracts are able to register \"entitlements\" for a fixed period of time on the asset, which give them the ability to change the vault's owner.",
    "version": 1
  },
  "storageLayout": {
    "storage": [
      {
        "astId": 10219,
        "contract": "src/HookERC721MultiVaultImplV1.sol:HookERC721MultiVaultImplV1",
        "label": "EIP712_DOMAIN_SEPARATOR",
        "offset": 0,
        "slot": "0",
        "type": "t_bytes32"
      },
      {
        "astId": 894,
        "contract": "src/HookERC721MultiVaultImplV1.sol:HookERC721MultiVaultImplV1",
        "label": "_initialized",
        "offset": 0,
        "slot": "1",
        "type": "t_uint8"
      },
      {
        "astId": 897,
        "contract": "src/HookERC721MultiVaultImplV1.sol:HookERC721MultiVaultImplV1",
        "label": "_initializing",
        "offset": 1,
        "slot": "1",
        "type": "t_bool"
      },
      {
        "astId": 1132,
        "contract": "src/HookERC721MultiVaultImplV1.sol:HookERC721MultiVaultImplV1",
        "label": "_status",
        "offset": 0,
        "slot": "2",
        "type": "t_uint256"
      },
      {
        "astId": 5278,
        "contract": "src/HookERC721MultiVaultImplV1.sol:HookERC721MultiVaultImplV1",
        "label": "_nftContract",
        "offset": 0,
        "slot": "3",
        "type": "t_contract(IERC721)2143"
      },
      {
        "astId": 5291,
        "contract": "src/HookERC721MultiVaultImplV1.sol:HookERC721MultiVaultImplV1",
        "label": "assets",
        "offset": 0,
        "slot": "4",
        "type": "t_mapping(t_uint32,t_struct(Asset)5285_storage)"
      },
      {
        "astId": 5295,
        "contract": "src/HookERC721MultiVaultImplV1.sol:HookERC721MultiVaultImplV1",
        "label": "_assetApprovals",
        "offset": 0,
        "slot": "5",
        "type": "t_mapping(t_uint32,t_address)"
      },
      {
        "astId": 5298,
        "contract": "src/HookERC721MultiVaultImplV1.sol:HookERC721MultiVaultImplV1",
        "label": "_hookProtocol",
        "offset": 0,
        "slot": "6",
        "type": "t_contract(IHookProtocol)7895"
      }
    ],
    "types": {
      "t_address": {
        "encoding": "inplace",
        "label": "address",
        "numberOfBytes": "20"
      },
      "t_bool": {
        "encoding": "inplace",
        "label": "bool",
        "numberOfBytes": "1"
      },
      "t_bytes32": {
        "encoding": "inplace",
        "label": "bytes32",
        "numberOfBytes": "32"
      },
      "t_contract(IERC721)2143": {
        "encoding": "inplace",
        "label": "contract IERC721",
        "numberOfBytes": "20"
      },
      "t_contract(IHookProtocol)7895": {
        "encoding": "inplace",
        "label": "contract IHookProtocol",
        "numberOfBytes": "20"
      },
      "t_mapping(t_uint32,t_address)": {
        "encoding": "mapping",
        "key": "t_uint32",
        "label": "mapping(uint32 => address)",
        "numberOfBytes": "32",
        "value": "t_address"
      },
      "t_mapping(t_uint32,t_struct(Asset)5285_storage)": {
        "encoding": "mapping",
        "key": "t_uint32",
        "label": "mapping(uint32 => struct HookERC721MultiVaultImplV1.Asset)",
        "numberOfBytes": "32",
        "value": "t_struct(Asset)5285_storage"
      },
      "t_struct(Asset)5285_storage": {
        "encoding": "inplace",
        "label": "struct HookERC721MultiVaultImplV1.Asset",
        "members": [
          {
            "astId": 5280,
            "contract": "src/HookERC721MultiVaultImplV1.sol:HookERC721MultiVaultImplV1",
            "label": "beneficialOwner",
            "offset": 0,
            "slot": "0",
            "type": "t_address"
          },
          {
            "astId": 5282,
            "contract": "src/HookERC721MultiVaultImplV1.sol:HookERC721MultiVaultImplV1",
            "label": "operator",
            "offset": 0,
            "slot": "1",
            "type": "t_address"
          },
          {
            "astId": 5284,
            "contract": "src/HookERC721MultiVaultImplV1.sol:HookERC721MultiVaultImplV1",
            "label": "expiry",
            "offset": 20,
            "slot": "1",
            "type": "t_uint32"
          }
        ],
        "numberOfBytes": "64"
      },
      "t_uint256": {
        "encoding": "inplace",
        "label": "uint256",
        "numberOfBytes": "32"
      },
      "t_uint32": {
        "encoding": "inplace",
        "label": "uint32",
        "numberOfBytes": "4"
      },
      "t_uint8": {
        "encoding": "inplace",
        "label": "uint8",
        "numberOfBytes": "1"
      }
    }
  }
}