{
  "address": "0x63db2F8F5bdA33e738B25142F2375D7161478e4b",
  "abi": [
    {
      "inputs": [
        {
          "internalType": "uint256",
          "name": "strike",
          "type": "uint256"
        },
        {
          "internalType": "uint256",
          "name": "expiration",
          "type": "uint256"
        }
      ],
      "name": "renderSVG1",
      "outputs": [
        {
          "internalType": "bytes",
          "name": "",
          "type": "bytes"
        }
      ],
      "stateMutability": "pure",
      "type": "function"
    },
    {
      "inputs": [
        {
          "internalType": "address",
          "name": "underlyingAddress",
          "type": "address"
        },
        {
          "internalType": "uint256",
          "name": "underlyingTokenId",
          "type": "uint256"
        }
      ],
      "name": "renderSVG2",
      "outputs": [
        {
          "internalType": "bytes",
          "name": "",
          "type": "bytes"
        }
      ],
      "stateMutability": "pure",
      "type": "function"
    },
    {
      "inputs": [
        {
          "internalType": "uint256",
          "name": "instrumentId",
          "type": "uint256"
        },
        {
          "internalType": "address",
          "name": "underlyingAddress",
          "type": "address"
        },
        {
          "internalType": "uint256",
          "name": "underlyingTokenId",
          "type": "uint256"
        },
        {
          "internalType": "uint256",
          "name": "instrumentExpiration",
          "type": "uint256"
        },
        {
          "internalType": "uint256",
          "name": "instrumentStrike",
          "type": "uint256"
        },
        {
          "internalType": "uint256",
          "name": "transfers",
          "type": "uint256"
        }
      ],
      "name": "tokenURIERC721",
      "outputs": [
        {
          "internalType": "string",
          "name": "",
          "type": "string"
        }
      ],
      "stateMutability": "pure",
      "type": "function"
    }
  ],
  "transactionHash": "0x84770415b4438f8bc3b361b36ce90e873fc272b908076f4d41ceb99f7a230a2a",
  "args": [],
  "numDeployments": 1,
  "solcInputHash": "27cdac36318da08ab52a4db662ee1263",
  "bytecode": "0x61289a61003a600b82828239805160001a60731461002d57634e487b7160e01b600052600060045260246000fd5b30600052607381538281f3fe730000000000000000000000000000000000000000301460806040526004361061004b5760003560e01c80630413b6b8146100505780635b90315214610079578063f4824b6e1461008c575b600080fd5b61006361005e366004610963565b61009f565b60405161007091906109e1565b60405180910390f35b610063610087366004610a12565b610119565b61006361009a366004610a60565b6101cd565b606060008060006100af85610392565b919450925090506100d06100cb670de0b6b3a764000088610ab6565b6103b8565b6100d9846103b8565b6100e2846103b8565b6100eb846103b8565b6040516020016100fe9493929190610ae6565b60405160208183030381529060405293505050505b92915050565b60606000610127848661009f565b61013188886101cd565b60405160200161014292919061106a565b6040516020818303038152906040529050600061019d6101618a6103b8565b61016a846104bd565b6101778b8b8a8c8b610610565b60405160200161018993929190611099565b6040516020818303038152906040526104bd565b9050806040516020016101b091906111ce565b604051602081830303815290604052925050509695505050505050565b60606101d88361066d565b6101e1836103b8565b6101ea8561066d565b6101f3856103b8565b604051602001610204929190611213565b6040516020818303038152906040527383493600a82f6Fabad936cD0DD2136d999B77b97639d37bc7c6040518163ffffffff1660e01b8152600401600060405180830381865af415801561025c573d6000803e3d6000fd5b505050506040513d6000823e601f3d908101601f1916820160405261028491908101906112ff565b73e3d6c82701028755aC9e90BDc7D9CC0f3c5F16e8639d37bc7c6040518163ffffffff1660e01b8152600401600060405180830381865af41580156102cd573d6000803e3d6000fd5b505050506040513d6000823e601f3d908101601f191682016040526102f591908101906112ff565b73b46Ff3937Ab8B059B120d87Cd6Ae420c51e6aa85639d37bc7c6040518163ffffffff1660e01b8152600401600060405180830381865af415801561033e573d6000803e3d6000fd5b505050506040513d6000823e601f3d908101601f1916820160405261036691908101906112ff565b60405160200161037b96959493929190611347565b604051602081830303815290604052905092915050565b600080806103ab6103a66201518086610ab6565b6107b4565b9196909550909350915050565b6060816103dc5750506040805180820190915260018152600360fc1b602082015290565b8160005b811561040657806103f0816123ac565b91506103ff9050600a83610ab6565b91506103e0565b6000816001600160401b0381111561042057610420611276565b6040519080825280601f01601f19166020018201604052801561044a576020820181803683370190505b5090505b84156104b55761045f6001836123c7565b915061046c600a866123de565b6104779060306123f2565b60f81b81838151811061048c5761048c61240a565b60200101906001600160f81b031916908160001a9053506104ae600a86610ab6565b945061044e565b949350505050565b60608151600014156104dd57505060408051602081019091526000815290565b6000604051806060016040528060408152602001612805604091399050600060038451600261050c91906123f2565b6105169190610ab6565b610521906004612420565b6001600160401b0381111561053857610538611276565b6040519080825280601f01601f191660200182016040528015610562576020820181803683370190505b509050600182016020820185865187015b808210156105ce576003820191508151603f8160121c168501518453600184019350603f81600c1c168501518453600184019350603f8160061c168501518453600184019350603f8116850151845350600183019250610573565b50506003865106600181146105ea57600281146105fd57610605565b603d6001830353603d6002830353610605565b603d60018303535b509195945050505050565b606061061b836103b8565b6106248761066d565b61062d876103b8565b610636876103b8565b61063f866103b8565b60405160200161065395949392919061243f565b604051602081830303815290604052905095945050505050565b60408051602880825260608281019093526000919060208201818036833701905050905060005b60148110156107ad5760006106aa8260136123c7565b6106b5906008612420565b6106c090600261263a565b6106d3906001600160a01b038716610ab6565b60f81b9050600060108260f81c6106ea9190612646565b60f81b905060008160f81c60106107019190612668565b8360f81c61070f9190612689565b60f81b905061071d82610928565b85610729866002612420565b815181106107395761073961240a565b60200101906001600160f81b031916908160001a90535061075981610928565b85610765866002612420565b6107709060016123f2565b815181106107805761078061240a565b60200101906001600160f81b031916908160001a90535050505080806107a5906123ac565b915050610694565b5092915050565b60008080838162253d8c6107cb8362010bd96126ac565b6107d591906126ac565b9050600062023ab16107e88360046126ed565b6107f29190612772565b905060046108038262023ab16126ed565b61080e9060036126ac565b6108189190612772565b61082290836127a0565b9150600062164b096108358460016126ac565b61084190610fa06126ed565b61084b9190612772565b9050600461085b826105b56126ed565b6108659190612772565b61086f90846127a0565b61087a90601f6126ac565b9250600061098f61088c8560506126ed565b6108969190612772565b9050600060506108a88361098f6126ed565b6108b29190612772565b6108bc90866127a0565b90506108c9600b83612772565b94506108d685600c6126ed565b6108e18360026126ac565b6108eb91906127a0565b915084836108fa6031876127a0565b6109059060646126ed565b61090f91906126ac565b61091991906126ac565b9a919950975095505050505050565b6000600a60f883901c101561094f5761094660f883901c60306127df565b60f81b92915050565b61094660f883901c60576127df565b919050565b6000806040838503121561097657600080fd5b50508035926020909101359150565b60005b838110156109a0578181015183820152602001610988565b838111156109af576000848401525b50505050565b600081518084526109cd816020860160208601610985565b601f01601f19169290920160200192915050565b6020815260006109f460208301846109b5565b9392505050565b80356001600160a01b038116811461095e57600080fd5b60008060008060008060c08789031215610a2b57600080fd5b86359550610a3b602088016109fb565b95989597505050506040840135936060810135936080820135935060a0909101359150565b60008060408385031215610a7357600080fd5b610a7c836109fb565b946020939093013593505050565b634e487b7160e01b600052601260045260246000fd5b634e487b7160e01b600052601160045260246000fd5b600082610ac557610ac5610a8a565b500490565b60008151610adc818560208601610985565b9290920192915050565b7f3c7376672077696474683d2235303022206865696768743d223530302220766981527f6577426f783d223020302035303020353030222066696c6c3d226e6f6e65222060208201527f786d6c6e733d22687474703a2f2f7777772e77332e6f72672f323030302f737660408201527f672220786d6c6e733a786c696e6b3d22687474703a2f2f7777772e77332e6f7260608201527f672f313939392f786c696e6b223e3c726563742077696474683d22353030222060808201527f6865696768743d22353030222066696c6c3d2223464145364339222f3e3c672060a08201527f66696c7465723d2275726c282366696c746572305f645f3730325f313537292260c08201527f3e3c7265637420783d2233302220793d223330222077696474683d223434302260e08201527f206865696768743d22343430222072783d223330222066696c6c3d22234646466101008201527f324530222073686170652d72656e646572696e673d22637269737045646765736101208201527f222f3e3c7265637420783d2236302220793d223630222077696474683d2231386101408201527f3722206865696768743d22313837222072783d223134222066696c6c3d22626c6101608201527f61636b222066696c6c2d6f7061636974793d22302e32222f3e3c7265637420786101808201527f3d2236302220793d223630222077696474683d2231383722206865696768743d6101a08201527f22313837222072783d223134222066696c6c3d2275726c28237061747465726e6101c082015264181491179f60d91b6101e08201527f3c746578742066696c6c3d22234531363930302220666f6e742d73697a653d226101e58201527f32342220666f6e742d7765696768743d22333030223e3c747370616e20783d2261020582015270191b1c91103c9e9118989997191c1a111f60791b6102258201526000611060610ede610ed8610ec5610ed281610ebf610dbf6102368a018e610aca565b7f204554483c2f747370616e3e3c2f746578743e3c746578742066696c6c3d222381527f3141354236432220666f6e742d73697a653d2231362220666f6e742d7765696760208201527f68743d22333030223e3c747370616e20783d223236392220793d223133372e3260408201527f3834223e537472696b652050726963653c2f747370616e3e3c2f746578743e3c60608201527f746578742066696c6c3d22234531363930302220666f6e742d73697a653d223260808201527f342220666f6e742d7765696768743d22333030223e3c747370616e20783d223260a08201526f1b1c91103c9e91189c1a17191c1a111f60811b60c082015260d00190565b8b610aca565b602d60f81b815260010190565b88610aca565b85610aca565b60008051602061284583398151915281527f36432220666f6e742d73697a653d2231362220666f6e742d7765696768743d2260208201527f333030223e3c747370616e20783d223236392220793d223230382e323834223e60408201527f45787069726174696f6e20646174653c2f747370616e3e3c2f746578743e3c7460608201527f6578742066696c6c3d22233141354236432220666f6e742d73697a653d22313260808201527f2220666f6e742d7765696768743d22333030223e3c747370616e20783d22363260a08201527f2220793d223331342e333536223e556e6465726c79696e6720436f6e7472616360c08201527f7420416464726573733c2f747370616e3e3c2f746578743e3c7465787420666960e08201527f6c6c3d22234531363930302220666f6e742d73697a653d2231362220666f6e746101008201527f2d7765696768743d22333030223e3c747370616e20783d2236322220793d2232610120820152671c9c17199a9b111f60c11b6101408201526101480190565b9695505050505050565b6000835161107c818460208801610985565b835190830190611090818360208801610985565b01949350505050565b721ec89b985b59488e880893dc1d1a5bdb881259606a1b815283516000906110c8816013850160208901610985565b7f222c20226465736372697074696f6e223a20224f7074696f6e20496e737472756013918401918201527f6d656e74204e4654206f6e20486f6f6b3a20746865204e46542d6e617469766560338201527f2063616c6c206f7074696f6e732070726f746f636f6c2e204c6561726e206d6f60538201527f72652061742068747470733a2f2f686f6f6b2e78797a222c2022696d6167652260738201527f3a2022646174613a696d6167652f7376672b786d6c3b6261736536342c0000006093820152845161119d8160b0840160208901610985565b84519101906111b38160b0840160208801610985565b607d60f81b60b0929091019182015260b10195945050505050565b7f646174613a6170706c69636174696f6e2f6a736f6e3b6261736536342c00000081526000825161120681601d850160208701610985565b91909101601d0192915050565b7a68747470733a2f2f6170702e686f6f6b2e78797a2f696d6167652f60281b81526000835161124981601b850160208801610985565b602f60f81b601b91840191820152835161126a81601c840160208801610985565b01601c01949350505050565b634e487b7160e01b600052604160045260246000fd5b60006001600160401b03808411156112a6576112a6611276565b604051601f8501601f19908116603f011681019082821181831017156112ce576112ce611276565b816040528093508581528686860111156112e757600080fd5b6112f5866020830187610985565b5050509392505050565b60006020828403121561131157600080fd5b81516001600160401b0381111561132757600080fd5b8201601f8101841361133857600080fd5b6104b58482516020840161128c565b60008751611359818460208c01610985565b808301905060008051602061284583398151915281527f36432220666f6e742d73697a653d2231322220666f6e742d7765696768743d2260208201527f333030223e3c747370616e20783d2236322220793d223335382e333536223e5560408201527f6e6465726c79696e6720546f6b656e2049443c2f747370616e3e3c2f7465787460608201527f3e3c746578742066696c6c3d22234531363930302220666f6e742d73697a653d60808201527f2231362220666f6e742d7765696768743d22333030223e3c747370616e20783d60a082015270111b1911103c9e91199a1917199a9b111f60791b60c0820152875161145a8160d1840160208c01610985565b7f3c2f747370616e3e3c2f746578743e3c746578742066696c6c3d22234531363960d192909101918201527f30302220666f6e742d73697a653d223136223e3c747370616e20783d2236302260f18201527f20793d223431362e333536223e43616c6c204f7074696f6e3c2f747370616e3e6101118201527f3c747370616e20783d2236302220793d223433352e333536223e496e737472756101318201527f6d656e74204e46543c2f747370616e3e3c2f746578743e3c6720636c69702d706101518201527f6174683d2275726c2823636c6970305f3730325f31353729223e3c70617468206101718201527f643d224d3331322e363637203433392e34323156343030483331392e393239566101918201527f3431362e313338433332312e333539203431342e303337203332342e303636206101b18201527f3431322e353635203332372e353133203431322e353635433333332e393239206101d18201527f3431322e353635203333372e373435203431372e3139203333372e37343520346101f18201527f32342e303234563433392e343235483333302e343832563432352e32333243336102118201527f33302e343832203432312e343436203332382e383337203431392e31333520336102318201527f32352e383136203431392e313335433332322e343234203431392e31333520336102518201527f31392e393332203432312e353534203331392e393332203432362e35393956346102718201527f33392e343235483331322e363637563433392e3432315a222066696c6c3d22236102918201527f453136393030222f3e3c7061746820643d224d3334312e363531203432362e326102b18201527f3832433334312e363531203431382e363038203334372e393037203431322e356102d18201527f3632203335352e353936203431322e353632433336332e323835203431322e356102f18201527f3632203336392e353431203431382e363038203336392e353431203432362e326103118201527f3832433336392e353431203433332e393535203336332e323835203434302e306103318201527f3031203335352e353936203434302e303031433334372e393037203434302e306103518201527f3031203334312e363531203433342e303039203334312e363531203432362e326103718201527f38325a4d3336322e313639203432362e323832433336322e313639203432322e6103918201527f323335203335392e3336203431392e323932203335352e353936203431392e326103b18201527f3932433335312e383332203431392e323932203334382e393638203432322e326103d18201527f3335203334382e393638203432362e323832433334382e393638203433302e336103f18201527f3238203335312e373737203433332e323731203335352e353936203433332e326104118201527f3731433335392e343135203433332e323731203336322e313639203433302e336104318201527f3238203336322e313639203432362e3238325a222066696c6c3d2223453136396104518201527f3030222f3e3c7061746820643d224d3337322e313738203432362e32383243336104718201527f37322e313738203431382e363038203337382e343334203431322e35363220336104918201527f38362e313233203431322e353632433339332e383132203431322e35363220346104b18201527f30302e303638203431382e363038203430302e303638203432362e32383243346104d18201527f30302e303638203433332e393535203339332e383132203434302e30303120336104f18201527f38362e313233203434302e303031433337382e343334203434302e30303120336105118201527f37322e313738203433342e303039203337322e313738203432362e32383256346105318201527f32362e3238325a4d3339322e363937203432362e323832433339322e363937206105518201527f3432322e323335203338392e383838203431392e323932203338362e313233206105718201527f3431392e323932433338322e333539203431392e323932203337392e343935206105918201527f3432322e323335203337392e343935203432362e323832433337392e343935206105b18201527f3433302e333238203338322e333034203433332e323731203338362e313233206105d18201527f3433332e323731433338392e393432203433332e323731203339322e363937206105f18201527f3433302e333238203339322e363937203432362e323832563432362e3238325a6106118201527f222066696c6c3d2223453136393030222f3e3c7061746820643d224d3431312e6106318201527f323733203432372e333333563433392e343231483430342e30315634303048346106518201527f31312e323733563432322e3831334c3431392e383633203431332e31344834326106718201527f382e3631314c3431382e313132203432342e3936384c3433312e3035312034336106918201527f392e343231483432322e3038394c3431312e323733203432372e3333335634326106b18201527f372e3333335a222066696c6c3d2223453136393030222f3e3c7061746820643d6106d18201527f224d3433332e313636203431322e303331483433312e393438563431312e33376106f18201527f33483433352e303834563431322e303331483433332e383539563431352e35336107118201527f37483433332e313636563431322e303331563431322e3033315a222066696c6c6107318201527f3d2223453136393030222f3e3c7061746820643d224d3433362e3432362034316107518201527f312e3337334c3433372e383935203431332e3334344c3433392e3336372034316107718201527f312e333733483433392e393938563431352e353337483433392e3239395634316107918201527f322e3535324c3433372e383938203431342e34344c3433362e343834203431326107b18201527f2e353436563431352e353337483433352e373932563431312e333733483433366107d18201527f2e343233483433362e3432365a222066696c6c3d2223453136393030222f3e3c6107f18201527f2f673e3c2f673e3c646566733e3c66696c7465722069643d2266696c746572306108118201527f5f645f3730325f3135372220783d2231342220793d223230222077696474683d6108318201527f2234373222206865696768743d22343732222066696c746572556e6974733d226108518201527f7573657253706163654f6e5573652220636f6c6f722d696e746572706f6c61746108718201527f696f6e2d66696c746572733d2273524742223e3c6665466c6f6f6420666c6f6f6108918201527f642d6f7061636974793d22302220726573756c743d224261636b67726f756e646108b18201527f496d616765466978222f3e3c6665436f6c6f724d617472697820696e3d22536f6108d18201527f75726365416c7068612220747970653d226d6174726978222076616c7565733d6108f18201527f22302030203020302030203020302030203020302030203020302030203020306109118201527f203020302031323720302220726573756c743d2268617264416c706861222f3e6109318201527f3c66654f66667365742064793d2236222f3e3c6665476175737369616e426c756109518201527f7220737464446576696174696f6e3d2238222f3e3c6665436f6d706f736974656109718201527f20696e323d2268617264416c70686122206f70657261746f723d226f7574222f6109918201527f3e3c6665436f6c6f724d617472697820747970653d226d6174726978222076616109b18201527f6c7565733d2230203020302030203020302030203020302030203020302030206109d18201527f30203020302030203020302e32352030222f3e3c6665426c656e64206d6f64656109f18201527f3d226e6f726d616c2220696e323d224261636b67726f756e64496d6167654669610a118201527f782220726573756c743d22656666656374315f64726f70536861646f775f3730610a318201527f325f313537222f3e3c6665426c656e64206d6f64653d226e6f726d616c222069610a518201527f6e3d22536f75726365477261706869632220696e323d22656666656374315f64610a718201527f726f70536861646f775f3730325f3135372220726573756c743d227368617065610a918201527f222f3e3c2f66696c7465723e3c7061747465726e2069643d227061747465726e610ab18201527f3022207061747465726e436f6e74656e74556e6974733d226f626a656374426f610ad18201527f756e64696e67426f78222077696474683d223122206865696768743d2231223e610af18201527f3c75736520786c696e6b3a687265663d2223696d616765305f3730325f313537610b118201527f22207472616e73666f726d3d227363616c6528302e3030353334373539333538610b318201527f29222f3e3c2f7061747465726e3e3c636c6970506174682069643d22636c6970610b518201527f305f3730325f313537223e3c726563742077696474683d223132372e33333322610b718201527f206865696768743d223430222066696c6c3d22776869746522207472616e7366610b918201527f6f726d3d227472616e736c617465283331322e3636372034303029222f3e3c2f610bb18201527f636c6970506174683e3c696d6167652069643d22696d616765305f3730325f31610bd18201527f3537222077696474683d2231383722206865696768743d223138372220707265610bf18201527f7365727665417370656374526174696f3d22784d6964594d69642220616c743d610c1182015276113ab73232b9363cb4b7339037333a1110343932b31e9160491b610c3182015261239f6123046122fe610ed26122f861229261227b610c4888018e610aca565b6a1110179f1e39ba3cb6329f60a91b8152600b0190565b7f40666f6e742d66616365207b20666f6e742d66616d696c793a204575636c696481527f2043697263756c617220413b207372633a2075726c2827646174613a666f6e7460208201526d0bdddbd9998c8ed8985cd94d8d0b60921b6040820152604e0190565b8a610aca565b86610aca565b7f272920666f726d61742827776f66663227293b7d2074657874207b20666f6e7481527f2d66616d696c793a204575636c69642043697263756c617220413b207768697460208201527f652d73706163653a207072653b206c65747465722d73706163696e673a202d3060408201527f2e303031656d3b7d3c2f7374796c653e3c2f646566733e3c2f7376673e0000006060820152607d0190565b9998505050505050505050565b60006000198214156123c0576123c0610aa0565b5060010190565b6000828210156123d9576123d9610aa0565b500390565b6000826123ed576123ed610a8a565b500690565b6000821982111561240557612405610aa0565b500190565b634e487b7160e01b600052603260045260246000fd5b600081600019048311821515161561243a5761243a610aa0565b500290565b7001116101132bc3834b930ba34b7b7111d1607d1b8152855160009061246c816011850160208b01610985565b781610113ab73232b9363cb4b733afb0b2323932b9b9911d101160391b60119184019182015286516124a581602a840160208b01610985565b780111610113ab73232b9363cb4b733afba37b5b2b724b2111d1603d1b602a929091019182015285516124df816043840160208a01610985565b71016101139ba3934b5b2afb83934b1b2911d160751b604392909101918201528451612512816055840160208901610985565b7301610113a3930b739b332b92fb4b73232bc111d160651b605592909101918201528351612547816069840160208801610985565b01606901979650505050505050565b600181815b8085111561259157816000190482111561257757612577610aa0565b8085161561258457918102915b93841c939080029061255b565b509250929050565b6000826125a857506001610113565b816125b557506000610113565b81600181146125cb57600281146125d5576125f1565b6001915050610113565b60ff8411156125e6576125e6610aa0565b50506001821b610113565b5060208310610133831016604e8410600b8410161715612614575081810a610113565b61261e8383612556565b806000190482111561263257612632610aa0565b029392505050565b60006109f48383612599565b600060ff83168061265957612659610a8a565b8060ff84160491505092915050565b600060ff821660ff84168160ff048111821515161561263257612632610aa0565b600060ff821660ff8416808210156126a3576126a3610aa0565b90039392505050565b600080821280156001600160ff1b03849003851316156126ce576126ce610aa0565b600160ff1b83900384128116156126e7576126e7610aa0565b50500190565b60006001600160ff1b038184138284138082168684048611161561271357612713610aa0565b600160ff1b600087128281168783058912161561273257612732610aa0565b6000871292508782058712848416161561274e5761274e610aa0565b8785058712818416161561276457612764610aa0565b505050929093029392505050565b60008261278157612781610a8a565b600160ff1b82146000198414161561279b5761279b610aa0565b500590565b60008083128015600160ff1b8501841216156127be576127be610aa0565b6001600160ff1b03840183138116156127d9576127d9610aa0565b50500390565b600060ff821660ff84168060ff038211156127fc576127fc610aa0565b01939250505056fe4142434445464748494a4b4c4d4e4f505152535455565758595a6162636465666768696a6b6c6d6e6f707172737475767778797a303132333435363738392b2f3c2f747370616e3e3c2f746578743e3c746578742066696c6c3d222331413542a2646970667358221220df42640ab1f44088a2c789912285c0e89f9782f20050530fac8f137ac0c3ac7864736f6c634300080a0033",
  "deployedBytecode": "0x730000000000000000000000000000000000000000301460806040526004361061004b5760003560e01c80630413b6b8146100505780635b90315214610079578063f4824b6e1461008c575b600080fd5b61006361005e366004610963565b61009f565b60405161007091906109e1565b60405180910390f35b610063610087366004610a12565b610119565b61006361009a366004610a60565b6101cd565b606060008060006100af85610392565b919450925090506100d06100cb670de0b6b3a764000088610ab6565b6103b8565b6100d9846103b8565b6100e2846103b8565b6100eb846103b8565b6040516020016100fe9493929190610ae6565b60405160208183030381529060405293505050505b92915050565b60606000610127848661009f565b61013188886101cd565b60405160200161014292919061106a565b6040516020818303038152906040529050600061019d6101618a6103b8565b61016a846104bd565b6101778b8b8a8c8b610610565b60405160200161018993929190611099565b6040516020818303038152906040526104bd565b9050806040516020016101b091906111ce565b604051602081830303815290604052925050509695505050505050565b60606101d88361066d565b6101e1836103b8565b6101ea8561066d565b6101f3856103b8565b604051602001610204929190611213565b60405160208183030381529060405273__$663f2eaf0cb2872415513095c0ca1c82dd$__639d37bc7c6040518163ffffffff1660e01b8152600401600060405180830381865af415801561025c573d6000803e3d6000fd5b505050506040513d6000823e601f3d908101601f1916820160405261028491908101906112ff565b73__$7f0f876156cafa8187e809df55b576cdf6$__639d37bc7c6040518163ffffffff1660e01b8152600401600060405180830381865af41580156102cd573d6000803e3d6000fd5b505050506040513d6000823e601f3d908101601f191682016040526102f591908101906112ff565b73__$3ce4a568e5d591d7b99345d076e59dad2b$__639d37bc7c6040518163ffffffff1660e01b8152600401600060405180830381865af415801561033e573d6000803e3d6000fd5b505050506040513d6000823e601f3d908101601f1916820160405261036691908101906112ff565b60405160200161037b96959493929190611347565b604051602081830303815290604052905092915050565b600080806103ab6103a66201518086610ab6565b6107b4565b9196909550909350915050565b6060816103dc5750506040805180820190915260018152600360fc1b602082015290565b8160005b811561040657806103f0816123ac565b91506103ff9050600a83610ab6565b91506103e0565b6000816001600160401b0381111561042057610420611276565b6040519080825280601f01601f19166020018201604052801561044a576020820181803683370190505b5090505b84156104b55761045f6001836123c7565b915061046c600a866123de565b6104779060306123f2565b60f81b81838151811061048c5761048c61240a565b60200101906001600160f81b031916908160001a9053506104ae600a86610ab6565b945061044e565b949350505050565b60608151600014156104dd57505060408051602081019091526000815290565b6000604051806060016040528060408152602001612805604091399050600060038451600261050c91906123f2565b6105169190610ab6565b610521906004612420565b6001600160401b0381111561053857610538611276565b6040519080825280601f01601f191660200182016040528015610562576020820181803683370190505b509050600182016020820185865187015b808210156105ce576003820191508151603f8160121c168501518453600184019350603f81600c1c168501518453600184019350603f8160061c168501518453600184019350603f8116850151845350600183019250610573565b50506003865106600181146105ea57600281146105fd57610605565b603d6001830353603d6002830353610605565b603d60018303535b509195945050505050565b606061061b836103b8565b6106248761066d565b61062d876103b8565b610636876103b8565b61063f866103b8565b60405160200161065395949392919061243f565b604051602081830303815290604052905095945050505050565b60408051602880825260608281019093526000919060208201818036833701905050905060005b60148110156107ad5760006106aa8260136123c7565b6106b5906008612420565b6106c090600261263a565b6106d3906001600160a01b038716610ab6565b60f81b9050600060108260f81c6106ea9190612646565b60f81b905060008160f81c60106107019190612668565b8360f81c61070f9190612689565b60f81b905061071d82610928565b85610729866002612420565b815181106107395761073961240a565b60200101906001600160f81b031916908160001a90535061075981610928565b85610765866002612420565b6107709060016123f2565b815181106107805761078061240a565b60200101906001600160f81b031916908160001a90535050505080806107a5906123ac565b915050610694565b5092915050565b60008080838162253d8c6107cb8362010bd96126ac565b6107d591906126ac565b9050600062023ab16107e88360046126ed565b6107f29190612772565b905060046108038262023ab16126ed565b61080e9060036126ac565b6108189190612772565b61082290836127a0565b9150600062164b096108358460016126ac565b61084190610fa06126ed565b61084b9190612772565b9050600461085b826105b56126ed565b6108659190612772565b61086f90846127a0565b61087a90601f6126ac565b9250600061098f61088c8560506126ed565b6108969190612772565b9050600060506108a88361098f6126ed565b6108b29190612772565b6108bc90866127a0565b90506108c9600b83612772565b94506108d685600c6126ed565b6108e18360026126ac565b6108eb91906127a0565b915084836108fa6031876127a0565b6109059060646126ed565b61090f91906126ac565b61091991906126ac565b9a919950975095505050505050565b6000600a60f883901c101561094f5761094660f883901c60306127df565b60f81b92915050565b61094660f883901c60576127df565b919050565b6000806040838503121561097657600080fd5b50508035926020909101359150565b60005b838110156109a0578181015183820152602001610988565b838111156109af576000848401525b50505050565b600081518084526109cd816020860160208601610985565b601f01601f19169290920160200192915050565b6020815260006109f460208301846109b5565b9392505050565b80356001600160a01b038116811461095e57600080fd5b60008060008060008060c08789031215610a2b57600080fd5b86359550610a3b602088016109fb565b95989597505050506040840135936060810135936080820135935060a0909101359150565b60008060408385031215610a7357600080fd5b610a7c836109fb565b946020939093013593505050565b634e487b7160e01b600052601260045260246000fd5b634e487b7160e01b600052601160045260246000fd5b600082610ac557610ac5610a8a565b500490565b60008151610adc818560208601610985565b9290920192915050565b7f3c7376672077696474683d2235303022206865696768743d223530302220766981527f6577426f783d223020302035303020353030222066696c6c3d226e6f6e65222060208201527f786d6c6e733d22687474703a2f2f7777772e77332e6f72672f323030302f737660408201527f672220786d6c6e733a786c696e6b3d22687474703a2f2f7777772e77332e6f7260608201527f672f313939392f786c696e6b223e3c726563742077696474683d22353030222060808201527f6865696768743d22353030222066696c6c3d2223464145364339222f3e3c672060a08201527f66696c7465723d2275726c282366696c746572305f645f3730325f313537292260c08201527f3e3c7265637420783d2233302220793d223330222077696474683d223434302260e08201527f206865696768743d22343430222072783d223330222066696c6c3d22234646466101008201527f324530222073686170652d72656e646572696e673d22637269737045646765736101208201527f222f3e3c7265637420783d2236302220793d223630222077696474683d2231386101408201527f3722206865696768743d22313837222072783d223134222066696c6c3d22626c6101608201527f61636b222066696c6c2d6f7061636974793d22302e32222f3e3c7265637420786101808201527f3d2236302220793d223630222077696474683d2231383722206865696768743d6101a08201527f22313837222072783d223134222066696c6c3d2275726c28237061747465726e6101c082015264181491179f60d91b6101e08201527f3c746578742066696c6c3d22234531363930302220666f6e742d73697a653d226101e58201527f32342220666f6e742d7765696768743d22333030223e3c747370616e20783d2261020582015270191b1c91103c9e9118989997191c1a111f60791b6102258201526000611060610ede610ed8610ec5610ed281610ebf610dbf6102368a018e610aca565b7f204554483c2f747370616e3e3c2f746578743e3c746578742066696c6c3d222381527f3141354236432220666f6e742d73697a653d2231362220666f6e742d7765696760208201527f68743d22333030223e3c747370616e20783d223236392220793d223133372e3260408201527f3834223e537472696b652050726963653c2f747370616e3e3c2f746578743e3c60608201527f746578742066696c6c3d22234531363930302220666f6e742d73697a653d223260808201527f342220666f6e742d7765696768743d22333030223e3c747370616e20783d223260a08201526f1b1c91103c9e91189c1a17191c1a111f60811b60c082015260d00190565b8b610aca565b602d60f81b815260010190565b88610aca565b85610aca565b60008051602061284583398151915281527f36432220666f6e742d73697a653d2231362220666f6e742d7765696768743d2260208201527f333030223e3c747370616e20783d223236392220793d223230382e323834223e60408201527f45787069726174696f6e20646174653c2f747370616e3e3c2f746578743e3c7460608201527f6578742066696c6c3d22233141354236432220666f6e742d73697a653d22313260808201527f2220666f6e742d7765696768743d22333030223e3c747370616e20783d22363260a08201527f2220793d223331342e333536223e556e6465726c79696e6720436f6e7472616360c08201527f7420416464726573733c2f747370616e3e3c2f746578743e3c7465787420666960e08201527f6c6c3d22234531363930302220666f6e742d73697a653d2231362220666f6e746101008201527f2d7765696768743d22333030223e3c747370616e20783d2236322220793d2232610120820152671c9c17199a9b111f60c11b6101408201526101480190565b9695505050505050565b6000835161107c818460208801610985565b835190830190611090818360208801610985565b01949350505050565b721ec89b985b59488e880893dc1d1a5bdb881259606a1b815283516000906110c8816013850160208901610985565b7f222c20226465736372697074696f6e223a20224f7074696f6e20496e737472756013918401918201527f6d656e74204e4654206f6e20486f6f6b3a20746865204e46542d6e617469766560338201527f2063616c6c206f7074696f6e732070726f746f636f6c2e204c6561726e206d6f60538201527f72652061742068747470733a2f2f686f6f6b2e78797a222c2022696d6167652260738201527f3a2022646174613a696d6167652f7376672b786d6c3b6261736536342c0000006093820152845161119d8160b0840160208901610985565b84519101906111b38160b0840160208801610985565b607d60f81b60b0929091019182015260b10195945050505050565b7f646174613a6170706c69636174696f6e2f6a736f6e3b6261736536342c00000081526000825161120681601d850160208701610985565b91909101601d0192915050565b7a68747470733a2f2f6170702e686f6f6b2e78797a2f696d6167652f60281b81526000835161124981601b850160208801610985565b602f60f81b601b91840191820152835161126a81601c840160208801610985565b01601c01949350505050565b634e487b7160e01b600052604160045260246000fd5b60006001600160401b03808411156112a6576112a6611276565b604051601f8501601f19908116603f011681019082821181831017156112ce576112ce611276565b816040528093508581528686860111156112e757600080fd5b6112f5866020830187610985565b5050509392505050565b60006020828403121561131157600080fd5b81516001600160401b0381111561132757600080fd5b8201601f8101841361133857600080fd5b6104b58482516020840161128c565b60008751611359818460208c01610985565b808301905060008051602061284583398151915281527f36432220666f6e742d73697a653d2231322220666f6e742d7765696768743d2260208201527f333030223e3c747370616e20783d2236322220793d223335382e333536223e5560408201527f6e6465726c79696e6720546f6b656e2049443c2f747370616e3e3c2f7465787460608201527f3e3c746578742066696c6c3d22234531363930302220666f6e742d73697a653d60808201527f2231362220666f6e742d7765696768743d22333030223e3c747370616e20783d60a082015270111b1911103c9e91199a1917199a9b111f60791b60c0820152875161145a8160d1840160208c01610985565b7f3c2f747370616e3e3c2f746578743e3c746578742066696c6c3d22234531363960d192909101918201527f30302220666f6e742d73697a653d223136223e3c747370616e20783d2236302260f18201527f20793d223431362e333536223e43616c6c204f7074696f6e3c2f747370616e3e6101118201527f3c747370616e20783d2236302220793d223433352e333536223e496e737472756101318201527f6d656e74204e46543c2f747370616e3e3c2f746578743e3c6720636c69702d706101518201527f6174683d2275726c2823636c6970305f3730325f31353729223e3c70617468206101718201527f643d224d3331322e363637203433392e34323156343030483331392e393239566101918201527f3431362e313338433332312e333539203431342e303337203332342e303636206101b18201527f3431322e353635203332372e353133203431322e353635433333332e393239206101d18201527f3431322e353635203333372e373435203431372e3139203333372e37343520346101f18201527f32342e303234563433392e343235483333302e343832563432352e32333243336102118201527f33302e343832203432312e343436203332382e383337203431392e31333520336102318201527f32352e383136203431392e313335433332322e343234203431392e31333520336102518201527f31392e393332203432312e353534203331392e393332203432362e35393956346102718201527f33392e343235483331322e363637563433392e3432315a222066696c6c3d22236102918201527f453136393030222f3e3c7061746820643d224d3334312e363531203432362e326102b18201527f3832433334312e363531203431382e363038203334372e393037203431322e356102d18201527f3632203335352e353936203431322e353632433336332e323835203431322e356102f18201527f3632203336392e353431203431382e363038203336392e353431203432362e326103118201527f3832433336392e353431203433332e393535203336332e323835203434302e306103318201527f3031203335352e353936203434302e303031433334372e393037203434302e306103518201527f3031203334312e363531203433342e303039203334312e363531203432362e326103718201527f38325a4d3336322e313639203432362e323832433336322e313639203432322e6103918201527f323335203335392e3336203431392e323932203335352e353936203431392e326103b18201527f3932433335312e383332203431392e323932203334382e393638203432322e326103d18201527f3335203334382e393638203432362e323832433334382e393638203433302e336103f18201527f3238203335312e373737203433332e323731203335352e353936203433332e326104118201527f3731433335392e343135203433332e323731203336322e313639203433302e336104318201527f3238203336322e313639203432362e3238325a222066696c6c3d2223453136396104518201527f3030222f3e3c7061746820643d224d3337322e313738203432362e32383243336104718201527f37322e313738203431382e363038203337382e343334203431322e35363220336104918201527f38362e313233203431322e353632433339332e383132203431322e35363220346104b18201527f30302e303638203431382e363038203430302e303638203432362e32383243346104d18201527f30302e303638203433332e393535203339332e383132203434302e30303120336104f18201527f38362e313233203434302e303031433337382e343334203434302e30303120336105118201527f37322e313738203433342e303039203337322e313738203432362e32383256346105318201527f32362e3238325a4d3339322e363937203432362e323832433339322e363937206105518201527f3432322e323335203338392e383838203431392e323932203338362e313233206105718201527f3431392e323932433338322e333539203431392e323932203337392e343935206105918201527f3432322e323335203337392e343935203432362e323832433337392e343935206105b18201527f3433302e333238203338322e333034203433332e323731203338362e313233206105d18201527f3433332e323731433338392e393432203433332e323731203339322e363937206105f18201527f3433302e333238203339322e363937203432362e323832563432362e3238325a6106118201527f222066696c6c3d2223453136393030222f3e3c7061746820643d224d3431312e6106318201527f323733203432372e333333563433392e343231483430342e30315634303048346106518201527f31312e323733563432322e3831334c3431392e383633203431332e31344834326106718201527f382e3631314c3431382e313132203432342e3936384c3433312e3035312034336106918201527f392e343231483432322e3038394c3431312e323733203432372e3333335634326106b18201527f372e3333335a222066696c6c3d2223453136393030222f3e3c7061746820643d6106d18201527f224d3433332e313636203431322e303331483433312e393438563431312e33376106f18201527f33483433352e303834563431322e303331483433332e383539563431352e35336107118201527f37483433332e313636563431322e303331563431322e3033315a222066696c6c6107318201527f3d2223453136393030222f3e3c7061746820643d224d3433362e3432362034316107518201527f312e3337334c3433372e383935203431332e3334344c3433392e3336372034316107718201527f312e333733483433392e393938563431352e353337483433392e3239395634316107918201527f322e3535324c3433372e383938203431342e34344c3433362e343834203431326107b18201527f2e353436563431352e353337483433352e373932563431312e333733483433366107d18201527f2e343233483433362e3432365a222066696c6c3d2223453136393030222f3e3c6107f18201527f2f673e3c2f673e3c646566733e3c66696c7465722069643d2266696c746572306108118201527f5f645f3730325f3135372220783d2231342220793d223230222077696474683d6108318201527f2234373222206865696768743d22343732222066696c746572556e6974733d226108518201527f7573657253706163654f6e5573652220636f6c6f722d696e746572706f6c61746108718201527f696f6e2d66696c746572733d2273524742223e3c6665466c6f6f6420666c6f6f6108918201527f642d6f7061636974793d22302220726573756c743d224261636b67726f756e646108b18201527f496d616765466978222f3e3c6665436f6c6f724d617472697820696e3d22536f6108d18201527f75726365416c7068612220747970653d226d6174726978222076616c7565733d6108f18201527f22302030203020302030203020302030203020302030203020302030203020306109118201527f203020302031323720302220726573756c743d2268617264416c706861222f3e6109318201527f3c66654f66667365742064793d2236222f3e3c6665476175737369616e426c756109518201527f7220737464446576696174696f6e3d2238222f3e3c6665436f6d706f736974656109718201527f20696e323d2268617264416c70686122206f70657261746f723d226f7574222f6109918201527f3e3c6665436f6c6f724d617472697820747970653d226d6174726978222076616109b18201527f6c7565733d2230203020302030203020302030203020302030203020302030206109d18201527f30203020302030203020302e32352030222f3e3c6665426c656e64206d6f64656109f18201527f3d226e6f726d616c2220696e323d224261636b67726f756e64496d6167654669610a118201527f782220726573756c743d22656666656374315f64726f70536861646f775f3730610a318201527f325f313537222f3e3c6665426c656e64206d6f64653d226e6f726d616c222069610a518201527f6e3d22536f75726365477261706869632220696e323d22656666656374315f64610a718201527f726f70536861646f775f3730325f3135372220726573756c743d227368617065610a918201527f222f3e3c2f66696c7465723e3c7061747465726e2069643d227061747465726e610ab18201527f3022207061747465726e436f6e74656e74556e6974733d226f626a656374426f610ad18201527f756e64696e67426f78222077696474683d223122206865696768743d2231223e610af18201527f3c75736520786c696e6b3a687265663d2223696d616765305f3730325f313537610b118201527f22207472616e73666f726d3d227363616c6528302e3030353334373539333538610b318201527f29222f3e3c2f7061747465726e3e3c636c6970506174682069643d22636c6970610b518201527f305f3730325f313537223e3c726563742077696474683d223132372e33333322610b718201527f206865696768743d223430222066696c6c3d22776869746522207472616e7366610b918201527f6f726d3d227472616e736c617465283331322e3636372034303029222f3e3c2f610bb18201527f636c6970506174683e3c696d6167652069643d22696d616765305f3730325f31610bd18201527f3537222077696474683d2231383722206865696768743d223138372220707265610bf18201527f7365727665417370656374526174696f3d22784d6964594d69642220616c743d610c1182015276113ab73232b9363cb4b7339037333a1110343932b31e9160491b610c3182015261239f6123046122fe610ed26122f861229261227b610c4888018e610aca565b6a1110179f1e39ba3cb6329f60a91b8152600b0190565b7f40666f6e742d66616365207b20666f6e742d66616d696c793a204575636c696481527f2043697263756c617220413b207372633a2075726c2827646174613a666f6e7460208201526d0bdddbd9998c8ed8985cd94d8d0b60921b6040820152604e0190565b8a610aca565b86610aca565b7f272920666f726d61742827776f66663227293b7d2074657874207b20666f6e7481527f2d66616d696c793a204575636c69642043697263756c617220413b207768697460208201527f652d73706163653a207072653b206c65747465722d73706163696e673a202d3060408201527f2e303031656d3b7d3c2f7374796c653e3c2f646566733e3c2f7376673e0000006060820152607d0190565b9998505050505050505050565b60006000198214156123c0576123c0610aa0565b5060010190565b6000828210156123d9576123d9610aa0565b500390565b6000826123ed576123ed610a8a565b500690565b6000821982111561240557612405610aa0565b500190565b634e487b7160e01b600052603260045260246000fd5b600081600019048311821515161561243a5761243a610aa0565b500290565b7001116101132bc3834b930ba34b7b7111d1607d1b8152855160009061246c816011850160208b01610985565b781610113ab73232b9363cb4b733afb0b2323932b9b9911d101160391b60119184019182015286516124a581602a840160208b01610985565b780111610113ab73232b9363cb4b733afba37b5b2b724b2111d1603d1b602a929091019182015285516124df816043840160208a01610985565b71016101139ba3934b5b2afb83934b1b2911d160751b604392909101918201528451612512816055840160208901610985565b7301610113a3930b739b332b92fb4b73232bc111d160651b605592909101918201528351612547816069840160208801610985565b01606901979650505050505050565b600181815b8085111561259157816000190482111561257757612577610aa0565b8085161561258457918102915b93841c939080029061255b565b509250929050565b6000826125a857506001610113565b816125b557506000610113565b81600181146125cb57600281146125d5576125f1565b6001915050610113565b60ff8411156125e6576125e6610aa0565b50506001821b610113565b5060208310610133831016604e8410600b8410161715612614575081810a610113565b61261e8383612556565b806000190482111561263257612632610aa0565b029392505050565b60006109f48383612599565b600060ff83168061265957612659610a8a565b8060ff84160491505092915050565b600060ff821660ff84168160ff048111821515161561263257612632610aa0565b600060ff821660ff8416808210156126a3576126a3610aa0565b90039392505050565b600080821280156001600160ff1b03849003851316156126ce576126ce610aa0565b600160ff1b83900384128116156126e7576126e7610aa0565b50500190565b60006001600160ff1b038184138284138082168684048611161561271357612713610aa0565b600160ff1b600087128281168783058912161561273257612732610aa0565b6000871292508782058712848416161561274e5761274e610aa0565b8785058712818416161561276457612764610aa0565b505050929093029392505050565b60008261278157612781610a8a565b600160ff1b82146000198414161561279b5761279b610aa0565b500590565b60008083128015600160ff1b8501841216156127be576127be610aa0565b6001600160ff1b03840183138116156127d9576127d9610aa0565b50500390565b600060ff821660ff84168060ff038211156127fc576127fc610aa0565b01939250505056fe4142434445464748494a4b4c4d4e4f505152535455565758595a6162636465666768696a6b6c6d6e6f707172737475767778797a303132333435363738392b2f3c2f747370616e3e3c2f746578743e3c746578742066696c6c3d222331413542a2646970667358221220df42640ab1f44088a2c789912285c0e89f9782f20050530fac8f137ac0c3ac7864736f6c634300080a0033",
  "libraries": {
    "Font1": "0x83493600a82f6Fabad936cD0DD2136d999B77b97",
    "Font2": "0xe3d6c82701028755aC9e90BDc7D9CC0f3c5F16e8",
    "Font3": "0xb46Ff3937Ab8B059B120d87Cd6Ae420c51e6aa85"
  },
  "devdoc": {
    "details": "This contract implements some ERC721 / for hook instruments.",
    "kind": "dev",
    "methods": {
      "tokenURIERC721(uint256,address,uint256,uint256,uint256,uint256)": {
        "details": "this is a basic tokenURI based on the loot contract for an ERC721 (ripped off from LOOT PROJECT)"
      }
    },
    "version": 1
  },
  "userdoc": {
    "kind": "user",
    "methods": {},
    "version": 1
  },
  "storageLayout": {
    "storage": [],
    "types": null
  }
}